{
	"Day-04/code1.sol": {
		"SecureLendingPool": {
			"abi": [
				{
					"anonymous": false,
					"inputs": [
						{
							"indexed": true,
							"internalType": "address",
							"name": "user",
							"type": "address"
						},
						{
							"indexed": false,
							"internalType": "uint256",
							"name": "amount",
							"type": "uint256"
						}
					],
					"name": "Deposited",
					"type": "event"
				},
				{
					"anonymous": false,
					"inputs": [
						{
							"indexed": true,
							"internalType": "address",
							"name": "user",
							"type": "address"
						},
						{
							"indexed": false,
							"internalType": "uint256",
							"name": "amount",
							"type": "uint256"
						}
					],
					"name": "InterestCalculated",
					"type": "event"
				},
				{
					"anonymous": false,
					"inputs": [
						{
							"indexed": true,
							"internalType": "address",
							"name": "user",
							"type": "address"
						},
						{
							"indexed": false,
							"internalType": "uint256",
							"name": "amount",
							"type": "uint256"
						}
					],
					"name": "Withdrawn",
					"type": "event"
				},
				{
					"inputs": [],
					"name": "INTEREST_RATE",
					"outputs": [
						{
							"internalType": "uint256",
							"name": "",
							"type": "uint256"
						}
					],
					"stateMutability": "view",
					"type": "function"
				},
				{
					"inputs": [],
					"name": "WITHDRAWAL_LIMIT",
					"outputs": [
						{
							"internalType": "uint256",
							"name": "",
							"type": "uint256"
						}
					],
					"stateMutability": "view",
					"type": "function"
				},
				{
					"inputs": [
						{
							"internalType": "address",
							"name": "",
							"type": "address"
						}
					],
					"name": "balances",
					"outputs": [
						{
							"internalType": "uint256",
							"name": "",
							"type": "uint256"
						}
					],
					"stateMutability": "view",
					"type": "function"
				},
				{
					"inputs": [
						{
							"internalType": "address",
							"name": "user",
							"type": "address"
						}
					],
					"name": "calculateInterest",
					"outputs": [
						{
							"internalType": "uint256",
							"name": "",
							"type": "uint256"
						}
					],
					"stateMutability": "nonpayable",
					"type": "function"
				},
				{
					"inputs": [
						{
							"internalType": "uint256",
							"name": "_days",
							"type": "uint256"
						}
					],
					"name": "convertDaysToSeconds",
					"outputs": [
						{
							"internalType": "uint256",
							"name": "",
							"type": "uint256"
						}
					],
					"stateMutability": "pure",
					"type": "function"
				},
				{
					"inputs": [],
					"name": "deposit",
					"outputs": [],
					"stateMutability": "payable",
					"type": "function"
				},
				{
					"inputs": [
						{
							"internalType": "address",
							"name": "",
							"type": "address"
						}
					],
					"name": "lastUpdateTime",
					"outputs": [
						{
							"internalType": "uint256",
							"name": "",
							"type": "uint256"
						}
					],
					"stateMutability": "view",
					"type": "function"
				},
				{
					"inputs": [],
					"name": "totalPool",
					"outputs": [
						{
							"internalType": "uint256",
							"name": "",
							"type": "uint256"
						}
					],
					"stateMutability": "view",
					"type": "function"
				},
				{
					"inputs": [
						{
							"internalType": "uint256",
							"name": "amount",
							"type": "uint256"
						}
					],
					"name": "withdraw",
					"outputs": [],
					"stateMutability": "nonpayable",
					"type": "function"
				}
			],
			"devdoc": {
				"kind": "dev",
				"methods": {},
				"version": 1
			},
			"evm": {
				"assembly": "    /* \"Day-04/code1.sol\":126:2504  contract SecureLendingPool is ReentrancyGuard {... */\n  mstore(0x40, 0x80)\n  callvalue\n  dup1\n  iszero\n  tag_1\n  jumpi\n  0x00\n  dup1\n  revert\ntag_1:\n  pop\n    /* \"@openzeppelin/contracts/security/ReentrancyGuard.sol\":1716:1717  1 */\n  0x01\n    /* \"@openzeppelin/contracts/security/ReentrancyGuard.sol\":1821:1828  _status */\n  0x00\n    /* \"@openzeppelin/contracts/security/ReentrancyGuard.sol\":1821:1843  _status = _NOT_ENTERED */\n  dup2\n  swap1\n  sstore\n  pop\n    /* \"Day-04/code1.sol\":126:2504  contract SecureLendingPool is ReentrancyGuard {... */\n  dataSize(sub_0)\n  dup1\n  dataOffset(sub_0)\n  0x00\n  codecopy\n  0x00\n  return\nstop\n\nsub_0: assembly {\n        /* \"Day-04/code1.sol\":126:2504  contract SecureLendingPool is ReentrancyGuard {... */\n      mstore(0x40, 0x80)\n      jumpi(tag_1, lt(calldatasize, 0x04))\n      shr(0xe0, calldataload(0x00))\n      dup1\n      0x82ee0d1d\n      gt\n      tag_11\n      jumpi\n      dup1\n      0x82ee0d1d\n      eq\n      tag_6\n      jumpi\n      dup1\n      0xd0e30db0\n      eq\n      tag_7\n      jumpi\n      dup1\n      0xe11932cf\n      eq\n      tag_8\n      jumpi\n      dup1\n      0xe721da13\n      eq\n      tag_9\n      jumpi\n      dup1\n      0xecfb49a3\n      eq\n      tag_10\n      jumpi\n      jump(tag_1)\n    tag_11:\n      dup1\n      0x27e235e3\n      eq\n      tag_2\n      jumpi\n      dup1\n      0x2ce9aead\n      eq\n      tag_3\n      jumpi\n      dup1\n      0x2e1a7d4d\n      eq\n      tag_4\n      jumpi\n      dup1\n      0x5b72a33a\n      eq\n      tag_5\n      jumpi\n    tag_1:\n      0x00\n      dup1\n      revert\n        /* \"Day-04/code1.sol\":218:261  mapping(address => uint256) public balances */\n    tag_2:\n      callvalue\n      dup1\n      iszero\n      tag_12\n      jumpi\n      0x00\n      dup1\n      revert\n    tag_12:\n      pop\n      tag_13\n      0x04\n      dup1\n      calldatasize\n      sub\n      dup2\n      add\n      swap1\n      tag_14\n      swap2\n      swap1\n      tag_15\n      jump\t// in\n    tag_14:\n      tag_16\n      jump\t// in\n    tag_13:\n      mload(0x40)\n      tag_17\n      swap2\n      swap1\n      tag_18\n      jump\t// in\n    tag_17:\n      mload(0x40)\n      dup1\n      swap2\n      sub\n      swap1\n      return\n        /* \"Day-04/code1.sol\":454:503  mapping(address => uint256) public lastUpdateTime */\n    tag_3:\n      callvalue\n      dup1\n      iszero\n      tag_19\n      jumpi\n      0x00\n      dup1\n      revert\n    tag_19:\n      pop\n      tag_20\n      0x04\n      dup1\n      calldatasize\n      sub\n      dup2\n      add\n      swap1\n      tag_21\n      swap2\n      swap1\n      tag_15\n      jump\t// in\n    tag_21:\n      tag_22\n      jump\t// in\n    tag_20:\n      mload(0x40)\n      tag_23\n      swap2\n      swap1\n      tag_18\n      jump\t// in\n    tag_23:\n      mload(0x40)\n      dup1\n      swap2\n      sub\n      swap1\n      return\n        /* \"Day-04/code1.sol\":1308:1974  function withdraw(uint256 amount) external nonReentrant {... */\n    tag_4:\n      callvalue\n      dup1\n      iszero\n      tag_24\n      jumpi\n      0x00\n      dup1\n      revert\n    tag_24:\n      pop\n      tag_25\n      0x04\n      dup1\n      calldatasize\n      sub\n      dup2\n      add\n      swap1\n      tag_26\n      swap2\n      swap1\n      tag_27\n      jump\t// in\n    tag_26:\n      tag_28\n      jump\t// in\n    tag_25:\n      stop\n        /* \"Day-04/code1.sol\":367:408  uint256 public constant INTEREST_RATE = 5 */\n    tag_5:\n      callvalue\n      dup1\n      iszero\n      tag_29\n      jumpi\n      0x00\n      dup1\n      revert\n    tag_29:\n      pop\n      tag_30\n      tag_31\n      jump\t// in\n    tag_30:\n      mload(0x40)\n      tag_32\n      swap2\n      swap1\n      tag_18\n      jump\t// in\n    tag_32:\n      mload(0x40)\n      dup1\n      swap2\n      sub\n      swap1\n      return\n        /* \"Day-04/code1.sol\":551:601  uint256 public constant WITHDRAWAL_LIMIT = 1 ether */\n    tag_6:\n      callvalue\n      dup1\n      iszero\n      tag_33\n      jumpi\n      0x00\n      dup1\n      revert\n    tag_33:\n      pop\n      tag_34\n      tag_35\n      jump\t// in\n    tag_34:\n      mload(0x40)\n      tag_36\n      swap2\n      swap1\n      tag_18\n      jump\t// in\n    tag_36:\n      mload(0x40)\n      dup1\n      swap2\n      sub\n      swap1\n      return\n        /* \"Day-04/code1.sol\":934:1249  function deposit() external payable nonReentrant {... */\n    tag_7:\n      tag_37\n      tag_38\n      jump\t// in\n    tag_37:\n      stop\n        /* \"Day-04/code1.sol\":2020:2338  function calculateInterest(address user) public returns (uint256) {... */\n    tag_8:\n      callvalue\n      dup1\n      iszero\n      tag_39\n      jumpi\n      0x00\n      dup1\n      revert\n    tag_39:\n      pop\n      tag_40\n      0x04\n      dup1\n      calldatasize\n      sub\n      dup2\n      add\n      swap1\n      tag_41\n      swap2\n      swap1\n      tag_15\n      jump\t// in\n    tag_41:\n      tag_42\n      jump\t// in\n    tag_40:\n      mload(0x40)\n      tag_43\n      swap2\n      swap1\n      tag_18\n      jump\t// in\n    tag_43:\n      mload(0x40)\n      dup1\n      swap2\n      sub\n      swap1\n      return\n        /* \"Day-04/code1.sol\":2386:2501  function convertDaysToSeconds(uint256 _days) public pure returns (uint256) {... */\n    tag_9:\n      callvalue\n      dup1\n      iszero\n      tag_44\n      jumpi\n      0x00\n      dup1\n      revert\n    tag_44:\n      pop\n      tag_45\n      0x04\n      dup1\n      calldatasize\n      sub\n      dup2\n      add\n      swap1\n      tag_46\n      swap2\n      swap1\n      tag_27\n      jump\t// in\n    tag_46:\n      tag_47\n      jump\t// in\n    tag_45:\n      mload(0x40)\n      tag_48\n      swap2\n      swap1\n      tag_18\n      jump\t// in\n    tag_48:\n      mload(0x40)\n      dup1\n      swap2\n      sub\n      swap1\n      return\n        /* \"Day-04/code1.sol\":300:324  uint256 public totalPool */\n    tag_10:\n      callvalue\n      dup1\n      iszero\n      tag_49\n      jumpi\n      0x00\n      dup1\n      revert\n    tag_49:\n      pop\n      tag_50\n      tag_51\n      jump\t// in\n    tag_50:\n      mload(0x40)\n      tag_52\n      swap2\n      swap1\n      tag_18\n      jump\t// in\n    tag_52:\n      mload(0x40)\n      dup1\n      swap2\n      sub\n      swap1\n      return\n        /* \"Day-04/code1.sol\":218:261  mapping(address => uint256) public balances */\n    tag_16:\n      mstore(0x20, 0x01)\n      dup1\n      0x00\n      mstore\n      keccak256(0x00, 0x40)\n      0x00\n      swap2\n      pop\n      swap1\n      pop\n      sload\n      dup2\n      jump\t// out\n        /* \"Day-04/code1.sol\":454:503  mapping(address => uint256) public lastUpdateTime */\n    tag_22:\n      mstore(0x20, 0x03)\n      dup1\n      0x00\n      mstore\n      keccak256(0x00, 0x40)\n      0x00\n      swap2\n      pop\n      swap1\n      pop\n      sload\n      dup2\n      jump\t// out\n        /* \"Day-04/code1.sol\":1308:1974  function withdraw(uint256 amount) external nonReentrant {... */\n    tag_28:\n        /* \"@openzeppelin/contracts/security/ReentrancyGuard.sol\":2261:2282  _nonReentrantBefore() */\n      tag_54\n        /* \"@openzeppelin/contracts/security/ReentrancyGuard.sol\":2261:2280  _nonReentrantBefore */\n      tag_55\n        /* \"@openzeppelin/contracts/security/ReentrancyGuard.sol\":2261:2282  _nonReentrantBefore() */\n      jump\t// in\n    tag_54:\n        /* \"Day-04/code1.sol\":1392:1393  0 */\n      0x00\n        /* \"Day-04/code1.sol\":1383:1389  amount */\n      dup2\n        /* \"Day-04/code1.sol\":1383:1393  amount > 0 */\n      gt\n        /* \"Day-04/code1.sol\":1375:1438  require(amount > 0, \"Withdrawal amount must be greater than 0\") */\n      tag_57\n      jumpi\n      mload(0x40)\n      0x08c379a000000000000000000000000000000000000000000000000000000000\n      dup2\n      mstore\n      0x04\n      add\n      tag_58\n      swap1\n      tag_59\n      jump\t// in\n    tag_58:\n      mload(0x40)\n      dup1\n      swap2\n      sub\n      swap1\n      revert\n    tag_57:\n        /* \"Day-04/code1.sol\":594:601  1 ether */\n      0x0de0b6b3a7640000\n        /* \"Day-04/code1.sol\":1457:1463  amount */\n      dup2\n        /* \"Day-04/code1.sol\":1457:1483  amount <= WITHDRAWAL_LIMIT */\n      gt\n      iszero\n        /* \"Day-04/code1.sol\":1449:1512  require(amount <= WITHDRAWAL_LIMIT, \"Exceeds withdrawal limit\") */\n      tag_60\n      jumpi\n      mload(0x40)\n      0x08c379a000000000000000000000000000000000000000000000000000000000\n      dup2\n      mstore\n      0x04\n      add\n      tag_61\n      swap1\n      tag_62\n      jump\t// in\n    tag_61:\n      mload(0x40)\n      dup1\n      swap2\n      sub\n      swap1\n      revert\n    tag_60:\n        /* \"Day-04/code1.sol\":1555:1561  amount */\n      dup1\n        /* \"Day-04/code1.sol\":1531:1539  balances */\n      0x01\n        /* \"Day-04/code1.sol\":1531:1551  balances[msg.sender] */\n      0x00\n        /* \"Day-04/code1.sol\":1540:1550  msg.sender */\n      caller\n        /* \"Day-04/code1.sol\":1531:1551  balances[msg.sender] */\n      0xffffffffffffffffffffffffffffffffffffffff\n      and\n      0xffffffffffffffffffffffffffffffffffffffff\n      and\n      dup2\n      mstore\n      0x20\n      add\n      swap1\n      dup2\n      mstore\n      0x20\n      add\n      0x00\n      keccak256\n      sload\n        /* \"Day-04/code1.sol\":1531:1561  balances[msg.sender] >= amount */\n      lt\n      iszero\n        /* \"Day-04/code1.sol\":1523:1586  require(balances[msg.sender] >= amount, \"Insufficient balance\") */\n      tag_63\n      jumpi\n      mload(0x40)\n      0x08c379a000000000000000000000000000000000000000000000000000000000\n      dup2\n      mstore\n      0x04\n      add\n      tag_64\n      swap1\n      tag_65\n      jump\t// in\n    tag_64:\n      mload(0x40)\n      dup1\n      swap2\n      sub\n      swap1\n      revert\n    tag_63:\n        /* \"Day-04/code1.sol\":1599:1615  uint256 interest */\n      0x00\n        /* \"Day-04/code1.sol\":1618:1647  calculateInterest(msg.sender) */\n      tag_66\n        /* \"Day-04/code1.sol\":1636:1646  msg.sender */\n      caller\n        /* \"Day-04/code1.sol\":1618:1635  calculateInterest */\n      tag_42\n        /* \"Day-04/code1.sol\":1618:1647  calculateInterest(msg.sender) */\n      jump\t// in\n    tag_66:\n        /* \"Day-04/code1.sol\":1599:1647  uint256 interest = calculateInterest(msg.sender) */\n      swap1\n      pop\n        /* \"Day-04/code1.sol\":1658:1679  uint256 totalWithdraw */\n      0x00\n        /* \"Day-04/code1.sol\":1691:1699  interest */\n      dup2\n        /* \"Day-04/code1.sol\":1682:1688  amount */\n      dup4\n        /* \"Day-04/code1.sol\":1682:1699  amount + interest */\n      tag_67\n      swap2\n      swap1\n      tag_68\n      jump\t// in\n    tag_67:\n        /* \"Day-04/code1.sol\":1658:1699  uint256 totalWithdraw = amount + interest */\n      swap1\n      pop\n        /* \"Day-04/code1.sol\":1733:1746  totalWithdraw */\n      dup1\n        /* \"Day-04/code1.sol\":1720:1729  totalPool */\n      sload(0x02)\n        /* \"Day-04/code1.sol\":1720:1746  totalPool >= totalWithdraw */\n      lt\n      iszero\n        /* \"Day-04/code1.sol\":1712:1776  require(totalPool >= totalWithdraw, \"Insufficient pool balance\") */\n      tag_69\n      jumpi\n      mload(0x40)\n      0x08c379a000000000000000000000000000000000000000000000000000000000\n      dup2\n      mstore\n      0x04\n      add\n      tag_70\n      swap1\n      tag_71\n      jump\t// in\n    tag_70:\n      mload(0x40)\n      dup1\n      swap2\n      sub\n      swap1\n      revert\n    tag_69:\n        /* \"Day-04/code1.sol\":1813:1819  amount */\n      dup3\n        /* \"Day-04/code1.sol\":1789:1797  balances */\n      0x01\n        /* \"Day-04/code1.sol\":1789:1809  balances[msg.sender] */\n      0x00\n        /* \"Day-04/code1.sol\":1798:1808  msg.sender */\n      caller\n        /* \"Day-04/code1.sol\":1789:1809  balances[msg.sender] */\n      0xffffffffffffffffffffffffffffffffffffffff\n      and\n      0xffffffffffffffffffffffffffffffffffffffff\n      and\n      dup2\n      mstore\n      0x20\n      add\n      swap1\n      dup2\n      mstore\n      0x20\n      add\n      0x00\n      keccak256\n      0x00\n        /* \"Day-04/code1.sol\":1789:1819  balances[msg.sender] -= amount */\n      dup3\n      dup3\n      sload\n      tag_72\n      swap2\n      swap1\n      tag_73\n      jump\t// in\n    tag_72:\n      swap3\n      pop\n      pop\n      dup2\n      swap1\n      sstore\n      pop\n        /* \"Day-04/code1.sol\":1843:1856  totalWithdraw */\n      dup1\n        /* \"Day-04/code1.sol\":1830:1839  totalPool */\n      0x02\n      0x00\n        /* \"Day-04/code1.sol\":1830:1856  totalPool -= totalWithdraw */\n      dup3\n      dup3\n      sload\n      tag_74\n      swap2\n      swap1\n      tag_73\n      jump\t// in\n    tag_74:\n      swap3\n      pop\n      pop\n      dup2\n      swap1\n      sstore\n      pop\n        /* \"Day-04/code1.sol\":1877:1887  msg.sender */\n      caller\n        /* \"Day-04/code1.sol\":1869:1897  payable(msg.sender).transfer */\n      0xffffffffffffffffffffffffffffffffffffffff\n      and\n        /* \"Day-04/code1.sol\":1869:1912  payable(msg.sender).transfer(totalWithdraw) */\n      0x08fc\n        /* \"Day-04/code1.sol\":1898:1911  totalWithdraw */\n      dup3\n        /* \"Day-04/code1.sol\":1869:1912  payable(msg.sender).transfer(totalWithdraw) */\n      swap1\n      dup2\n      iszero\n      mul\n      swap1\n      mload(0x40)\n      0x00\n      mload(0x40)\n      dup1\n      dup4\n      sub\n      dup2\n      dup6\n      dup9\n      dup9\n      call\n      swap4\n      pop\n      pop\n      pop\n      pop\n      iszero\n      dup1\n      iszero\n      tag_76\n      jumpi\n      returndatasize\n      0x00\n      dup1\n      returndatacopy\n      revert(0x00, returndatasize)\n    tag_76:\n      pop\n        /* \"Day-04/code1.sol\":1940:1950  msg.sender */\n      caller\n        /* \"Day-04/code1.sol\":1930:1966  Withdrawn(msg.sender, totalWithdraw) */\n      0xffffffffffffffffffffffffffffffffffffffff\n      and\n      0x7084f5476618d8e60b11ef0d7d3f06914655adb8793e28ff7f018d4c76d505d5\n        /* \"Day-04/code1.sol\":1952:1965  totalWithdraw */\n      dup3\n        /* \"Day-04/code1.sol\":1930:1966  Withdrawn(msg.sender, totalWithdraw) */\n      mload(0x40)\n      tag_77\n      swap2\n      swap1\n      tag_18\n      jump\t// in\n    tag_77:\n      mload(0x40)\n      dup1\n      swap2\n      sub\n      swap1\n      log2\n        /* \"Day-04/code1.sol\":1364:1974  {... */\n      pop\n      pop\n        /* \"@openzeppelin/contracts/security/ReentrancyGuard.sol\":2303:2323  _nonReentrantAfter() */\n      tag_78\n        /* \"@openzeppelin/contracts/security/ReentrancyGuard.sol\":2303:2321  _nonReentrantAfter */\n      tag_79\n        /* \"@openzeppelin/contracts/security/ReentrancyGuard.sol\":2303:2323  _nonReentrantAfter() */\n      jump\t// in\n    tag_78:\n        /* \"Day-04/code1.sol\":1308:1974  function withdraw(uint256 amount) external nonReentrant {... */\n      pop\n      jump\t// out\n        /* \"Day-04/code1.sol\":367:408  uint256 public constant INTEREST_RATE = 5 */\n    tag_31:\n        /* \"Day-04/code1.sol\":407:408  5 */\n      0x05\n        /* \"Day-04/code1.sol\":367:408  uint256 public constant INTEREST_RATE = 5 */\n      dup2\n      jump\t// out\n        /* \"Day-04/code1.sol\":551:601  uint256 public constant WITHDRAWAL_LIMIT = 1 ether */\n    tag_35:\n        /* \"Day-04/code1.sol\":594:601  1 ether */\n      0x0de0b6b3a7640000\n        /* \"Day-04/code1.sol\":551:601  uint256 public constant WITHDRAWAL_LIMIT = 1 ether */\n      dup2\n      jump\t// out\n        /* \"Day-04/code1.sol\":934:1249  function deposit() external payable nonReentrant {... */\n    tag_38:\n        /* \"@openzeppelin/contracts/security/ReentrancyGuard.sol\":2261:2282  _nonReentrantBefore() */\n      tag_81\n        /* \"@openzeppelin/contracts/security/ReentrancyGuard.sol\":2261:2280  _nonReentrantBefore */\n      tag_55\n        /* \"@openzeppelin/contracts/security/ReentrancyGuard.sol\":2261:2282  _nonReentrantBefore() */\n      jump\t// in\n    tag_81:\n        /* \"Day-04/code1.sol\":1014:1015  0 */\n      0x00\n        /* \"Day-04/code1.sol\":1002:1011  msg.value */\n      callvalue\n        /* \"Day-04/code1.sol\":1002:1015  msg.value > 0 */\n      gt\n        /* \"Day-04/code1.sol\":994:1057  require(msg.value > 0, \"Deposit amount must be greater than 0\") */\n      tag_83\n      jumpi\n      mload(0x40)\n      0x08c379a000000000000000000000000000000000000000000000000000000000\n      dup2\n      mstore\n      0x04\n      add\n      tag_84\n      swap1\n      tag_85\n      jump\t// in\n    tag_84:\n      mload(0x40)\n      dup1\n      swap2\n      sub\n      swap1\n      revert\n    tag_83:\n        /* \"Day-04/code1.sol\":1094:1103  msg.value */\n      callvalue\n        /* \"Day-04/code1.sol\":1070:1078  balances */\n      0x01\n        /* \"Day-04/code1.sol\":1070:1090  balances[msg.sender] */\n      0x00\n        /* \"Day-04/code1.sol\":1079:1089  msg.sender */\n      caller\n        /* \"Day-04/code1.sol\":1070:1090  balances[msg.sender] */\n      0xffffffffffffffffffffffffffffffffffffffff\n      and\n      0xffffffffffffffffffffffffffffffffffffffff\n      and\n      dup2\n      mstore\n      0x20\n      add\n      swap1\n      dup2\n      mstore\n      0x20\n      add\n      0x00\n      keccak256\n      0x00\n        /* \"Day-04/code1.sol\":1070:1103  balances[msg.sender] += msg.value */\n      dup3\n      dup3\n      sload\n      tag_86\n      swap2\n      swap1\n      tag_68\n      jump\t// in\n    tag_86:\n      swap3\n      pop\n      pop\n      dup2\n      swap1\n      sstore\n      pop\n        /* \"Day-04/code1.sol\":1127:1136  msg.value */\n      callvalue\n        /* \"Day-04/code1.sol\":1114:1123  totalPool */\n      0x02\n      0x00\n        /* \"Day-04/code1.sol\":1114:1136  totalPool += msg.value */\n      dup3\n      dup3\n      sload\n      tag_87\n      swap2\n      swap1\n      tag_68\n      jump\t// in\n    tag_87:\n      swap3\n      pop\n      pop\n      dup2\n      swap1\n      sstore\n      pop\n        /* \"Day-04/code1.sol\":1176:1191  block.timestamp */\n      timestamp\n        /* \"Day-04/code1.sol\":1147:1161  lastUpdateTime */\n      0x03\n        /* \"Day-04/code1.sol\":1147:1173  lastUpdateTime[msg.sender] */\n      0x00\n        /* \"Day-04/code1.sol\":1162:1172  msg.sender */\n      caller\n        /* \"Day-04/code1.sol\":1147:1173  lastUpdateTime[msg.sender] */\n      0xffffffffffffffffffffffffffffffffffffffff\n      and\n      0xffffffffffffffffffffffffffffffffffffffff\n      and\n      dup2\n      mstore\n      0x20\n      add\n      swap1\n      dup2\n      mstore\n      0x20\n      add\n      0x00\n      keccak256\n        /* \"Day-04/code1.sol\":1147:1191  lastUpdateTime[msg.sender] = block.timestamp */\n      dup2\n      swap1\n      sstore\n      pop\n        /* \"Day-04/code1.sol\":1219:1229  msg.sender */\n      caller\n        /* \"Day-04/code1.sol\":1209:1241  Deposited(msg.sender, msg.value) */\n      0xffffffffffffffffffffffffffffffffffffffff\n      and\n      0x2da466a7b24304f47e87fa2e1e5a81b9831ce54fec19055ce277ca2f39ba42c4\n        /* \"Day-04/code1.sol\":1231:1240  msg.value */\n      callvalue\n        /* \"Day-04/code1.sol\":1209:1241  Deposited(msg.sender, msg.value) */\n      mload(0x40)\n      tag_88\n      swap2\n      swap1\n      tag_18\n      jump\t// in\n    tag_88:\n      mload(0x40)\n      dup1\n      swap2\n      sub\n      swap1\n      log2\n        /* \"@openzeppelin/contracts/security/ReentrancyGuard.sol\":2303:2323  _nonReentrantAfter() */\n      tag_89\n        /* \"@openzeppelin/contracts/security/ReentrancyGuard.sol\":2303:2321  _nonReentrantAfter */\n      tag_79\n        /* \"@openzeppelin/contracts/security/ReentrancyGuard.sol\":2303:2323  _nonReentrantAfter() */\n      jump\t// in\n    tag_89:\n        /* \"Day-04/code1.sol\":934:1249  function deposit() external payable nonReentrant {... */\n      jump\t// out\n        /* \"Day-04/code1.sol\":2020:2338  function calculateInterest(address user) public returns (uint256) {... */\n    tag_42:\n        /* \"Day-04/code1.sol\":2077:2084  uint256 */\n      0x00\n        /* \"Day-04/code1.sol\":2097:2116  uint256 timeElapsed */\n      dup1\n        /* \"Day-04/code1.sol\":2137:2151  lastUpdateTime */\n      0x03\n        /* \"Day-04/code1.sol\":2137:2157  lastUpdateTime[user] */\n      0x00\n        /* \"Day-04/code1.sol\":2152:2156  user */\n      dup5\n        /* \"Day-04/code1.sol\":2137:2157  lastUpdateTime[user] */\n      0xffffffffffffffffffffffffffffffffffffffff\n      and\n      0xffffffffffffffffffffffffffffffffffffffff\n      and\n      dup2\n      mstore\n      0x20\n      add\n      swap1\n      dup2\n      mstore\n      0x20\n      add\n      0x00\n      keccak256\n      sload\n        /* \"Day-04/code1.sol\":2119:2134  block.timestamp */\n      timestamp\n        /* \"Day-04/code1.sol\":2119:2157  block.timestamp - lastUpdateTime[user] */\n      tag_91\n      swap2\n      swap1\n      tag_73\n      jump\t// in\n    tag_91:\n        /* \"Day-04/code1.sol\":2097:2157  uint256 timeElapsed = block.timestamp - lastUpdateTime[user] */\n      swap1\n      pop\n        /* \"Day-04/code1.sol\":2168:2184  uint256 interest */\n      0x00\n        /* \"Day-04/code1.sol\":2237:2251  365 days * 100 */\n      0xbbf81e00\n        /* \"Day-04/code1.sol\":2221:2232  timeElapsed */\n      dup3\n        /* \"Day-04/code1.sol\":407:408  5 */\n      0x05\n        /* \"Day-04/code1.sol\":2188:2196  balances */\n      0x01\n        /* \"Day-04/code1.sol\":2188:2202  balances[user] */\n      0x00\n        /* \"Day-04/code1.sol\":2197:2201  user */\n      dup9\n        /* \"Day-04/code1.sol\":2188:2202  balances[user] */\n      0xffffffffffffffffffffffffffffffffffffffff\n      and\n      0xffffffffffffffffffffffffffffffffffffffff\n      and\n      dup2\n      mstore\n      0x20\n      add\n      swap1\n      dup2\n      mstore\n      0x20\n      add\n      0x00\n      keccak256\n      sload\n        /* \"Day-04/code1.sol\":2188:2218  balances[user] * INTEREST_RATE */\n      tag_92\n      swap2\n      swap1\n      tag_93\n      jump\t// in\n    tag_92:\n        /* \"Day-04/code1.sol\":2188:2232  balances[user] * INTEREST_RATE * timeElapsed */\n      tag_94\n      swap2\n      swap1\n      tag_93\n      jump\t// in\n    tag_94:\n        /* \"Day-04/code1.sol\":2187:2252  (balances[user] * INTEREST_RATE * timeElapsed) / (365 days * 100) */\n      tag_95\n      swap2\n      swap1\n      tag_96\n      jump\t// in\n    tag_95:\n        /* \"Day-04/code1.sol\":2168:2252  uint256 interest = (balances[user] * INTEREST_RATE * timeElapsed) / (365 days * 100) */\n      swap1\n      pop\n        /* \"Day-04/code1.sol\":2289:2293  user */\n      dup4\n        /* \"Day-04/code1.sol\":2270:2304  InterestCalculated(user, interest) */\n      0xffffffffffffffffffffffffffffffffffffffff\n      and\n      0x3aff28a570e0ff120bf92f84de651faa874ba2dd7268ad0fc5a6810749272979\n        /* \"Day-04/code1.sol\":2295:2303  interest */\n      dup3\n        /* \"Day-04/code1.sol\":2270:2304  InterestCalculated(user, interest) */\n      mload(0x40)\n      tag_97\n      swap2\n      swap1\n      tag_18\n      jump\t// in\n    tag_97:\n      mload(0x40)\n      dup1\n      swap2\n      sub\n      swap1\n      log2\n        /* \"Day-04/code1.sol\":2322:2330  interest */\n      dup1\n        /* \"Day-04/code1.sol\":2315:2330  return interest */\n      swap3\n      pop\n      pop\n      pop\n        /* \"Day-04/code1.sol\":2020:2338  function calculateInterest(address user) public returns (uint256) {... */\n      swap2\n      swap1\n      pop\n      jump\t// out\n        /* \"Day-04/code1.sol\":2386:2501  function convertDaysToSeconds(uint256 _days) public pure returns (uint256) {... */\n    tag_47:\n        /* \"Day-04/code1.sol\":2452:2459  uint256 */\n      0x00\n        /* \"Day-04/code1.sol\":2487:2493  1 days */\n      0x015180\n        /* \"Day-04/code1.sol\":2479:2484  _days */\n      dup3\n        /* \"Day-04/code1.sol\":2479:2493  _days * 1 days */\n      tag_99\n      swap2\n      swap1\n      tag_93\n      jump\t// in\n    tag_99:\n        /* \"Day-04/code1.sol\":2472:2493  return _days * 1 days */\n      swap1\n      pop\n        /* \"Day-04/code1.sol\":2386:2501  function convertDaysToSeconds(uint256 _days) public pure returns (uint256) {... */\n      swap2\n      swap1\n      pop\n      jump\t// out\n        /* \"Day-04/code1.sol\":300:324  uint256 public totalPool */\n    tag_51:\n      sload(0x02)\n      dup2\n      jump\t// out\n        /* \"@openzeppelin/contracts/security/ReentrancyGuard.sol\":2336:2623  function _nonReentrantBefore() private {... */\n    tag_55:\n        /* \"@openzeppelin/contracts/security/ReentrancyGuard.sol\":1759:1760  2 */\n      0x02\n        /* \"@openzeppelin/contracts/security/ReentrancyGuard.sol\":2468:2475  _status */\n      sload(0x00)\n        /* \"@openzeppelin/contracts/security/ReentrancyGuard.sol\":2468:2487  _status != _ENTERED */\n      sub\n        /* \"@openzeppelin/contracts/security/ReentrancyGuard.sol\":2460:2523  require(_status != _ENTERED, \"ReentrancyGuard: reentrant call\") */\n      tag_101\n      jumpi\n      mload(0x40)\n      0x08c379a000000000000000000000000000000000000000000000000000000000\n      dup2\n      mstore\n      0x04\n      add\n      tag_102\n      swap1\n      tag_103\n      jump\t// in\n    tag_102:\n      mload(0x40)\n      dup1\n      swap2\n      sub\n      swap1\n      revert\n    tag_101:\n        /* \"@openzeppelin/contracts/security/ReentrancyGuard.sol\":1759:1760  2 */\n      0x02\n        /* \"@openzeppelin/contracts/security/ReentrancyGuard.sol\":2598:2605  _status */\n      0x00\n        /* \"@openzeppelin/contracts/security/ReentrancyGuard.sol\":2598:2616  _status = _ENTERED */\n      dup2\n      swap1\n      sstore\n      pop\n        /* \"@openzeppelin/contracts/security/ReentrancyGuard.sol\":2336:2623  function _nonReentrantBefore() private {... */\n      jump\t// out\n        /* \"@openzeppelin/contracts/security/ReentrancyGuard.sol\":2629:2838  function _nonReentrantAfter() private {... */\n    tag_79:\n        /* \"@openzeppelin/contracts/security/ReentrancyGuard.sol\":1716:1717  1 */\n      0x01\n        /* \"@openzeppelin/contracts/security/ReentrancyGuard.sol\":2809:2816  _status */\n      0x00\n        /* \"@openzeppelin/contracts/security/ReentrancyGuard.sol\":2809:2831  _status = _NOT_ENTERED */\n      dup2\n      swap1\n      sstore\n      pop\n        /* \"@openzeppelin/contracts/security/ReentrancyGuard.sol\":2629:2838  function _nonReentrantAfter() private {... */\n      jump\t// out\n        /* \"#utility.yul\":88:205   */\n    tag_106:\n        /* \"#utility.yul\":197:198   */\n      0x00\n        /* \"#utility.yul\":194:195   */\n      dup1\n        /* \"#utility.yul\":187:199   */\n      revert\n        /* \"#utility.yul\":334:460   */\n    tag_108:\n        /* \"#utility.yul\":371:378   */\n      0x00\n        /* \"#utility.yul\":411:453   */\n      0xffffffffffffffffffffffffffffffffffffffff\n        /* \"#utility.yul\":404:409   */\n      dup3\n        /* \"#utility.yul\":400:454   */\n      and\n        /* \"#utility.yul\":389:454   */\n      swap1\n      pop\n        /* \"#utility.yul\":334:460   */\n      swap2\n      swap1\n      pop\n      jump\t// out\n        /* \"#utility.yul\":466:562   */\n    tag_109:\n        /* \"#utility.yul\":503:510   */\n      0x00\n        /* \"#utility.yul\":532:556   */\n      tag_137\n        /* \"#utility.yul\":550:555   */\n      dup3\n        /* \"#utility.yul\":532:556   */\n      tag_108\n      jump\t// in\n    tag_137:\n        /* \"#utility.yul\":521:556   */\n      swap1\n      pop\n        /* \"#utility.yul\":466:562   */\n      swap2\n      swap1\n      pop\n      jump\t// out\n        /* \"#utility.yul\":568:690   */\n    tag_110:\n        /* \"#utility.yul\":641:665   */\n      tag_139\n        /* \"#utility.yul\":659:664   */\n      dup2\n        /* \"#utility.yul\":641:665   */\n      tag_109\n      jump\t// in\n    tag_139:\n        /* \"#utility.yul\":634:639   */\n      dup2\n        /* \"#utility.yul\":631:666   */\n      eq\n        /* \"#utility.yul\":621:684   */\n      tag_140\n      jumpi\n        /* \"#utility.yul\":680:681   */\n      0x00\n        /* \"#utility.yul\":677:678   */\n      dup1\n        /* \"#utility.yul\":670:682   */\n      revert\n        /* \"#utility.yul\":621:684   */\n    tag_140:\n        /* \"#utility.yul\":568:690   */\n      pop\n      jump\t// out\n        /* \"#utility.yul\":696:835   */\n    tag_111:\n        /* \"#utility.yul\":742:747   */\n      0x00\n        /* \"#utility.yul\":780:786   */\n      dup2\n        /* \"#utility.yul\":767:787   */\n      calldataload\n        /* \"#utility.yul\":758:787   */\n      swap1\n      pop\n        /* \"#utility.yul\":796:829   */\n      tag_142\n        /* \"#utility.yul\":823:828   */\n      dup2\n        /* \"#utility.yul\":796:829   */\n      tag_110\n      jump\t// in\n    tag_142:\n        /* \"#utility.yul\":696:835   */\n      swap3\n      swap2\n      pop\n      pop\n      jump\t// out\n        /* \"#utility.yul\":841:1170   */\n    tag_15:\n        /* \"#utility.yul\":900:906   */\n      0x00\n        /* \"#utility.yul\":949:951   */\n      0x20\n        /* \"#utility.yul\":937:946   */\n      dup3\n        /* \"#utility.yul\":928:935   */\n      dup5\n        /* \"#utility.yul\":924:947   */\n      sub\n        /* \"#utility.yul\":920:952   */\n      slt\n        /* \"#utility.yul\":917:1036   */\n      iszero\n      tag_144\n      jumpi\n        /* \"#utility.yul\":955:1034   */\n      tag_145\n      tag_106\n      jump\t// in\n    tag_145:\n        /* \"#utility.yul\":917:1036   */\n    tag_144:\n        /* \"#utility.yul\":1075:1076   */\n      0x00\n        /* \"#utility.yul\":1100:1153   */\n      tag_146\n        /* \"#utility.yul\":1145:1152   */\n      dup5\n        /* \"#utility.yul\":1136:1142   */\n      dup3\n        /* \"#utility.yul\":1125:1134   */\n      dup6\n        /* \"#utility.yul\":1121:1143   */\n      add\n        /* \"#utility.yul\":1100:1153   */\n      tag_111\n      jump\t// in\n    tag_146:\n        /* \"#utility.yul\":1090:1153   */\n      swap2\n      pop\n        /* \"#utility.yul\":1046:1163   */\n      pop\n        /* \"#utility.yul\":841:1170   */\n      swap3\n      swap2\n      pop\n      pop\n      jump\t// out\n        /* \"#utility.yul\":1176:1253   */\n    tag_112:\n        /* \"#utility.yul\":1213:1220   */\n      0x00\n        /* \"#utility.yul\":1242:1247   */\n      dup2\n        /* \"#utility.yul\":1231:1247   */\n      swap1\n      pop\n        /* \"#utility.yul\":1176:1253   */\n      swap2\n      swap1\n      pop\n      jump\t// out\n        /* \"#utility.yul\":1259:1377   */\n    tag_113:\n        /* \"#utility.yul\":1346:1370   */\n      tag_149\n        /* \"#utility.yul\":1364:1369   */\n      dup2\n        /* \"#utility.yul\":1346:1370   */\n      tag_112\n      jump\t// in\n    tag_149:\n        /* \"#utility.yul\":1341:1344   */\n      dup3\n        /* \"#utility.yul\":1334:1371   */\n      mstore\n        /* \"#utility.yul\":1259:1377   */\n      pop\n      pop\n      jump\t// out\n        /* \"#utility.yul\":1383:1605   */\n    tag_18:\n        /* \"#utility.yul\":1476:1480   */\n      0x00\n        /* \"#utility.yul\":1514:1516   */\n      0x20\n        /* \"#utility.yul\":1503:1512   */\n      dup3\n        /* \"#utility.yul\":1499:1517   */\n      add\n        /* \"#utility.yul\":1491:1517   */\n      swap1\n      pop\n        /* \"#utility.yul\":1527:1598   */\n      tag_151\n        /* \"#utility.yul\":1595:1596   */\n      0x00\n        /* \"#utility.yul\":1584:1593   */\n      dup4\n        /* \"#utility.yul\":1580:1597   */\n      add\n        /* \"#utility.yul\":1571:1577   */\n      dup5\n        /* \"#utility.yul\":1527:1598   */\n      tag_113\n      jump\t// in\n    tag_151:\n        /* \"#utility.yul\":1383:1605   */\n      swap3\n      swap2\n      pop\n      pop\n      jump\t// out\n        /* \"#utility.yul\":1611:1733   */\n    tag_114:\n        /* \"#utility.yul\":1684:1708   */\n      tag_153\n        /* \"#utility.yul\":1702:1707   */\n      dup2\n        /* \"#utility.yul\":1684:1708   */\n      tag_112\n      jump\t// in\n    tag_153:\n        /* \"#utility.yul\":1677:1682   */\n      dup2\n        /* \"#utility.yul\":1674:1709   */\n      eq\n        /* \"#utility.yul\":1664:1727   */\n      tag_154\n      jumpi\n        /* \"#utility.yul\":1723:1724   */\n      0x00\n        /* \"#utility.yul\":1720:1721   */\n      dup1\n        /* \"#utility.yul\":1713:1725   */\n      revert\n        /* \"#utility.yul\":1664:1727   */\n    tag_154:\n        /* \"#utility.yul\":1611:1733   */\n      pop\n      jump\t// out\n        /* \"#utility.yul\":1739:1878   */\n    tag_115:\n        /* \"#utility.yul\":1785:1790   */\n      0x00\n        /* \"#utility.yul\":1823:1829   */\n      dup2\n        /* \"#utility.yul\":1810:1830   */\n      calldataload\n        /* \"#utility.yul\":1801:1830   */\n      swap1\n      pop\n        /* \"#utility.yul\":1839:1872   */\n      tag_156\n        /* \"#utility.yul\":1866:1871   */\n      dup2\n        /* \"#utility.yul\":1839:1872   */\n      tag_114\n      jump\t// in\n    tag_156:\n        /* \"#utility.yul\":1739:1878   */\n      swap3\n      swap2\n      pop\n      pop\n      jump\t// out\n        /* \"#utility.yul\":1884:2213   */\n    tag_27:\n        /* \"#utility.yul\":1943:1949   */\n      0x00\n        /* \"#utility.yul\":1992:1994   */\n      0x20\n        /* \"#utility.yul\":1980:1989   */\n      dup3\n        /* \"#utility.yul\":1971:1978   */\n      dup5\n        /* \"#utility.yul\":1967:1990   */\n      sub\n        /* \"#utility.yul\":1963:1995   */\n      slt\n        /* \"#utility.yul\":1960:2079   */\n      iszero\n      tag_158\n      jumpi\n        /* \"#utility.yul\":1998:2077   */\n      tag_159\n      tag_106\n      jump\t// in\n    tag_159:\n        /* \"#utility.yul\":1960:2079   */\n    tag_158:\n        /* \"#utility.yul\":2118:2119   */\n      0x00\n        /* \"#utility.yul\":2143:2196   */\n      tag_160\n        /* \"#utility.yul\":2188:2195   */\n      dup5\n        /* \"#utility.yul\":2179:2185   */\n      dup3\n        /* \"#utility.yul\":2168:2177   */\n      dup6\n        /* \"#utility.yul\":2164:2186   */\n      add\n        /* \"#utility.yul\":2143:2196   */\n      tag_115\n      jump\t// in\n    tag_160:\n        /* \"#utility.yul\":2133:2196   */\n      swap2\n      pop\n        /* \"#utility.yul\":2089:2206   */\n      pop\n        /* \"#utility.yul\":1884:2213   */\n      swap3\n      swap2\n      pop\n      pop\n      jump\t// out\n        /* \"#utility.yul\":2219:2388   */\n    tag_116:\n        /* \"#utility.yul\":2303:2314   */\n      0x00\n        /* \"#utility.yul\":2337:2343   */\n      dup3\n        /* \"#utility.yul\":2332:2335   */\n      dup3\n        /* \"#utility.yul\":2325:2344   */\n      mstore\n        /* \"#utility.yul\":2377:2381   */\n      0x20\n        /* \"#utility.yul\":2372:2375   */\n      dup3\n        /* \"#utility.yul\":2368:2382   */\n      add\n        /* \"#utility.yul\":2353:2382   */\n      swap1\n      pop\n        /* \"#utility.yul\":2219:2388   */\n      swap3\n      swap2\n      pop\n      pop\n      jump\t// out\n        /* \"#utility.yul\":2394:2621   */\n    tag_117:\n        /* \"#utility.yul\":2534:2568   */\n      0x5769746864726177616c20616d6f756e74206d75737420626520677265617465\n        /* \"#utility.yul\":2530:2531   */\n      0x00\n        /* \"#utility.yul\":2522:2528   */\n      dup3\n        /* \"#utility.yul\":2518:2532   */\n      add\n        /* \"#utility.yul\":2511:2569   */\n      mstore\n        /* \"#utility.yul\":2603:2613   */\n      0x72207468616e2030000000000000000000000000000000000000000000000000\n        /* \"#utility.yul\":2598:2600   */\n      0x20\n        /* \"#utility.yul\":2590:2596   */\n      dup3\n        /* \"#utility.yul\":2586:2601   */\n      add\n        /* \"#utility.yul\":2579:2614   */\n      mstore\n        /* \"#utility.yul\":2394:2621   */\n      pop\n      jump\t// out\n        /* \"#utility.yul\":2627:2993   */\n    tag_118:\n        /* \"#utility.yul\":2769:2772   */\n      0x00\n        /* \"#utility.yul\":2790:2857   */\n      tag_164\n        /* \"#utility.yul\":2854:2856   */\n      0x28\n        /* \"#utility.yul\":2849:2852   */\n      dup4\n        /* \"#utility.yul\":2790:2857   */\n      tag_116\n      jump\t// in\n    tag_164:\n        /* \"#utility.yul\":2783:2857   */\n      swap2\n      pop\n        /* \"#utility.yul\":2866:2959   */\n      tag_165\n        /* \"#utility.yul\":2955:2958   */\n      dup3\n        /* \"#utility.yul\":2866:2959   */\n      tag_117\n      jump\t// in\n    tag_165:\n        /* \"#utility.yul\":2984:2986   */\n      0x40\n        /* \"#utility.yul\":2979:2982   */\n      dup3\n        /* \"#utility.yul\":2975:2987   */\n      add\n        /* \"#utility.yul\":2968:2987   */\n      swap1\n      pop\n        /* \"#utility.yul\":2627:2993   */\n      swap2\n      swap1\n      pop\n      jump\t// out\n        /* \"#utility.yul\":2999:3418   */\n    tag_59:\n        /* \"#utility.yul\":3165:3169   */\n      0x00\n        /* \"#utility.yul\":3203:3205   */\n      0x20\n        /* \"#utility.yul\":3192:3201   */\n      dup3\n        /* \"#utility.yul\":3188:3206   */\n      add\n        /* \"#utility.yul\":3180:3206   */\n      swap1\n      pop\n        /* \"#utility.yul\":3252:3261   */\n      dup2\n        /* \"#utility.yul\":3246:3250   */\n      dup2\n        /* \"#utility.yul\":3242:3262   */\n      sub\n        /* \"#utility.yul\":3238:3239   */\n      0x00\n        /* \"#utility.yul\":3227:3236   */\n      dup4\n        /* \"#utility.yul\":3223:3240   */\n      add\n        /* \"#utility.yul\":3216:3263   */\n      mstore\n        /* \"#utility.yul\":3280:3411   */\n      tag_167\n        /* \"#utility.yul\":3406:3410   */\n      dup2\n        /* \"#utility.yul\":3280:3411   */\n      tag_118\n      jump\t// in\n    tag_167:\n        /* \"#utility.yul\":3272:3411   */\n      swap1\n      pop\n        /* \"#utility.yul\":2999:3418   */\n      swap2\n      swap1\n      pop\n      jump\t// out\n        /* \"#utility.yul\":3424:3598   */\n    tag_119:\n        /* \"#utility.yul\":3564:3590   */\n      0x45786365656473207769746864726177616c206c696d69740000000000000000\n        /* \"#utility.yul\":3560:3561   */\n      0x00\n        /* \"#utility.yul\":3552:3558   */\n      dup3\n        /* \"#utility.yul\":3548:3562   */\n      add\n        /* \"#utility.yul\":3541:3591   */\n      mstore\n        /* \"#utility.yul\":3424:3598   */\n      pop\n      jump\t// out\n        /* \"#utility.yul\":3604:3970   */\n    tag_120:\n        /* \"#utility.yul\":3746:3749   */\n      0x00\n        /* \"#utility.yul\":3767:3834   */\n      tag_170\n        /* \"#utility.yul\":3831:3833   */\n      0x18\n        /* \"#utility.yul\":3826:3829   */\n      dup4\n        /* \"#utility.yul\":3767:3834   */\n      tag_116\n      jump\t// in\n    tag_170:\n        /* \"#utility.yul\":3760:3834   */\n      swap2\n      pop\n        /* \"#utility.yul\":3843:3936   */\n      tag_171\n        /* \"#utility.yul\":3932:3935   */\n      dup3\n        /* \"#utility.yul\":3843:3936   */\n      tag_119\n      jump\t// in\n    tag_171:\n        /* \"#utility.yul\":3961:3963   */\n      0x20\n        /* \"#utility.yul\":3956:3959   */\n      dup3\n        /* \"#utility.yul\":3952:3964   */\n      add\n        /* \"#utility.yul\":3945:3964   */\n      swap1\n      pop\n        /* \"#utility.yul\":3604:3970   */\n      swap2\n      swap1\n      pop\n      jump\t// out\n        /* \"#utility.yul\":3976:4395   */\n    tag_62:\n        /* \"#utility.yul\":4142:4146   */\n      0x00\n        /* \"#utility.yul\":4180:4182   */\n      0x20\n        /* \"#utility.yul\":4169:4178   */\n      dup3\n        /* \"#utility.yul\":4165:4183   */\n      add\n        /* \"#utility.yul\":4157:4183   */\n      swap1\n      pop\n        /* \"#utility.yul\":4229:4238   */\n      dup2\n        /* \"#utility.yul\":4223:4227   */\n      dup2\n        /* \"#utility.yul\":4219:4239   */\n      sub\n        /* \"#utility.yul\":4215:4216   */\n      0x00\n        /* \"#utility.yul\":4204:4213   */\n      dup4\n        /* \"#utility.yul\":4200:4217   */\n      add\n        /* \"#utility.yul\":4193:4240   */\n      mstore\n        /* \"#utility.yul\":4257:4388   */\n      tag_173\n        /* \"#utility.yul\":4383:4387   */\n      dup2\n        /* \"#utility.yul\":4257:4388   */\n      tag_120\n      jump\t// in\n    tag_173:\n        /* \"#utility.yul\":4249:4388   */\n      swap1\n      pop\n        /* \"#utility.yul\":3976:4395   */\n      swap2\n      swap1\n      pop\n      jump\t// out\n        /* \"#utility.yul\":4401:4571   */\n    tag_121:\n        /* \"#utility.yul\":4541:4563   */\n      0x496e73756666696369656e742062616c616e6365000000000000000000000000\n        /* \"#utility.yul\":4537:4538   */\n      0x00\n        /* \"#utility.yul\":4529:4535   */\n      dup3\n        /* \"#utility.yul\":4525:4539   */\n      add\n        /* \"#utility.yul\":4518:4564   */\n      mstore\n        /* \"#utility.yul\":4401:4571   */\n      pop\n      jump\t// out\n        /* \"#utility.yul\":4577:4943   */\n    tag_122:\n        /* \"#utility.yul\":4719:4722   */\n      0x00\n        /* \"#utility.yul\":4740:4807   */\n      tag_176\n        /* \"#utility.yul\":4804:4806   */\n      0x14\n        /* \"#utility.yul\":4799:4802   */\n      dup4\n        /* \"#utility.yul\":4740:4807   */\n      tag_116\n      jump\t// in\n    tag_176:\n        /* \"#utility.yul\":4733:4807   */\n      swap2\n      pop\n        /* \"#utility.yul\":4816:4909   */\n      tag_177\n        /* \"#utility.yul\":4905:4908   */\n      dup3\n        /* \"#utility.yul\":4816:4909   */\n      tag_121\n      jump\t// in\n    tag_177:\n        /* \"#utility.yul\":4934:4936   */\n      0x20\n        /* \"#utility.yul\":4929:4932   */\n      dup3\n        /* \"#utility.yul\":4925:4937   */\n      add\n        /* \"#utility.yul\":4918:4937   */\n      swap1\n      pop\n        /* \"#utility.yul\":4577:4943   */\n      swap2\n      swap1\n      pop\n      jump\t// out\n        /* \"#utility.yul\":4949:5368   */\n    tag_65:\n        /* \"#utility.yul\":5115:5119   */\n      0x00\n        /* \"#utility.yul\":5153:5155   */\n      0x20\n        /* \"#utility.yul\":5142:5151   */\n      dup3\n        /* \"#utility.yul\":5138:5156   */\n      add\n        /* \"#utility.yul\":5130:5156   */\n      swap1\n      pop\n        /* \"#utility.yul\":5202:5211   */\n      dup2\n        /* \"#utility.yul\":5196:5200   */\n      dup2\n        /* \"#utility.yul\":5192:5212   */\n      sub\n        /* \"#utility.yul\":5188:5189   */\n      0x00\n        /* \"#utility.yul\":5177:5186   */\n      dup4\n        /* \"#utility.yul\":5173:5190   */\n      add\n        /* \"#utility.yul\":5166:5213   */\n      mstore\n        /* \"#utility.yul\":5230:5361   */\n      tag_179\n        /* \"#utility.yul\":5356:5360   */\n      dup2\n        /* \"#utility.yul\":5230:5361   */\n      tag_122\n      jump\t// in\n    tag_179:\n        /* \"#utility.yul\":5222:5361   */\n      swap1\n      pop\n        /* \"#utility.yul\":4949:5368   */\n      swap2\n      swap1\n      pop\n      jump\t// out\n        /* \"#utility.yul\":5374:5554   */\n    tag_123:\n        /* \"#utility.yul\":5422:5499   */\n      0x4e487b7100000000000000000000000000000000000000000000000000000000\n        /* \"#utility.yul\":5419:5420   */\n      0x00\n        /* \"#utility.yul\":5412:5500   */\n      mstore\n        /* \"#utility.yul\":5519:5523   */\n      0x11\n        /* \"#utility.yul\":5516:5517   */\n      0x04\n        /* \"#utility.yul\":5509:5524   */\n      mstore\n        /* \"#utility.yul\":5543:5547   */\n      0x24\n        /* \"#utility.yul\":5540:5541   */\n      0x00\n        /* \"#utility.yul\":5533:5548   */\n      revert\n        /* \"#utility.yul\":5560:5751   */\n    tag_68:\n        /* \"#utility.yul\":5600:5603   */\n      0x00\n        /* \"#utility.yul\":5619:5639   */\n      tag_182\n        /* \"#utility.yul\":5637:5638   */\n      dup3\n        /* \"#utility.yul\":5619:5639   */\n      tag_112\n      jump\t// in\n    tag_182:\n        /* \"#utility.yul\":5614:5639   */\n      swap2\n      pop\n        /* \"#utility.yul\":5653:5673   */\n      tag_183\n        /* \"#utility.yul\":5671:5672   */\n      dup4\n        /* \"#utility.yul\":5653:5673   */\n      tag_112\n      jump\t// in\n    tag_183:\n        /* \"#utility.yul\":5648:5673   */\n      swap3\n      pop\n        /* \"#utility.yul\":5696:5697   */\n      dup3\n        /* \"#utility.yul\":5693:5694   */\n      dup3\n        /* \"#utility.yul\":5689:5698   */\n      add\n        /* \"#utility.yul\":5682:5698   */\n      swap1\n      pop\n        /* \"#utility.yul\":5717:5720   */\n      dup1\n        /* \"#utility.yul\":5714:5715   */\n      dup3\n        /* \"#utility.yul\":5711:5721   */\n      gt\n        /* \"#utility.yul\":5708:5744   */\n      iszero\n      tag_184\n      jumpi\n        /* \"#utility.yul\":5724:5742   */\n      tag_185\n      tag_123\n      jump\t// in\n    tag_185:\n        /* \"#utility.yul\":5708:5744   */\n    tag_184:\n        /* \"#utility.yul\":5560:5751   */\n      swap3\n      swap2\n      pop\n      pop\n      jump\t// out\n        /* \"#utility.yul\":5757:5932   */\n    tag_124:\n        /* \"#utility.yul\":5897:5924   */\n      0x496e73756666696369656e7420706f6f6c2062616c616e636500000000000000\n        /* \"#utility.yul\":5893:5894   */\n      0x00\n        /* \"#utility.yul\":5885:5891   */\n      dup3\n        /* \"#utility.yul\":5881:5895   */\n      add\n        /* \"#utility.yul\":5874:5925   */\n      mstore\n        /* \"#utility.yul\":5757:5932   */\n      pop\n      jump\t// out\n        /* \"#utility.yul\":5938:6304   */\n    tag_125:\n        /* \"#utility.yul\":6080:6083   */\n      0x00\n        /* \"#utility.yul\":6101:6168   */\n      tag_188\n        /* \"#utility.yul\":6165:6167   */\n      0x19\n        /* \"#utility.yul\":6160:6163   */\n      dup4\n        /* \"#utility.yul\":6101:6168   */\n      tag_116\n      jump\t// in\n    tag_188:\n        /* \"#utility.yul\":6094:6168   */\n      swap2\n      pop\n        /* \"#utility.yul\":6177:6270   */\n      tag_189\n        /* \"#utility.yul\":6266:6269   */\n      dup3\n        /* \"#utility.yul\":6177:6270   */\n      tag_124\n      jump\t// in\n    tag_189:\n        /* \"#utility.yul\":6295:6297   */\n      0x20\n        /* \"#utility.yul\":6290:6293   */\n      dup3\n        /* \"#utility.yul\":6286:6298   */\n      add\n        /* \"#utility.yul\":6279:6298   */\n      swap1\n      pop\n        /* \"#utility.yul\":5938:6304   */\n      swap2\n      swap1\n      pop\n      jump\t// out\n        /* \"#utility.yul\":6310:6729   */\n    tag_71:\n        /* \"#utility.yul\":6476:6480   */\n      0x00\n        /* \"#utility.yul\":6514:6516   */\n      0x20\n        /* \"#utility.yul\":6503:6512   */\n      dup3\n        /* \"#utility.yul\":6499:6517   */\n      add\n        /* \"#utility.yul\":6491:6517   */\n      swap1\n      pop\n        /* \"#utility.yul\":6563:6572   */\n      dup2\n        /* \"#utility.yul\":6557:6561   */\n      dup2\n        /* \"#utility.yul\":6553:6573   */\n      sub\n        /* \"#utility.yul\":6549:6550   */\n      0x00\n        /* \"#utility.yul\":6538:6547   */\n      dup4\n        /* \"#utility.yul\":6534:6551   */\n      add\n        /* \"#utility.yul\":6527:6574   */\n      mstore\n        /* \"#utility.yul\":6591:6722   */\n      tag_191\n        /* \"#utility.yul\":6717:6721   */\n      dup2\n        /* \"#utility.yul\":6591:6722   */\n      tag_125\n      jump\t// in\n    tag_191:\n        /* \"#utility.yul\":6583:6722   */\n      swap1\n      pop\n        /* \"#utility.yul\":6310:6729   */\n      swap2\n      swap1\n      pop\n      jump\t// out\n        /* \"#utility.yul\":6735:6929   */\n    tag_73:\n        /* \"#utility.yul\":6775:6779   */\n      0x00\n        /* \"#utility.yul\":6795:6815   */\n      tag_193\n        /* \"#utility.yul\":6813:6814   */\n      dup3\n        /* \"#utility.yul\":6795:6815   */\n      tag_112\n      jump\t// in\n    tag_193:\n        /* \"#utility.yul\":6790:6815   */\n      swap2\n      pop\n        /* \"#utility.yul\":6829:6849   */\n      tag_194\n        /* \"#utility.yul\":6847:6848   */\n      dup4\n        /* \"#utility.yul\":6829:6849   */\n      tag_112\n      jump\t// in\n    tag_194:\n        /* \"#utility.yul\":6824:6849   */\n      swap3\n      pop\n        /* \"#utility.yul\":6873:6874   */\n      dup3\n        /* \"#utility.yul\":6870:6871   */\n      dup3\n        /* \"#utility.yul\":6866:6875   */\n      sub\n        /* \"#utility.yul\":6858:6875   */\n      swap1\n      pop\n        /* \"#utility.yul\":6897:6898   */\n      dup2\n        /* \"#utility.yul\":6891:6895   */\n      dup2\n        /* \"#utility.yul\":6888:6899   */\n      gt\n        /* \"#utility.yul\":6885:6922   */\n      iszero\n      tag_195\n      jumpi\n        /* \"#utility.yul\":6902:6920   */\n      tag_196\n      tag_123\n      jump\t// in\n    tag_196:\n        /* \"#utility.yul\":6885:6922   */\n    tag_195:\n        /* \"#utility.yul\":6735:6929   */\n      swap3\n      swap2\n      pop\n      pop\n      jump\t// out\n        /* \"#utility.yul\":6935:7159   */\n    tag_126:\n        /* \"#utility.yul\":7075:7109   */\n      0x4465706f73697420616d6f756e74206d75737420626520677265617465722074\n        /* \"#utility.yul\":7071:7072   */\n      0x00\n        /* \"#utility.yul\":7063:7069   */\n      dup3\n        /* \"#utility.yul\":7059:7073   */\n      add\n        /* \"#utility.yul\":7052:7110   */\n      mstore\n        /* \"#utility.yul\":7144:7151   */\n      0x68616e2030000000000000000000000000000000000000000000000000000000\n        /* \"#utility.yul\":7139:7141   */\n      0x20\n        /* \"#utility.yul\":7131:7137   */\n      dup3\n        /* \"#utility.yul\":7127:7142   */\n      add\n        /* \"#utility.yul\":7120:7152   */\n      mstore\n        /* \"#utility.yul\":6935:7159   */\n      pop\n      jump\t// out\n        /* \"#utility.yul\":7165:7531   */\n    tag_127:\n        /* \"#utility.yul\":7307:7310   */\n      0x00\n        /* \"#utility.yul\":7328:7395   */\n      tag_199\n        /* \"#utility.yul\":7392:7394   */\n      0x25\n        /* \"#utility.yul\":7387:7390   */\n      dup4\n        /* \"#utility.yul\":7328:7395   */\n      tag_116\n      jump\t// in\n    tag_199:\n        /* \"#utility.yul\":7321:7395   */\n      swap2\n      pop\n        /* \"#utility.yul\":7404:7497   */\n      tag_200\n        /* \"#utility.yul\":7493:7496   */\n      dup3\n        /* \"#utility.yul\":7404:7497   */\n      tag_126\n      jump\t// in\n    tag_200:\n        /* \"#utility.yul\":7522:7524   */\n      0x40\n        /* \"#utility.yul\":7517:7520   */\n      dup3\n        /* \"#utility.yul\":7513:7525   */\n      add\n        /* \"#utility.yul\":7506:7525   */\n      swap1\n      pop\n        /* \"#utility.yul\":7165:7531   */\n      swap2\n      swap1\n      pop\n      jump\t// out\n        /* \"#utility.yul\":7537:7956   */\n    tag_85:\n        /* \"#utility.yul\":7703:7707   */\n      0x00\n        /* \"#utility.yul\":7741:7743   */\n      0x20\n        /* \"#utility.yul\":7730:7739   */\n      dup3\n        /* \"#utility.yul\":7726:7744   */\n      add\n        /* \"#utility.yul\":7718:7744   */\n      swap1\n      pop\n        /* \"#utility.yul\":7790:7799   */\n      dup2\n        /* \"#utility.yul\":7784:7788   */\n      dup2\n        /* \"#utility.yul\":7780:7800   */\n      sub\n        /* \"#utility.yul\":7776:7777   */\n      0x00\n        /* \"#utility.yul\":7765:7774   */\n      dup4\n        /* \"#utility.yul\":7761:7778   */\n      add\n        /* \"#utility.yul\":7754:7801   */\n      mstore\n        /* \"#utility.yul\":7818:7949   */\n      tag_202\n        /* \"#utility.yul\":7944:7948   */\n      dup2\n        /* \"#utility.yul\":7818:7949   */\n      tag_127\n      jump\t// in\n    tag_202:\n        /* \"#utility.yul\":7810:7949   */\n      swap1\n      pop\n        /* \"#utility.yul\":7537:7956   */\n      swap2\n      swap1\n      pop\n      jump\t// out\n        /* \"#utility.yul\":7962:8372   */\n    tag_93:\n        /* \"#utility.yul\":8002:8009   */\n      0x00\n        /* \"#utility.yul\":8025:8045   */\n      tag_204\n        /* \"#utility.yul\":8043:8044   */\n      dup3\n        /* \"#utility.yul\":8025:8045   */\n      tag_112\n      jump\t// in\n    tag_204:\n        /* \"#utility.yul\":8020:8045   */\n      swap2\n      pop\n        /* \"#utility.yul\":8059:8079   */\n      tag_205\n        /* \"#utility.yul\":8077:8078   */\n      dup4\n        /* \"#utility.yul\":8059:8079   */\n      tag_112\n      jump\t// in\n    tag_205:\n        /* \"#utility.yul\":8054:8079   */\n      swap3\n      pop\n        /* \"#utility.yul\":8114:8115   */\n      dup3\n        /* \"#utility.yul\":8111:8112   */\n      dup3\n        /* \"#utility.yul\":8107:8116   */\n      mul\n        /* \"#utility.yul\":8136:8166   */\n      tag_206\n        /* \"#utility.yul\":8154:8165   */\n      dup2\n        /* \"#utility.yul\":8136:8166   */\n      tag_112\n      jump\t// in\n    tag_206:\n        /* \"#utility.yul\":8125:8166   */\n      swap2\n      pop\n        /* \"#utility.yul\":8315:8316   */\n      dup3\n        /* \"#utility.yul\":8306:8313   */\n      dup3\n        /* \"#utility.yul\":8302:8317   */\n      div\n        /* \"#utility.yul\":8299:8300   */\n      dup5\n        /* \"#utility.yul\":8296:8318   */\n      eq\n        /* \"#utility.yul\":8276:8277   */\n      dup4\n        /* \"#utility.yul\":8269:8278   */\n      iszero\n        /* \"#utility.yul\":8249:8332   */\n      or\n        /* \"#utility.yul\":8226:8365   */\n      tag_207\n      jumpi\n        /* \"#utility.yul\":8345:8363   */\n      tag_208\n      tag_123\n      jump\t// in\n    tag_208:\n        /* \"#utility.yul\":8226:8365   */\n    tag_207:\n        /* \"#utility.yul\":8010:8372   */\n      pop\n        /* \"#utility.yul\":7962:8372   */\n      swap3\n      swap2\n      pop\n      pop\n      jump\t// out\n        /* \"#utility.yul\":8378:8558   */\n    tag_128:\n        /* \"#utility.yul\":8426:8503   */\n      0x4e487b7100000000000000000000000000000000000000000000000000000000\n        /* \"#utility.yul\":8423:8424   */\n      0x00\n        /* \"#utility.yul\":8416:8504   */\n      mstore\n        /* \"#utility.yul\":8523:8527   */\n      0x12\n        /* \"#utility.yul\":8520:8521   */\n      0x04\n        /* \"#utility.yul\":8513:8528   */\n      mstore\n        /* \"#utility.yul\":8547:8551   */\n      0x24\n        /* \"#utility.yul\":8544:8545   */\n      0x00\n        /* \"#utility.yul\":8537:8552   */\n      revert\n        /* \"#utility.yul\":8564:8749   */\n    tag_96:\n        /* \"#utility.yul\":8604:8605   */\n      0x00\n        /* \"#utility.yul\":8621:8641   */\n      tag_211\n        /* \"#utility.yul\":8639:8640   */\n      dup3\n        /* \"#utility.yul\":8621:8641   */\n      tag_112\n      jump\t// in\n    tag_211:\n        /* \"#utility.yul\":8616:8641   */\n      swap2\n      pop\n        /* \"#utility.yul\":8655:8675   */\n      tag_212\n        /* \"#utility.yul\":8673:8674   */\n      dup4\n        /* \"#utility.yul\":8655:8675   */\n      tag_112\n      jump\t// in\n    tag_212:\n        /* \"#utility.yul\":8650:8675   */\n      swap3\n      pop\n        /* \"#utility.yul\":8694:8695   */\n      dup3\n        /* \"#utility.yul\":8684:8719   */\n      tag_213\n      jumpi\n        /* \"#utility.yul\":8699:8717   */\n      tag_214\n      tag_128\n      jump\t// in\n    tag_214:\n        /* \"#utility.yul\":8684:8719   */\n    tag_213:\n        /* \"#utility.yul\":8741:8742   */\n      dup3\n        /* \"#utility.yul\":8738:8739   */\n      dup3\n        /* \"#utility.yul\":8734:8743   */\n      div\n        /* \"#utility.yul\":8729:8743   */\n      swap1\n      pop\n        /* \"#utility.yul\":8564:8749   */\n      swap3\n      swap2\n      pop\n      pop\n      jump\t// out\n        /* \"#utility.yul\":8755:8936   */\n    tag_129:\n        /* \"#utility.yul\":8895:8928   */\n      0x5265656e7472616e637947756172643a207265656e7472616e742063616c6c00\n        /* \"#utility.yul\":8891:8892   */\n      0x00\n        /* \"#utility.yul\":8883:8889   */\n      dup3\n        /* \"#utility.yul\":8879:8893   */\n      add\n        /* \"#utility.yul\":8872:8929   */\n      mstore\n        /* \"#utility.yul\":8755:8936   */\n      pop\n      jump\t// out\n        /* \"#utility.yul\":8942:9308   */\n    tag_130:\n        /* \"#utility.yul\":9084:9087   */\n      0x00\n        /* \"#utility.yul\":9105:9172   */\n      tag_217\n        /* \"#utility.yul\":9169:9171   */\n      0x1f\n        /* \"#utility.yul\":9164:9167   */\n      dup4\n        /* \"#utility.yul\":9105:9172   */\n      tag_116\n      jump\t// in\n    tag_217:\n        /* \"#utility.yul\":9098:9172   */\n      swap2\n      pop\n        /* \"#utility.yul\":9181:9274   */\n      tag_218\n        /* \"#utility.yul\":9270:9273   */\n      dup3\n        /* \"#utility.yul\":9181:9274   */\n      tag_129\n      jump\t// in\n    tag_218:\n        /* \"#utility.yul\":9299:9301   */\n      0x20\n        /* \"#utility.yul\":9294:9297   */\n      dup3\n        /* \"#utility.yul\":9290:9302   */\n      add\n        /* \"#utility.yul\":9283:9302   */\n      swap1\n      pop\n        /* \"#utility.yul\":8942:9308   */\n      swap2\n      swap1\n      pop\n      jump\t// out\n        /* \"#utility.yul\":9314:9733   */\n    tag_103:\n        /* \"#utility.yul\":9480:9484   */\n      0x00\n        /* \"#utility.yul\":9518:9520   */\n      0x20\n        /* \"#utility.yul\":9507:9516   */\n      dup3\n        /* \"#utility.yul\":9503:9521   */\n      add\n        /* \"#utility.yul\":9495:9521   */\n      swap1\n      pop\n        /* \"#utility.yul\":9567:9576   */\n      dup2\n        /* \"#utility.yul\":9561:9565   */\n      dup2\n        /* \"#utility.yul\":9557:9577   */\n      sub\n        /* \"#utility.yul\":9553:9554   */\n      0x00\n        /* \"#utility.yul\":9542:9551   */\n      dup4\n        /* \"#utility.yul\":9538:9555   */\n      add\n        /* \"#utility.yul\":9531:9578   */\n      mstore\n        /* \"#utility.yul\":9595:9726   */\n      tag_220\n        /* \"#utility.yul\":9721:9725   */\n      dup2\n        /* \"#utility.yul\":9595:9726   */\n      tag_130\n      jump\t// in\n    tag_220:\n        /* \"#utility.yul\":9587:9726   */\n      swap1\n      pop\n        /* \"#utility.yul\":9314:9733   */\n      swap2\n      swap1\n      pop\n      jump\t// out\n\n    auxdata: 0xa264697066735822122032b2be3160ea2076cd09aae938ca86a3d6c0e8415d59cc7ad9a958d26179aa7064736f6c634300081a0033\n}\n",
				"bytecode": {
					"linkReferences": {},
					"object": "6080604052348015600e575f80fd5b5060015f81905550610cf3806100235f395ff3fe608060405260043610610085575f3560e01c806382ee0d1d1161005857806382ee0d1d14610153578063d0e30db01461017d578063e11932cf14610187578063e721da13146101c3578063ecfb49a3146101ff57610085565b806327e235e3146100895780632ce9aead146100c55780632e1a7d4d146101015780635b72a33a14610129575b5f80fd5b348015610094575f80fd5b506100af60048036038101906100aa919061080f565b610229565b6040516100bc9190610852565b60405180910390f35b3480156100d0575f80fd5b506100eb60048036038101906100e6919061080f565b61023e565b6040516100f89190610852565b60405180910390f35b34801561010c575f80fd5b5061012760048036038101906101229190610895565b610253565b005b348015610134575f80fd5b5061013d6104d2565b60405161014a9190610852565b60405180910390f35b34801561015e575f80fd5b506101676104d7565b6040516101749190610852565b60405180910390f35b6101856104e3565b005b348015610192575f80fd5b506101ad60048036038101906101a8919061080f565b610632565b6040516101ba9190610852565b60405180910390f35b3480156101ce575f80fd5b506101e960048036038101906101e49190610895565b61073e565b6040516101f69190610852565b60405180910390f35b34801561020a575f80fd5b50610213610755565b6040516102209190610852565b60405180910390f35b6001602052805f5260405f205f915090505481565b6003602052805f5260405f205f915090505481565b61025b61075b565b5f811161029d576040517f08c379a000000000000000000000000000000000000000000000000000000000815260040161029490610940565b60405180910390fd5b670de0b6b3a76400008111156102e8576040517f08c379a00000000000000000000000000000000000000000000000000000000081526004016102df906109a8565b60405180910390fd5b8060015f3373ffffffffffffffffffffffffffffffffffffffff1673ffffffffffffffffffffffffffffffffffffffff1681526020019081526020015f20541015610368576040517f08c379a000000000000000000000000000000000000000000000000000000000815260040161035f90610a10565b60405180910390fd5b5f61037233610632565b90505f81836103819190610a5b565b90508060025410156103c8576040517f08c379a00000000000000000000000000000000000000000000000000000000081526004016103bf90610ad8565b60405180910390fd5b8260015f3373ffffffffffffffffffffffffffffffffffffffff1673ffffffffffffffffffffffffffffffffffffffff1681526020019081526020015f205f8282546104149190610af6565b925050819055508060025f82825461042c9190610af6565b925050819055503373ffffffffffffffffffffffffffffffffffffffff166108fc8290811502906040515f60405180830381858888f19350505050158015610476573d5f803e3d5ffd5b503373ffffffffffffffffffffffffffffffffffffffff167f7084f5476618d8e60b11ef0d7d3f06914655adb8793e28ff7f018d4c76d505d5826040516104bd9190610852565b60405180910390a250506104cf6107a8565b50565b600581565b670de0b6b3a764000081565b6104eb61075b565b5f341161052d576040517f08c379a000000000000000000000000000000000000000000000000000000000815260040161052490610b99565b60405180910390fd5b3460015f3373ffffffffffffffffffffffffffffffffffffffff1673ffffffffffffffffffffffffffffffffffffffff1681526020019081526020015f205f8282546105799190610a5b565b925050819055503460025f8282546105919190610a5b565b925050819055504260035f3373ffffffffffffffffffffffffffffffffffffffff1673ffffffffffffffffffffffffffffffffffffffff1681526020019081526020015f20819055503373ffffffffffffffffffffffffffffffffffffffff167f2da466a7b24304f47e87fa2e1e5a81b9831ce54fec19055ce277ca2f39ba42c4346040516106209190610852565b60405180910390a26106306107a8565b565b5f8060035f8473ffffffffffffffffffffffffffffffffffffffff1673ffffffffffffffffffffffffffffffffffffffff1681526020019081526020015f20544261067d9190610af6565b90505f63bbf81e0082600560015f8873ffffffffffffffffffffffffffffffffffffffff1673ffffffffffffffffffffffffffffffffffffffff1681526020019081526020015f20546106d09190610bb7565b6106da9190610bb7565b6106e49190610c25565b90508373ffffffffffffffffffffffffffffffffffffffff167f3aff28a570e0ff120bf92f84de651faa874ba2dd7268ad0fc5a68107492729798260405161072c9190610852565b60405180910390a28092505050919050565b5f620151808261074e9190610bb7565b9050919050565b60025481565b60025f540361079f576040517f08c379a000000000000000000000000000000000000000000000000000000000815260040161079690610c9f565b60405180910390fd5b60025f81905550565b60015f81905550565b5f80fd5b5f73ffffffffffffffffffffffffffffffffffffffff82169050919050565b5f6107de826107b5565b9050919050565b6107ee816107d4565b81146107f8575f80fd5b50565b5f81359050610809816107e5565b92915050565b5f60208284031215610824576108236107b1565b5b5f610831848285016107fb565b91505092915050565b5f819050919050565b61084c8161083a565b82525050565b5f6020820190506108655f830184610843565b92915050565b6108748161083a565b811461087e575f80fd5b50565b5f8135905061088f8161086b565b92915050565b5f602082840312156108aa576108a96107b1565b5b5f6108b784828501610881565b91505092915050565b5f82825260208201905092915050565b7f5769746864726177616c20616d6f756e74206d757374206265206772656174655f8201527f72207468616e2030000000000000000000000000000000000000000000000000602082015250565b5f61092a6028836108c0565b9150610935826108d0565b604082019050919050565b5f6020820190508181035f8301526109578161091e565b9050919050565b7f45786365656473207769746864726177616c206c696d697400000000000000005f82015250565b5f6109926018836108c0565b915061099d8261095e565b602082019050919050565b5f6020820190508181035f8301526109bf81610986565b9050919050565b7f496e73756666696369656e742062616c616e63650000000000000000000000005f82015250565b5f6109fa6014836108c0565b9150610a05826109c6565b602082019050919050565b5f6020820190508181035f830152610a27816109ee565b9050919050565b7f4e487b71000000000000000000000000000000000000000000000000000000005f52601160045260245ffd5b5f610a658261083a565b9150610a708361083a565b9250828201905080821115610a8857610a87610a2e565b5b92915050565b7f496e73756666696369656e7420706f6f6c2062616c616e6365000000000000005f82015250565b5f610ac26019836108c0565b9150610acd82610a8e565b602082019050919050565b5f6020820190508181035f830152610aef81610ab6565b9050919050565b5f610b008261083a565b9150610b0b8361083a565b9250828203905081811115610b2357610b22610a2e565b5b92915050565b7f4465706f73697420616d6f756e74206d757374206265206772656174657220745f8201527f68616e2030000000000000000000000000000000000000000000000000000000602082015250565b5f610b836025836108c0565b9150610b8e82610b29565b604082019050919050565b5f6020820190508181035f830152610bb081610b77565b9050919050565b5f610bc18261083a565b9150610bcc8361083a565b9250828202610bda8161083a565b91508282048414831517610bf157610bf0610a2e565b5b5092915050565b7f4e487b71000000000000000000000000000000000000000000000000000000005f52601260045260245ffd5b5f610c2f8261083a565b9150610c3a8361083a565b925082610c4a57610c49610bf8565b5b828204905092915050565b7f5265656e7472616e637947756172643a207265656e7472616e742063616c6c005f82015250565b5f610c89601f836108c0565b9150610c9482610c55565b602082019050919050565b5f6020820190508181035f830152610cb681610c7d565b905091905056fea264697066735822122032b2be3160ea2076cd09aae938ca86a3d6c0e8415d59cc7ad9a958d26179aa7064736f6c634300081a0033",
					"opcodes": "PUSH1 0x80 PUSH1 0x40 MSTORE CALLVALUE DUP1 ISZERO PUSH1 0xE JUMPI PUSH0 DUP1 REVERT JUMPDEST POP PUSH1 0x1 PUSH0 DUP2 SWAP1 SSTORE POP PUSH2 0xCF3 DUP1 PUSH2 0x23 PUSH0 CODECOPY PUSH0 RETURN INVALID PUSH1 0x80 PUSH1 0x40 MSTORE PUSH1 0x4 CALLDATASIZE LT PUSH2 0x85 JUMPI PUSH0 CALLDATALOAD PUSH1 0xE0 SHR DUP1 PUSH4 0x82EE0D1D GT PUSH2 0x58 JUMPI DUP1 PUSH4 0x82EE0D1D EQ PUSH2 0x153 JUMPI DUP1 PUSH4 0xD0E30DB0 EQ PUSH2 0x17D JUMPI DUP1 PUSH4 0xE11932CF EQ PUSH2 0x187 JUMPI DUP1 PUSH4 0xE721DA13 EQ PUSH2 0x1C3 JUMPI DUP1 PUSH4 0xECFB49A3 EQ PUSH2 0x1FF JUMPI PUSH2 0x85 JUMP JUMPDEST DUP1 PUSH4 0x27E235E3 EQ PUSH2 0x89 JUMPI DUP1 PUSH4 0x2CE9AEAD EQ PUSH2 0xC5 JUMPI DUP1 PUSH4 0x2E1A7D4D EQ PUSH2 0x101 JUMPI DUP1 PUSH4 0x5B72A33A EQ PUSH2 0x129 JUMPI JUMPDEST PUSH0 DUP1 REVERT JUMPDEST CALLVALUE DUP1 ISZERO PUSH2 0x94 JUMPI PUSH0 DUP1 REVERT JUMPDEST POP PUSH2 0xAF PUSH1 0x4 DUP1 CALLDATASIZE SUB DUP2 ADD SWAP1 PUSH2 0xAA SWAP2 SWAP1 PUSH2 0x80F JUMP JUMPDEST PUSH2 0x229 JUMP JUMPDEST PUSH1 0x40 MLOAD PUSH2 0xBC SWAP2 SWAP1 PUSH2 0x852 JUMP JUMPDEST PUSH1 0x40 MLOAD DUP1 SWAP2 SUB SWAP1 RETURN JUMPDEST CALLVALUE DUP1 ISZERO PUSH2 0xD0 JUMPI PUSH0 DUP1 REVERT JUMPDEST POP PUSH2 0xEB PUSH1 0x4 DUP1 CALLDATASIZE SUB DUP2 ADD SWAP1 PUSH2 0xE6 SWAP2 SWAP1 PUSH2 0x80F JUMP JUMPDEST PUSH2 0x23E JUMP JUMPDEST PUSH1 0x40 MLOAD PUSH2 0xF8 SWAP2 SWAP1 PUSH2 0x852 JUMP JUMPDEST PUSH1 0x40 MLOAD DUP1 SWAP2 SUB SWAP1 RETURN JUMPDEST CALLVALUE DUP1 ISZERO PUSH2 0x10C JUMPI PUSH0 DUP1 REVERT JUMPDEST POP PUSH2 0x127 PUSH1 0x4 DUP1 CALLDATASIZE SUB DUP2 ADD SWAP1 PUSH2 0x122 SWAP2 SWAP1 PUSH2 0x895 JUMP JUMPDEST PUSH2 0x253 JUMP JUMPDEST STOP JUMPDEST CALLVALUE DUP1 ISZERO PUSH2 0x134 JUMPI PUSH0 DUP1 REVERT JUMPDEST POP PUSH2 0x13D PUSH2 0x4D2 JUMP JUMPDEST PUSH1 0x40 MLOAD PUSH2 0x14A SWAP2 SWAP1 PUSH2 0x852 JUMP JUMPDEST PUSH1 0x40 MLOAD DUP1 SWAP2 SUB SWAP1 RETURN JUMPDEST CALLVALUE DUP1 ISZERO PUSH2 0x15E JUMPI PUSH0 DUP1 REVERT JUMPDEST POP PUSH2 0x167 PUSH2 0x4D7 JUMP JUMPDEST PUSH1 0x40 MLOAD PUSH2 0x174 SWAP2 SWAP1 PUSH2 0x852 JUMP JUMPDEST PUSH1 0x40 MLOAD DUP1 SWAP2 SUB SWAP1 RETURN JUMPDEST PUSH2 0x185 PUSH2 0x4E3 JUMP JUMPDEST STOP JUMPDEST CALLVALUE DUP1 ISZERO PUSH2 0x192 JUMPI PUSH0 DUP1 REVERT JUMPDEST POP PUSH2 0x1AD PUSH1 0x4 DUP1 CALLDATASIZE SUB DUP2 ADD SWAP1 PUSH2 0x1A8 SWAP2 SWAP1 PUSH2 0x80F JUMP JUMPDEST PUSH2 0x632 JUMP JUMPDEST PUSH1 0x40 MLOAD PUSH2 0x1BA SWAP2 SWAP1 PUSH2 0x852 JUMP JUMPDEST PUSH1 0x40 MLOAD DUP1 SWAP2 SUB SWAP1 RETURN JUMPDEST CALLVALUE DUP1 ISZERO PUSH2 0x1CE JUMPI PUSH0 DUP1 REVERT JUMPDEST POP PUSH2 0x1E9 PUSH1 0x4 DUP1 CALLDATASIZE SUB DUP2 ADD SWAP1 PUSH2 0x1E4 SWAP2 SWAP1 PUSH2 0x895 JUMP JUMPDEST PUSH2 0x73E JUMP JUMPDEST PUSH1 0x40 MLOAD PUSH2 0x1F6 SWAP2 SWAP1 PUSH2 0x852 JUMP JUMPDEST PUSH1 0x40 MLOAD DUP1 SWAP2 SUB SWAP1 RETURN JUMPDEST CALLVALUE DUP1 ISZERO PUSH2 0x20A JUMPI PUSH0 DUP1 REVERT JUMPDEST POP PUSH2 0x213 PUSH2 0x755 JUMP JUMPDEST PUSH1 0x40 MLOAD PUSH2 0x220 SWAP2 SWAP1 PUSH2 0x852 JUMP JUMPDEST PUSH1 0x40 MLOAD DUP1 SWAP2 SUB SWAP1 RETURN JUMPDEST PUSH1 0x1 PUSH1 0x20 MSTORE DUP1 PUSH0 MSTORE PUSH1 0x40 PUSH0 KECCAK256 PUSH0 SWAP2 POP SWAP1 POP SLOAD DUP2 JUMP JUMPDEST PUSH1 0x3 PUSH1 0x20 MSTORE DUP1 PUSH0 MSTORE PUSH1 0x40 PUSH0 KECCAK256 PUSH0 SWAP2 POP SWAP1 POP SLOAD DUP2 JUMP JUMPDEST PUSH2 0x25B PUSH2 0x75B JUMP JUMPDEST PUSH0 DUP2 GT PUSH2 0x29D JUMPI PUSH1 0x40 MLOAD PUSH32 0x8C379A000000000000000000000000000000000000000000000000000000000 DUP2 MSTORE PUSH1 0x4 ADD PUSH2 0x294 SWAP1 PUSH2 0x940 JUMP JUMPDEST PUSH1 0x40 MLOAD DUP1 SWAP2 SUB SWAP1 REVERT JUMPDEST PUSH8 0xDE0B6B3A7640000 DUP2 GT ISZERO PUSH2 0x2E8 JUMPI PUSH1 0x40 MLOAD PUSH32 0x8C379A000000000000000000000000000000000000000000000000000000000 DUP2 MSTORE PUSH1 0x4 ADD PUSH2 0x2DF SWAP1 PUSH2 0x9A8 JUMP JUMPDEST PUSH1 0x40 MLOAD DUP1 SWAP2 SUB SWAP1 REVERT JUMPDEST DUP1 PUSH1 0x1 PUSH0 CALLER PUSH20 0xFFFFFFFFFFFFFFFFFFFFFFFFFFFFFFFFFFFFFFFF AND PUSH20 0xFFFFFFFFFFFFFFFFFFFFFFFFFFFFFFFFFFFFFFFF AND DUP2 MSTORE PUSH1 0x20 ADD SWAP1 DUP2 MSTORE PUSH1 0x20 ADD PUSH0 KECCAK256 SLOAD LT ISZERO PUSH2 0x368 JUMPI PUSH1 0x40 MLOAD PUSH32 0x8C379A000000000000000000000000000000000000000000000000000000000 DUP2 MSTORE PUSH1 0x4 ADD PUSH2 0x35F SWAP1 PUSH2 0xA10 JUMP JUMPDEST PUSH1 0x40 MLOAD DUP1 SWAP2 SUB SWAP1 REVERT JUMPDEST PUSH0 PUSH2 0x372 CALLER PUSH2 0x632 JUMP JUMPDEST SWAP1 POP PUSH0 DUP2 DUP4 PUSH2 0x381 SWAP2 SWAP1 PUSH2 0xA5B JUMP JUMPDEST SWAP1 POP DUP1 PUSH1 0x2 SLOAD LT ISZERO PUSH2 0x3C8 JUMPI PUSH1 0x40 MLOAD PUSH32 0x8C379A000000000000000000000000000000000000000000000000000000000 DUP2 MSTORE PUSH1 0x4 ADD PUSH2 0x3BF SWAP1 PUSH2 0xAD8 JUMP JUMPDEST PUSH1 0x40 MLOAD DUP1 SWAP2 SUB SWAP1 REVERT JUMPDEST DUP3 PUSH1 0x1 PUSH0 CALLER PUSH20 0xFFFFFFFFFFFFFFFFFFFFFFFFFFFFFFFFFFFFFFFF AND PUSH20 0xFFFFFFFFFFFFFFFFFFFFFFFFFFFFFFFFFFFFFFFF AND DUP2 MSTORE PUSH1 0x20 ADD SWAP1 DUP2 MSTORE PUSH1 0x20 ADD PUSH0 KECCAK256 PUSH0 DUP3 DUP3 SLOAD PUSH2 0x414 SWAP2 SWAP1 PUSH2 0xAF6 JUMP JUMPDEST SWAP3 POP POP DUP2 SWAP1 SSTORE POP DUP1 PUSH1 0x2 PUSH0 DUP3 DUP3 SLOAD PUSH2 0x42C SWAP2 SWAP1 PUSH2 0xAF6 JUMP JUMPDEST SWAP3 POP POP DUP2 SWAP1 SSTORE POP CALLER PUSH20 0xFFFFFFFFFFFFFFFFFFFFFFFFFFFFFFFFFFFFFFFF AND PUSH2 0x8FC DUP3 SWAP1 DUP2 ISZERO MUL SWAP1 PUSH1 0x40 MLOAD PUSH0 PUSH1 0x40 MLOAD DUP1 DUP4 SUB DUP2 DUP6 DUP9 DUP9 CALL SWAP4 POP POP POP POP ISZERO DUP1 ISZERO PUSH2 0x476 JUMPI RETURNDATASIZE PUSH0 DUP1 RETURNDATACOPY RETURNDATASIZE PUSH0 REVERT JUMPDEST POP CALLER PUSH20 0xFFFFFFFFFFFFFFFFFFFFFFFFFFFFFFFFFFFFFFFF AND PUSH32 0x7084F5476618D8E60B11EF0D7D3F06914655ADB8793E28FF7F018D4C76D505D5 DUP3 PUSH1 0x40 MLOAD PUSH2 0x4BD SWAP2 SWAP1 PUSH2 0x852 JUMP JUMPDEST PUSH1 0x40 MLOAD DUP1 SWAP2 SUB SWAP1 LOG2 POP POP PUSH2 0x4CF PUSH2 0x7A8 JUMP JUMPDEST POP JUMP JUMPDEST PUSH1 0x5 DUP2 JUMP JUMPDEST PUSH8 0xDE0B6B3A7640000 DUP2 JUMP JUMPDEST PUSH2 0x4EB PUSH2 0x75B JUMP JUMPDEST PUSH0 CALLVALUE GT PUSH2 0x52D JUMPI PUSH1 0x40 MLOAD PUSH32 0x8C379A000000000000000000000000000000000000000000000000000000000 DUP2 MSTORE PUSH1 0x4 ADD PUSH2 0x524 SWAP1 PUSH2 0xB99 JUMP JUMPDEST PUSH1 0x40 MLOAD DUP1 SWAP2 SUB SWAP1 REVERT JUMPDEST CALLVALUE PUSH1 0x1 PUSH0 CALLER PUSH20 0xFFFFFFFFFFFFFFFFFFFFFFFFFFFFFFFFFFFFFFFF AND PUSH20 0xFFFFFFFFFFFFFFFFFFFFFFFFFFFFFFFFFFFFFFFF AND DUP2 MSTORE PUSH1 0x20 ADD SWAP1 DUP2 MSTORE PUSH1 0x20 ADD PUSH0 KECCAK256 PUSH0 DUP3 DUP3 SLOAD PUSH2 0x579 SWAP2 SWAP1 PUSH2 0xA5B JUMP JUMPDEST SWAP3 POP POP DUP2 SWAP1 SSTORE POP CALLVALUE PUSH1 0x2 PUSH0 DUP3 DUP3 SLOAD PUSH2 0x591 SWAP2 SWAP1 PUSH2 0xA5B JUMP JUMPDEST SWAP3 POP POP DUP2 SWAP1 SSTORE POP TIMESTAMP PUSH1 0x3 PUSH0 CALLER PUSH20 0xFFFFFFFFFFFFFFFFFFFFFFFFFFFFFFFFFFFFFFFF AND PUSH20 0xFFFFFFFFFFFFFFFFFFFFFFFFFFFFFFFFFFFFFFFF AND DUP2 MSTORE PUSH1 0x20 ADD SWAP1 DUP2 MSTORE PUSH1 0x20 ADD PUSH0 KECCAK256 DUP2 SWAP1 SSTORE POP CALLER PUSH20 0xFFFFFFFFFFFFFFFFFFFFFFFFFFFFFFFFFFFFFFFF AND PUSH32 0x2DA466A7B24304F47E87FA2E1E5A81B9831CE54FEC19055CE277CA2F39BA42C4 CALLVALUE PUSH1 0x40 MLOAD PUSH2 0x620 SWAP2 SWAP1 PUSH2 0x852 JUMP JUMPDEST PUSH1 0x40 MLOAD DUP1 SWAP2 SUB SWAP1 LOG2 PUSH2 0x630 PUSH2 0x7A8 JUMP JUMPDEST JUMP JUMPDEST PUSH0 DUP1 PUSH1 0x3 PUSH0 DUP5 PUSH20 0xFFFFFFFFFFFFFFFFFFFFFFFFFFFFFFFFFFFFFFFF AND PUSH20 0xFFFFFFFFFFFFFFFFFFFFFFFFFFFFFFFFFFFFFFFF AND DUP2 MSTORE PUSH1 0x20 ADD SWAP1 DUP2 MSTORE PUSH1 0x20 ADD PUSH0 KECCAK256 SLOAD TIMESTAMP PUSH2 0x67D SWAP2 SWAP1 PUSH2 0xAF6 JUMP JUMPDEST SWAP1 POP PUSH0 PUSH4 0xBBF81E00 DUP3 PUSH1 0x5 PUSH1 0x1 PUSH0 DUP9 PUSH20 0xFFFFFFFFFFFFFFFFFFFFFFFFFFFFFFFFFFFFFFFF AND PUSH20 0xFFFFFFFFFFFFFFFFFFFFFFFFFFFFFFFFFFFFFFFF AND DUP2 MSTORE PUSH1 0x20 ADD SWAP1 DUP2 MSTORE PUSH1 0x20 ADD PUSH0 KECCAK256 SLOAD PUSH2 0x6D0 SWAP2 SWAP1 PUSH2 0xBB7 JUMP JUMPDEST PUSH2 0x6DA SWAP2 SWAP1 PUSH2 0xBB7 JUMP JUMPDEST PUSH2 0x6E4 SWAP2 SWAP1 PUSH2 0xC25 JUMP JUMPDEST SWAP1 POP DUP4 PUSH20 0xFFFFFFFFFFFFFFFFFFFFFFFFFFFFFFFFFFFFFFFF AND PUSH32 0x3AFF28A570E0FF120BF92F84DE651FAA874BA2DD7268AD0FC5A6810749272979 DUP3 PUSH1 0x40 MLOAD PUSH2 0x72C SWAP2 SWAP1 PUSH2 0x852 JUMP JUMPDEST PUSH1 0x40 MLOAD DUP1 SWAP2 SUB SWAP1 LOG2 DUP1 SWAP3 POP POP POP SWAP2 SWAP1 POP JUMP JUMPDEST PUSH0 PUSH3 0x15180 DUP3 PUSH2 0x74E SWAP2 SWAP1 PUSH2 0xBB7 JUMP JUMPDEST SWAP1 POP SWAP2 SWAP1 POP JUMP JUMPDEST PUSH1 0x2 SLOAD DUP2 JUMP JUMPDEST PUSH1 0x2 PUSH0 SLOAD SUB PUSH2 0x79F JUMPI PUSH1 0x40 MLOAD PUSH32 0x8C379A000000000000000000000000000000000000000000000000000000000 DUP2 MSTORE PUSH1 0x4 ADD PUSH2 0x796 SWAP1 PUSH2 0xC9F JUMP JUMPDEST PUSH1 0x40 MLOAD DUP1 SWAP2 SUB SWAP1 REVERT JUMPDEST PUSH1 0x2 PUSH0 DUP2 SWAP1 SSTORE POP JUMP JUMPDEST PUSH1 0x1 PUSH0 DUP2 SWAP1 SSTORE POP JUMP JUMPDEST PUSH0 DUP1 REVERT JUMPDEST PUSH0 PUSH20 0xFFFFFFFFFFFFFFFFFFFFFFFFFFFFFFFFFFFFFFFF DUP3 AND SWAP1 POP SWAP2 SWAP1 POP JUMP JUMPDEST PUSH0 PUSH2 0x7DE DUP3 PUSH2 0x7B5 JUMP JUMPDEST SWAP1 POP SWAP2 SWAP1 POP JUMP JUMPDEST PUSH2 0x7EE DUP2 PUSH2 0x7D4 JUMP JUMPDEST DUP2 EQ PUSH2 0x7F8 JUMPI PUSH0 DUP1 REVERT JUMPDEST POP JUMP JUMPDEST PUSH0 DUP2 CALLDATALOAD SWAP1 POP PUSH2 0x809 DUP2 PUSH2 0x7E5 JUMP JUMPDEST SWAP3 SWAP2 POP POP JUMP JUMPDEST PUSH0 PUSH1 0x20 DUP3 DUP5 SUB SLT ISZERO PUSH2 0x824 JUMPI PUSH2 0x823 PUSH2 0x7B1 JUMP JUMPDEST JUMPDEST PUSH0 PUSH2 0x831 DUP5 DUP3 DUP6 ADD PUSH2 0x7FB JUMP JUMPDEST SWAP2 POP POP SWAP3 SWAP2 POP POP JUMP JUMPDEST PUSH0 DUP2 SWAP1 POP SWAP2 SWAP1 POP JUMP JUMPDEST PUSH2 0x84C DUP2 PUSH2 0x83A JUMP JUMPDEST DUP3 MSTORE POP POP JUMP JUMPDEST PUSH0 PUSH1 0x20 DUP3 ADD SWAP1 POP PUSH2 0x865 PUSH0 DUP4 ADD DUP5 PUSH2 0x843 JUMP JUMPDEST SWAP3 SWAP2 POP POP JUMP JUMPDEST PUSH2 0x874 DUP2 PUSH2 0x83A JUMP JUMPDEST DUP2 EQ PUSH2 0x87E JUMPI PUSH0 DUP1 REVERT JUMPDEST POP JUMP JUMPDEST PUSH0 DUP2 CALLDATALOAD SWAP1 POP PUSH2 0x88F DUP2 PUSH2 0x86B JUMP JUMPDEST SWAP3 SWAP2 POP POP JUMP JUMPDEST PUSH0 PUSH1 0x20 DUP3 DUP5 SUB SLT ISZERO PUSH2 0x8AA JUMPI PUSH2 0x8A9 PUSH2 0x7B1 JUMP JUMPDEST JUMPDEST PUSH0 PUSH2 0x8B7 DUP5 DUP3 DUP6 ADD PUSH2 0x881 JUMP JUMPDEST SWAP2 POP POP SWAP3 SWAP2 POP POP JUMP JUMPDEST PUSH0 DUP3 DUP3 MSTORE PUSH1 0x20 DUP3 ADD SWAP1 POP SWAP3 SWAP2 POP POP JUMP JUMPDEST PUSH32 0x5769746864726177616C20616D6F756E74206D75737420626520677265617465 PUSH0 DUP3 ADD MSTORE PUSH32 0x72207468616E2030000000000000000000000000000000000000000000000000 PUSH1 0x20 DUP3 ADD MSTORE POP JUMP JUMPDEST PUSH0 PUSH2 0x92A PUSH1 0x28 DUP4 PUSH2 0x8C0 JUMP JUMPDEST SWAP2 POP PUSH2 0x935 DUP3 PUSH2 0x8D0 JUMP JUMPDEST PUSH1 0x40 DUP3 ADD SWAP1 POP SWAP2 SWAP1 POP JUMP JUMPDEST PUSH0 PUSH1 0x20 DUP3 ADD SWAP1 POP DUP2 DUP2 SUB PUSH0 DUP4 ADD MSTORE PUSH2 0x957 DUP2 PUSH2 0x91E JUMP JUMPDEST SWAP1 POP SWAP2 SWAP1 POP JUMP JUMPDEST PUSH32 0x45786365656473207769746864726177616C206C696D69740000000000000000 PUSH0 DUP3 ADD MSTORE POP JUMP JUMPDEST PUSH0 PUSH2 0x992 PUSH1 0x18 DUP4 PUSH2 0x8C0 JUMP JUMPDEST SWAP2 POP PUSH2 0x99D DUP3 PUSH2 0x95E JUMP JUMPDEST PUSH1 0x20 DUP3 ADD SWAP1 POP SWAP2 SWAP1 POP JUMP JUMPDEST PUSH0 PUSH1 0x20 DUP3 ADD SWAP1 POP DUP2 DUP2 SUB PUSH0 DUP4 ADD MSTORE PUSH2 0x9BF DUP2 PUSH2 0x986 JUMP JUMPDEST SWAP1 POP SWAP2 SWAP1 POP JUMP JUMPDEST PUSH32 0x496E73756666696369656E742062616C616E6365000000000000000000000000 PUSH0 DUP3 ADD MSTORE POP JUMP JUMPDEST PUSH0 PUSH2 0x9FA PUSH1 0x14 DUP4 PUSH2 0x8C0 JUMP JUMPDEST SWAP2 POP PUSH2 0xA05 DUP3 PUSH2 0x9C6 JUMP JUMPDEST PUSH1 0x20 DUP3 ADD SWAP1 POP SWAP2 SWAP1 POP JUMP JUMPDEST PUSH0 PUSH1 0x20 DUP3 ADD SWAP1 POP DUP2 DUP2 SUB PUSH0 DUP4 ADD MSTORE PUSH2 0xA27 DUP2 PUSH2 0x9EE JUMP JUMPDEST SWAP1 POP SWAP2 SWAP1 POP JUMP JUMPDEST PUSH32 0x4E487B7100000000000000000000000000000000000000000000000000000000 PUSH0 MSTORE PUSH1 0x11 PUSH1 0x4 MSTORE PUSH1 0x24 PUSH0 REVERT JUMPDEST PUSH0 PUSH2 0xA65 DUP3 PUSH2 0x83A JUMP JUMPDEST SWAP2 POP PUSH2 0xA70 DUP4 PUSH2 0x83A JUMP JUMPDEST SWAP3 POP DUP3 DUP3 ADD SWAP1 POP DUP1 DUP3 GT ISZERO PUSH2 0xA88 JUMPI PUSH2 0xA87 PUSH2 0xA2E JUMP JUMPDEST JUMPDEST SWAP3 SWAP2 POP POP JUMP JUMPDEST PUSH32 0x496E73756666696369656E7420706F6F6C2062616C616E636500000000000000 PUSH0 DUP3 ADD MSTORE POP JUMP JUMPDEST PUSH0 PUSH2 0xAC2 PUSH1 0x19 DUP4 PUSH2 0x8C0 JUMP JUMPDEST SWAP2 POP PUSH2 0xACD DUP3 PUSH2 0xA8E JUMP JUMPDEST PUSH1 0x20 DUP3 ADD SWAP1 POP SWAP2 SWAP1 POP JUMP JUMPDEST PUSH0 PUSH1 0x20 DUP3 ADD SWAP1 POP DUP2 DUP2 SUB PUSH0 DUP4 ADD MSTORE PUSH2 0xAEF DUP2 PUSH2 0xAB6 JUMP JUMPDEST SWAP1 POP SWAP2 SWAP1 POP JUMP JUMPDEST PUSH0 PUSH2 0xB00 DUP3 PUSH2 0x83A JUMP JUMPDEST SWAP2 POP PUSH2 0xB0B DUP4 PUSH2 0x83A JUMP JUMPDEST SWAP3 POP DUP3 DUP3 SUB SWAP1 POP DUP2 DUP2 GT ISZERO PUSH2 0xB23 JUMPI PUSH2 0xB22 PUSH2 0xA2E JUMP JUMPDEST JUMPDEST SWAP3 SWAP2 POP POP JUMP JUMPDEST PUSH32 0x4465706F73697420616D6F756E74206D75737420626520677265617465722074 PUSH0 DUP3 ADD MSTORE PUSH32 0x68616E2030000000000000000000000000000000000000000000000000000000 PUSH1 0x20 DUP3 ADD MSTORE POP JUMP JUMPDEST PUSH0 PUSH2 0xB83 PUSH1 0x25 DUP4 PUSH2 0x8C0 JUMP JUMPDEST SWAP2 POP PUSH2 0xB8E DUP3 PUSH2 0xB29 JUMP JUMPDEST PUSH1 0x40 DUP3 ADD SWAP1 POP SWAP2 SWAP1 POP JUMP JUMPDEST PUSH0 PUSH1 0x20 DUP3 ADD SWAP1 POP DUP2 DUP2 SUB PUSH0 DUP4 ADD MSTORE PUSH2 0xBB0 DUP2 PUSH2 0xB77 JUMP JUMPDEST SWAP1 POP SWAP2 SWAP1 POP JUMP JUMPDEST PUSH0 PUSH2 0xBC1 DUP3 PUSH2 0x83A JUMP JUMPDEST SWAP2 POP PUSH2 0xBCC DUP4 PUSH2 0x83A JUMP JUMPDEST SWAP3 POP DUP3 DUP3 MUL PUSH2 0xBDA DUP2 PUSH2 0x83A JUMP JUMPDEST SWAP2 POP DUP3 DUP3 DIV DUP5 EQ DUP4 ISZERO OR PUSH2 0xBF1 JUMPI PUSH2 0xBF0 PUSH2 0xA2E JUMP JUMPDEST JUMPDEST POP SWAP3 SWAP2 POP POP JUMP JUMPDEST PUSH32 0x4E487B7100000000000000000000000000000000000000000000000000000000 PUSH0 MSTORE PUSH1 0x12 PUSH1 0x4 MSTORE PUSH1 0x24 PUSH0 REVERT JUMPDEST PUSH0 PUSH2 0xC2F DUP3 PUSH2 0x83A JUMP JUMPDEST SWAP2 POP PUSH2 0xC3A DUP4 PUSH2 0x83A JUMP JUMPDEST SWAP3 POP DUP3 PUSH2 0xC4A JUMPI PUSH2 0xC49 PUSH2 0xBF8 JUMP JUMPDEST JUMPDEST DUP3 DUP3 DIV SWAP1 POP SWAP3 SWAP2 POP POP JUMP JUMPDEST PUSH32 0x5265656E7472616E637947756172643A207265656E7472616E742063616C6C00 PUSH0 DUP3 ADD MSTORE POP JUMP JUMPDEST PUSH0 PUSH2 0xC89 PUSH1 0x1F DUP4 PUSH2 0x8C0 JUMP JUMPDEST SWAP2 POP PUSH2 0xC94 DUP3 PUSH2 0xC55 JUMP JUMPDEST PUSH1 0x20 DUP3 ADD SWAP1 POP SWAP2 SWAP1 POP JUMP JUMPDEST PUSH0 PUSH1 0x20 DUP3 ADD SWAP1 POP DUP2 DUP2 SUB PUSH0 DUP4 ADD MSTORE PUSH2 0xCB6 DUP2 PUSH2 0xC7D JUMP JUMPDEST SWAP1 POP SWAP2 SWAP1 POP JUMP INVALID LOG2 PUSH5 0x6970667358 0x22 SLT KECCAK256 ORIGIN 0xB2 0xBE BALANCE PUSH1 0xEA KECCAK256 PUSH23 0xCD09AAE938CA86A3D6C0E8415D59CC7AD9A958D26179AA PUSH17 0x64736F6C634300081A0033000000000000 "
				},
				"gasEstimates": {
					"creation": {
						"codeDepositCost": "663000",
						"executionCost": "22807",
						"totalCost": "685807"
					},
					"external": {
						"INTEREST_RATE()": "392",
						"WITHDRAWAL_LIMIT()": "325",
						"balances(address)": "2803",
						"calculateInterest(address)": "infinite",
						"convertDaysToSeconds(uint256)": "infinite",
						"deposit()": "infinite",
						"lastUpdateTime(address)": "2825",
						"totalPool()": "2513",
						"withdraw(uint256)": "infinite"
					}
				},
				"methodIdentifiers": {
					"INTEREST_RATE()": "5b72a33a",
					"WITHDRAWAL_LIMIT()": "82ee0d1d",
					"balances(address)": "27e235e3",
					"calculateInterest(address)": "e11932cf",
					"convertDaysToSeconds(uint256)": "e721da13",
					"deposit()": "d0e30db0",
					"lastUpdateTime(address)": "2ce9aead",
					"totalPool()": "ecfb49a3",
					"withdraw(uint256)": "2e1a7d4d"
				}
			},
			"storageLayout": {
				"storage": [
					{
						"astId": 10,
						"contract": "Day-04/code1.sol:SecureLendingPool",
						"label": "_status",
						"offset": 0,
						"slot": "0",
						"type": "t_uint256"
					},
					{
						"astId": 73,
						"contract": "Day-04/code1.sol:SecureLendingPool",
						"label": "balances",
						"offset": 0,
						"slot": "1",
						"type": "t_mapping(t_address,t_uint256)"
					},
					{
						"astId": 75,
						"contract": "Day-04/code1.sol:SecureLendingPool",
						"label": "totalPool",
						"offset": 0,
						"slot": "2",
						"type": "t_uint256"
					},
					{
						"astId": 82,
						"contract": "Day-04/code1.sol:SecureLendingPool",
						"label": "lastUpdateTime",
						"offset": 0,
						"slot": "3",
						"type": "t_mapping(t_address,t_uint256)"
					}
				],
				"types": {
					"t_address": {
						"encoding": "inplace",
						"label": "address",
						"numberOfBytes": "20"
					},
					"t_mapping(t_address,t_uint256)": {
						"encoding": "mapping",
						"key": "t_address",
						"label": "mapping(address => uint256)",
						"numberOfBytes": "32",
						"value": "t_uint256"
					},
					"t_uint256": {
						"encoding": "inplace",
						"label": "uint256",
						"numberOfBytes": "32"
					}
				}
			},
			"userdoc": {
				"kind": "user",
				"methods": {},
				"version": 1
			}
		}
	}
}