{
	"Day-05/code1.sol": {
		"StakingPool": {
			"abi": [
				{
					"inputs": [
						{
							"internalType": "address",
							"name": "_stakingToken",
							"type": "address"
						},
						{
							"internalType": "address",
							"name": "_rewardToken",
							"type": "address"
						},
						{
							"internalType": "uint256",
							"name": "_rewardRate",
							"type": "uint256"
						},
						{
							"internalType": "uint256",
							"name": "_rewardsDuration",
							"type": "uint256"
						},
						{
							"internalType": "address",
							"name": "initialOwner",
							"type": "address"
						}
					],
					"stateMutability": "nonpayable",
					"type": "constructor"
				},
				{
					"inputs": [
						{
							"internalType": "address",
							"name": "owner",
							"type": "address"
						}
					],
					"name": "OwnableInvalidOwner",
					"type": "error"
				},
				{
					"inputs": [
						{
							"internalType": "address",
							"name": "account",
							"type": "address"
						}
					],
					"name": "OwnableUnauthorizedAccount",
					"type": "error"
				},
				{
					"inputs": [
						{
							"internalType": "address",
							"name": "token",
							"type": "address"
						}
					],
					"name": "SafeERC20FailedOperation",
					"type": "error"
				},
				{
					"anonymous": false,
					"inputs": [
						{
							"indexed": true,
							"internalType": "address",
							"name": "previousOwner",
							"type": "address"
						},
						{
							"indexed": true,
							"internalType": "address",
							"name": "newOwner",
							"type": "address"
						}
					],
					"name": "OwnershipTransferred",
					"type": "event"
				},
				{
					"anonymous": false,
					"inputs": [
						{
							"indexed": true,
							"internalType": "address",
							"name": "account",
							"type": "address"
						}
					],
					"name": "Paused",
					"type": "event"
				},
				{
					"anonymous": false,
					"inputs": [
						{
							"indexed": false,
							"internalType": "uint256",
							"name": "reward",
							"type": "uint256"
						}
					],
					"name": "RewardAdded",
					"type": "event"
				},
				{
					"anonymous": false,
					"inputs": [
						{
							"indexed": true,
							"internalType": "address",
							"name": "user",
							"type": "address"
						},
						{
							"indexed": false,
							"internalType": "uint256",
							"name": "reward",
							"type": "uint256"
						}
					],
					"name": "RewardPaid",
					"type": "event"
				},
				{
					"anonymous": false,
					"inputs": [
						{
							"indexed": true,
							"internalType": "address",
							"name": "user",
							"type": "address"
						},
						{
							"indexed": false,
							"internalType": "uint256",
							"name": "amount",
							"type": "uint256"
						}
					],
					"name": "Staked",
					"type": "event"
				},
				{
					"anonymous": false,
					"inputs": [
						{
							"indexed": true,
							"internalType": "address",
							"name": "account",
							"type": "address"
						}
					],
					"name": "Unpaused",
					"type": "event"
				},
				{
					"anonymous": false,
					"inputs": [
						{
							"indexed": true,
							"internalType": "address",
							"name": "user",
							"type": "address"
						},
						{
							"indexed": false,
							"internalType": "uint256",
							"name": "amount",
							"type": "uint256"
						}
					],
					"name": "Withdrawn",
					"type": "event"
				},
				{
					"inputs": [
						{
							"internalType": "address",
							"name": "_account",
							"type": "address"
						}
					],
					"name": "balanceOf",
					"outputs": [
						{
							"internalType": "uint256",
							"name": "",
							"type": "uint256"
						}
					],
					"stateMutability": "view",
					"type": "function"
				},
				{
					"inputs": [
						{
							"internalType": "address",
							"name": "_account",
							"type": "address"
						}
					],
					"name": "earned",
					"outputs": [
						{
							"internalType": "uint256",
							"name": "",
							"type": "uint256"
						}
					],
					"stateMutability": "view",
					"type": "function"
				},
				{
					"inputs": [],
					"name": "exit",
					"outputs": [],
					"stateMutability": "nonpayable",
					"type": "function"
				},
				{
					"inputs": [],
					"name": "getReward",
					"outputs": [],
					"stateMutability": "nonpayable",
					"type": "function"
				},
				{
					"inputs": [],
					"name": "lastTimeRewardApplicable",
					"outputs": [
						{
							"internalType": "uint256",
							"name": "",
							"type": "uint256"
						}
					],
					"stateMutability": "view",
					"type": "function"
				},
				{
					"inputs": [],
					"name": "lastUpdateTime",
					"outputs": [
						{
							"internalType": "uint256",
							"name": "",
							"type": "uint256"
						}
					],
					"stateMutability": "view",
					"type": "function"
				},
				{
					"inputs": [
						{
							"internalType": "uint256",
							"name": "_reward",
							"type": "uint256"
						}
					],
					"name": "notifyRewardAmount",
					"outputs": [],
					"stateMutability": "nonpayable",
					"type": "function"
				},
				{
					"inputs": [],
					"name": "owner",
					"outputs": [
						{
							"internalType": "address",
							"name": "",
							"type": "address"
						}
					],
					"stateMutability": "view",
					"type": "function"
				},
				{
					"inputs": [],
					"name": "pause",
					"outputs": [],
					"stateMutability": "nonpayable",
					"type": "function"
				},
				{
					"inputs": [],
					"name": "paused",
					"outputs": [
						{
							"internalType": "bool",
							"name": "",
							"type": "bool"
						}
					],
					"stateMutability": "view",
					"type": "function"
				},
				{
					"inputs": [],
					"name": "renounceOwnership",
					"outputs": [],
					"stateMutability": "nonpayable",
					"type": "function"
				},
				{
					"inputs": [],
					"name": "rewardPerToken",
					"outputs": [
						{
							"internalType": "uint256",
							"name": "",
							"type": "uint256"
						}
					],
					"stateMutability": "view",
					"type": "function"
				},
				{
					"inputs": [],
					"name": "rewardPerTokenStored",
					"outputs": [
						{
							"internalType": "uint256",
							"name": "",
							"type": "uint256"
						}
					],
					"stateMutability": "view",
					"type": "function"
				},
				{
					"inputs": [],
					"name": "rewardRate",
					"outputs": [
						{
							"internalType": "uint256",
							"name": "",
							"type": "uint256"
						}
					],
					"stateMutability": "view",
					"type": "function"
				},
				{
					"inputs": [],
					"name": "rewardToken",
					"outputs": [
						{
							"internalType": "contract IERC20",
							"name": "",
							"type": "address"
						}
					],
					"stateMutability": "view",
					"type": "function"
				},
				{
					"inputs": [
						{
							"internalType": "address",
							"name": "",
							"type": "address"
						}
					],
					"name": "rewards",
					"outputs": [
						{
							"internalType": "uint256",
							"name": "",
							"type": "uint256"
						}
					],
					"stateMutability": "view",
					"type": "function"
				},
				{
					"inputs": [],
					"name": "rewardsDuration",
					"outputs": [
						{
							"internalType": "uint256",
							"name": "",
							"type": "uint256"
						}
					],
					"stateMutability": "view",
					"type": "function"
				},
				{
					"inputs": [
						{
							"internalType": "uint256",
							"name": "_rewardsDuration",
							"type": "uint256"
						}
					],
					"name": "setRewardsDuration",
					"outputs": [],
					"stateMutability": "nonpayable",
					"type": "function"
				},
				{
					"inputs": [
						{
							"internalType": "uint256",
							"name": "_amount",
							"type": "uint256"
						}
					],
					"name": "stake",
					"outputs": [],
					"stateMutability": "nonpayable",
					"type": "function"
				},
				{
					"inputs": [
						{
							"internalType": "address",
							"name": "",
							"type": "address"
						}
					],
					"name": "stakedAmounts",
					"outputs": [
						{
							"internalType": "uint256",
							"name": "",
							"type": "uint256"
						}
					],
					"stateMutability": "view",
					"type": "function"
				},
				{
					"inputs": [],
					"name": "stakingToken",
					"outputs": [
						{
							"internalType": "contract IERC20",
							"name": "",
							"type": "address"
						}
					],
					"stateMutability": "view",
					"type": "function"
				},
				{
					"inputs": [],
					"name": "totalSupply",
					"outputs": [
						{
							"internalType": "uint256",
							"name": "",
							"type": "uint256"
						}
					],
					"stateMutability": "view",
					"type": "function"
				},
				{
					"inputs": [
						{
							"internalType": "address",
							"name": "newOwner",
							"type": "address"
						}
					],
					"name": "transferOwnership",
					"outputs": [],
					"stateMutability": "nonpayable",
					"type": "function"
				},
				{
					"inputs": [],
					"name": "unpause",
					"outputs": [],
					"stateMutability": "nonpayable",
					"type": "function"
				},
				{
					"inputs": [
						{
							"internalType": "address",
							"name": "",
							"type": "address"
						}
					],
					"name": "userRewardPerTokenPaid",
					"outputs": [
						{
							"internalType": "uint256",
							"name": "",
							"type": "uint256"
						}
					],
					"stateMutability": "view",
					"type": "function"
				},
				{
					"inputs": [
						{
							"internalType": "uint256",
							"name": "_amount",
							"type": "uint256"
						}
					],
					"name": "withdraw",
					"outputs": [],
					"stateMutability": "nonpayable",
					"type": "function"
				}
			],
			"devdoc": {
				"errors": {
					"OwnableInvalidOwner(address)": [
						{
							"details": "The owner is not a valid owner account. (eg. `address(0)`)"
						}
					],
					"OwnableUnauthorizedAccount(address)": [
						{
							"details": "The caller account is not authorized to perform an operation."
						}
					],
					"SafeERC20FailedOperation(address)": [
						{
							"details": "An operation with an ERC-20 token failed."
						}
					]
				},
				"kind": "dev",
				"methods": {
					"owner()": {
						"details": "Returns the address of the current owner."
					},
					"renounceOwnership()": {
						"details": "Leaves the contract without owner. It will not be possible to call `onlyOwner` functions. Can only be called by the current owner. NOTE: Renouncing ownership will leave the contract without an owner, thereby disabling any functionality that is only available to the owner."
					},
					"transferOwnership(address)": {
						"details": "Transfers ownership of the contract to a new account (`newOwner`). Can only be called by the current owner."
					}
				},
				"version": 1
			},
			"evm": {
				"assembly": "    /* \"Day-05/code1.sol\":241:5187  contract StakingPool is Ownable {... */\n  mstore(0x40, 0x80)\n    /* \"Day-05/code1.sol\":1073:1448  constructor(... */\n  callvalue\n  dup1\n  iszero\n  tag_1\n  jumpi\n  0x00\n  dup1\n  revert\ntag_1:\n  pop\n  mload(0x40)\n  sub(codesize, bytecodeSize)\n  dup1\n  bytecodeSize\n  dup4\n  codecopy\n  dup2\n  dup2\n  add\n  0x40\n  mstore\n  dup2\n  add\n  swap1\n  tag_2\n  swap2\n  swap1\n  tag_3\n  jump\t// in\ntag_2:\n    /* \"Day-05/code1.sol\":1235:1247  initialOwner */\n  dup1\n    /* \"@openzeppelin/contracts/access/Ownable.sol\":1297:1298  0 */\n  0x00\n    /* \"@openzeppelin/contracts/access/Ownable.sol\":1273:1299  initialOwner == address(0) */\n  0xffffffffffffffffffffffffffffffffffffffff\n  and\n    /* \"@openzeppelin/contracts/access/Ownable.sol\":1273:1285  initialOwner */\n  dup2\n    /* \"@openzeppelin/contracts/access/Ownable.sol\":1273:1299  initialOwner == address(0) */\n  0xffffffffffffffffffffffffffffffffffffffff\n  and\n  sub\n    /* \"@openzeppelin/contracts/access/Ownable.sol\":1269:1364  if (initialOwner == address(0)) {... */\n  tag_7\n  jumpi\n    /* \"@openzeppelin/contracts/access/Ownable.sol\":1350:1351  0 */\n  0x00\n    /* \"@openzeppelin/contracts/access/Ownable.sol\":1322:1353  OwnableInvalidOwner(address(0)) */\n  mload(0x40)\n  0x1e4fbdf700000000000000000000000000000000000000000000000000000000\n  dup2\n  mstore\n  0x04\n  add\n  tag_8\n  swap2\n  swap1\n  tag_9\n  jump\t// in\ntag_8:\n  mload(0x40)\n  dup1\n  swap2\n  sub\n  swap1\n  revert\n    /* \"@openzeppelin/contracts/access/Ownable.sol\":1269:1364  if (initialOwner == address(0)) {... */\ntag_7:\n    /* \"@openzeppelin/contracts/access/Ownable.sol\":1373:1405  _transferOwnership(initialOwner) */\n  tag_10\n    /* \"@openzeppelin/contracts/access/Ownable.sol\":1392:1404  initialOwner */\n  dup2\n    /* \"@openzeppelin/contracts/access/Ownable.sol\":1373:1391  _transferOwnership */\n  shl(0x20, tag_11)\n    /* \"@openzeppelin/contracts/access/Ownable.sol\":1373:1405  _transferOwnership(initialOwner) */\n  0x20\n  shr\n  jump\t// in\ntag_10:\n    /* \"@openzeppelin/contracts/access/Ownable.sol\":1225:1412  constructor(address initialOwner) {... */\n  pop\n    /* \"Day-05/code1.sol\":1278:1291  _stakingToken */\n  dup5\n    /* \"Day-05/code1.sol\":1256:1268  stakingToken */\n  0x01\n  0x00\n    /* \"Day-05/code1.sol\":1256:1292  stakingToken = IERC20(_stakingToken) */\n  0x0100\n  exp\n  dup2\n  sload\n  dup2\n  0xffffffffffffffffffffffffffffffffffffffff\n  mul\n  not\n  and\n  swap1\n  dup4\n  0xffffffffffffffffffffffffffffffffffffffff\n  and\n  mul\n  or\n  swap1\n  sstore\n  pop\n    /* \"Day-05/code1.sol\":1320:1332  _rewardToken */\n  dup4\n    /* \"Day-05/code1.sol\":1299:1310  rewardToken */\n  0x02\n  0x00\n    /* \"Day-05/code1.sol\":1299:1333  rewardToken = IERC20(_rewardToken) */\n  0x0100\n  exp\n  dup2\n  sload\n  dup2\n  0xffffffffffffffffffffffffffffffffffffffff\n  mul\n  not\n  and\n  swap1\n  dup4\n  0xffffffffffffffffffffffffffffffffffffffff\n  and\n  mul\n  or\n  swap1\n  sstore\n  pop\n    /* \"Day-05/code1.sol\":1353:1364  _rewardRate */\n  dup3\n    /* \"Day-05/code1.sol\":1340:1350  rewardRate */\n  0x03\n    /* \"Day-05/code1.sol\":1340:1364  rewardRate = _rewardRate */\n  dup2\n  swap1\n  sstore\n  pop\n    /* \"Day-05/code1.sol\":1389:1405  _rewardsDuration */\n  dup2\n    /* \"Day-05/code1.sol\":1371:1386  rewardsDuration */\n  0x04\n    /* \"Day-05/code1.sol\":1371:1405  rewardsDuration = _rewardsDuration */\n  dup2\n  swap1\n  sstore\n  pop\n    /* \"Day-05/code1.sol\":1429:1444  block.timestamp */\n  timestamp\n    /* \"Day-05/code1.sol\":1412:1426  lastUpdateTime */\n  0x05\n    /* \"Day-05/code1.sol\":1412:1444  lastUpdateTime = block.timestamp */\n  dup2\n  swap1\n  sstore\n  pop\n    /* \"Day-05/code1.sol\":1073:1448  constructor(... */\n  pop\n  pop\n  pop\n  pop\n  pop\n    /* \"Day-05/code1.sol\":241:5187  contract StakingPool is Ownable {... */\n  jump(tag_13)\n    /* \"@openzeppelin/contracts/access/Ownable.sol\":2912:3099  function _transferOwnership(address newOwner) internal virtual {... */\ntag_11:\n    /* \"@openzeppelin/contracts/access/Ownable.sol\":2985:3001  address oldOwner */\n  0x00\n    /* \"@openzeppelin/contracts/access/Ownable.sol\":3004:3010  _owner */\n  dup1\n  0x00\n  swap1\n  sload\n  swap1\n  0x0100\n  exp\n  swap1\n  div\n  0xffffffffffffffffffffffffffffffffffffffff\n  and\n    /* \"@openzeppelin/contracts/access/Ownable.sol\":2985:3010  address oldOwner = _owner */\n  swap1\n  pop\n    /* \"@openzeppelin/contracts/access/Ownable.sol\":3029:3037  newOwner */\n  dup2\n    /* \"@openzeppelin/contracts/access/Ownable.sol\":3020:3026  _owner */\n  0x00\n  dup1\n    /* \"@openzeppelin/contracts/access/Ownable.sol\":3020:3037  _owner = newOwner */\n  0x0100\n  exp\n  dup2\n  sload\n  dup2\n  0xffffffffffffffffffffffffffffffffffffffff\n  mul\n  not\n  and\n  swap1\n  dup4\n  0xffffffffffffffffffffffffffffffffffffffff\n  and\n  mul\n  or\n  swap1\n  sstore\n  pop\n    /* \"@openzeppelin/contracts/access/Ownable.sol\":3083:3091  newOwner */\n  dup2\n    /* \"@openzeppelin/contracts/access/Ownable.sol\":3052:3092  OwnershipTransferred(oldOwner, newOwner) */\n  0xffffffffffffffffffffffffffffffffffffffff\n  and\n    /* \"@openzeppelin/contracts/access/Ownable.sol\":3073:3081  oldOwner */\n  dup2\n    /* \"@openzeppelin/contracts/access/Ownable.sol\":3052:3092  OwnershipTransferred(oldOwner, newOwner) */\n  0xffffffffffffffffffffffffffffffffffffffff\n  and\n  0x8be0079c531659141344cd1fd0a4f28419497f9722a3daafe3b4186f6b6457e0\n  mload(0x40)\n  mload(0x40)\n  dup1\n  swap2\n  sub\n  swap1\n  log3\n    /* \"@openzeppelin/contracts/access/Ownable.sol\":2975:3099  {... */\n  pop\n    /* \"@openzeppelin/contracts/access/Ownable.sol\":2912:3099  function _transferOwnership(address newOwner) internal virtual {... */\n  pop\n  jump\t// out\n    /* \"#utility.yul\":88:205   */\ntag_16:\n    /* \"#utility.yul\":197:198   */\n  0x00\n    /* \"#utility.yul\":194:195   */\n  dup1\n    /* \"#utility.yul\":187:199   */\n  revert\n    /* \"#utility.yul\":334:460   */\ntag_18:\n    /* \"#utility.yul\":371:378   */\n  0x00\n    /* \"#utility.yul\":411:453   */\n  0xffffffffffffffffffffffffffffffffffffffff\n    /* \"#utility.yul\":404:409   */\n  dup3\n    /* \"#utility.yul\":400:454   */\n  and\n    /* \"#utility.yul\":389:454   */\n  swap1\n  pop\n    /* \"#utility.yul\":334:460   */\n  swap2\n  swap1\n  pop\n  jump\t// out\n    /* \"#utility.yul\":466:562   */\ntag_19:\n    /* \"#utility.yul\":503:510   */\n  0x00\n    /* \"#utility.yul\":532:556   */\n  tag_32\n    /* \"#utility.yul\":550:555   */\n  dup3\n    /* \"#utility.yul\":532:556   */\n  tag_18\n  jump\t// in\ntag_32:\n    /* \"#utility.yul\":521:556   */\n  swap1\n  pop\n    /* \"#utility.yul\":466:562   */\n  swap2\n  swap1\n  pop\n  jump\t// out\n    /* \"#utility.yul\":568:690   */\ntag_20:\n    /* \"#utility.yul\":641:665   */\n  tag_34\n    /* \"#utility.yul\":659:664   */\n  dup2\n    /* \"#utility.yul\":641:665   */\n  tag_19\n  jump\t// in\ntag_34:\n    /* \"#utility.yul\":634:639   */\n  dup2\n    /* \"#utility.yul\":631:666   */\n  eq\n    /* \"#utility.yul\":621:684   */\n  tag_35\n  jumpi\n    /* \"#utility.yul\":680:681   */\n  0x00\n    /* \"#utility.yul\":677:678   */\n  dup1\n    /* \"#utility.yul\":670:682   */\n  revert\n    /* \"#utility.yul\":621:684   */\ntag_35:\n    /* \"#utility.yul\":568:690   */\n  pop\n  jump\t// out\n    /* \"#utility.yul\":696:839   */\ntag_21:\n    /* \"#utility.yul\":753:758   */\n  0x00\n    /* \"#utility.yul\":784:790   */\n  dup2\n    /* \"#utility.yul\":778:791   */\n  mload\n    /* \"#utility.yul\":769:791   */\n  swap1\n  pop\n    /* \"#utility.yul\":800:833   */\n  tag_37\n    /* \"#utility.yul\":827:832   */\n  dup2\n    /* \"#utility.yul\":800:833   */\n  tag_20\n  jump\t// in\ntag_37:\n    /* \"#utility.yul\":696:839   */\n  swap3\n  swap2\n  pop\n  pop\n  jump\t// out\n    /* \"#utility.yul\":845:922   */\ntag_22:\n    /* \"#utility.yul\":882:889   */\n  0x00\n    /* \"#utility.yul\":911:916   */\n  dup2\n    /* \"#utility.yul\":900:916   */\n  swap1\n  pop\n    /* \"#utility.yul\":845:922   */\n  swap2\n  swap1\n  pop\n  jump\t// out\n    /* \"#utility.yul\":928:1050   */\ntag_23:\n    /* \"#utility.yul\":1001:1025   */\n  tag_40\n    /* \"#utility.yul\":1019:1024   */\n  dup2\n    /* \"#utility.yul\":1001:1025   */\n  tag_22\n  jump\t// in\ntag_40:\n    /* \"#utility.yul\":994:999   */\n  dup2\n    /* \"#utility.yul\":991:1026   */\n  eq\n    /* \"#utility.yul\":981:1044   */\n  tag_41\n  jumpi\n    /* \"#utility.yul\":1040:1041   */\n  0x00\n    /* \"#utility.yul\":1037:1038   */\n  dup1\n    /* \"#utility.yul\":1030:1042   */\n  revert\n    /* \"#utility.yul\":981:1044   */\ntag_41:\n    /* \"#utility.yul\":928:1050   */\n  pop\n  jump\t// out\n    /* \"#utility.yul\":1056:1199   */\ntag_24:\n    /* \"#utility.yul\":1113:1118   */\n  0x00\n    /* \"#utility.yul\":1144:1150   */\n  dup2\n    /* \"#utility.yul\":1138:1151   */\n  mload\n    /* \"#utility.yul\":1129:1151   */\n  swap1\n  pop\n    /* \"#utility.yul\":1160:1193   */\n  tag_43\n    /* \"#utility.yul\":1187:1192   */\n  dup2\n    /* \"#utility.yul\":1160:1193   */\n  tag_23\n  jump\t// in\ntag_43:\n    /* \"#utility.yul\":1056:1199   */\n  swap3\n  swap2\n  pop\n  pop\n  jump\t// out\n    /* \"#utility.yul\":1205:2182   */\ntag_3:\n    /* \"#utility.yul\":1311:1317   */\n  0x00\n    /* \"#utility.yul\":1319:1325   */\n  dup1\n    /* \"#utility.yul\":1327:1333   */\n  0x00\n    /* \"#utility.yul\":1335:1341   */\n  dup1\n    /* \"#utility.yul\":1343:1349   */\n  0x00\n    /* \"#utility.yul\":1392:1395   */\n  0xa0\n    /* \"#utility.yul\":1380:1389   */\n  dup7\n    /* \"#utility.yul\":1371:1378   */\n  dup9\n    /* \"#utility.yul\":1367:1390   */\n  sub\n    /* \"#utility.yul\":1363:1396   */\n  slt\n    /* \"#utility.yul\":1360:1480   */\n  iszero\n  tag_45\n  jumpi\n    /* \"#utility.yul\":1399:1478   */\n  tag_46\n  tag_16\n  jump\t// in\ntag_46:\n    /* \"#utility.yul\":1360:1480   */\ntag_45:\n    /* \"#utility.yul\":1519:1520   */\n  0x00\n    /* \"#utility.yul\":1544:1608   */\n  tag_47\n    /* \"#utility.yul\":1600:1607   */\n  dup9\n    /* \"#utility.yul\":1591:1597   */\n  dup3\n    /* \"#utility.yul\":1580:1589   */\n  dup10\n    /* \"#utility.yul\":1576:1598   */\n  add\n    /* \"#utility.yul\":1544:1608   */\n  tag_21\n  jump\t// in\ntag_47:\n    /* \"#utility.yul\":1534:1608   */\n  swap6\n  pop\n    /* \"#utility.yul\":1490:1618   */\n  pop\n    /* \"#utility.yul\":1657:1659   */\n  0x20\n    /* \"#utility.yul\":1683:1747   */\n  tag_48\n    /* \"#utility.yul\":1739:1746   */\n  dup9\n    /* \"#utility.yul\":1730:1736   */\n  dup3\n    /* \"#utility.yul\":1719:1728   */\n  dup10\n    /* \"#utility.yul\":1715:1737   */\n  add\n    /* \"#utility.yul\":1683:1747   */\n  tag_21\n  jump\t// in\ntag_48:\n    /* \"#utility.yul\":1673:1747   */\n  swap5\n  pop\n    /* \"#utility.yul\":1628:1757   */\n  pop\n    /* \"#utility.yul\":1796:1798   */\n  0x40\n    /* \"#utility.yul\":1822:1886   */\n  tag_49\n    /* \"#utility.yul\":1878:1885   */\n  dup9\n    /* \"#utility.yul\":1869:1875   */\n  dup3\n    /* \"#utility.yul\":1858:1867   */\n  dup10\n    /* \"#utility.yul\":1854:1876   */\n  add\n    /* \"#utility.yul\":1822:1886   */\n  tag_24\n  jump\t// in\ntag_49:\n    /* \"#utility.yul\":1812:1886   */\n  swap4\n  pop\n    /* \"#utility.yul\":1767:1896   */\n  pop\n    /* \"#utility.yul\":1935:1937   */\n  0x60\n    /* \"#utility.yul\":1961:2025   */\n  tag_50\n    /* \"#utility.yul\":2017:2024   */\n  dup9\n    /* \"#utility.yul\":2008:2014   */\n  dup3\n    /* \"#utility.yul\":1997:2006   */\n  dup10\n    /* \"#utility.yul\":1993:2015   */\n  add\n    /* \"#utility.yul\":1961:2025   */\n  tag_24\n  jump\t// in\ntag_50:\n    /* \"#utility.yul\":1951:2025   */\n  swap3\n  pop\n    /* \"#utility.yul\":1906:2035   */\n  pop\n    /* \"#utility.yul\":2074:2077   */\n  0x80\n    /* \"#utility.yul\":2101:2165   */\n  tag_51\n    /* \"#utility.yul\":2157:2164   */\n  dup9\n    /* \"#utility.yul\":2148:2154   */\n  dup3\n    /* \"#utility.yul\":2137:2146   */\n  dup10\n    /* \"#utility.yul\":2133:2155   */\n  add\n    /* \"#utility.yul\":2101:2165   */\n  tag_21\n  jump\t// in\ntag_51:\n    /* \"#utility.yul\":2091:2165   */\n  swap2\n  pop\n    /* \"#utility.yul\":2045:2175   */\n  pop\n    /* \"#utility.yul\":1205:2182   */\n  swap3\n  swap6\n  pop\n  swap3\n  swap6\n  swap1\n  swap4\n  pop\n  jump\t// out\n    /* \"#utility.yul\":2188:2306   */\ntag_25:\n    /* \"#utility.yul\":2275:2299   */\n  tag_53\n    /* \"#utility.yul\":2293:2298   */\n  dup2\n    /* \"#utility.yul\":2275:2299   */\n  tag_19\n  jump\t// in\ntag_53:\n    /* \"#utility.yul\":2270:2273   */\n  dup3\n    /* \"#utility.yul\":2263:2300   */\n  mstore\n    /* \"#utility.yul\":2188:2306   */\n  pop\n  pop\n  jump\t// out\n    /* \"#utility.yul\":2312:2534   */\ntag_9:\n    /* \"#utility.yul\":2405:2409   */\n  0x00\n    /* \"#utility.yul\":2443:2445   */\n  0x20\n    /* \"#utility.yul\":2432:2441   */\n  dup3\n    /* \"#utility.yul\":2428:2446   */\n  add\n    /* \"#utility.yul\":2420:2446   */\n  swap1\n  pop\n    /* \"#utility.yul\":2456:2527   */\n  tag_55\n    /* \"#utility.yul\":2524:2525   */\n  0x00\n    /* \"#utility.yul\":2513:2522   */\n  dup4\n    /* \"#utility.yul\":2509:2526   */\n  add\n    /* \"#utility.yul\":2500:2506   */\n  dup5\n    /* \"#utility.yul\":2456:2527   */\n  tag_25\n  jump\t// in\ntag_55:\n    /* \"#utility.yul\":2312:2534   */\n  swap3\n  swap2\n  pop\n  pop\n  jump\t// out\n    /* \"Day-05/code1.sol\":241:5187  contract StakingPool is Ownable {... */\ntag_13:\n  dataSize(sub_0)\n  dup1\n  dataOffset(sub_0)\n  0x00\n  codecopy\n  0x00\n  return\nstop\n\nsub_0: assembly {\n        /* \"Day-05/code1.sol\":241:5187  contract StakingPool is Ownable {... */\n      mstore(0x40, 0x80)\n      callvalue\n      dup1\n      iszero\n      tag_1\n      jumpi\n      0x00\n      dup1\n      revert\n    tag_1:\n      pop\n      jumpi(tag_2, lt(calldatasize, 0x04))\n      shr(0xe0, calldataload(0x00))\n      dup1\n      0x7b0a47ee\n      gt\n      tag_29\n      jumpi\n      dup1\n      0xc8f33c91\n      gt\n      tag_30\n      jumpi\n      dup1\n      0xdf136d65\n      gt\n      tag_31\n      jumpi\n      dup1\n      0xdf136d65\n      eq\n      tag_25\n      jumpi\n      dup1\n      0xe9fad8ee\n      eq\n      tag_26\n      jumpi\n      dup1\n      0xf2fde38b\n      eq\n      tag_27\n      jumpi\n      dup1\n      0xf7c618c1\n      eq\n      tag_28\n      jumpi\n      jump(tag_2)\n    tag_31:\n      dup1\n      0xc8f33c91\n      eq\n      tag_22\n      jumpi\n      dup1\n      0xcc1a378f\n      eq\n      tag_23\n      jumpi\n      dup1\n      0xcd3daf9d\n      eq\n      tag_24\n      jumpi\n      jump(tag_2)\n    tag_30:\n      dup1\n      0x7b0a47ee\n      eq\n      tag_16\n      jumpi\n      dup1\n      0x80faa57d\n      eq\n      tag_17\n      jumpi\n      dup1\n      0x8456cb59\n      eq\n      tag_18\n      jumpi\n      dup1\n      0x8b876347\n      eq\n      tag_19\n      jumpi\n      dup1\n      0x8da5cb5b\n      eq\n      tag_20\n      jumpi\n      dup1\n      0xa694fc3a\n      eq\n      tag_21\n      jumpi\n      jump(tag_2)\n    tag_29:\n      dup1\n      0x3c6b16ab\n      gt\n      tag_32\n      jumpi\n      dup1\n      0x5c975abb\n      gt\n      tag_33\n      jumpi\n      dup1\n      0x5c975abb\n      eq\n      tag_12\n      jumpi\n      dup1\n      0x70a08231\n      eq\n      tag_13\n      jumpi\n      dup1\n      0x715018a6\n      eq\n      tag_14\n      jumpi\n      dup1\n      0x72f702f3\n      eq\n      tag_15\n      jumpi\n      jump(tag_2)\n    tag_33:\n      dup1\n      0x3c6b16ab\n      eq\n      tag_9\n      jumpi\n      dup1\n      0x3d18b912\n      eq\n      tag_10\n      jumpi\n      dup1\n      0x3f4ba83a\n      eq\n      tag_11\n      jumpi\n      jump(tag_2)\n    tag_32:\n      dup1\n      0x8cc262\n      eq\n      tag_3\n      jumpi\n      dup1\n      0x0700037d\n      eq\n      tag_4\n      jumpi\n      dup1\n      0x10c1c103\n      eq\n      tag_5\n      jumpi\n      dup1\n      0x18160ddd\n      eq\n      tag_6\n      jumpi\n      dup1\n      0x2e1a7d4d\n      eq\n      tag_7\n      jumpi\n      dup1\n      0x386a9525\n      eq\n      tag_8\n      jumpi\n    tag_2:\n      0x00\n      dup1\n      revert\n        /* \"Day-05/code1.sol\":2635:2861  function earned(address _account) public view returns (uint256) {... */\n    tag_3:\n      tag_34\n      0x04\n      dup1\n      calldatasize\n      sub\n      dup2\n      add\n      swap1\n      tag_35\n      swap2\n      swap1\n      tag_36\n      jump\t// in\n    tag_35:\n      tag_37\n      jump\t// in\n    tag_34:\n      mload(0x40)\n      tag_38\n      swap2\n      swap1\n      tag_39\n      jump\t// in\n    tag_38:\n      mload(0x40)\n      dup1\n      swap2\n      sub\n      swap1\n      return\n        /* \"Day-05/code1.sol\":595:637  mapping(address => uint256) public rewards */\n    tag_4:\n      tag_40\n      0x04\n      dup1\n      calldatasize\n      sub\n      dup2\n      add\n      swap1\n      tag_41\n      swap2\n      swap1\n      tag_36\n      jump\t// in\n    tag_41:\n      tag_42\n      jump\t// in\n    tag_40:\n      mload(0x40)\n      tag_43\n      swap2\n      swap1\n      tag_39\n      jump\t// in\n    tag_43:\n      mload(0x40)\n      dup1\n      swap2\n      sub\n      swap1\n      return\n        /* \"Day-05/code1.sol\":644:692  mapping(address => uint256) public stakedAmounts */\n    tag_5:\n      tag_44\n      0x04\n      dup1\n      calldatasize\n      sub\n      dup2\n      add\n      swap1\n      tag_45\n      swap2\n      swap1\n      tag_36\n      jump\t// in\n    tag_45:\n      tag_46\n      jump\t// in\n    tag_44:\n      mload(0x40)\n      tag_47\n      swap2\n      swap1\n      tag_39\n      jump\t// in\n    tag_47:\n      mload(0x40)\n      dup1\n      swap2\n      sub\n      swap1\n      return\n        /* \"Day-05/code1.sol\":1899:1990  function totalSupply() public view returns (uint256) {... */\n    tag_6:\n      tag_48\n      tag_49\n      jump\t// in\n    tag_48:\n      mload(0x40)\n      tag_50\n      swap2\n      swap1\n      tag_39\n      jump\t// in\n    tag_50:\n      mload(0x40)\n      dup1\n      swap2\n      sub\n      swap1\n      return\n        /* \"Day-05/code1.sol\":3214:3539  function withdraw(uint256 _amount) public updateReward(msg.sender) whenNotPaused {... */\n    tag_7:\n      tag_51\n      0x04\n      dup1\n      calldatasize\n      sub\n      dup2\n      add\n      swap1\n      tag_52\n      swap2\n      swap1\n      tag_53\n      jump\t// in\n    tag_52:\n      tag_54\n      jump\t// in\n    tag_51:\n      stop\n        /* \"Day-05/code1.sol\":414:444  uint256 public rewardsDuration */\n    tag_8:\n      tag_55\n      tag_56\n      jump\t// in\n    tag_55:\n      mload(0x40)\n      tag_57\n      swap2\n      swap1\n      tag_39\n      jump\t// in\n    tag_57:\n      mload(0x40)\n      dup1\n      swap2\n      sub\n      swap1\n      return\n        /* \"Day-05/code1.sol\":3971:4625  function notifyRewardAmount(uint256 _reward) external onlyOwner updateReward(address(0)) whenNotPaused {... */\n    tag_9:\n      tag_58\n      0x04\n      dup1\n      calldatasize\n      sub\n      dup2\n      add\n      swap1\n      tag_59\n      swap2\n      swap1\n      tag_53\n      jump\t// in\n    tag_59:\n      tag_60\n      jump\t// in\n    tag_58:\n      stop\n        /* \"Day-05/code1.sol\":3656:3963  function getReward() public updateReward(msg.sender) whenNotPaused {... */\n    tag_10:\n      tag_61\n      tag_62\n      jump\t// in\n    tag_61:\n      stop\n        /* \"Day-05/code1.sol\":5077:5184  function unpause() external onlyOwner {... */\n    tag_11:\n      tag_63\n      tag_64\n      jump\t// in\n    tag_63:\n      stop\n        /* \"Day-05/code1.sol\":736:754  bool public paused */\n    tag_12:\n      tag_65\n      tag_66\n      jump\t// in\n    tag_65:\n      mload(0x40)\n      tag_67\n      swap2\n      swap1\n      tag_68\n      jump\t// in\n    tag_67:\n      mload(0x40)\n      dup1\n      swap2\n      sub\n      swap1\n      return\n        /* \"Day-05/code1.sol\":1998:2114  function balanceOf(address _account) public view returns (uint256) {... */\n    tag_13:\n      tag_69\n      0x04\n      dup1\n      calldatasize\n      sub\n      dup2\n      add\n      swap1\n      tag_70\n      swap2\n      swap1\n      tag_36\n      jump\t// in\n    tag_70:\n      tag_71\n      jump\t// in\n    tag_69:\n      mload(0x40)\n      tag_72\n      swap2\n      swap1\n      tag_39\n      jump\t// in\n    tag_72:\n      mload(0x40)\n      dup1\n      swap2\n      sub\n      swap1\n      return\n        /* \"@openzeppelin/contracts/access/Ownable.sol\":2293:2394  function renounceOwnership() public virtual onlyOwner {... */\n    tag_14:\n      tag_73\n      tag_74\n      jump\t// in\n    tag_73:\n      stop\n        /* \"Day-05/code1.sol\":315:341  IERC20 public stakingToken */\n    tag_15:\n      tag_75\n      tag_76\n      jump\t// in\n    tag_75:\n      mload(0x40)\n      tag_77\n      swap2\n      swap1\n      tag_78\n      jump\t// in\n    tag_77:\n      mload(0x40)\n      dup1\n      swap2\n      sub\n      swap1\n      return\n        /* \"Day-05/code1.sol\":382:407  uint256 public rewardRate */\n    tag_16:\n      tag_79\n      tag_80\n      jump\t// in\n    tag_79:\n      mload(0x40)\n      tag_81\n      swap2\n      swap1\n      tag_39\n      jump\t// in\n    tag_81:\n      mload(0x40)\n      dup1\n      swap2\n      sub\n      swap1\n      return\n        /* \"Day-05/code1.sol\":2122:2317  function lastTimeRewardApplicable() public view returns (uint256) {... */\n    tag_17:\n      tag_82\n      tag_83\n      jump\t// in\n    tag_82:\n      mload(0x40)\n      tag_84\n      swap2\n      swap1\n      tag_39\n      jump\t// in\n    tag_84:\n      mload(0x40)\n      dup1\n      swap2\n      sub\n      swap1\n      return\n        /* \"Day-05/code1.sol\":4967:5069  function pause() external onlyOwner {... */\n    tag_18:\n      tag_85\n      tag_86\n      jump\t// in\n    tag_85:\n      stop\n        /* \"Day-05/code1.sol\":531:588  mapping(address => uint256) public userRewardPerTokenPaid */\n    tag_19:\n      tag_87\n      0x04\n      dup1\n      calldatasize\n      sub\n      dup2\n      add\n      swap1\n      tag_88\n      swap2\n      swap1\n      tag_36\n      jump\t// in\n    tag_88:\n      tag_89\n      jump\t// in\n    tag_87:\n      mload(0x40)\n      tag_90\n      swap2\n      swap1\n      tag_39\n      jump\t// in\n    tag_90:\n      mload(0x40)\n      dup1\n      swap2\n      sub\n      swap1\n      return\n        /* \"@openzeppelin/contracts/access/Ownable.sol\":1638:1723  function owner() public view virtual returns (address) {... */\n    tag_20:\n      tag_91\n      tag_92\n      jump\t// in\n    tag_91:\n      mload(0x40)\n      tag_93\n      swap2\n      swap1\n      tag_94\n      jump\t// in\n    tag_93:\n      mload(0x40)\n      dup1\n      swap2\n      sub\n      swap1\n      return\n        /* \"Day-05/code1.sol\":2869:3206  function stake(uint256 _amount) external updateReward(msg.sender) whenNotPaused {... */\n    tag_21:\n      tag_95\n      0x04\n      dup1\n      calldatasize\n      sub\n      dup2\n      add\n      swap1\n      tag_96\n      swap2\n      swap1\n      tag_53\n      jump\t// in\n    tag_96:\n      tag_97\n      jump\t// in\n    tag_95:\n      stop\n        /* \"Day-05/code1.sol\":451:480  uint256 public lastUpdateTime */\n    tag_22:\n      tag_98\n      tag_99\n      jump\t// in\n    tag_98:\n      mload(0x40)\n      tag_100\n      swap2\n      swap1\n      tag_39\n      jump\t// in\n    tag_100:\n      mload(0x40)\n      dup1\n      swap2\n      sub\n      swap1\n      return\n        /* \"Day-05/code1.sol\":4633:4959  function setRewardsDuration(uint256 _rewardsDuration) external onlyOwner {... */\n    tag_23:\n      tag_101\n      0x04\n      dup1\n      calldatasize\n      sub\n      dup2\n      add\n      swap1\n      tag_102\n      swap2\n      swap1\n      tag_53\n      jump\t// in\n    tag_102:\n      tag_103\n      jump\t// in\n    tag_101:\n      stop\n        /* \"Day-05/code1.sol\":2325:2627  function rewardPerToken() public view returns (uint256) {... */\n    tag_24:\n      tag_104\n      tag_105\n      jump\t// in\n    tag_104:\n      mload(0x40)\n      tag_106\n      swap2\n      swap1\n      tag_39\n      jump\t// in\n    tag_106:\n      mload(0x40)\n      dup1\n      swap2\n      sub\n      swap1\n      return\n        /* \"Day-05/code1.sol\":487:522  uint256 public rewardPerTokenStored */\n    tag_25:\n      tag_107\n      tag_108\n      jump\t// in\n    tag_107:\n      mload(0x40)\n      tag_109\n      swap2\n      swap1\n      tag_39\n      jump\t// in\n    tag_109:\n      mload(0x40)\n      dup1\n      swap2\n      sub\n      swap1\n      return\n        /* \"Day-05/code1.sol\":3547:3648  function exit() external {... */\n    tag_26:\n      tag_110\n      tag_111\n      jump\t// in\n    tag_110:\n      stop\n        /* \"@openzeppelin/contracts/access/Ownable.sol\":2543:2758  function transferOwnership(address newOwner) public virtual onlyOwner {... */\n    tag_27:\n      tag_112\n      0x04\n      dup1\n      calldatasize\n      sub\n      dup2\n      add\n      swap1\n      tag_113\n      swap2\n      swap1\n      tag_36\n      jump\t// in\n    tag_113:\n      tag_114\n      jump\t// in\n    tag_112:\n      stop\n        /* \"Day-05/code1.sol\":348:373  IERC20 public rewardToken */\n    tag_28:\n      tag_115\n      tag_116\n      jump\t// in\n    tag_115:\n      mload(0x40)\n      tag_117\n      swap2\n      swap1\n      tag_78\n      jump\t// in\n    tag_117:\n      mload(0x40)\n      dup1\n      swap2\n      sub\n      swap1\n      return\n        /* \"Day-05/code1.sol\":2635:2861  function earned(address _account) public view returns (uint256) {... */\n    tag_37:\n        /* \"Day-05/code1.sol\":2690:2697  uint256 */\n      0x00\n        /* \"Day-05/code1.sol\":2836:2843  rewards */\n      0x08\n        /* \"Day-05/code1.sol\":2836:2853  rewards[_account] */\n      0x00\n        /* \"Day-05/code1.sol\":2844:2852  _account */\n      dup4\n        /* \"Day-05/code1.sol\":2836:2853  rewards[_account] */\n      0xffffffffffffffffffffffffffffffffffffffff\n      and\n      0xffffffffffffffffffffffffffffffffffffffff\n      and\n      dup2\n      mstore\n      0x20\n      add\n      swap1\n      dup2\n      mstore\n      0x20\n      add\n      0x00\n      keccak256\n      sload\n        /* \"Day-05/code1.sol\":2815:2819  1e18 */\n      0x0de0b6b3a7640000\n        /* \"Day-05/code1.sol\":2778:2800  userRewardPerTokenPaid */\n      0x07\n        /* \"Day-05/code1.sol\":2778:2810  userRewardPerTokenPaid[_account] */\n      0x00\n        /* \"Day-05/code1.sol\":2801:2809  _account */\n      dup6\n        /* \"Day-05/code1.sol\":2778:2810  userRewardPerTokenPaid[_account] */\n      0xffffffffffffffffffffffffffffffffffffffff\n      and\n      0xffffffffffffffffffffffffffffffffffffffff\n      and\n      dup2\n      mstore\n      0x20\n      add\n      swap1\n      dup2\n      mstore\n      0x20\n      add\n      0x00\n      keccak256\n      sload\n        /* \"Day-05/code1.sol\":2759:2775  rewardPerToken() */\n      tag_119\n        /* \"Day-05/code1.sol\":2759:2773  rewardPerToken */\n      tag_105\n        /* \"Day-05/code1.sol\":2759:2775  rewardPerToken() */\n      jump\t// in\n    tag_119:\n        /* \"Day-05/code1.sol\":2759:2810  rewardPerToken() - userRewardPerTokenPaid[_account] */\n      tag_120\n      swap2\n      swap1\n      tag_121\n      jump\t// in\n    tag_120:\n        /* \"Day-05/code1.sol\":2732:2745  stakedAmounts */\n      0x09\n        /* \"Day-05/code1.sol\":2732:2755  stakedAmounts[_account] */\n      0x00\n        /* \"Day-05/code1.sol\":2746:2754  _account */\n      dup7\n        /* \"Day-05/code1.sol\":2732:2755  stakedAmounts[_account] */\n      0xffffffffffffffffffffffffffffffffffffffff\n      and\n      0xffffffffffffffffffffffffffffffffffffffff\n      and\n      dup2\n      mstore\n      0x20\n      add\n      swap1\n      dup2\n      mstore\n      0x20\n      add\n      0x00\n      keccak256\n      sload\n        /* \"Day-05/code1.sol\":2732:2811  stakedAmounts[_account] * (rewardPerToken() - userRewardPerTokenPaid[_account]) */\n      tag_122\n      swap2\n      swap1\n      tag_123\n      jump\t// in\n    tag_122:\n        /* \"Day-05/code1.sol\":2731:2819  (stakedAmounts[_account] * (rewardPerToken() - userRewardPerTokenPaid[_account])) / 1e18 */\n      tag_124\n      swap2\n      swap1\n      tag_125\n      jump\t// in\n    tag_124:\n        /* \"Day-05/code1.sol\":2730:2853  ((stakedAmounts[_account] * (rewardPerToken() - userRewardPerTokenPaid[_account])) / 1e18) +... */\n      tag_126\n      swap2\n      swap1\n      tag_127\n      jump\t// in\n    tag_126:\n        /* \"Day-05/code1.sol\":2710:2853  return... */\n      swap1\n      pop\n        /* \"Day-05/code1.sol\":2635:2861  function earned(address _account) public view returns (uint256) {... */\n      swap2\n      swap1\n      pop\n      jump\t// out\n        /* \"Day-05/code1.sol\":595:637  mapping(address => uint256) public rewards */\n    tag_42:\n      mstore(0x20, 0x08)\n      dup1\n      0x00\n      mstore\n      keccak256(0x00, 0x40)\n      0x00\n      swap2\n      pop\n      swap1\n      pop\n      sload\n      dup2\n      jump\t// out\n        /* \"Day-05/code1.sol\":644:692  mapping(address => uint256) public stakedAmounts */\n    tag_46:\n      mstore(0x20, 0x09)\n      dup1\n      0x00\n      mstore\n      keccak256(0x00, 0x40)\n      0x00\n      swap2\n      pop\n      swap1\n      pop\n      sload\n      dup2\n      jump\t// out\n        /* \"Day-05/code1.sol\":1899:1990  function totalSupply() public view returns (uint256) {... */\n    tag_49:\n        /* \"Day-05/code1.sol\":1943:1950  uint256 */\n      0x00\n        /* \"Day-05/code1.sol\":1970:1982  _totalSupply */\n      sload(0x0a)\n        /* \"Day-05/code1.sol\":1963:1982  return _totalSupply */\n      swap1\n      pop\n        /* \"Day-05/code1.sol\":1899:1990  function totalSupply() public view returns (uint256) {... */\n      swap1\n      jump\t// out\n        /* \"Day-05/code1.sol\":3214:3539  function withdraw(uint256 _amount) public updateReward(msg.sender) whenNotPaused {... */\n    tag_54:\n        /* \"Day-05/code1.sol\":3269:3279  msg.sender */\n      caller\n        /* \"Day-05/code1.sol\":1530:1546  rewardPerToken() */\n      tag_130\n        /* \"Day-05/code1.sol\":1530:1544  rewardPerToken */\n      tag_105\n        /* \"Day-05/code1.sol\":1530:1546  rewardPerToken() */\n      jump\t// in\n    tag_130:\n        /* \"Day-05/code1.sol\":1507:1527  rewardPerTokenStored */\n      0x06\n        /* \"Day-05/code1.sol\":1507:1546  rewardPerTokenStored = rewardPerToken() */\n      dup2\n      swap1\n      sstore\n      pop\n        /* \"Day-05/code1.sol\":1574:1600  lastTimeRewardApplicable() */\n      tag_131\n        /* \"Day-05/code1.sol\":1574:1598  lastTimeRewardApplicable */\n      tag_83\n        /* \"Day-05/code1.sol\":1574:1600  lastTimeRewardApplicable() */\n      jump\t// in\n    tag_131:\n        /* \"Day-05/code1.sol\":1557:1571  lastUpdateTime */\n      0x05\n        /* \"Day-05/code1.sol\":1557:1600  lastUpdateTime = lastTimeRewardApplicable() */\n      dup2\n      swap1\n      sstore\n      pop\n        /* \"Day-05/code1.sol\":1635:1636  0 */\n      0x00\n        /* \"Day-05/code1.sol\":1615:1637  _account != address(0) */\n      0xffffffffffffffffffffffffffffffffffffffff\n      and\n        /* \"Day-05/code1.sol\":1615:1623  _account */\n      dup2\n        /* \"Day-05/code1.sol\":1615:1637  _account != address(0) */\n      0xffffffffffffffffffffffffffffffffffffffff\n      and\n      eq\n        /* \"Day-05/code1.sol\":1611:1772  if (_account != address(0)) {... */\n      tag_132\n      jumpi\n        /* \"Day-05/code1.sol\":1674:1690  earned(_account) */\n      tag_133\n        /* \"Day-05/code1.sol\":1681:1689  _account */\n      dup2\n        /* \"Day-05/code1.sol\":1674:1680  earned */\n      tag_37\n        /* \"Day-05/code1.sol\":1674:1690  earned(_account) */\n      jump\t// in\n    tag_133:\n        /* \"Day-05/code1.sol\":1654:1661  rewards */\n      0x08\n        /* \"Day-05/code1.sol\":1654:1671  rewards[_account] */\n      0x00\n        /* \"Day-05/code1.sol\":1662:1670  _account */\n      dup4\n        /* \"Day-05/code1.sol\":1654:1671  rewards[_account] */\n      0xffffffffffffffffffffffffffffffffffffffff\n      and\n      0xffffffffffffffffffffffffffffffffffffffff\n      and\n      dup2\n      mstore\n      0x20\n      add\n      swap1\n      dup2\n      mstore\n      0x20\n      add\n      0x00\n      keccak256\n        /* \"Day-05/code1.sol\":1654:1690  rewards[_account] = earned(_account) */\n      dup2\n      swap1\n      sstore\n      pop\n        /* \"Day-05/code1.sol\":1740:1760  rewardPerTokenStored */\n      sload(0x06)\n        /* \"Day-05/code1.sol\":1705:1727  userRewardPerTokenPaid */\n      0x07\n        /* \"Day-05/code1.sol\":1705:1737  userRewardPerTokenPaid[_account] */\n      0x00\n        /* \"Day-05/code1.sol\":1728:1736  _account */\n      dup4\n        /* \"Day-05/code1.sol\":1705:1737  userRewardPerTokenPaid[_account] */\n      0xffffffffffffffffffffffffffffffffffffffff\n      and\n      0xffffffffffffffffffffffffffffffffffffffff\n      and\n      dup2\n      mstore\n      0x20\n      add\n      swap1\n      dup2\n      mstore\n      0x20\n      add\n      0x00\n      keccak256\n        /* \"Day-05/code1.sol\":1705:1760  userRewardPerTokenPaid[_account] = rewardPerTokenStored */\n      dup2\n      swap1\n      sstore\n      pop\n        /* \"Day-05/code1.sol\":1611:1772  if (_account != address(0)) {... */\n    tag_132:\n        /* \"Day-05/code1.sol\":1844:1850  paused */\n      0x0b\n      0x00\n      swap1\n      sload\n      swap1\n      0x0100\n      exp\n      swap1\n      div\n      0xff\n      and\n        /* \"Day-05/code1.sol\":1843:1850  !paused */\n      iszero\n        /* \"Day-05/code1.sol\":1835:1871  require(!paused, \"Pausable: paused\") */\n      tag_135\n      jumpi\n      mload(0x40)\n      0x08c379a000000000000000000000000000000000000000000000000000000000\n      dup2\n      mstore\n      0x04\n      add\n      tag_136\n      swap1\n      tag_137\n      jump\t// in\n    tag_136:\n      mload(0x40)\n      dup1\n      swap2\n      sub\n      swap1\n      revert\n    tag_135:\n        /* \"Day-05/code1.sol\":3324:3325  0 */\n      0x00\n        /* \"Day-05/code1.sol\":3314:3321  _amount */\n      dup3\n        /* \"Day-05/code1.sol\":3314:3325  _amount > 0 */\n      gt\n        /* \"Day-05/code1.sol\":3306:3347  require(_amount > 0, \"Cannot withdraw 0\") */\n      tag_139\n      jumpi\n      mload(0x40)\n      0x08c379a000000000000000000000000000000000000000000000000000000000\n      dup2\n      mstore\n      0x04\n      add\n      tag_140\n      swap1\n      tag_141\n      jump\t// in\n    tag_140:\n      mload(0x40)\n      dup1\n      swap2\n      sub\n      swap1\n      revert\n    tag_139:\n        /* \"Day-05/code1.sol\":3374:3381  _amount */\n      dup2\n        /* \"Day-05/code1.sol\":3358:3370  _totalSupply */\n      0x0a\n      0x00\n        /* \"Day-05/code1.sol\":3358:3381  _totalSupply -= _amount */\n      dup3\n      dup3\n      sload\n      tag_142\n      swap2\n      swap1\n      tag_121\n      jump\t// in\n    tag_142:\n      swap3\n      pop\n      pop\n      dup2\n      swap1\n      sstore\n      pop\n        /* \"Day-05/code1.sol\":3421:3428  _amount */\n      dup2\n        /* \"Day-05/code1.sol\":3392:3405  stakedAmounts */\n      0x09\n        /* \"Day-05/code1.sol\":3392:3417  stakedAmounts[msg.sender] */\n      0x00\n        /* \"Day-05/code1.sol\":3406:3416  msg.sender */\n      caller\n        /* \"Day-05/code1.sol\":3392:3417  stakedAmounts[msg.sender] */\n      0xffffffffffffffffffffffffffffffffffffffff\n      and\n      0xffffffffffffffffffffffffffffffffffffffff\n      and\n      dup2\n      mstore\n      0x20\n      add\n      swap1\n      dup2\n      mstore\n      0x20\n      add\n      0x00\n      keccak256\n      0x00\n        /* \"Day-05/code1.sol\":3392:3428  stakedAmounts[msg.sender] -= _amount */\n      dup3\n      dup3\n      sload\n      tag_143\n      swap2\n      swap1\n      tag_121\n      jump\t// in\n    tag_143:\n      swap3\n      pop\n      pop\n      dup2\n      swap1\n      sstore\n      pop\n        /* \"Day-05/code1.sol\":3439:3485  stakingToken.safeTransfer(msg.sender, _amount) */\n      tag_144\n        /* \"Day-05/code1.sol\":3465:3475  msg.sender */\n      caller\n        /* \"Day-05/code1.sol\":3477:3484  _amount */\n      dup4\n        /* \"Day-05/code1.sol\":3439:3451  stakingToken */\n      0x01\n      0x00\n      swap1\n      sload\n      swap1\n      0x0100\n      exp\n      swap1\n      div\n      0xffffffffffffffffffffffffffffffffffffffff\n      and\n        /* \"Day-05/code1.sol\":3439:3464  stakingToken.safeTransfer */\n      0xffffffffffffffffffffffffffffffffffffffff\n      and\n      tag_145\n      swap1\n        /* \"Day-05/code1.sol\":3439:3485  stakingToken.safeTransfer(msg.sender, _amount) */\n      swap3\n      swap2\n      swap1\n      0xffffffff\n      and\n      jump\t// in\n    tag_144:\n        /* \"Day-05/code1.sol\":3511:3521  msg.sender */\n      caller\n        /* \"Day-05/code1.sol\":3501:3531  Withdrawn(msg.sender, _amount) */\n      0xffffffffffffffffffffffffffffffffffffffff\n      and\n      0x7084f5476618d8e60b11ef0d7d3f06914655adb8793e28ff7f018d4c76d505d5\n        /* \"Day-05/code1.sol\":3523:3530  _amount */\n      dup4\n        /* \"Day-05/code1.sol\":3501:3531  Withdrawn(msg.sender, _amount) */\n      mload(0x40)\n      tag_146\n      swap2\n      swap1\n      tag_39\n      jump\t// in\n    tag_146:\n      mload(0x40)\n      dup1\n      swap2\n      sub\n      swap1\n      log2\n        /* \"Day-05/code1.sol\":3214:3539  function withdraw(uint256 _amount) public updateReward(msg.sender) whenNotPaused {... */\n      pop\n      pop\n      jump\t// out\n        /* \"Day-05/code1.sol\":414:444  uint256 public rewardsDuration */\n    tag_56:\n      sload(0x04)\n      dup2\n      jump\t// out\n        /* \"Day-05/code1.sol\":3971:4625  function notifyRewardAmount(uint256 _reward) external onlyOwner updateReward(address(0)) whenNotPaused {... */\n    tag_60:\n        /* \"@openzeppelin/contracts/access/Ownable.sol\":1531:1544  _checkOwner() */\n      tag_148\n        /* \"@openzeppelin/contracts/access/Ownable.sol\":1531:1542  _checkOwner */\n      tag_149\n        /* \"@openzeppelin/contracts/access/Ownable.sol\":1531:1544  _checkOwner() */\n      jump\t// in\n    tag_148:\n        /* \"Day-05/code1.sol\":4056:4057  0 */\n      0x00\n        /* \"Day-05/code1.sol\":1530:1546  rewardPerToken() */\n      tag_151\n        /* \"Day-05/code1.sol\":1530:1544  rewardPerToken */\n      tag_105\n        /* \"Day-05/code1.sol\":1530:1546  rewardPerToken() */\n      jump\t// in\n    tag_151:\n        /* \"Day-05/code1.sol\":1507:1527  rewardPerTokenStored */\n      0x06\n        /* \"Day-05/code1.sol\":1507:1546  rewardPerTokenStored = rewardPerToken() */\n      dup2\n      swap1\n      sstore\n      pop\n        /* \"Day-05/code1.sol\":1574:1600  lastTimeRewardApplicable() */\n      tag_152\n        /* \"Day-05/code1.sol\":1574:1598  lastTimeRewardApplicable */\n      tag_83\n        /* \"Day-05/code1.sol\":1574:1600  lastTimeRewardApplicable() */\n      jump\t// in\n    tag_152:\n        /* \"Day-05/code1.sol\":1557:1571  lastUpdateTime */\n      0x05\n        /* \"Day-05/code1.sol\":1557:1600  lastUpdateTime = lastTimeRewardApplicable() */\n      dup2\n      swap1\n      sstore\n      pop\n        /* \"Day-05/code1.sol\":1635:1636  0 */\n      0x00\n        /* \"Day-05/code1.sol\":1615:1637  _account != address(0) */\n      0xffffffffffffffffffffffffffffffffffffffff\n      and\n        /* \"Day-05/code1.sol\":1615:1623  _account */\n      dup2\n        /* \"Day-05/code1.sol\":1615:1637  _account != address(0) */\n      0xffffffffffffffffffffffffffffffffffffffff\n      and\n      eq\n        /* \"Day-05/code1.sol\":1611:1772  if (_account != address(0)) {... */\n      tag_153\n      jumpi\n        /* \"Day-05/code1.sol\":1674:1690  earned(_account) */\n      tag_154\n        /* \"Day-05/code1.sol\":1681:1689  _account */\n      dup2\n        /* \"Day-05/code1.sol\":1674:1680  earned */\n      tag_37\n        /* \"Day-05/code1.sol\":1674:1690  earned(_account) */\n      jump\t// in\n    tag_154:\n        /* \"Day-05/code1.sol\":1654:1661  rewards */\n      0x08\n        /* \"Day-05/code1.sol\":1654:1671  rewards[_account] */\n      0x00\n        /* \"Day-05/code1.sol\":1662:1670  _account */\n      dup4\n        /* \"Day-05/code1.sol\":1654:1671  rewards[_account] */\n      0xffffffffffffffffffffffffffffffffffffffff\n      and\n      0xffffffffffffffffffffffffffffffffffffffff\n      and\n      dup2\n      mstore\n      0x20\n      add\n      swap1\n      dup2\n      mstore\n      0x20\n      add\n      0x00\n      keccak256\n        /* \"Day-05/code1.sol\":1654:1690  rewards[_account] = earned(_account) */\n      dup2\n      swap1\n      sstore\n      pop\n        /* \"Day-05/code1.sol\":1740:1760  rewardPerTokenStored */\n      sload(0x06)\n        /* \"Day-05/code1.sol\":1705:1727  userRewardPerTokenPaid */\n      0x07\n        /* \"Day-05/code1.sol\":1705:1737  userRewardPerTokenPaid[_account] */\n      0x00\n        /* \"Day-05/code1.sol\":1728:1736  _account */\n      dup4\n        /* \"Day-05/code1.sol\":1705:1737  userRewardPerTokenPaid[_account] */\n      0xffffffffffffffffffffffffffffffffffffffff\n      and\n      0xffffffffffffffffffffffffffffffffffffffff\n      and\n      dup2\n      mstore\n      0x20\n      add\n      swap1\n      dup2\n      mstore\n      0x20\n      add\n      0x00\n      keccak256\n        /* \"Day-05/code1.sol\":1705:1760  userRewardPerTokenPaid[_account] = rewardPerTokenStored */\n      dup2\n      swap1\n      sstore\n      pop\n        /* \"Day-05/code1.sol\":1611:1772  if (_account != address(0)) {... */\n    tag_153:\n        /* \"Day-05/code1.sol\":1844:1850  paused */\n      0x0b\n      0x00\n      swap1\n      sload\n      swap1\n      0x0100\n      exp\n      swap1\n      div\n      0xff\n      and\n        /* \"Day-05/code1.sol\":1843:1850  !paused */\n      iszero\n        /* \"Day-05/code1.sol\":1835:1871  require(!paused, \"Pausable: paused\") */\n      tag_156\n      jumpi\n      mload(0x40)\n      0x08c379a000000000000000000000000000000000000000000000000000000000\n      dup2\n      mstore\n      0x04\n      add\n      tag_157\n      swap1\n      tag_137\n      jump\t// in\n    tag_157:\n      mload(0x40)\n      dup1\n      swap2\n      sub\n      swap1\n      revert\n    tag_156:\n        /* \"Day-05/code1.sol\":4103:4104  0 */\n      0x00\n        /* \"Day-05/code1.sol\":4093:4100  _reward */\n      dup3\n        /* \"Day-05/code1.sol\":4093:4104  _reward > 0 */\n      gt\n        /* \"Day-05/code1.sol\":4085:4127  require(_reward > 0, \"Reward must be > 0\") */\n      tag_159\n      jumpi\n      mload(0x40)\n      0x08c379a000000000000000000000000000000000000000000000000000000000\n      dup2\n      mstore\n      0x04\n      add\n      tag_160\n      swap1\n      tag_161\n      jump\t// in\n    tag_160:\n      mload(0x40)\n      dup1\n      swap2\n      sub\n      swap1\n      revert\n    tag_159:\n        /* \"Day-05/code1.sol\":4182:4197  rewardsDuration */\n      sload(0x04)\n        /* \"Day-05/code1.sol\":4165:4179  lastUpdateTime */\n      sload(0x05)\n        /* \"Day-05/code1.sol\":4165:4197  lastUpdateTime + rewardsDuration */\n      tag_162\n      swap2\n      swap1\n      tag_127\n      jump\t// in\n    tag_162:\n        /* \"Day-05/code1.sol\":4146:4161  block.timestamp */\n      timestamp\n        /* \"Day-05/code1.sol\":4146:4197  block.timestamp >= lastUpdateTime + rewardsDuration */\n      lt\n      iszero\n        /* \"Day-05/code1.sol\":4138:4274  require(block.timestamp >= lastUpdateTime + rewardsDuration, \"Previous rewards period must be complete before changing the reward rate\") */\n      tag_163\n      jumpi\n      mload(0x40)\n      0x08c379a000000000000000000000000000000000000000000000000000000000\n      dup2\n      mstore\n      0x04\n      add\n      tag_164\n      swap1\n      tag_165\n      jump\t// in\n    tag_164:\n      mload(0x40)\n      dup1\n      swap2\n      sub\n      swap1\n      revert\n    tag_163:\n        /* \"Day-05/code1.sol\":4287:4302  uint256 balance */\n      0x00\n        /* \"Day-05/code1.sol\":4305:4316  rewardToken */\n      0x02\n      0x00\n      swap1\n      sload\n      swap1\n      0x0100\n      exp\n      swap1\n      div\n      0xffffffffffffffffffffffffffffffffffffffff\n      and\n        /* \"Day-05/code1.sol\":4305:4326  rewardToken.balanceOf */\n      0xffffffffffffffffffffffffffffffffffffffff\n      and\n      0x70a08231\n        /* \"Day-05/code1.sol\":4335:4339  this */\n      address\n        /* \"Day-05/code1.sol\":4305:4341  rewardToken.balanceOf(address(this)) */\n      mload(0x40)\n      dup3\n      0xffffffff\n      and\n      0xe0\n      shl\n      dup2\n      mstore\n      0x04\n      add\n      tag_166\n      swap2\n      swap1\n      tag_94\n      jump\t// in\n    tag_166:\n      0x20\n      mload(0x40)\n      dup1\n      dup4\n      sub\n      dup2\n      dup7\n      gas\n      staticcall\n      iszero\n      dup1\n      iszero\n      tag_168\n      jumpi\n      returndatasize\n      0x00\n      dup1\n      returndatacopy\n      revert(0x00, returndatasize)\n    tag_168:\n      pop\n      pop\n      pop\n      pop\n      mload(0x40)\n      returndatasize\n      not(0x1f)\n      0x1f\n      dup3\n      add\n      and\n      dup3\n      add\n      dup1\n      0x40\n      mstore\n      pop\n      dup2\n      add\n      swap1\n      tag_169\n      swap2\n      swap1\n      tag_170\n      jump\t// in\n    tag_169:\n        /* \"Day-05/code1.sol\":4287:4341  uint256 balance = rewardToken.balanceOf(address(this)) */\n      swap1\n      pop\n        /* \"Day-05/code1.sol\":4371:4378  balance */\n      dup1\n        /* \"Day-05/code1.sol\":4360:4367  _reward */\n      dup4\n        /* \"Day-05/code1.sol\":4360:4378  _reward <= balance */\n      gt\n      iszero\n        /* \"Day-05/code1.sol\":4352:4412  require(_reward <= balance, \"Reward amount exceeds balance\") */\n      tag_171\n      jumpi\n      mload(0x40)\n      0x08c379a000000000000000000000000000000000000000000000000000000000\n      dup2\n      mstore\n      0x04\n      add\n      tag_172\n      swap1\n      tag_173\n      jump\t// in\n    tag_172:\n      mload(0x40)\n      dup1\n      swap2\n      sub\n      swap1\n      revert\n    tag_171:\n        /* \"Day-05/code1.sol\":4425:4489  rewardToken.safeTransferFrom(msg.sender, address(this), _reward) */\n      tag_174\n        /* \"Day-05/code1.sol\":4454:4464  msg.sender */\n      caller\n        /* \"Day-05/code1.sol\":4474:4478  this */\n      address\n        /* \"Day-05/code1.sol\":4481:4488  _reward */\n      dup6\n        /* \"Day-05/code1.sol\":4425:4436  rewardToken */\n      0x02\n      0x00\n      swap1\n      sload\n      swap1\n      0x0100\n      exp\n      swap1\n      div\n      0xffffffffffffffffffffffffffffffffffffffff\n      and\n        /* \"Day-05/code1.sol\":4425:4453  rewardToken.safeTransferFrom */\n      0xffffffffffffffffffffffffffffffffffffffff\n      and\n      tag_175\n      swap1\n        /* \"Day-05/code1.sol\":4425:4489  rewardToken.safeTransferFrom(msg.sender, address(this), _reward) */\n      swap4\n      swap3\n      swap2\n      swap1\n      0xffffffff\n      and\n      jump\t// in\n    tag_174:\n        /* \"Day-05/code1.sol\":4517:4532  block.timestamp */\n      timestamp\n        /* \"Day-05/code1.sol\":4500:4514  lastUpdateTime */\n      0x05\n        /* \"Day-05/code1.sol\":4500:4532  lastUpdateTime = block.timestamp */\n      dup2\n      swap1\n      sstore\n      pop\n        /* \"Day-05/code1.sol\":4566:4581  rewardsDuration */\n      sload(0x04)\n        /* \"Day-05/code1.sol\":4556:4563  _reward */\n      dup4\n        /* \"Day-05/code1.sol\":4556:4581  _reward / rewardsDuration */\n      tag_176\n      swap2\n      swap1\n      tag_125\n      jump\t// in\n    tag_176:\n        /* \"Day-05/code1.sol\":4543:4553  rewardRate */\n      0x03\n        /* \"Day-05/code1.sol\":4543:4581  rewardRate = _reward / rewardsDuration */\n      dup2\n      swap1\n      sstore\n      pop\n        /* \"Day-05/code1.sol\":4597:4617  RewardAdded(_reward) */\n      0xde88a922e0d3b88b24e9623efeb464919c6bf9f66857a65e2bfcf2ce87a9433d\n        /* \"Day-05/code1.sol\":4609:4616  _reward */\n      dup4\n        /* \"Day-05/code1.sol\":4597:4617  RewardAdded(_reward) */\n      mload(0x40)\n      tag_177\n      swap2\n      swap1\n      tag_39\n      jump\t// in\n    tag_177:\n      mload(0x40)\n      dup1\n      swap2\n      sub\n      swap1\n      log1\n        /* \"Day-05/code1.sol\":4074:4625  {... */\n      pop\n        /* \"@openzeppelin/contracts/access/Ownable.sol\":1554:1555  _ */\n      pop\n        /* \"Day-05/code1.sol\":3971:4625  function notifyRewardAmount(uint256 _reward) external onlyOwner updateReward(address(0)) whenNotPaused {... */\n      pop\n      jump\t// out\n        /* \"Day-05/code1.sol\":3656:3963  function getReward() public updateReward(msg.sender) whenNotPaused {... */\n    tag_62:\n        /* \"Day-05/code1.sol\":3697:3707  msg.sender */\n      caller\n        /* \"Day-05/code1.sol\":1530:1546  rewardPerToken() */\n      tag_179\n        /* \"Day-05/code1.sol\":1530:1544  rewardPerToken */\n      tag_105\n        /* \"Day-05/code1.sol\":1530:1546  rewardPerToken() */\n      jump\t// in\n    tag_179:\n        /* \"Day-05/code1.sol\":1507:1527  rewardPerTokenStored */\n      0x06\n        /* \"Day-05/code1.sol\":1507:1546  rewardPerTokenStored = rewardPerToken() */\n      dup2\n      swap1\n      sstore\n      pop\n        /* \"Day-05/code1.sol\":1574:1600  lastTimeRewardApplicable() */\n      tag_180\n        /* \"Day-05/code1.sol\":1574:1598  lastTimeRewardApplicable */\n      tag_83\n        /* \"Day-05/code1.sol\":1574:1600  lastTimeRewardApplicable() */\n      jump\t// in\n    tag_180:\n        /* \"Day-05/code1.sol\":1557:1571  lastUpdateTime */\n      0x05\n        /* \"Day-05/code1.sol\":1557:1600  lastUpdateTime = lastTimeRewardApplicable() */\n      dup2\n      swap1\n      sstore\n      pop\n        /* \"Day-05/code1.sol\":1635:1636  0 */\n      0x00\n        /* \"Day-05/code1.sol\":1615:1637  _account != address(0) */\n      0xffffffffffffffffffffffffffffffffffffffff\n      and\n        /* \"Day-05/code1.sol\":1615:1623  _account */\n      dup2\n        /* \"Day-05/code1.sol\":1615:1637  _account != address(0) */\n      0xffffffffffffffffffffffffffffffffffffffff\n      and\n      eq\n        /* \"Day-05/code1.sol\":1611:1772  if (_account != address(0)) {... */\n      tag_181\n      jumpi\n        /* \"Day-05/code1.sol\":1674:1690  earned(_account) */\n      tag_182\n        /* \"Day-05/code1.sol\":1681:1689  _account */\n      dup2\n        /* \"Day-05/code1.sol\":1674:1680  earned */\n      tag_37\n        /* \"Day-05/code1.sol\":1674:1690  earned(_account) */\n      jump\t// in\n    tag_182:\n        /* \"Day-05/code1.sol\":1654:1661  rewards */\n      0x08\n        /* \"Day-05/code1.sol\":1654:1671  rewards[_account] */\n      0x00\n        /* \"Day-05/code1.sol\":1662:1670  _account */\n      dup4\n        /* \"Day-05/code1.sol\":1654:1671  rewards[_account] */\n      0xffffffffffffffffffffffffffffffffffffffff\n      and\n      0xffffffffffffffffffffffffffffffffffffffff\n      and\n      dup2\n      mstore\n      0x20\n      add\n      swap1\n      dup2\n      mstore\n      0x20\n      add\n      0x00\n      keccak256\n        /* \"Day-05/code1.sol\":1654:1690  rewards[_account] = earned(_account) */\n      dup2\n      swap1\n      sstore\n      pop\n        /* \"Day-05/code1.sol\":1740:1760  rewardPerTokenStored */\n      sload(0x06)\n        /* \"Day-05/code1.sol\":1705:1727  userRewardPerTokenPaid */\n      0x07\n        /* \"Day-05/code1.sol\":1705:1737  userRewardPerTokenPaid[_account] */\n      0x00\n        /* \"Day-05/code1.sol\":1728:1736  _account */\n      dup4\n        /* \"Day-05/code1.sol\":1705:1737  userRewardPerTokenPaid[_account] */\n      0xffffffffffffffffffffffffffffffffffffffff\n      and\n      0xffffffffffffffffffffffffffffffffffffffff\n      and\n      dup2\n      mstore\n      0x20\n      add\n      swap1\n      dup2\n      mstore\n      0x20\n      add\n      0x00\n      keccak256\n        /* \"Day-05/code1.sol\":1705:1760  userRewardPerTokenPaid[_account] = rewardPerTokenStored */\n      dup2\n      swap1\n      sstore\n      pop\n        /* \"Day-05/code1.sol\":1611:1772  if (_account != address(0)) {... */\n    tag_181:\n        /* \"Day-05/code1.sol\":1844:1850  paused */\n      0x0b\n      0x00\n      swap1\n      sload\n      swap1\n      0x0100\n      exp\n      swap1\n      div\n      0xff\n      and\n        /* \"Day-05/code1.sol\":1843:1850  !paused */\n      iszero\n        /* \"Day-05/code1.sol\":1835:1871  require(!paused, \"Pausable: paused\") */\n      tag_184\n      jumpi\n      mload(0x40)\n      0x08c379a000000000000000000000000000000000000000000000000000000000\n      dup2\n      mstore\n      0x04\n      add\n      tag_185\n      swap1\n      tag_137\n      jump\t// in\n    tag_185:\n      mload(0x40)\n      dup1\n      swap2\n      sub\n      swap1\n      revert\n    tag_184:\n        /* \"Day-05/code1.sol\":3734:3748  uint256 reward */\n      0x00\n        /* \"Day-05/code1.sol\":3751:3758  rewards */\n      0x08\n        /* \"Day-05/code1.sol\":3751:3770  rewards[msg.sender] */\n      0x00\n        /* \"Day-05/code1.sol\":3759:3769  msg.sender */\n      caller\n        /* \"Day-05/code1.sol\":3751:3770  rewards[msg.sender] */\n      0xffffffffffffffffffffffffffffffffffffffff\n      and\n      0xffffffffffffffffffffffffffffffffffffffff\n      and\n      dup2\n      mstore\n      0x20\n      add\n      swap1\n      dup2\n      mstore\n      0x20\n      add\n      0x00\n      keccak256\n      sload\n        /* \"Day-05/code1.sol\":3734:3770  uint256 reward = rewards[msg.sender] */\n      swap1\n      pop\n        /* \"Day-05/code1.sol\":3794:3795  0 */\n      0x00\n        /* \"Day-05/code1.sol\":3785:3791  reward */\n      dup2\n        /* \"Day-05/code1.sol\":3785:3795  reward > 0 */\n      gt\n        /* \"Day-05/code1.sol\":3781:3956  if (reward > 0) {... */\n      iszero\n      tag_187\n      jumpi\n        /* \"Day-05/code1.sol\":3834:3835  0 */\n      0x00\n        /* \"Day-05/code1.sol\":3812:3819  rewards */\n      0x08\n        /* \"Day-05/code1.sol\":3812:3831  rewards[msg.sender] */\n      0x00\n        /* \"Day-05/code1.sol\":3820:3830  msg.sender */\n      caller\n        /* \"Day-05/code1.sol\":3812:3831  rewards[msg.sender] */\n      0xffffffffffffffffffffffffffffffffffffffff\n      and\n      0xffffffffffffffffffffffffffffffffffffffff\n      and\n      dup2\n      mstore\n      0x20\n      add\n      swap1\n      dup2\n      mstore\n      0x20\n      add\n      0x00\n      keccak256\n        /* \"Day-05/code1.sol\":3812:3835  rewards[msg.sender] = 0 */\n      dup2\n      swap1\n      sstore\n      pop\n        /* \"Day-05/code1.sol\":3850:3894  rewardToken.safeTransfer(msg.sender, reward) */\n      tag_188\n        /* \"Day-05/code1.sol\":3875:3885  msg.sender */\n      caller\n        /* \"Day-05/code1.sol\":3887:3893  reward */\n      dup3\n        /* \"Day-05/code1.sol\":3850:3861  rewardToken */\n      0x02\n      0x00\n      swap1\n      sload\n      swap1\n      0x0100\n      exp\n      swap1\n      div\n      0xffffffffffffffffffffffffffffffffffffffff\n      and\n        /* \"Day-05/code1.sol\":3850:3874  rewardToken.safeTransfer */\n      0xffffffffffffffffffffffffffffffffffffffff\n      and\n      tag_145\n      swap1\n        /* \"Day-05/code1.sol\":3850:3894  rewardToken.safeTransfer(msg.sender, reward) */\n      swap3\n      swap2\n      swap1\n      0xffffffff\n      and\n      jump\t// in\n    tag_188:\n        /* \"Day-05/code1.sol\":3925:3935  msg.sender */\n      caller\n        /* \"Day-05/code1.sol\":3914:3944  RewardPaid(msg.sender, reward) */\n      0xffffffffffffffffffffffffffffffffffffffff\n      and\n      0xe2403640ba68fed3a2f88b7557551d1993f84b99bb10ff833f0cf8db0c5e0486\n        /* \"Day-05/code1.sol\":3937:3943  reward */\n      dup3\n        /* \"Day-05/code1.sol\":3914:3944  RewardPaid(msg.sender, reward) */\n      mload(0x40)\n      tag_189\n      swap2\n      swap1\n      tag_39\n      jump\t// in\n    tag_189:\n      mload(0x40)\n      dup1\n      swap2\n      sub\n      swap1\n      log2\n        /* \"Day-05/code1.sol\":3781:3956  if (reward > 0) {... */\n    tag_187:\n        /* \"Day-05/code1.sol\":3723:3963  {... */\n      pop\n        /* \"Day-05/code1.sol\":3656:3963  function getReward() public updateReward(msg.sender) whenNotPaused {... */\n      pop\n      jump\t// out\n        /* \"Day-05/code1.sol\":5077:5184  function unpause() external onlyOwner {... */\n    tag_64:\n        /* \"@openzeppelin/contracts/access/Ownable.sol\":1531:1544  _checkOwner() */\n      tag_191\n        /* \"@openzeppelin/contracts/access/Ownable.sol\":1531:1542  _checkOwner */\n      tag_149\n        /* \"@openzeppelin/contracts/access/Ownable.sol\":1531:1544  _checkOwner() */\n      jump\t// in\n    tag_191:\n        /* \"Day-05/code1.sol\":5135:5140  false */\n      0x00\n        /* \"Day-05/code1.sol\":5126:5132  paused */\n      0x0b\n      0x00\n        /* \"Day-05/code1.sol\":5126:5140  paused = false */\n      0x0100\n      exp\n      dup2\n      sload\n      dup2\n      0xff\n      mul\n      not\n      and\n      swap1\n      dup4\n      iszero\n      iszero\n      mul\n      or\n      swap1\n      sstore\n      pop\n        /* \"Day-05/code1.sol\":5165:5175  msg.sender */\n      caller\n        /* \"Day-05/code1.sol\":5156:5176  Unpaused(msg.sender) */\n      0xffffffffffffffffffffffffffffffffffffffff\n      and\n      0x5db9ee0a495bf2e6ff9c91a7834c1ba4fdd244a5e8aa4e537bd38aeae4b073aa\n      mload(0x40)\n      mload(0x40)\n      dup1\n      swap2\n      sub\n      swap1\n      log2\n        /* \"Day-05/code1.sol\":5077:5184  function unpause() external onlyOwner {... */\n      jump\t// out\n        /* \"Day-05/code1.sol\":736:754  bool public paused */\n    tag_66:\n      0x0b\n      0x00\n      swap1\n      sload\n      swap1\n      0x0100\n      exp\n      swap1\n      div\n      0xff\n      and\n      dup2\n      jump\t// out\n        /* \"Day-05/code1.sol\":1998:2114  function balanceOf(address _account) public view returns (uint256) {... */\n    tag_71:\n        /* \"Day-05/code1.sol\":2056:2063  uint256 */\n      0x00\n        /* \"Day-05/code1.sol\":2083:2096  stakedAmounts */\n      0x09\n        /* \"Day-05/code1.sol\":2083:2106  stakedAmounts[_account] */\n      0x00\n        /* \"Day-05/code1.sol\":2097:2105  _account */\n      dup4\n        /* \"Day-05/code1.sol\":2083:2106  stakedAmounts[_account] */\n      0xffffffffffffffffffffffffffffffffffffffff\n      and\n      0xffffffffffffffffffffffffffffffffffffffff\n      and\n      dup2\n      mstore\n      0x20\n      add\n      swap1\n      dup2\n      mstore\n      0x20\n      add\n      0x00\n      keccak256\n      sload\n        /* \"Day-05/code1.sol\":2076:2106  return stakedAmounts[_account] */\n      swap1\n      pop\n        /* \"Day-05/code1.sol\":1998:2114  function balanceOf(address _account) public view returns (uint256) {... */\n      swap2\n      swap1\n      pop\n      jump\t// out\n        /* \"@openzeppelin/contracts/access/Ownable.sol\":2293:2394  function renounceOwnership() public virtual onlyOwner {... */\n    tag_74:\n        /* \"@openzeppelin/contracts/access/Ownable.sol\":1531:1544  _checkOwner() */\n      tag_195\n        /* \"@openzeppelin/contracts/access/Ownable.sol\":1531:1542  _checkOwner */\n      tag_149\n        /* \"@openzeppelin/contracts/access/Ownable.sol\":1531:1544  _checkOwner() */\n      jump\t// in\n    tag_195:\n        /* \"@openzeppelin/contracts/access/Ownable.sol\":2357:2387  _transferOwnership(address(0)) */\n      tag_197\n        /* \"@openzeppelin/contracts/access/Ownable.sol\":2384:2385  0 */\n      0x00\n        /* \"@openzeppelin/contracts/access/Ownable.sol\":2357:2375  _transferOwnership */\n      tag_198\n        /* \"@openzeppelin/contracts/access/Ownable.sol\":2357:2387  _transferOwnership(address(0)) */\n      jump\t// in\n    tag_197:\n        /* \"@openzeppelin/contracts/access/Ownable.sol\":2293:2394  function renounceOwnership() public virtual onlyOwner {... */\n      jump\t// out\n        /* \"Day-05/code1.sol\":315:341  IERC20 public stakingToken */\n    tag_76:\n      0x01\n      0x00\n      swap1\n      sload\n      swap1\n      0x0100\n      exp\n      swap1\n      div\n      0xffffffffffffffffffffffffffffffffffffffff\n      and\n      dup2\n      jump\t// out\n        /* \"Day-05/code1.sol\":382:407  uint256 public rewardRate */\n    tag_80:\n      sload(0x03)\n      dup2\n      jump\t// out\n        /* \"Day-05/code1.sol\":2122:2317  function lastTimeRewardApplicable() public view returns (uint256) {... */\n    tag_83:\n        /* \"Day-05/code1.sol\":2179:2186  uint256 */\n      0x00\n        /* \"Day-05/code1.sol\":2241:2256  rewardsDuration */\n      sload(0x04)\n        /* \"Day-05/code1.sol\":2224:2238  lastUpdateTime */\n      sload(0x05)\n        /* \"Day-05/code1.sol\":2224:2256  lastUpdateTime + rewardsDuration */\n      tag_200\n      swap2\n      swap1\n      tag_127\n      jump\t// in\n    tag_200:\n        /* \"Day-05/code1.sol\":2206:2221  block.timestamp */\n      timestamp\n        /* \"Day-05/code1.sol\":2206:2256  block.timestamp < lastUpdateTime + rewardsDuration */\n      lt\n        /* \"Day-05/code1.sol\":2206:2309  block.timestamp < lastUpdateTime + rewardsDuration ? block.timestamp : lastUpdateTime + rewardsDuration */\n      tag_201\n      jumpi\n        /* \"Day-05/code1.sol\":2294:2309  rewardsDuration */\n      sload(0x04)\n        /* \"Day-05/code1.sol\":2277:2291  lastUpdateTime */\n      sload(0x05)\n        /* \"Day-05/code1.sol\":2277:2309  lastUpdateTime + rewardsDuration */\n      tag_202\n      swap2\n      swap1\n      tag_127\n      jump\t// in\n    tag_202:\n        /* \"Day-05/code1.sol\":2206:2309  block.timestamp < lastUpdateTime + rewardsDuration ? block.timestamp : lastUpdateTime + rewardsDuration */\n      jump(tag_203)\n    tag_201:\n        /* \"Day-05/code1.sol\":2259:2274  block.timestamp */\n      timestamp\n        /* \"Day-05/code1.sol\":2206:2309  block.timestamp < lastUpdateTime + rewardsDuration ? block.timestamp : lastUpdateTime + rewardsDuration */\n    tag_203:\n        /* \"Day-05/code1.sol\":2199:2309  return block.timestamp < lastUpdateTime + rewardsDuration ? block.timestamp : lastUpdateTime + rewardsDuration */\n      swap1\n      pop\n        /* \"Day-05/code1.sol\":2122:2317  function lastTimeRewardApplicable() public view returns (uint256) {... */\n      swap1\n      jump\t// out\n        /* \"Day-05/code1.sol\":4967:5069  function pause() external onlyOwner {... */\n    tag_86:\n        /* \"@openzeppelin/contracts/access/Ownable.sol\":1531:1544  _checkOwner() */\n      tag_205\n        /* \"@openzeppelin/contracts/access/Ownable.sol\":1531:1542  _checkOwner */\n      tag_149\n        /* \"@openzeppelin/contracts/access/Ownable.sol\":1531:1544  _checkOwner() */\n      jump\t// in\n    tag_205:\n        /* \"Day-05/code1.sol\":5023:5027  true */\n      0x01\n        /* \"Day-05/code1.sol\":5014:5020  paused */\n      0x0b\n      0x00\n        /* \"Day-05/code1.sol\":5014:5027  paused = true */\n      0x0100\n      exp\n      dup2\n      sload\n      dup2\n      0xff\n      mul\n      not\n      and\n      swap1\n      dup4\n      iszero\n      iszero\n      mul\n      or\n      swap1\n      sstore\n      pop\n        /* \"Day-05/code1.sol\":5050:5060  msg.sender */\n      caller\n        /* \"Day-05/code1.sol\":5043:5061  Paused(msg.sender) */\n      0xffffffffffffffffffffffffffffffffffffffff\n      and\n      0x62e78cea01bee320cd4e420270b5ea74000d11b0c9f74754ebdbfc544b05a258\n      mload(0x40)\n      mload(0x40)\n      dup1\n      swap2\n      sub\n      swap1\n      log2\n        /* \"Day-05/code1.sol\":4967:5069  function pause() external onlyOwner {... */\n      jump\t// out\n        /* \"Day-05/code1.sol\":531:588  mapping(address => uint256) public userRewardPerTokenPaid */\n    tag_89:\n      mstore(0x20, 0x07)\n      dup1\n      0x00\n      mstore\n      keccak256(0x00, 0x40)\n      0x00\n      swap2\n      pop\n      swap1\n      pop\n      sload\n      dup2\n      jump\t// out\n        /* \"@openzeppelin/contracts/access/Ownable.sol\":1638:1723  function owner() public view virtual returns (address) {... */\n    tag_92:\n        /* \"@openzeppelin/contracts/access/Ownable.sol\":1684:1691  address */\n      0x00\n        /* \"@openzeppelin/contracts/access/Ownable.sol\":1710:1716  _owner */\n      dup1\n      0x00\n      swap1\n      sload\n      swap1\n      0x0100\n      exp\n      swap1\n      div\n      0xffffffffffffffffffffffffffffffffffffffff\n      and\n        /* \"@openzeppelin/contracts/access/Ownable.sol\":1703:1716  return _owner */\n      swap1\n      pop\n        /* \"@openzeppelin/contracts/access/Ownable.sol\":1638:1723  function owner() public view virtual returns (address) {... */\n      swap1\n      jump\t// out\n        /* \"Day-05/code1.sol\":2869:3206  function stake(uint256 _amount) external updateReward(msg.sender) whenNotPaused {... */\n    tag_97:\n        /* \"Day-05/code1.sol\":2923:2933  msg.sender */\n      caller\n        /* \"Day-05/code1.sol\":1530:1546  rewardPerToken() */\n      tag_209\n        /* \"Day-05/code1.sol\":1530:1544  rewardPerToken */\n      tag_105\n        /* \"Day-05/code1.sol\":1530:1546  rewardPerToken() */\n      jump\t// in\n    tag_209:\n        /* \"Day-05/code1.sol\":1507:1527  rewardPerTokenStored */\n      0x06\n        /* \"Day-05/code1.sol\":1507:1546  rewardPerTokenStored = rewardPerToken() */\n      dup2\n      swap1\n      sstore\n      pop\n        /* \"Day-05/code1.sol\":1574:1600  lastTimeRewardApplicable() */\n      tag_210\n        /* \"Day-05/code1.sol\":1574:1598  lastTimeRewardApplicable */\n      tag_83\n        /* \"Day-05/code1.sol\":1574:1600  lastTimeRewardApplicable() */\n      jump\t// in\n    tag_210:\n        /* \"Day-05/code1.sol\":1557:1571  lastUpdateTime */\n      0x05\n        /* \"Day-05/code1.sol\":1557:1600  lastUpdateTime = lastTimeRewardApplicable() */\n      dup2\n      swap1\n      sstore\n      pop\n        /* \"Day-05/code1.sol\":1635:1636  0 */\n      0x00\n        /* \"Day-05/code1.sol\":1615:1637  _account != address(0) */\n      0xffffffffffffffffffffffffffffffffffffffff\n      and\n        /* \"Day-05/code1.sol\":1615:1623  _account */\n      dup2\n        /* \"Day-05/code1.sol\":1615:1637  _account != address(0) */\n      0xffffffffffffffffffffffffffffffffffffffff\n      and\n      eq\n        /* \"Day-05/code1.sol\":1611:1772  if (_account != address(0)) {... */\n      tag_211\n      jumpi\n        /* \"Day-05/code1.sol\":1674:1690  earned(_account) */\n      tag_212\n        /* \"Day-05/code1.sol\":1681:1689  _account */\n      dup2\n        /* \"Day-05/code1.sol\":1674:1680  earned */\n      tag_37\n        /* \"Day-05/code1.sol\":1674:1690  earned(_account) */\n      jump\t// in\n    tag_212:\n        /* \"Day-05/code1.sol\":1654:1661  rewards */\n      0x08\n        /* \"Day-05/code1.sol\":1654:1671  rewards[_account] */\n      0x00\n        /* \"Day-05/code1.sol\":1662:1670  _account */\n      dup4\n        /* \"Day-05/code1.sol\":1654:1671  rewards[_account] */\n      0xffffffffffffffffffffffffffffffffffffffff\n      and\n      0xffffffffffffffffffffffffffffffffffffffff\n      and\n      dup2\n      mstore\n      0x20\n      add\n      swap1\n      dup2\n      mstore\n      0x20\n      add\n      0x00\n      keccak256\n        /* \"Day-05/code1.sol\":1654:1690  rewards[_account] = earned(_account) */\n      dup2\n      swap1\n      sstore\n      pop\n        /* \"Day-05/code1.sol\":1740:1760  rewardPerTokenStored */\n      sload(0x06)\n        /* \"Day-05/code1.sol\":1705:1727  userRewardPerTokenPaid */\n      0x07\n        /* \"Day-05/code1.sol\":1705:1737  userRewardPerTokenPaid[_account] */\n      0x00\n        /* \"Day-05/code1.sol\":1728:1736  _account */\n      dup4\n        /* \"Day-05/code1.sol\":1705:1737  userRewardPerTokenPaid[_account] */\n      0xffffffffffffffffffffffffffffffffffffffff\n      and\n      0xffffffffffffffffffffffffffffffffffffffff\n      and\n      dup2\n      mstore\n      0x20\n      add\n      swap1\n      dup2\n      mstore\n      0x20\n      add\n      0x00\n      keccak256\n        /* \"Day-05/code1.sol\":1705:1760  userRewardPerTokenPaid[_account] = rewardPerTokenStored */\n      dup2\n      swap1\n      sstore\n      pop\n        /* \"Day-05/code1.sol\":1611:1772  if (_account != address(0)) {... */\n    tag_211:\n        /* \"Day-05/code1.sol\":1844:1850  paused */\n      0x0b\n      0x00\n      swap1\n      sload\n      swap1\n      0x0100\n      exp\n      swap1\n      div\n      0xff\n      and\n        /* \"Day-05/code1.sol\":1843:1850  !paused */\n      iszero\n        /* \"Day-05/code1.sol\":1835:1871  require(!paused, \"Pausable: paused\") */\n      tag_214\n      jumpi\n      mload(0x40)\n      0x08c379a000000000000000000000000000000000000000000000000000000000\n      dup2\n      mstore\n      0x04\n      add\n      tag_215\n      swap1\n      tag_137\n      jump\t// in\n    tag_215:\n      mload(0x40)\n      dup1\n      swap2\n      sub\n      swap1\n      revert\n    tag_214:\n        /* \"Day-05/code1.sol\":2978:2979  0 */\n      0x00\n        /* \"Day-05/code1.sol\":2968:2975  _amount */\n      dup3\n        /* \"Day-05/code1.sol\":2968:2979  _amount > 0 */\n      gt\n        /* \"Day-05/code1.sol\":2960:2998  require(_amount > 0, \"Cannot stake 0\") */\n      tag_217\n      jumpi\n      mload(0x40)\n      0x08c379a000000000000000000000000000000000000000000000000000000000\n      dup2\n      mstore\n      0x04\n      add\n      tag_218\n      swap1\n      tag_219\n      jump\t// in\n    tag_218:\n      mload(0x40)\n      dup1\n      swap2\n      sub\n      swap1\n      revert\n    tag_217:\n        /* \"Day-05/code1.sol\":3025:3032  _amount */\n      dup2\n        /* \"Day-05/code1.sol\":3009:3021  _totalSupply */\n      0x0a\n      0x00\n        /* \"Day-05/code1.sol\":3009:3032  _totalSupply += _amount */\n      dup3\n      dup3\n      sload\n      tag_220\n      swap2\n      swap1\n      tag_127\n      jump\t// in\n    tag_220:\n      swap3\n      pop\n      pop\n      dup2\n      swap1\n      sstore\n      pop\n        /* \"Day-05/code1.sol\":3072:3079  _amount */\n      dup2\n        /* \"Day-05/code1.sol\":3043:3056  stakedAmounts */\n      0x09\n        /* \"Day-05/code1.sol\":3043:3068  stakedAmounts[msg.sender] */\n      0x00\n        /* \"Day-05/code1.sol\":3057:3067  msg.sender */\n      caller\n        /* \"Day-05/code1.sol\":3043:3068  stakedAmounts[msg.sender] */\n      0xffffffffffffffffffffffffffffffffffffffff\n      and\n      0xffffffffffffffffffffffffffffffffffffffff\n      and\n      dup2\n      mstore\n      0x20\n      add\n      swap1\n      dup2\n      mstore\n      0x20\n      add\n      0x00\n      keccak256\n      0x00\n        /* \"Day-05/code1.sol\":3043:3079  stakedAmounts[msg.sender] += _amount */\n      dup3\n      dup3\n      sload\n      tag_221\n      swap2\n      swap1\n      tag_127\n      jump\t// in\n    tag_221:\n      swap3\n      pop\n      pop\n      dup2\n      swap1\n      sstore\n      pop\n        /* \"Day-05/code1.sol\":3090:3155  stakingToken.safeTransferFrom(msg.sender, address(this), _amount) */\n      tag_222\n        /* \"Day-05/code1.sol\":3120:3130  msg.sender */\n      caller\n        /* \"Day-05/code1.sol\":3140:3144  this */\n      address\n        /* \"Day-05/code1.sol\":3147:3154  _amount */\n      dup5\n        /* \"Day-05/code1.sol\":3090:3102  stakingToken */\n      0x01\n      0x00\n      swap1\n      sload\n      swap1\n      0x0100\n      exp\n      swap1\n      div\n      0xffffffffffffffffffffffffffffffffffffffff\n      and\n        /* \"Day-05/code1.sol\":3090:3119  stakingToken.safeTransferFrom */\n      0xffffffffffffffffffffffffffffffffffffffff\n      and\n      tag_175\n      swap1\n        /* \"Day-05/code1.sol\":3090:3155  stakingToken.safeTransferFrom(msg.sender, address(this), _amount) */\n      swap4\n      swap3\n      swap2\n      swap1\n      0xffffffff\n      and\n      jump\t// in\n    tag_222:\n        /* \"Day-05/code1.sol\":3178:3188  msg.sender */\n      caller\n        /* \"Day-05/code1.sol\":3171:3198  Staked(msg.sender, _amount) */\n      0xffffffffffffffffffffffffffffffffffffffff\n      and\n      0x9e71bc8eea02a63969f509818f2dafb9254532904319f9dbda79b67bd34a5f3d\n        /* \"Day-05/code1.sol\":3190:3197  _amount */\n      dup4\n        /* \"Day-05/code1.sol\":3171:3198  Staked(msg.sender, _amount) */\n      mload(0x40)\n      tag_223\n      swap2\n      swap1\n      tag_39\n      jump\t// in\n    tag_223:\n      mload(0x40)\n      dup1\n      swap2\n      sub\n      swap1\n      log2\n        /* \"Day-05/code1.sol\":2869:3206  function stake(uint256 _amount) external updateReward(msg.sender) whenNotPaused {... */\n      pop\n      pop\n      jump\t// out\n        /* \"Day-05/code1.sol\":451:480  uint256 public lastUpdateTime */\n    tag_99:\n      sload(0x05)\n      dup2\n      jump\t// out\n        /* \"Day-05/code1.sol\":4633:4959  function setRewardsDuration(uint256 _rewardsDuration) external onlyOwner {... */\n    tag_103:\n        /* \"@openzeppelin/contracts/access/Ownable.sol\":1531:1544  _checkOwner() */\n      tag_225\n        /* \"@openzeppelin/contracts/access/Ownable.sol\":1531:1542  _checkOwner */\n      tag_149\n        /* \"@openzeppelin/contracts/access/Ownable.sol\":1531:1544  _checkOwner() */\n      jump\t// in\n    tag_225:\n        /* \"Day-05/code1.sol\":4775:4790  rewardsDuration */\n      sload(0x04)\n        /* \"Day-05/code1.sol\":4758:4772  lastUpdateTime */\n      sload(0x05)\n        /* \"Day-05/code1.sol\":4758:4790  lastUpdateTime + rewardsDuration */\n      tag_227\n      swap2\n      swap1\n      tag_127\n      jump\t// in\n    tag_227:\n        /* \"Day-05/code1.sol\":4739:4754  block.timestamp */\n      timestamp\n        /* \"Day-05/code1.sol\":4739:4790  block.timestamp >= lastUpdateTime + rewardsDuration */\n      lt\n      iszero\n        /* \"Day-05/code1.sol\":4717:4906  require(... */\n      tag_228\n      jumpi\n      mload(0x40)\n      0x08c379a000000000000000000000000000000000000000000000000000000000\n      dup2\n      mstore\n      0x04\n      add\n      tag_229\n      swap1\n      tag_230\n      jump\t// in\n    tag_229:\n      mload(0x40)\n      dup1\n      swap2\n      sub\n      swap1\n      revert\n    tag_228:\n        /* \"Day-05/code1.sol\":4935:4951  _rewardsDuration */\n      dup1\n        /* \"Day-05/code1.sol\":4917:4932  rewardsDuration */\n      0x04\n        /* \"Day-05/code1.sol\":4917:4951  rewardsDuration = _rewardsDuration */\n      dup2\n      swap1\n      sstore\n      pop\n        /* \"Day-05/code1.sol\":4633:4959  function setRewardsDuration(uint256 _rewardsDuration) external onlyOwner {... */\n      pop\n      jump\t// out\n        /* \"Day-05/code1.sol\":2325:2627  function rewardPerToken() public view returns (uint256) {... */\n    tag_105:\n        /* \"Day-05/code1.sol\":2372:2379  uint256 */\n      0x00\n        /* \"Day-05/code1.sol\":2412:2413  0 */\n      dup1\n        /* \"Day-05/code1.sol\":2396:2408  _totalSupply */\n      sload(0x0a)\n        /* \"Day-05/code1.sol\":2396:2413  _totalSupply == 0 */\n      sub\n        /* \"Day-05/code1.sol\":2392:2469  if (_totalSupply == 0) {... */\n      tag_232\n      jumpi\n        /* \"Day-05/code1.sol\":2437:2457  rewardPerTokenStored */\n      sload(0x06)\n        /* \"Day-05/code1.sol\":2430:2457  return rewardPerTokenStored */\n      swap1\n      pop\n      jump(tag_231)\n        /* \"Day-05/code1.sol\":2392:2469  if (_totalSupply == 0) {... */\n    tag_232:\n        /* \"Day-05/code1.sol\":2606:2618  _totalSupply */\n      sload(0x0a)\n        /* \"Day-05/code1.sol\":2598:2602  1e18 */\n      0x0de0b6b3a7640000\n        /* \"Day-05/code1.sol\":2585:2595  rewardRate */\n      sload(0x03)\n        /* \"Day-05/code1.sol\":2567:2581  lastUpdateTime */\n      sload(0x05)\n        /* \"Day-05/code1.sol\":2538:2564  lastTimeRewardApplicable() */\n      tag_233\n        /* \"Day-05/code1.sol\":2538:2562  lastTimeRewardApplicable */\n      tag_83\n        /* \"Day-05/code1.sol\":2538:2564  lastTimeRewardApplicable() */\n      jump\t// in\n    tag_233:\n        /* \"Day-05/code1.sol\":2538:2581  lastTimeRewardApplicable() - lastUpdateTime */\n      tag_234\n      swap2\n      swap1\n      tag_121\n      jump\t// in\n    tag_234:\n        /* \"Day-05/code1.sol\":2537:2595  (lastTimeRewardApplicable() - lastUpdateTime) * rewardRate */\n      tag_235\n      swap2\n      swap1\n      tag_123\n      jump\t// in\n    tag_235:\n        /* \"Day-05/code1.sol\":2537:2602  (lastTimeRewardApplicable() - lastUpdateTime) * rewardRate * 1e18 */\n      tag_236\n      swap2\n      swap1\n      tag_123\n      jump\t// in\n    tag_236:\n        /* \"Day-05/code1.sol\":2536:2618  ((lastTimeRewardApplicable() - lastUpdateTime) * rewardRate * 1e18) / _totalSupply */\n      tag_237\n      swap2\n      swap1\n      tag_125\n      jump\t// in\n    tag_237:\n        /* \"Day-05/code1.sol\":2499:2519  rewardPerTokenStored */\n      sload(0x06)\n        /* \"Day-05/code1.sol\":2499:2619  rewardPerTokenStored +... */\n      tag_238\n      swap2\n      swap1\n      tag_127\n      jump\t// in\n    tag_238:\n        /* \"Day-05/code1.sol\":2479:2619  return... */\n      swap1\n      pop\n        /* \"Day-05/code1.sol\":2325:2627  function rewardPerToken() public view returns (uint256) {... */\n    tag_231:\n      swap1\n      jump\t// out\n        /* \"Day-05/code1.sol\":487:522  uint256 public rewardPerTokenStored */\n    tag_108:\n      sload(0x06)\n      dup2\n      jump\t// out\n        /* \"Day-05/code1.sol\":3547:3648  function exit() external {... */\n    tag_111:\n        /* \"Day-05/code1.sol\":3583:3618  withdraw(stakedAmounts[msg.sender]) */\n      tag_240\n        /* \"Day-05/code1.sol\":3592:3605  stakedAmounts */\n      0x09\n        /* \"Day-05/code1.sol\":3592:3617  stakedAmounts[msg.sender] */\n      0x00\n        /* \"Day-05/code1.sol\":3606:3616  msg.sender */\n      caller\n        /* \"Day-05/code1.sol\":3592:3617  stakedAmounts[msg.sender] */\n      0xffffffffffffffffffffffffffffffffffffffff\n      and\n      0xffffffffffffffffffffffffffffffffffffffff\n      and\n      dup2\n      mstore\n      0x20\n      add\n      swap1\n      dup2\n      mstore\n      0x20\n      add\n      0x00\n      keccak256\n      sload\n        /* \"Day-05/code1.sol\":3583:3591  withdraw */\n      tag_54\n        /* \"Day-05/code1.sol\":3583:3618  withdraw(stakedAmounts[msg.sender]) */\n      jump\t// in\n    tag_240:\n        /* \"Day-05/code1.sol\":3629:3640  getReward() */\n      tag_241\n        /* \"Day-05/code1.sol\":3629:3638  getReward */\n      tag_62\n        /* \"Day-05/code1.sol\":3629:3640  getReward() */\n      jump\t// in\n    tag_241:\n        /* \"Day-05/code1.sol\":3547:3648  function exit() external {... */\n      jump\t// out\n        /* \"@openzeppelin/contracts/access/Ownable.sol\":2543:2758  function transferOwnership(address newOwner) public virtual onlyOwner {... */\n    tag_114:\n        /* \"@openzeppelin/contracts/access/Ownable.sol\":1531:1544  _checkOwner() */\n      tag_243\n        /* \"@openzeppelin/contracts/access/Ownable.sol\":1531:1542  _checkOwner */\n      tag_149\n        /* \"@openzeppelin/contracts/access/Ownable.sol\":1531:1544  _checkOwner() */\n      jump\t// in\n    tag_243:\n        /* \"@openzeppelin/contracts/access/Ownable.sol\":2647:2648  0 */\n      0x00\n        /* \"@openzeppelin/contracts/access/Ownable.sol\":2627:2649  newOwner == address(0) */\n      0xffffffffffffffffffffffffffffffffffffffff\n      and\n        /* \"@openzeppelin/contracts/access/Ownable.sol\":2627:2635  newOwner */\n      dup2\n        /* \"@openzeppelin/contracts/access/Ownable.sol\":2627:2649  newOwner == address(0) */\n      0xffffffffffffffffffffffffffffffffffffffff\n      and\n      sub\n        /* \"@openzeppelin/contracts/access/Ownable.sol\":2623:2714  if (newOwner == address(0)) {... */\n      tag_245\n      jumpi\n        /* \"@openzeppelin/contracts/access/Ownable.sol\":2700:2701  0 */\n      0x00\n        /* \"@openzeppelin/contracts/access/Ownable.sol\":2672:2703  OwnableInvalidOwner(address(0)) */\n      mload(0x40)\n      0x1e4fbdf700000000000000000000000000000000000000000000000000000000\n      dup2\n      mstore\n      0x04\n      add\n      tag_246\n      swap2\n      swap1\n      tag_94\n      jump\t// in\n    tag_246:\n      mload(0x40)\n      dup1\n      swap2\n      sub\n      swap1\n      revert\n        /* \"@openzeppelin/contracts/access/Ownable.sol\":2623:2714  if (newOwner == address(0)) {... */\n    tag_245:\n        /* \"@openzeppelin/contracts/access/Ownable.sol\":2723:2751  _transferOwnership(newOwner) */\n      tag_247\n        /* \"@openzeppelin/contracts/access/Ownable.sol\":2742:2750  newOwner */\n      dup2\n        /* \"@openzeppelin/contracts/access/Ownable.sol\":2723:2741  _transferOwnership */\n      tag_198\n        /* \"@openzeppelin/contracts/access/Ownable.sol\":2723:2751  _transferOwnership(newOwner) */\n      jump\t// in\n    tag_247:\n        /* \"@openzeppelin/contracts/access/Ownable.sol\":2543:2758  function transferOwnership(address newOwner) public virtual onlyOwner {... */\n      pop\n      jump\t// out\n        /* \"Day-05/code1.sol\":348:373  IERC20 public rewardToken */\n    tag_116:\n      0x02\n      0x00\n      swap1\n      sload\n      swap1\n      0x0100\n      exp\n      swap1\n      div\n      0xffffffffffffffffffffffffffffffffffffffff\n      and\n      dup2\n      jump\t// out\n        /* \"@openzeppelin/contracts/token/ERC20/utils/SafeERC20.sol\":1219:1423  function safeTransfer(IERC20 token, address to, uint256 value) internal {... */\n    tag_145:\n        /* \"@openzeppelin/contracts/token/ERC20/utils/SafeERC20.sol\":1306:1343  _safeTransfer(token, to, value, true) */\n      tag_249\n        /* \"@openzeppelin/contracts/token/ERC20/utils/SafeERC20.sol\":1320:1325  token */\n      dup4\n        /* \"@openzeppelin/contracts/token/ERC20/utils/SafeERC20.sol\":1327:1329  to */\n      dup4\n        /* \"@openzeppelin/contracts/token/ERC20/utils/SafeERC20.sol\":1331:1336  value */\n      dup4\n        /* \"@openzeppelin/contracts/token/ERC20/utils/SafeERC20.sol\":1338:1342  true */\n      0x01\n        /* \"@openzeppelin/contracts/token/ERC20/utils/SafeERC20.sol\":1306:1319  _safeTransfer */\n      tag_250\n        /* \"@openzeppelin/contracts/token/ERC20/utils/SafeERC20.sol\":1306:1343  _safeTransfer(token, to, value, true) */\n      jump\t// in\n    tag_249:\n        /* \"@openzeppelin/contracts/token/ERC20/utils/SafeERC20.sol\":1301:1417  if (!_safeTransfer(token, to, value, true)) {... */\n      tag_251\n      jumpi\n        /* \"@openzeppelin/contracts/token/ERC20/utils/SafeERC20.sol\":1399:1404  token */\n      dup3\n        /* \"@openzeppelin/contracts/token/ERC20/utils/SafeERC20.sol\":1366:1406  SafeERC20FailedOperation(address(token)) */\n      mload(0x40)\n      0x5274afe700000000000000000000000000000000000000000000000000000000\n      dup2\n      mstore\n      0x04\n      add\n      tag_252\n      swap2\n      swap1\n      tag_94\n      jump\t// in\n    tag_252:\n      mload(0x40)\n      dup1\n      swap2\n      sub\n      swap1\n      revert\n        /* \"@openzeppelin/contracts/token/ERC20/utils/SafeERC20.sol\":1301:1417  if (!_safeTransfer(token, to, value, true)) {... */\n    tag_251:\n        /* \"@openzeppelin/contracts/token/ERC20/utils/SafeERC20.sol\":1219:1423  function safeTransfer(IERC20 token, address to, uint256 value) internal {... */\n      pop\n      pop\n      pop\n      jump\t// out\n        /* \"@openzeppelin/contracts/access/Ownable.sol\":1796:1958  function _checkOwner() internal view virtual {... */\n    tag_149:\n        /* \"@openzeppelin/contracts/access/Ownable.sol\":1866:1878  _msgSender() */\n      tag_254\n        /* \"@openzeppelin/contracts/access/Ownable.sol\":1866:1876  _msgSender */\n      tag_255\n        /* \"@openzeppelin/contracts/access/Ownable.sol\":1866:1878  _msgSender() */\n      jump\t// in\n    tag_254:\n        /* \"@openzeppelin/contracts/access/Ownable.sol\":1855:1878  owner() != _msgSender() */\n      0xffffffffffffffffffffffffffffffffffffffff\n      and\n        /* \"@openzeppelin/contracts/access/Ownable.sol\":1855:1862  owner() */\n      tag_256\n        /* \"@openzeppelin/contracts/access/Ownable.sol\":1855:1860  owner */\n      tag_92\n        /* \"@openzeppelin/contracts/access/Ownable.sol\":1855:1862  owner() */\n      jump\t// in\n    tag_256:\n        /* \"@openzeppelin/contracts/access/Ownable.sol\":1855:1878  owner() != _msgSender() */\n      0xffffffffffffffffffffffffffffffffffffffff\n      and\n      eq\n        /* \"@openzeppelin/contracts/access/Ownable.sol\":1851:1952  if (owner() != _msgSender()) {... */\n      tag_257\n      jumpi\n        /* \"@openzeppelin/contracts/access/Ownable.sol\":1928:1940  _msgSender() */\n      tag_258\n        /* \"@openzeppelin/contracts/access/Ownable.sol\":1928:1938  _msgSender */\n      tag_255\n        /* \"@openzeppelin/contracts/access/Ownable.sol\":1928:1940  _msgSender() */\n      jump\t// in\n    tag_258:\n        /* \"@openzeppelin/contracts/access/Ownable.sol\":1901:1941  OwnableUnauthorizedAccount(_msgSender()) */\n      mload(0x40)\n      0x118cdaa700000000000000000000000000000000000000000000000000000000\n      dup2\n      mstore\n      0x04\n      add\n      tag_259\n      swap2\n      swap1\n      tag_94\n      jump\t// in\n    tag_259:\n      mload(0x40)\n      dup1\n      swap2\n      sub\n      swap1\n      revert\n        /* \"@openzeppelin/contracts/access/Ownable.sol\":1851:1952  if (owner() != _msgSender()) {... */\n    tag_257:\n        /* \"@openzeppelin/contracts/access/Ownable.sol\":1796:1958  function _checkOwner() internal view virtual {... */\n      jump\t// out\n        /* \"@openzeppelin/contracts/token/ERC20/utils/SafeERC20.sol\":1662:1894  function safeTransferFrom(IERC20 token, address from, address to, uint256 value) internal {... */\n    tag_175:\n        /* \"@openzeppelin/contracts/token/ERC20/utils/SafeERC20.sol\":1767:1814  _safeTransferFrom(token, from, to, value, true) */\n      tag_261\n        /* \"@openzeppelin/contracts/token/ERC20/utils/SafeERC20.sol\":1785:1790  token */\n      dup5\n        /* \"@openzeppelin/contracts/token/ERC20/utils/SafeERC20.sol\":1792:1796  from */\n      dup5\n        /* \"@openzeppelin/contracts/token/ERC20/utils/SafeERC20.sol\":1798:1800  to */\n      dup5\n        /* \"@openzeppelin/contracts/token/ERC20/utils/SafeERC20.sol\":1802:1807  value */\n      dup5\n        /* \"@openzeppelin/contracts/token/ERC20/utils/SafeERC20.sol\":1809:1813  true */\n      0x01\n        /* \"@openzeppelin/contracts/token/ERC20/utils/SafeERC20.sol\":1767:1784  _safeTransferFrom */\n      tag_262\n        /* \"@openzeppelin/contracts/token/ERC20/utils/SafeERC20.sol\":1767:1814  _safeTransferFrom(token, from, to, value, true) */\n      jump\t// in\n    tag_261:\n        /* \"@openzeppelin/contracts/token/ERC20/utils/SafeERC20.sol\":1762:1888  if (!_safeTransferFrom(token, from, to, value, true)) {... */\n      tag_263\n      jumpi\n        /* \"@openzeppelin/contracts/token/ERC20/utils/SafeERC20.sol\":1870:1875  token */\n      dup4\n        /* \"@openzeppelin/contracts/token/ERC20/utils/SafeERC20.sol\":1837:1877  SafeERC20FailedOperation(address(token)) */\n      mload(0x40)\n      0x5274afe700000000000000000000000000000000000000000000000000000000\n      dup2\n      mstore\n      0x04\n      add\n      tag_264\n      swap2\n      swap1\n      tag_94\n      jump\t// in\n    tag_264:\n      mload(0x40)\n      dup1\n      swap2\n      sub\n      swap1\n      revert\n        /* \"@openzeppelin/contracts/token/ERC20/utils/SafeERC20.sol\":1762:1888  if (!_safeTransferFrom(token, from, to, value, true)) {... */\n    tag_263:\n        /* \"@openzeppelin/contracts/token/ERC20/utils/SafeERC20.sol\":1662:1894  function safeTransferFrom(IERC20 token, address from, address to, uint256 value) internal {... */\n      pop\n      pop\n      pop\n      pop\n      jump\t// out\n        /* \"@openzeppelin/contracts/access/Ownable.sol\":2912:3099  function _transferOwnership(address newOwner) internal virtual {... */\n    tag_198:\n        /* \"@openzeppelin/contracts/access/Ownable.sol\":2985:3001  address oldOwner */\n      0x00\n        /* \"@openzeppelin/contracts/access/Ownable.sol\":3004:3010  _owner */\n      dup1\n      0x00\n      swap1\n      sload\n      swap1\n      0x0100\n      exp\n      swap1\n      div\n      0xffffffffffffffffffffffffffffffffffffffff\n      and\n        /* \"@openzeppelin/contracts/access/Ownable.sol\":2985:3010  address oldOwner = _owner */\n      swap1\n      pop\n        /* \"@openzeppelin/contracts/access/Ownable.sol\":3029:3037  newOwner */\n      dup2\n        /* \"@openzeppelin/contracts/access/Ownable.sol\":3020:3026  _owner */\n      0x00\n      dup1\n        /* \"@openzeppelin/contracts/access/Ownable.sol\":3020:3037  _owner = newOwner */\n      0x0100\n      exp\n      dup2\n      sload\n      dup2\n      0xffffffffffffffffffffffffffffffffffffffff\n      mul\n      not\n      and\n      swap1\n      dup4\n      0xffffffffffffffffffffffffffffffffffffffff\n      and\n      mul\n      or\n      swap1\n      sstore\n      pop\n        /* \"@openzeppelin/contracts/access/Ownable.sol\":3083:3091  newOwner */\n      dup2\n        /* \"@openzeppelin/contracts/access/Ownable.sol\":3052:3092  OwnershipTransferred(oldOwner, newOwner) */\n      0xffffffffffffffffffffffffffffffffffffffff\n      and\n        /* \"@openzeppelin/contracts/access/Ownable.sol\":3073:3081  oldOwner */\n      dup2\n        /* \"@openzeppelin/contracts/access/Ownable.sol\":3052:3092  OwnershipTransferred(oldOwner, newOwner) */\n      0xffffffffffffffffffffffffffffffffffffffff\n      and\n      0x8be0079c531659141344cd1fd0a4f28419497f9722a3daafe3b4186f6b6457e0\n      mload(0x40)\n      mload(0x40)\n      dup1\n      swap2\n      sub\n      swap1\n      log3\n        /* \"@openzeppelin/contracts/access/Ownable.sol\":2975:3099  {... */\n      pop\n        /* \"@openzeppelin/contracts/access/Ownable.sol\":2912:3099  function _transferOwnership(address newOwner) internal virtual {... */\n      pop\n      jump\t// out\n        /* \"@openzeppelin/contracts/token/ERC20/utils/SafeERC20.sol\":8373:9617  function _safeTransfer(IERC20 token, address to, uint256 value, bool bubble) private returns (bool success) {... */\n    tag_250:\n        /* \"@openzeppelin/contracts/token/ERC20/utils/SafeERC20.sol\":8467:8479  bool success */\n      0x00\n        /* \"@openzeppelin/contracts/token/ERC20/utils/SafeERC20.sol\":8491:8506  bytes4 selector */\n      dup1\n        /* \"@openzeppelin/contracts/token/ERC20/utils/SafeERC20.sol\":8509:8533  IERC20.transfer.selector */\n      shl(0xe0, 0xa9059cbb)\n        /* \"@openzeppelin/contracts/token/ERC20/utils/SafeERC20.sol\":8491:8533  bytes4 selector = IERC20.transfer.selector */\n      swap1\n      pop\n        /* \"@openzeppelin/contracts/token/ERC20/utils/SafeERC20.sol\":8600:8604  0x40 */\n      0x40\n        /* \"@openzeppelin/contracts/token/ERC20/utils/SafeERC20.sol\":8594:8605  mload(0x40) */\n      mload\n        /* \"@openzeppelin/contracts/token/ERC20/utils/SafeERC20.sol\":8631:8639  selector */\n      dup2\n        /* \"@openzeppelin/contracts/token/ERC20/utils/SafeERC20.sol\":8625:8629  0x00 */\n      0x00\n        /* \"@openzeppelin/contracts/token/ERC20/utils/SafeERC20.sol\":8618:8640  mstore(0x00, selector) */\n      mstore\n        /* \"@openzeppelin/contracts/token/ERC20/utils/SafeERC20.sol\":8686:8687  0 */\n      0x00\n        /* \"@openzeppelin/contracts/token/ERC20/utils/SafeERC20.sol\":8682:8688  not(0) */\n      not\n        /* \"@openzeppelin/contracts/token/ERC20/utils/SafeERC20.sol\":8678:8680  96 */\n      0x60\n        /* \"@openzeppelin/contracts/token/ERC20/utils/SafeERC20.sol\":8674:8689  shr(96, not(0)) */\n      shr\n        /* \"@openzeppelin/contracts/token/ERC20/utils/SafeERC20.sol\":8670:8672  to */\n      dup7\n        /* \"@openzeppelin/contracts/token/ERC20/utils/SafeERC20.sol\":8666:8690  and(to, shr(96, not(0))) */\n      and\n        /* \"@openzeppelin/contracts/token/ERC20/utils/SafeERC20.sol\":8660:8664  0x04 */\n      0x04\n        /* \"@openzeppelin/contracts/token/ERC20/utils/SafeERC20.sol\":8653:8691  mstore(0x04, and(to, shr(96, not(0)))) */\n      mstore\n        /* \"@openzeppelin/contracts/token/ERC20/utils/SafeERC20.sol\":8717:8722  value */\n      dup5\n        /* \"@openzeppelin/contracts/token/ERC20/utils/SafeERC20.sol\":8711:8715  0x24 */\n      0x24\n        /* \"@openzeppelin/contracts/token/ERC20/utils/SafeERC20.sol\":8704:8723  mstore(0x24, value) */\n      mstore\n        /* \"@openzeppelin/contracts/token/ERC20/utils/SafeERC20.sol\":8787:8791  0x20 */\n      0x20\n        /* \"@openzeppelin/contracts/token/ERC20/utils/SafeERC20.sol\":8781:8785  0x00 */\n      0x00\n        /* \"@openzeppelin/contracts/token/ERC20/utils/SafeERC20.sol\":8775:8779  0x44 */\n      0x44\n        /* \"@openzeppelin/contracts/token/ERC20/utils/SafeERC20.sol\":8769:8773  0x00 */\n      0x00\n        /* \"@openzeppelin/contracts/token/ERC20/utils/SafeERC20.sol\":8766:8767  0 */\n      dup1\n        /* \"@openzeppelin/contracts/token/ERC20/utils/SafeERC20.sol\":8759:8764  token */\n      dup12\n        /* \"@openzeppelin/contracts/token/ERC20/utils/SafeERC20.sol\":8752:8757  gas() */\n      gas\n        /* \"@openzeppelin/contracts/token/ERC20/utils/SafeERC20.sol\":8747:8792  call(gas(), token, 0, 0x00, 0x44, 0x00, 0x20) */\n      call\n        /* \"@openzeppelin/contracts/token/ERC20/utils/SafeERC20.sol\":8736:8792  success := call(gas(), token, 0, 0x00, 0x44, 0x00, 0x20) */\n      swap3\n      pop\n        /* \"@openzeppelin/contracts/token/ERC20/utils/SafeERC20.sol\":9004:9005  1 */\n      0x01\n        /* \"@openzeppelin/contracts/token/ERC20/utils/SafeERC20.sol\":8997:9001  0x00 */\n      0x00\n        /* \"@openzeppelin/contracts/token/ERC20/utils/SafeERC20.sol\":8991:9002  mload(0x00) */\n      mload\n        /* \"@openzeppelin/contracts/token/ERC20/utils/SafeERC20.sol\":8988:9006  eq(mload(0x00), 1) */\n      eq\n        /* \"@openzeppelin/contracts/token/ERC20/utils/SafeERC20.sol\":8979:8986  success */\n      dup4\n        /* \"@openzeppelin/contracts/token/ERC20/utils/SafeERC20.sol\":8975:9007  and(success, eq(mload(0x00), 1)) */\n      and\n        /* \"@openzeppelin/contracts/token/ERC20/utils/SafeERC20.sol\":8965:9571  if iszero(and(success, eq(mload(0x00), 1))) {... */\n      tag_267\n      jumpi\n        /* \"@openzeppelin/contracts/token/ERC20/utils/SafeERC20.sol\":9136:9142  bubble */\n      dup4\n        /* \"@openzeppelin/contracts/token/ERC20/utils/SafeERC20.sol\":9126:9133  success */\n      dup4\n        /* \"@openzeppelin/contracts/token/ERC20/utils/SafeERC20.sol\":9119:9134  iszero(success) */\n      iszero\n        /* \"@openzeppelin/contracts/token/ERC20/utils/SafeERC20.sol\":9115:9143  and(iszero(success), bubble) */\n      and\n        /* \"@openzeppelin/contracts/token/ERC20/utils/SafeERC20.sol\":9112:9277  if and(iszero(success), bubble) {... */\n      iszero\n      tag_268\n      jumpi\n        /* \"@openzeppelin/contracts/token/ERC20/utils/SafeERC20.sol\":9192:9208  returndatasize() */\n      returndatasize\n        /* \"@openzeppelin/contracts/token/ERC20/utils/SafeERC20.sol\":9186:9190  0x00 */\n      0x00\n        /* \"@openzeppelin/contracts/token/ERC20/utils/SafeERC20.sol\":9181:9184  fmp */\n      dup3\n        /* \"@openzeppelin/contracts/token/ERC20/utils/SafeERC20.sol\":9166:9209  returndatacopy(fmp, 0x00, returndatasize()) */\n      returndatacopy\n        /* \"@openzeppelin/contracts/token/ERC20/utils/SafeERC20.sol\":9242:9258  returndatasize() */\n      returndatasize\n        /* \"@openzeppelin/contracts/token/ERC20/utils/SafeERC20.sol\":9237:9240  fmp */\n      dup2\n        /* \"@openzeppelin/contracts/token/ERC20/utils/SafeERC20.sol\":9230:9259  revert(fmp, returndatasize()) */\n      revert\n        /* \"@openzeppelin/contracts/token/ERC20/utils/SafeERC20.sol\":9112:9277  if and(iszero(success), bubble) {... */\n    tag_268:\n        /* \"@openzeppelin/contracts/token/ERC20/utils/SafeERC20.sol\":9553:9554  0 */\n      0x00\n        /* \"@openzeppelin/contracts/token/ERC20/utils/SafeERC20.sol\":9545:9550  token */\n      dup8\n        /* \"@openzeppelin/contracts/token/ERC20/utils/SafeERC20.sol\":9533:9551  extcodesize(token) */\n      extcodesize\n        /* \"@openzeppelin/contracts/token/ERC20/utils/SafeERC20.sol\":9530:9555  gt(extcodesize(token), 0) */\n      gt\n        /* \"@openzeppelin/contracts/token/ERC20/utils/SafeERC20.sol\":9511:9527  returndatasize() */\n      returndatasize\n        /* \"@openzeppelin/contracts/token/ERC20/utils/SafeERC20.sol\":9504:9528  iszero(returndatasize()) */\n      iszero\n        /* \"@openzeppelin/contracts/token/ERC20/utils/SafeERC20.sol\":9500:9556  and(iszero(returndatasize()), gt(extcodesize(token), 0)) */\n      and\n        /* \"@openzeppelin/contracts/token/ERC20/utils/SafeERC20.sol\":9491:9498  success */\n      dup4\n        /* \"@openzeppelin/contracts/token/ERC20/utils/SafeERC20.sol\":9487:9557  and(success, and(iszero(returndatasize()), gt(extcodesize(token), 0))) */\n      and\n        /* \"@openzeppelin/contracts/token/ERC20/utils/SafeERC20.sol\":9476:9557  success := and(success, and(iszero(returndatasize()), gt(extcodesize(token), 0))) */\n      swap3\n      pop\n        /* \"@openzeppelin/contracts/token/ERC20/utils/SafeERC20.sol\":8965:9571  if iszero(and(success, eq(mload(0x00), 1))) {... */\n    tag_267:\n        /* \"@openzeppelin/contracts/token/ERC20/utils/SafeERC20.sol\":9597:9600  fmp */\n      dup1\n        /* \"@openzeppelin/contracts/token/ERC20/utils/SafeERC20.sol\":9591:9595  0x40 */\n      0x40\n        /* \"@openzeppelin/contracts/token/ERC20/utils/SafeERC20.sol\":9584:9601  mstore(0x40, fmp) */\n      mstore\n        /* \"@openzeppelin/contracts/token/ERC20/utils/SafeERC20.sol\":8569:9611  {... */\n      pop\n      pop\n        /* \"@openzeppelin/contracts/token/ERC20/utils/SafeERC20.sol\":8373:9617  function _safeTransfer(IERC20 token, address to, uint256 value, bool bubble) private returns (bool success) {... */\n      swap5\n      swap4\n      pop\n      pop\n      pop\n      pop\n      jump\t// out\n        /* \"@openzeppelin/contracts/utils/Context.sol\":656:752  function _msgSender() internal view virtual returns (address) {... */\n    tag_255:\n        /* \"@openzeppelin/contracts/utils/Context.sol\":709:716  address */\n      0x00\n        /* \"@openzeppelin/contracts/utils/Context.sol\":735:745  msg.sender */\n      caller\n        /* \"@openzeppelin/contracts/utils/Context.sol\":728:745  return msg.sender */\n      swap1\n      pop\n        /* \"@openzeppelin/contracts/utils/Context.sol\":656:752  function _msgSender() internal view virtual returns (address) {... */\n      swap1\n      jump\t// out\n        /* \"@openzeppelin/contracts/token/ERC20/utils/SafeERC20.sol\":10165:11558  function _safeTransferFrom(... */\n    tag_262:\n        /* \"@openzeppelin/contracts/token/ERC20/utils/SafeERC20.sol\":10323:10335  bool success */\n      0x00\n        /* \"@openzeppelin/contracts/token/ERC20/utils/SafeERC20.sol\":10347:10362  bytes4 selector */\n      dup1\n        /* \"@openzeppelin/contracts/token/ERC20/utils/SafeERC20.sol\":10365:10393  IERC20.transferFrom.selector */\n      shl(0xe0, 0x23b872dd)\n        /* \"@openzeppelin/contracts/token/ERC20/utils/SafeERC20.sol\":10347:10393  bytes4 selector = IERC20.transferFrom.selector */\n      swap1\n      pop\n        /* \"@openzeppelin/contracts/token/ERC20/utils/SafeERC20.sol\":10460:10464  0x40 */\n      0x40\n        /* \"@openzeppelin/contracts/token/ERC20/utils/SafeERC20.sol\":10454:10465  mload(0x40) */\n      mload\n        /* \"@openzeppelin/contracts/token/ERC20/utils/SafeERC20.sol\":10491:10499  selector */\n      dup2\n        /* \"@openzeppelin/contracts/token/ERC20/utils/SafeERC20.sol\":10485:10489  0x00 */\n      0x00\n        /* \"@openzeppelin/contracts/token/ERC20/utils/SafeERC20.sol\":10478:10500  mstore(0x00, selector) */\n      mstore\n        /* \"@openzeppelin/contracts/token/ERC20/utils/SafeERC20.sol\":10548:10549  0 */\n      0x00\n        /* \"@openzeppelin/contracts/token/ERC20/utils/SafeERC20.sol\":10544:10550  not(0) */\n      not\n        /* \"@openzeppelin/contracts/token/ERC20/utils/SafeERC20.sol\":10540:10542  96 */\n      0x60\n        /* \"@openzeppelin/contracts/token/ERC20/utils/SafeERC20.sol\":10536:10551  shr(96, not(0)) */\n      shr\n        /* \"@openzeppelin/contracts/token/ERC20/utils/SafeERC20.sol\":10530:10534  from */\n      dup8\n        /* \"@openzeppelin/contracts/token/ERC20/utils/SafeERC20.sol\":10526:10552  and(from, shr(96, not(0))) */\n      and\n        /* \"@openzeppelin/contracts/token/ERC20/utils/SafeERC20.sol\":10520:10524  0x04 */\n      0x04\n        /* \"@openzeppelin/contracts/token/ERC20/utils/SafeERC20.sol\":10513:10553  mstore(0x04, and(from, shr(96, not(0)))) */\n      mstore\n        /* \"@openzeppelin/contracts/token/ERC20/utils/SafeERC20.sol\":10599:10600  0 */\n      0x00\n        /* \"@openzeppelin/contracts/token/ERC20/utils/SafeERC20.sol\":10595:10601  not(0) */\n      not\n        /* \"@openzeppelin/contracts/token/ERC20/utils/SafeERC20.sol\":10591:10593  96 */\n      0x60\n        /* \"@openzeppelin/contracts/token/ERC20/utils/SafeERC20.sol\":10587:10602  shr(96, not(0)) */\n      shr\n        /* \"@openzeppelin/contracts/token/ERC20/utils/SafeERC20.sol\":10583:10585  to */\n      dup7\n        /* \"@openzeppelin/contracts/token/ERC20/utils/SafeERC20.sol\":10579:10603  and(to, shr(96, not(0))) */\n      and\n        /* \"@openzeppelin/contracts/token/ERC20/utils/SafeERC20.sol\":10573:10577  0x24 */\n      0x24\n        /* \"@openzeppelin/contracts/token/ERC20/utils/SafeERC20.sol\":10566:10604  mstore(0x24, and(to, shr(96, not(0)))) */\n      mstore\n        /* \"@openzeppelin/contracts/token/ERC20/utils/SafeERC20.sol\":10630:10635  value */\n      dup5\n        /* \"@openzeppelin/contracts/token/ERC20/utils/SafeERC20.sol\":10624:10628  0x44 */\n      0x44\n        /* \"@openzeppelin/contracts/token/ERC20/utils/SafeERC20.sol\":10617:10636  mstore(0x44, value) */\n      mstore\n        /* \"@openzeppelin/contracts/token/ERC20/utils/SafeERC20.sol\":10700:10704  0x20 */\n      0x20\n        /* \"@openzeppelin/contracts/token/ERC20/utils/SafeERC20.sol\":10694:10698  0x00 */\n      0x00\n        /* \"@openzeppelin/contracts/token/ERC20/utils/SafeERC20.sol\":10688:10692  0x64 */\n      0x64\n        /* \"@openzeppelin/contracts/token/ERC20/utils/SafeERC20.sol\":10682:10686  0x00 */\n      0x00\n        /* \"@openzeppelin/contracts/token/ERC20/utils/SafeERC20.sol\":10679:10680  0 */\n      dup1\n        /* \"@openzeppelin/contracts/token/ERC20/utils/SafeERC20.sol\":10672:10677  token */\n      dup13\n        /* \"@openzeppelin/contracts/token/ERC20/utils/SafeERC20.sol\":10665:10670  gas() */\n      gas\n        /* \"@openzeppelin/contracts/token/ERC20/utils/SafeERC20.sol\":10660:10705  call(gas(), token, 0, 0x00, 0x64, 0x00, 0x20) */\n      call\n        /* \"@openzeppelin/contracts/token/ERC20/utils/SafeERC20.sol\":10649:10705  success := call(gas(), token, 0, 0x00, 0x64, 0x00, 0x20) */\n      swap3\n      pop\n        /* \"@openzeppelin/contracts/token/ERC20/utils/SafeERC20.sol\":10917:10918  1 */\n      0x01\n        /* \"@openzeppelin/contracts/token/ERC20/utils/SafeERC20.sol\":10910:10914  0x00 */\n      0x00\n        /* \"@openzeppelin/contracts/token/ERC20/utils/SafeERC20.sol\":10904:10915  mload(0x00) */\n      mload\n        /* \"@openzeppelin/contracts/token/ERC20/utils/SafeERC20.sol\":10901:10919  eq(mload(0x00), 1) */\n      eq\n        /* \"@openzeppelin/contracts/token/ERC20/utils/SafeERC20.sol\":10892:10899  success */\n      dup4\n        /* \"@openzeppelin/contracts/token/ERC20/utils/SafeERC20.sol\":10888:10920  and(success, eq(mload(0x00), 1)) */\n      and\n        /* \"@openzeppelin/contracts/token/ERC20/utils/SafeERC20.sol\":10878:11484  if iszero(and(success, eq(mload(0x00), 1))) {... */\n      tag_271\n      jumpi\n        /* \"@openzeppelin/contracts/token/ERC20/utils/SafeERC20.sol\":11049:11055  bubble */\n      dup4\n        /* \"@openzeppelin/contracts/token/ERC20/utils/SafeERC20.sol\":11039:11046  success */\n      dup4\n        /* \"@openzeppelin/contracts/token/ERC20/utils/SafeERC20.sol\":11032:11047  iszero(success) */\n      iszero\n        /* \"@openzeppelin/contracts/token/ERC20/utils/SafeERC20.sol\":11028:11056  and(iszero(success), bubble) */\n      and\n        /* \"@openzeppelin/contracts/token/ERC20/utils/SafeERC20.sol\":11025:11190  if and(iszero(success), bubble) {... */\n      iszero\n      tag_272\n      jumpi\n        /* \"@openzeppelin/contracts/token/ERC20/utils/SafeERC20.sol\":11105:11121  returndatasize() */\n      returndatasize\n        /* \"@openzeppelin/contracts/token/ERC20/utils/SafeERC20.sol\":11099:11103  0x00 */\n      0x00\n        /* \"@openzeppelin/contracts/token/ERC20/utils/SafeERC20.sol\":11094:11097  fmp */\n      dup3\n        /* \"@openzeppelin/contracts/token/ERC20/utils/SafeERC20.sol\":11079:11122  returndatacopy(fmp, 0x00, returndatasize()) */\n      returndatacopy\n        /* \"@openzeppelin/contracts/token/ERC20/utils/SafeERC20.sol\":11155:11171  returndatasize() */\n      returndatasize\n        /* \"@openzeppelin/contracts/token/ERC20/utils/SafeERC20.sol\":11150:11153  fmp */\n      dup2\n        /* \"@openzeppelin/contracts/token/ERC20/utils/SafeERC20.sol\":11143:11172  revert(fmp, returndatasize()) */\n      revert\n        /* \"@openzeppelin/contracts/token/ERC20/utils/SafeERC20.sol\":11025:11190  if and(iszero(success), bubble) {... */\n    tag_272:\n        /* \"@openzeppelin/contracts/token/ERC20/utils/SafeERC20.sol\":11466:11467  0 */\n      0x00\n        /* \"@openzeppelin/contracts/token/ERC20/utils/SafeERC20.sol\":11458:11463  token */\n      dup9\n        /* \"@openzeppelin/contracts/token/ERC20/utils/SafeERC20.sol\":11446:11464  extcodesize(token) */\n      extcodesize\n        /* \"@openzeppelin/contracts/token/ERC20/utils/SafeERC20.sol\":11443:11468  gt(extcodesize(token), 0) */\n      gt\n        /* \"@openzeppelin/contracts/token/ERC20/utils/SafeERC20.sol\":11424:11440  returndatasize() */\n      returndatasize\n        /* \"@openzeppelin/contracts/token/ERC20/utils/SafeERC20.sol\":11417:11441  iszero(returndatasize()) */\n      iszero\n        /* \"@openzeppelin/contracts/token/ERC20/utils/SafeERC20.sol\":11413:11469  and(iszero(returndatasize()), gt(extcodesize(token), 0)) */\n      and\n        /* \"@openzeppelin/contracts/token/ERC20/utils/SafeERC20.sol\":11404:11411  success */\n      dup4\n        /* \"@openzeppelin/contracts/token/ERC20/utils/SafeERC20.sol\":11400:11470  and(success, and(iszero(returndatasize()), gt(extcodesize(token), 0))) */\n      and\n        /* \"@openzeppelin/contracts/token/ERC20/utils/SafeERC20.sol\":11389:11470  success := and(success, and(iszero(returndatasize()), gt(extcodesize(token), 0))) */\n      swap3\n      pop\n        /* \"@openzeppelin/contracts/token/ERC20/utils/SafeERC20.sol\":10878:11484  if iszero(and(success, eq(mload(0x00), 1))) {... */\n    tag_271:\n        /* \"@openzeppelin/contracts/token/ERC20/utils/SafeERC20.sol\":11510:11513  fmp */\n      dup1\n        /* \"@openzeppelin/contracts/token/ERC20/utils/SafeERC20.sol\":11504:11508  0x40 */\n      0x40\n        /* \"@openzeppelin/contracts/token/ERC20/utils/SafeERC20.sol\":11497:11514  mstore(0x40, fmp) */\n      mstore\n        /* \"@openzeppelin/contracts/token/ERC20/utils/SafeERC20.sol\":11540:11541  0 */\n      0x00\n        /* \"@openzeppelin/contracts/token/ERC20/utils/SafeERC20.sol\":11534:11538  0x60 */\n      0x60\n        /* \"@openzeppelin/contracts/token/ERC20/utils/SafeERC20.sol\":11527:11542  mstore(0x60, 0) */\n      mstore\n        /* \"@openzeppelin/contracts/token/ERC20/utils/SafeERC20.sol\":10429:11552  {... */\n      pop\n      pop\n        /* \"@openzeppelin/contracts/token/ERC20/utils/SafeERC20.sol\":10165:11558  function _safeTransferFrom(... */\n      swap6\n      swap5\n      pop\n      pop\n      pop\n      pop\n      pop\n      jump\t// out\n        /* \"#utility.yul\":88:205   */\n    tag_274:\n        /* \"#utility.yul\":197:198   */\n      0x00\n        /* \"#utility.yul\":194:195   */\n      dup1\n        /* \"#utility.yul\":187:199   */\n      revert\n        /* \"#utility.yul\":334:460   */\n    tag_276:\n        /* \"#utility.yul\":371:378   */\n      0x00\n        /* \"#utility.yul\":411:453   */\n      0xffffffffffffffffffffffffffffffffffffffff\n        /* \"#utility.yul\":404:409   */\n      dup3\n        /* \"#utility.yul\":400:454   */\n      and\n        /* \"#utility.yul\":389:454   */\n      swap1\n      pop\n        /* \"#utility.yul\":334:460   */\n      swap2\n      swap1\n      pop\n      jump\t// out\n        /* \"#utility.yul\":466:562   */\n    tag_277:\n        /* \"#utility.yul\":503:510   */\n      0x00\n        /* \"#utility.yul\":532:556   */\n      tag_316\n        /* \"#utility.yul\":550:555   */\n      dup3\n        /* \"#utility.yul\":532:556   */\n      tag_276\n      jump\t// in\n    tag_316:\n        /* \"#utility.yul\":521:556   */\n      swap1\n      pop\n        /* \"#utility.yul\":466:562   */\n      swap2\n      swap1\n      pop\n      jump\t// out\n        /* \"#utility.yul\":568:690   */\n    tag_278:\n        /* \"#utility.yul\":641:665   */\n      tag_318\n        /* \"#utility.yul\":659:664   */\n      dup2\n        /* \"#utility.yul\":641:665   */\n      tag_277\n      jump\t// in\n    tag_318:\n        /* \"#utility.yul\":634:639   */\n      dup2\n        /* \"#utility.yul\":631:666   */\n      eq\n        /* \"#utility.yul\":621:684   */\n      tag_319\n      jumpi\n        /* \"#utility.yul\":680:681   */\n      0x00\n        /* \"#utility.yul\":677:678   */\n      dup1\n        /* \"#utility.yul\":670:682   */\n      revert\n        /* \"#utility.yul\":621:684   */\n    tag_319:\n        /* \"#utility.yul\":568:690   */\n      pop\n      jump\t// out\n        /* \"#utility.yul\":696:835   */\n    tag_279:\n        /* \"#utility.yul\":742:747   */\n      0x00\n        /* \"#utility.yul\":780:786   */\n      dup2\n        /* \"#utility.yul\":767:787   */\n      calldataload\n        /* \"#utility.yul\":758:787   */\n      swap1\n      pop\n        /* \"#utility.yul\":796:829   */\n      tag_321\n        /* \"#utility.yul\":823:828   */\n      dup2\n        /* \"#utility.yul\":796:829   */\n      tag_278\n      jump\t// in\n    tag_321:\n        /* \"#utility.yul\":696:835   */\n      swap3\n      swap2\n      pop\n      pop\n      jump\t// out\n        /* \"#utility.yul\":841:1170   */\n    tag_36:\n        /* \"#utility.yul\":900:906   */\n      0x00\n        /* \"#utility.yul\":949:951   */\n      0x20\n        /* \"#utility.yul\":937:946   */\n      dup3\n        /* \"#utility.yul\":928:935   */\n      dup5\n        /* \"#utility.yul\":924:947   */\n      sub\n        /* \"#utility.yul\":920:952   */\n      slt\n        /* \"#utility.yul\":917:1036   */\n      iszero\n      tag_323\n      jumpi\n        /* \"#utility.yul\":955:1034   */\n      tag_324\n      tag_274\n      jump\t// in\n    tag_324:\n        /* \"#utility.yul\":917:1036   */\n    tag_323:\n        /* \"#utility.yul\":1075:1076   */\n      0x00\n        /* \"#utility.yul\":1100:1153   */\n      tag_325\n        /* \"#utility.yul\":1145:1152   */\n      dup5\n        /* \"#utility.yul\":1136:1142   */\n      dup3\n        /* \"#utility.yul\":1125:1134   */\n      dup6\n        /* \"#utility.yul\":1121:1143   */\n      add\n        /* \"#utility.yul\":1100:1153   */\n      tag_279\n      jump\t// in\n    tag_325:\n        /* \"#utility.yul\":1090:1153   */\n      swap2\n      pop\n        /* \"#utility.yul\":1046:1163   */\n      pop\n        /* \"#utility.yul\":841:1170   */\n      swap3\n      swap2\n      pop\n      pop\n      jump\t// out\n        /* \"#utility.yul\":1176:1253   */\n    tag_280:\n        /* \"#utility.yul\":1213:1220   */\n      0x00\n        /* \"#utility.yul\":1242:1247   */\n      dup2\n        /* \"#utility.yul\":1231:1247   */\n      swap1\n      pop\n        /* \"#utility.yul\":1176:1253   */\n      swap2\n      swap1\n      pop\n      jump\t// out\n        /* \"#utility.yul\":1259:1377   */\n    tag_281:\n        /* \"#utility.yul\":1346:1370   */\n      tag_328\n        /* \"#utility.yul\":1364:1369   */\n      dup2\n        /* \"#utility.yul\":1346:1370   */\n      tag_280\n      jump\t// in\n    tag_328:\n        /* \"#utility.yul\":1341:1344   */\n      dup3\n        /* \"#utility.yul\":1334:1371   */\n      mstore\n        /* \"#utility.yul\":1259:1377   */\n      pop\n      pop\n      jump\t// out\n        /* \"#utility.yul\":1383:1605   */\n    tag_39:\n        /* \"#utility.yul\":1476:1480   */\n      0x00\n        /* \"#utility.yul\":1514:1516   */\n      0x20\n        /* \"#utility.yul\":1503:1512   */\n      dup3\n        /* \"#utility.yul\":1499:1517   */\n      add\n        /* \"#utility.yul\":1491:1517   */\n      swap1\n      pop\n        /* \"#utility.yul\":1527:1598   */\n      tag_330\n        /* \"#utility.yul\":1595:1596   */\n      0x00\n        /* \"#utility.yul\":1584:1593   */\n      dup4\n        /* \"#utility.yul\":1580:1597   */\n      add\n        /* \"#utility.yul\":1571:1577   */\n      dup5\n        /* \"#utility.yul\":1527:1598   */\n      tag_281\n      jump\t// in\n    tag_330:\n        /* \"#utility.yul\":1383:1605   */\n      swap3\n      swap2\n      pop\n      pop\n      jump\t// out\n        /* \"#utility.yul\":1611:1733   */\n    tag_282:\n        /* \"#utility.yul\":1684:1708   */\n      tag_332\n        /* \"#utility.yul\":1702:1707   */\n      dup2\n        /* \"#utility.yul\":1684:1708   */\n      tag_280\n      jump\t// in\n    tag_332:\n        /* \"#utility.yul\":1677:1682   */\n      dup2\n        /* \"#utility.yul\":1674:1709   */\n      eq\n        /* \"#utility.yul\":1664:1727   */\n      tag_333\n      jumpi\n        /* \"#utility.yul\":1723:1724   */\n      0x00\n        /* \"#utility.yul\":1720:1721   */\n      dup1\n        /* \"#utility.yul\":1713:1725   */\n      revert\n        /* \"#utility.yul\":1664:1727   */\n    tag_333:\n        /* \"#utility.yul\":1611:1733   */\n      pop\n      jump\t// out\n        /* \"#utility.yul\":1739:1878   */\n    tag_283:\n        /* \"#utility.yul\":1785:1790   */\n      0x00\n        /* \"#utility.yul\":1823:1829   */\n      dup2\n        /* \"#utility.yul\":1810:1830   */\n      calldataload\n        /* \"#utility.yul\":1801:1830   */\n      swap1\n      pop\n        /* \"#utility.yul\":1839:1872   */\n      tag_335\n        /* \"#utility.yul\":1866:1871   */\n      dup2\n        /* \"#utility.yul\":1839:1872   */\n      tag_282\n      jump\t// in\n    tag_335:\n        /* \"#utility.yul\":1739:1878   */\n      swap3\n      swap2\n      pop\n      pop\n      jump\t// out\n        /* \"#utility.yul\":1884:2213   */\n    tag_53:\n        /* \"#utility.yul\":1943:1949   */\n      0x00\n        /* \"#utility.yul\":1992:1994   */\n      0x20\n        /* \"#utility.yul\":1980:1989   */\n      dup3\n        /* \"#utility.yul\":1971:1978   */\n      dup5\n        /* \"#utility.yul\":1967:1990   */\n      sub\n        /* \"#utility.yul\":1963:1995   */\n      slt\n        /* \"#utility.yul\":1960:2079   */\n      iszero\n      tag_337\n      jumpi\n        /* \"#utility.yul\":1998:2077   */\n      tag_338\n      tag_274\n      jump\t// in\n    tag_338:\n        /* \"#utility.yul\":1960:2079   */\n    tag_337:\n        /* \"#utility.yul\":2118:2119   */\n      0x00\n        /* \"#utility.yul\":2143:2196   */\n      tag_339\n        /* \"#utility.yul\":2188:2195   */\n      dup5\n        /* \"#utility.yul\":2179:2185   */\n      dup3\n        /* \"#utility.yul\":2168:2177   */\n      dup6\n        /* \"#utility.yul\":2164:2186   */\n      add\n        /* \"#utility.yul\":2143:2196   */\n      tag_283\n      jump\t// in\n    tag_339:\n        /* \"#utility.yul\":2133:2196   */\n      swap2\n      pop\n        /* \"#utility.yul\":2089:2206   */\n      pop\n        /* \"#utility.yul\":1884:2213   */\n      swap3\n      swap2\n      pop\n      pop\n      jump\t// out\n        /* \"#utility.yul\":2219:2309   */\n    tag_284:\n        /* \"#utility.yul\":2253:2260   */\n      0x00\n        /* \"#utility.yul\":2296:2301   */\n      dup2\n        /* \"#utility.yul\":2289:2302   */\n      iszero\n        /* \"#utility.yul\":2282:2303   */\n      iszero\n        /* \"#utility.yul\":2271:2303   */\n      swap1\n      pop\n        /* \"#utility.yul\":2219:2309   */\n      swap2\n      swap1\n      pop\n      jump\t// out\n        /* \"#utility.yul\":2315:2424   */\n    tag_285:\n        /* \"#utility.yul\":2396:2417   */\n      tag_342\n        /* \"#utility.yul\":2411:2416   */\n      dup2\n        /* \"#utility.yul\":2396:2417   */\n      tag_284\n      jump\t// in\n    tag_342:\n        /* \"#utility.yul\":2391:2394   */\n      dup3\n        /* \"#utility.yul\":2384:2418   */\n      mstore\n        /* \"#utility.yul\":2315:2424   */\n      pop\n      pop\n      jump\t// out\n        /* \"#utility.yul\":2430:2640   */\n    tag_68:\n        /* \"#utility.yul\":2517:2521   */\n      0x00\n        /* \"#utility.yul\":2555:2557   */\n      0x20\n        /* \"#utility.yul\":2544:2553   */\n      dup3\n        /* \"#utility.yul\":2540:2558   */\n      add\n        /* \"#utility.yul\":2532:2558   */\n      swap1\n      pop\n        /* \"#utility.yul\":2568:2633   */\n      tag_344\n        /* \"#utility.yul\":2630:2631   */\n      0x00\n        /* \"#utility.yul\":2619:2628   */\n      dup4\n        /* \"#utility.yul\":2615:2632   */\n      add\n        /* \"#utility.yul\":2606:2612   */\n      dup5\n        /* \"#utility.yul\":2568:2633   */\n      tag_285\n      jump\t// in\n    tag_344:\n        /* \"#utility.yul\":2430:2640   */\n      swap3\n      swap2\n      pop\n      pop\n      jump\t// out\n        /* \"#utility.yul\":2646:2706   */\n    tag_286:\n        /* \"#utility.yul\":2674:2677   */\n      0x00\n        /* \"#utility.yul\":2695:2700   */\n      dup2\n        /* \"#utility.yul\":2688:2700   */\n      swap1\n      pop\n        /* \"#utility.yul\":2646:2706   */\n      swap2\n      swap1\n      pop\n      jump\t// out\n        /* \"#utility.yul\":2712:2854   */\n    tag_287:\n        /* \"#utility.yul\":2762:2771   */\n      0x00\n        /* \"#utility.yul\":2795:2848   */\n      tag_347\n        /* \"#utility.yul\":2813:2847   */\n      tag_348\n        /* \"#utility.yul\":2822:2846   */\n      tag_349\n        /* \"#utility.yul\":2840:2845   */\n      dup5\n        /* \"#utility.yul\":2822:2846   */\n      tag_276\n      jump\t// in\n    tag_349:\n        /* \"#utility.yul\":2813:2847   */\n      tag_286\n      jump\t// in\n    tag_348:\n        /* \"#utility.yul\":2795:2848   */\n      tag_276\n      jump\t// in\n    tag_347:\n        /* \"#utility.yul\":2782:2848   */\n      swap1\n      pop\n        /* \"#utility.yul\":2712:2854   */\n      swap2\n      swap1\n      pop\n      jump\t// out\n        /* \"#utility.yul\":2860:2986   */\n    tag_288:\n        /* \"#utility.yul\":2910:2919   */\n      0x00\n        /* \"#utility.yul\":2943:2980   */\n      tag_351\n        /* \"#utility.yul\":2974:2979   */\n      dup3\n        /* \"#utility.yul\":2943:2980   */\n      tag_287\n      jump\t// in\n    tag_351:\n        /* \"#utility.yul\":2930:2980   */\n      swap1\n      pop\n        /* \"#utility.yul\":2860:2986   */\n      swap2\n      swap1\n      pop\n      jump\t// out\n        /* \"#utility.yul\":2992:3132   */\n    tag_289:\n        /* \"#utility.yul\":3056:3065   */\n      0x00\n        /* \"#utility.yul\":3089:3126   */\n      tag_353\n        /* \"#utility.yul\":3120:3125   */\n      dup3\n        /* \"#utility.yul\":3089:3126   */\n      tag_288\n      jump\t// in\n    tag_353:\n        /* \"#utility.yul\":3076:3126   */\n      swap1\n      pop\n        /* \"#utility.yul\":2992:3132   */\n      swap2\n      swap1\n      pop\n      jump\t// out\n        /* \"#utility.yul\":3138:3297   */\n    tag_290:\n        /* \"#utility.yul\":3239:3290   */\n      tag_355\n        /* \"#utility.yul\":3284:3289   */\n      dup2\n        /* \"#utility.yul\":3239:3290   */\n      tag_289\n      jump\t// in\n    tag_355:\n        /* \"#utility.yul\":3234:3237   */\n      dup3\n        /* \"#utility.yul\":3227:3291   */\n      mstore\n        /* \"#utility.yul\":3138:3297   */\n      pop\n      pop\n      jump\t// out\n        /* \"#utility.yul\":3303:3553   */\n    tag_78:\n        /* \"#utility.yul\":3410:3414   */\n      0x00\n        /* \"#utility.yul\":3448:3450   */\n      0x20\n        /* \"#utility.yul\":3437:3446   */\n      dup3\n        /* \"#utility.yul\":3433:3451   */\n      add\n        /* \"#utility.yul\":3425:3451   */\n      swap1\n      pop\n        /* \"#utility.yul\":3461:3546   */\n      tag_357\n        /* \"#utility.yul\":3543:3544   */\n      0x00\n        /* \"#utility.yul\":3532:3541   */\n      dup4\n        /* \"#utility.yul\":3528:3545   */\n      add\n        /* \"#utility.yul\":3519:3525   */\n      dup5\n        /* \"#utility.yul\":3461:3546   */\n      tag_290\n      jump\t// in\n    tag_357:\n        /* \"#utility.yul\":3303:3553   */\n      swap3\n      swap2\n      pop\n      pop\n      jump\t// out\n        /* \"#utility.yul\":3559:3677   */\n    tag_291:\n        /* \"#utility.yul\":3646:3670   */\n      tag_359\n        /* \"#utility.yul\":3664:3669   */\n      dup2\n        /* \"#utility.yul\":3646:3670   */\n      tag_277\n      jump\t// in\n    tag_359:\n        /* \"#utility.yul\":3641:3644   */\n      dup3\n        /* \"#utility.yul\":3634:3671   */\n      mstore\n        /* \"#utility.yul\":3559:3677   */\n      pop\n      pop\n      jump\t// out\n        /* \"#utility.yul\":3683:3905   */\n    tag_94:\n        /* \"#utility.yul\":3776:3780   */\n      0x00\n        /* \"#utility.yul\":3814:3816   */\n      0x20\n        /* \"#utility.yul\":3803:3812   */\n      dup3\n        /* \"#utility.yul\":3799:3817   */\n      add\n        /* \"#utility.yul\":3791:3817   */\n      swap1\n      pop\n        /* \"#utility.yul\":3827:3898   */\n      tag_361\n        /* \"#utility.yul\":3895:3896   */\n      0x00\n        /* \"#utility.yul\":3884:3893   */\n      dup4\n        /* \"#utility.yul\":3880:3897   */\n      add\n        /* \"#utility.yul\":3871:3877   */\n      dup5\n        /* \"#utility.yul\":3827:3898   */\n      tag_291\n      jump\t// in\n    tag_361:\n        /* \"#utility.yul\":3683:3905   */\n      swap3\n      swap2\n      pop\n      pop\n      jump\t// out\n        /* \"#utility.yul\":3911:4091   */\n    tag_292:\n        /* \"#utility.yul\":3959:4036   */\n      0x4e487b7100000000000000000000000000000000000000000000000000000000\n        /* \"#utility.yul\":3956:3957   */\n      0x00\n        /* \"#utility.yul\":3949:4037   */\n      mstore\n        /* \"#utility.yul\":4056:4060   */\n      0x11\n        /* \"#utility.yul\":4053:4054   */\n      0x04\n        /* \"#utility.yul\":4046:4061   */\n      mstore\n        /* \"#utility.yul\":4080:4084   */\n      0x24\n        /* \"#utility.yul\":4077:4078   */\n      0x00\n        /* \"#utility.yul\":4070:4085   */\n      revert\n        /* \"#utility.yul\":4097:4291   */\n    tag_121:\n        /* \"#utility.yul\":4137:4141   */\n      0x00\n        /* \"#utility.yul\":4157:4177   */\n      tag_364\n        /* \"#utility.yul\":4175:4176   */\n      dup3\n        /* \"#utility.yul\":4157:4177   */\n      tag_280\n      jump\t// in\n    tag_364:\n        /* \"#utility.yul\":4152:4177   */\n      swap2\n      pop\n        /* \"#utility.yul\":4191:4211   */\n      tag_365\n        /* \"#utility.yul\":4209:4210   */\n      dup4\n        /* \"#utility.yul\":4191:4211   */\n      tag_280\n      jump\t// in\n    tag_365:\n        /* \"#utility.yul\":4186:4211   */\n      swap3\n      pop\n        /* \"#utility.yul\":4235:4236   */\n      dup3\n        /* \"#utility.yul\":4232:4233   */\n      dup3\n        /* \"#utility.yul\":4228:4237   */\n      sub\n        /* \"#utility.yul\":4220:4237   */\n      swap1\n      pop\n        /* \"#utility.yul\":4259:4260   */\n      dup2\n        /* \"#utility.yul\":4253:4257   */\n      dup2\n        /* \"#utility.yul\":4250:4261   */\n      gt\n        /* \"#utility.yul\":4247:4284   */\n      iszero\n      tag_366\n      jumpi\n        /* \"#utility.yul\":4264:4282   */\n      tag_367\n      tag_292\n      jump\t// in\n    tag_367:\n        /* \"#utility.yul\":4247:4284   */\n    tag_366:\n        /* \"#utility.yul\":4097:4291   */\n      swap3\n      swap2\n      pop\n      pop\n      jump\t// out\n        /* \"#utility.yul\":4297:4707   */\n    tag_123:\n        /* \"#utility.yul\":4337:4344   */\n      0x00\n        /* \"#utility.yul\":4360:4380   */\n      tag_369\n        /* \"#utility.yul\":4378:4379   */\n      dup3\n        /* \"#utility.yul\":4360:4380   */\n      tag_280\n      jump\t// in\n    tag_369:\n        /* \"#utility.yul\":4355:4380   */\n      swap2\n      pop\n        /* \"#utility.yul\":4394:4414   */\n      tag_370\n        /* \"#utility.yul\":4412:4413   */\n      dup4\n        /* \"#utility.yul\":4394:4414   */\n      tag_280\n      jump\t// in\n    tag_370:\n        /* \"#utility.yul\":4389:4414   */\n      swap3\n      pop\n        /* \"#utility.yul\":4449:4450   */\n      dup3\n        /* \"#utility.yul\":4446:4447   */\n      dup3\n        /* \"#utility.yul\":4442:4451   */\n      mul\n        /* \"#utility.yul\":4471:4501   */\n      tag_371\n        /* \"#utility.yul\":4489:4500   */\n      dup2\n        /* \"#utility.yul\":4471:4501   */\n      tag_280\n      jump\t// in\n    tag_371:\n        /* \"#utility.yul\":4460:4501   */\n      swap2\n      pop\n        /* \"#utility.yul\":4650:4651   */\n      dup3\n        /* \"#utility.yul\":4641:4648   */\n      dup3\n        /* \"#utility.yul\":4637:4652   */\n      div\n        /* \"#utility.yul\":4634:4635   */\n      dup5\n        /* \"#utility.yul\":4631:4653   */\n      eq\n        /* \"#utility.yul\":4611:4612   */\n      dup4\n        /* \"#utility.yul\":4604:4613   */\n      iszero\n        /* \"#utility.yul\":4584:4667   */\n      or\n        /* \"#utility.yul\":4561:4700   */\n      tag_372\n      jumpi\n        /* \"#utility.yul\":4680:4698   */\n      tag_373\n      tag_292\n      jump\t// in\n    tag_373:\n        /* \"#utility.yul\":4561:4700   */\n    tag_372:\n        /* \"#utility.yul\":4345:4707   */\n      pop\n        /* \"#utility.yul\":4297:4707   */\n      swap3\n      swap2\n      pop\n      pop\n      jump\t// out\n        /* \"#utility.yul\":4713:4893   */\n    tag_293:\n        /* \"#utility.yul\":4761:4838   */\n      0x4e487b7100000000000000000000000000000000000000000000000000000000\n        /* \"#utility.yul\":4758:4759   */\n      0x00\n        /* \"#utility.yul\":4751:4839   */\n      mstore\n        /* \"#utility.yul\":4858:4862   */\n      0x12\n        /* \"#utility.yul\":4855:4856   */\n      0x04\n        /* \"#utility.yul\":4848:4863   */\n      mstore\n        /* \"#utility.yul\":4882:4886   */\n      0x24\n        /* \"#utility.yul\":4879:4880   */\n      0x00\n        /* \"#utility.yul\":4872:4887   */\n      revert\n        /* \"#utility.yul\":4899:5084   */\n    tag_125:\n        /* \"#utility.yul\":4939:4940   */\n      0x00\n        /* \"#utility.yul\":4956:4976   */\n      tag_376\n        /* \"#utility.yul\":4974:4975   */\n      dup3\n        /* \"#utility.yul\":4956:4976   */\n      tag_280\n      jump\t// in\n    tag_376:\n        /* \"#utility.yul\":4951:4976   */\n      swap2\n      pop\n        /* \"#utility.yul\":4990:5010   */\n      tag_377\n        /* \"#utility.yul\":5008:5009   */\n      dup4\n        /* \"#utility.yul\":4990:5010   */\n      tag_280\n      jump\t// in\n    tag_377:\n        /* \"#utility.yul\":4985:5010   */\n      swap3\n      pop\n        /* \"#utility.yul\":5029:5030   */\n      dup3\n        /* \"#utility.yul\":5019:5054   */\n      tag_378\n      jumpi\n        /* \"#utility.yul\":5034:5052   */\n      tag_379\n      tag_293\n      jump\t// in\n    tag_379:\n        /* \"#utility.yul\":5019:5054   */\n    tag_378:\n        /* \"#utility.yul\":5076:5077   */\n      dup3\n        /* \"#utility.yul\":5073:5074   */\n      dup3\n        /* \"#utility.yul\":5069:5078   */\n      div\n        /* \"#utility.yul\":5064:5078   */\n      swap1\n      pop\n        /* \"#utility.yul\":4899:5084   */\n      swap3\n      swap2\n      pop\n      pop\n      jump\t// out\n        /* \"#utility.yul\":5090:5281   */\n    tag_127:\n        /* \"#utility.yul\":5130:5133   */\n      0x00\n        /* \"#utility.yul\":5149:5169   */\n      tag_381\n        /* \"#utility.yul\":5167:5168   */\n      dup3\n        /* \"#utility.yul\":5149:5169   */\n      tag_280\n      jump\t// in\n    tag_381:\n        /* \"#utility.yul\":5144:5169   */\n      swap2\n      pop\n        /* \"#utility.yul\":5183:5203   */\n      tag_382\n        /* \"#utility.yul\":5201:5202   */\n      dup4\n        /* \"#utility.yul\":5183:5203   */\n      tag_280\n      jump\t// in\n    tag_382:\n        /* \"#utility.yul\":5178:5203   */\n      swap3\n      pop\n        /* \"#utility.yul\":5226:5227   */\n      dup3\n        /* \"#utility.yul\":5223:5224   */\n      dup3\n        /* \"#utility.yul\":5219:5228   */\n      add\n        /* \"#utility.yul\":5212:5228   */\n      swap1\n      pop\n        /* \"#utility.yul\":5247:5250   */\n      dup1\n        /* \"#utility.yul\":5244:5245   */\n      dup3\n        /* \"#utility.yul\":5241:5251   */\n      gt\n        /* \"#utility.yul\":5238:5274   */\n      iszero\n      tag_383\n      jumpi\n        /* \"#utility.yul\":5254:5272   */\n      tag_384\n      tag_292\n      jump\t// in\n    tag_384:\n        /* \"#utility.yul\":5238:5274   */\n    tag_383:\n        /* \"#utility.yul\":5090:5281   */\n      swap3\n      swap2\n      pop\n      pop\n      jump\t// out\n        /* \"#utility.yul\":5287:5456   */\n    tag_294:\n        /* \"#utility.yul\":5371:5382   */\n      0x00\n        /* \"#utility.yul\":5405:5411   */\n      dup3\n        /* \"#utility.yul\":5400:5403   */\n      dup3\n        /* \"#utility.yul\":5393:5412   */\n      mstore\n        /* \"#utility.yul\":5445:5449   */\n      0x20\n        /* \"#utility.yul\":5440:5443   */\n      dup3\n        /* \"#utility.yul\":5436:5450   */\n      add\n        /* \"#utility.yul\":5421:5450   */\n      swap1\n      pop\n        /* \"#utility.yul\":5287:5456   */\n      swap3\n      swap2\n      pop\n      pop\n      jump\t// out\n        /* \"#utility.yul\":5462:5628   */\n    tag_295:\n        /* \"#utility.yul\":5602:5620   */\n      0x5061757361626c653a2070617573656400000000000000000000000000000000\n        /* \"#utility.yul\":5598:5599   */\n      0x00\n        /* \"#utility.yul\":5590:5596   */\n      dup3\n        /* \"#utility.yul\":5586:5600   */\n      add\n        /* \"#utility.yul\":5579:5621   */\n      mstore\n        /* \"#utility.yul\":5462:5628   */\n      pop\n      jump\t// out\n        /* \"#utility.yul\":5634:6000   */\n    tag_296:\n        /* \"#utility.yul\":5776:5779   */\n      0x00\n        /* \"#utility.yul\":5797:5864   */\n      tag_388\n        /* \"#utility.yul\":5861:5863   */\n      0x10\n        /* \"#utility.yul\":5856:5859   */\n      dup4\n        /* \"#utility.yul\":5797:5864   */\n      tag_294\n      jump\t// in\n    tag_388:\n        /* \"#utility.yul\":5790:5864   */\n      swap2\n      pop\n        /* \"#utility.yul\":5873:5966   */\n      tag_389\n        /* \"#utility.yul\":5962:5965   */\n      dup3\n        /* \"#utility.yul\":5873:5966   */\n      tag_295\n      jump\t// in\n    tag_389:\n        /* \"#utility.yul\":5991:5993   */\n      0x20\n        /* \"#utility.yul\":5986:5989   */\n      dup3\n        /* \"#utility.yul\":5982:5994   */\n      add\n        /* \"#utility.yul\":5975:5994   */\n      swap1\n      pop\n        /* \"#utility.yul\":5634:6000   */\n      swap2\n      swap1\n      pop\n      jump\t// out\n        /* \"#utility.yul\":6006:6425   */\n    tag_137:\n        /* \"#utility.yul\":6172:6176   */\n      0x00\n        /* \"#utility.yul\":6210:6212   */\n      0x20\n        /* \"#utility.yul\":6199:6208   */\n      dup3\n        /* \"#utility.yul\":6195:6213   */\n      add\n        /* \"#utility.yul\":6187:6213   */\n      swap1\n      pop\n        /* \"#utility.yul\":6259:6268   */\n      dup2\n        /* \"#utility.yul\":6253:6257   */\n      dup2\n        /* \"#utility.yul\":6249:6269   */\n      sub\n        /* \"#utility.yul\":6245:6246   */\n      0x00\n        /* \"#utility.yul\":6234:6243   */\n      dup4\n        /* \"#utility.yul\":6230:6247   */\n      add\n        /* \"#utility.yul\":6223:6270   */\n      mstore\n        /* \"#utility.yul\":6287:6418   */\n      tag_391\n        /* \"#utility.yul\":6413:6417   */\n      dup2\n        /* \"#utility.yul\":6287:6418   */\n      tag_296\n      jump\t// in\n    tag_391:\n        /* \"#utility.yul\":6279:6418   */\n      swap1\n      pop\n        /* \"#utility.yul\":6006:6425   */\n      swap2\n      swap1\n      pop\n      jump\t// out\n        /* \"#utility.yul\":6431:6598   */\n    tag_297:\n        /* \"#utility.yul\":6571:6590   */\n      0x43616e6e6f742077697468647261772030000000000000000000000000000000\n        /* \"#utility.yul\":6567:6568   */\n      0x00\n        /* \"#utility.yul\":6559:6565   */\n      dup3\n        /* \"#utility.yul\":6555:6569   */\n      add\n        /* \"#utility.yul\":6548:6591   */\n      mstore\n        /* \"#utility.yul\":6431:6598   */\n      pop\n      jump\t// out\n        /* \"#utility.yul\":6604:6970   */\n    tag_298:\n        /* \"#utility.yul\":6746:6749   */\n      0x00\n        /* \"#utility.yul\":6767:6834   */\n      tag_394\n        /* \"#utility.yul\":6831:6833   */\n      0x11\n        /* \"#utility.yul\":6826:6829   */\n      dup4\n        /* \"#utility.yul\":6767:6834   */\n      tag_294\n      jump\t// in\n    tag_394:\n        /* \"#utility.yul\":6760:6834   */\n      swap2\n      pop\n        /* \"#utility.yul\":6843:6936   */\n      tag_395\n        /* \"#utility.yul\":6932:6935   */\n      dup3\n        /* \"#utility.yul\":6843:6936   */\n      tag_297\n      jump\t// in\n    tag_395:\n        /* \"#utility.yul\":6961:6963   */\n      0x20\n        /* \"#utility.yul\":6956:6959   */\n      dup3\n        /* \"#utility.yul\":6952:6964   */\n      add\n        /* \"#utility.yul\":6945:6964   */\n      swap1\n      pop\n        /* \"#utility.yul\":6604:6970   */\n      swap2\n      swap1\n      pop\n      jump\t// out\n        /* \"#utility.yul\":6976:7395   */\n    tag_141:\n        /* \"#utility.yul\":7142:7146   */\n      0x00\n        /* \"#utility.yul\":7180:7182   */\n      0x20\n        /* \"#utility.yul\":7169:7178   */\n      dup3\n        /* \"#utility.yul\":7165:7183   */\n      add\n        /* \"#utility.yul\":7157:7183   */\n      swap1\n      pop\n        /* \"#utility.yul\":7229:7238   */\n      dup2\n        /* \"#utility.yul\":7223:7227   */\n      dup2\n        /* \"#utility.yul\":7219:7239   */\n      sub\n        /* \"#utility.yul\":7215:7216   */\n      0x00\n        /* \"#utility.yul\":7204:7213   */\n      dup4\n        /* \"#utility.yul\":7200:7217   */\n      add\n        /* \"#utility.yul\":7193:7240   */\n      mstore\n        /* \"#utility.yul\":7257:7388   */\n      tag_397\n        /* \"#utility.yul\":7383:7387   */\n      dup2\n        /* \"#utility.yul\":7257:7388   */\n      tag_298\n      jump\t// in\n    tag_397:\n        /* \"#utility.yul\":7249:7388   */\n      swap1\n      pop\n        /* \"#utility.yul\":6976:7395   */\n      swap2\n      swap1\n      pop\n      jump\t// out\n        /* \"#utility.yul\":7401:7569   */\n    tag_299:\n        /* \"#utility.yul\":7541:7561   */\n      0x526577617264206d757374206265203e20300000000000000000000000000000\n        /* \"#utility.yul\":7537:7538   */\n      0x00\n        /* \"#utility.yul\":7529:7535   */\n      dup3\n        /* \"#utility.yul\":7525:7539   */\n      add\n        /* \"#utility.yul\":7518:7562   */\n      mstore\n        /* \"#utility.yul\":7401:7569   */\n      pop\n      jump\t// out\n        /* \"#utility.yul\":7575:7941   */\n    tag_300:\n        /* \"#utility.yul\":7717:7720   */\n      0x00\n        /* \"#utility.yul\":7738:7805   */\n      tag_400\n        /* \"#utility.yul\":7802:7804   */\n      0x12\n        /* \"#utility.yul\":7797:7800   */\n      dup4\n        /* \"#utility.yul\":7738:7805   */\n      tag_294\n      jump\t// in\n    tag_400:\n        /* \"#utility.yul\":7731:7805   */\n      swap2\n      pop\n        /* \"#utility.yul\":7814:7907   */\n      tag_401\n        /* \"#utility.yul\":7903:7906   */\n      dup3\n        /* \"#utility.yul\":7814:7907   */\n      tag_299\n      jump\t// in\n    tag_401:\n        /* \"#utility.yul\":7932:7934   */\n      0x20\n        /* \"#utility.yul\":7927:7930   */\n      dup3\n        /* \"#utility.yul\":7923:7935   */\n      add\n        /* \"#utility.yul\":7916:7935   */\n      swap1\n      pop\n        /* \"#utility.yul\":7575:7941   */\n      swap2\n      swap1\n      pop\n      jump\t// out\n        /* \"#utility.yul\":7947:8366   */\n    tag_161:\n        /* \"#utility.yul\":8113:8117   */\n      0x00\n        /* \"#utility.yul\":8151:8153   */\n      0x20\n        /* \"#utility.yul\":8140:8149   */\n      dup3\n        /* \"#utility.yul\":8136:8154   */\n      add\n        /* \"#utility.yul\":8128:8154   */\n      swap1\n      pop\n        /* \"#utility.yul\":8200:8209   */\n      dup2\n        /* \"#utility.yul\":8194:8198   */\n      dup2\n        /* \"#utility.yul\":8190:8210   */\n      sub\n        /* \"#utility.yul\":8186:8187   */\n      0x00\n        /* \"#utility.yul\":8175:8184   */\n      dup4\n        /* \"#utility.yul\":8171:8188   */\n      add\n        /* \"#utility.yul\":8164:8211   */\n      mstore\n        /* \"#utility.yul\":8228:8359   */\n      tag_403\n        /* \"#utility.yul\":8354:8358   */\n      dup2\n        /* \"#utility.yul\":8228:8359   */\n      tag_300\n      jump\t// in\n    tag_403:\n        /* \"#utility.yul\":8220:8359   */\n      swap1\n      pop\n        /* \"#utility.yul\":7947:8366   */\n      swap2\n      swap1\n      pop\n      jump\t// out\n        /* \"#utility.yul\":8372:8668   */\n    tag_301:\n        /* \"#utility.yul\":8512:8546   */\n      0x50726576696f7573207265776172647320706572696f64206d75737420626520\n        /* \"#utility.yul\":8508:8509   */\n      0x00\n        /* \"#utility.yul\":8500:8506   */\n      dup3\n        /* \"#utility.yul\":8496:8510   */\n      add\n        /* \"#utility.yul\":8489:8547   */\n      mstore\n        /* \"#utility.yul\":8581:8615   */\n      0x636f6d706c657465206265666f7265206368616e67696e672074686520726577\n        /* \"#utility.yul\":8576:8578   */\n      0x20\n        /* \"#utility.yul\":8568:8574   */\n      dup3\n        /* \"#utility.yul\":8564:8579   */\n      add\n        /* \"#utility.yul\":8557:8616   */\n      mstore\n        /* \"#utility.yul\":8650:8660   */\n      0x6172642072617465000000000000000000000000000000000000000000000000\n        /* \"#utility.yul\":8645:8647   */\n      0x40\n        /* \"#utility.yul\":8637:8643   */\n      dup3\n        /* \"#utility.yul\":8633:8648   */\n      add\n        /* \"#utility.yul\":8626:8661   */\n      mstore\n        /* \"#utility.yul\":8372:8668   */\n      pop\n      jump\t// out\n        /* \"#utility.yul\":8674:9040   */\n    tag_302:\n        /* \"#utility.yul\":8816:8819   */\n      0x00\n        /* \"#utility.yul\":8837:8904   */\n      tag_406\n        /* \"#utility.yul\":8901:8903   */\n      0x48\n        /* \"#utility.yul\":8896:8899   */\n      dup4\n        /* \"#utility.yul\":8837:8904   */\n      tag_294\n      jump\t// in\n    tag_406:\n        /* \"#utility.yul\":8830:8904   */\n      swap2\n      pop\n        /* \"#utility.yul\":8913:9006   */\n      tag_407\n        /* \"#utility.yul\":9002:9005   */\n      dup3\n        /* \"#utility.yul\":8913:9006   */\n      tag_301\n      jump\t// in\n    tag_407:\n        /* \"#utility.yul\":9031:9033   */\n      0x60\n        /* \"#utility.yul\":9026:9029   */\n      dup3\n        /* \"#utility.yul\":9022:9034   */\n      add\n        /* \"#utility.yul\":9015:9034   */\n      swap1\n      pop\n        /* \"#utility.yul\":8674:9040   */\n      swap2\n      swap1\n      pop\n      jump\t// out\n        /* \"#utility.yul\":9046:9465   */\n    tag_165:\n        /* \"#utility.yul\":9212:9216   */\n      0x00\n        /* \"#utility.yul\":9250:9252   */\n      0x20\n        /* \"#utility.yul\":9239:9248   */\n      dup3\n        /* \"#utility.yul\":9235:9253   */\n      add\n        /* \"#utility.yul\":9227:9253   */\n      swap1\n      pop\n        /* \"#utility.yul\":9299:9308   */\n      dup2\n        /* \"#utility.yul\":9293:9297   */\n      dup2\n        /* \"#utility.yul\":9289:9309   */\n      sub\n        /* \"#utility.yul\":9285:9286   */\n      0x00\n        /* \"#utility.yul\":9274:9283   */\n      dup4\n        /* \"#utility.yul\":9270:9287   */\n      add\n        /* \"#utility.yul\":9263:9310   */\n      mstore\n        /* \"#utility.yul\":9327:9458   */\n      tag_409\n        /* \"#utility.yul\":9453:9457   */\n      dup2\n        /* \"#utility.yul\":9327:9458   */\n      tag_302\n      jump\t// in\n    tag_409:\n        /* \"#utility.yul\":9319:9458   */\n      swap1\n      pop\n        /* \"#utility.yul\":9046:9465   */\n      swap2\n      swap1\n      pop\n      jump\t// out\n        /* \"#utility.yul\":9471:9614   */\n    tag_303:\n        /* \"#utility.yul\":9528:9533   */\n      0x00\n        /* \"#utility.yul\":9559:9565   */\n      dup2\n        /* \"#utility.yul\":9553:9566   */\n      mload\n        /* \"#utility.yul\":9544:9566   */\n      swap1\n      pop\n        /* \"#utility.yul\":9575:9608   */\n      tag_411\n        /* \"#utility.yul\":9602:9607   */\n      dup2\n        /* \"#utility.yul\":9575:9608   */\n      tag_282\n      jump\t// in\n    tag_411:\n        /* \"#utility.yul\":9471:9614   */\n      swap3\n      swap2\n      pop\n      pop\n      jump\t// out\n        /* \"#utility.yul\":9620:9971   */\n    tag_170:\n        /* \"#utility.yul\":9690:9696   */\n      0x00\n        /* \"#utility.yul\":9739:9741   */\n      0x20\n        /* \"#utility.yul\":9727:9736   */\n      dup3\n        /* \"#utility.yul\":9718:9725   */\n      dup5\n        /* \"#utility.yul\":9714:9737   */\n      sub\n        /* \"#utility.yul\":9710:9742   */\n      slt\n        /* \"#utility.yul\":9707:9826   */\n      iszero\n      tag_413\n      jumpi\n        /* \"#utility.yul\":9745:9824   */\n      tag_414\n      tag_274\n      jump\t// in\n    tag_414:\n        /* \"#utility.yul\":9707:9826   */\n    tag_413:\n        /* \"#utility.yul\":9865:9866   */\n      0x00\n        /* \"#utility.yul\":9890:9954   */\n      tag_415\n        /* \"#utility.yul\":9946:9953   */\n      dup5\n        /* \"#utility.yul\":9937:9943   */\n      dup3\n        /* \"#utility.yul\":9926:9935   */\n      dup6\n        /* \"#utility.yul\":9922:9944   */\n      add\n        /* \"#utility.yul\":9890:9954   */\n      tag_303\n      jump\t// in\n    tag_415:\n        /* \"#utility.yul\":9880:9954   */\n      swap2\n      pop\n        /* \"#utility.yul\":9836:9964   */\n      pop\n        /* \"#utility.yul\":9620:9971   */\n      swap3\n      swap2\n      pop\n      pop\n      jump\t// out\n        /* \"#utility.yul\":9977:10156   */\n    tag_304:\n        /* \"#utility.yul\":10117:10148   */\n      0x52657761726420616d6f756e7420657863656564732062616c616e6365000000\n        /* \"#utility.yul\":10113:10114   */\n      0x00\n        /* \"#utility.yul\":10105:10111   */\n      dup3\n        /* \"#utility.yul\":10101:10115   */\n      add\n        /* \"#utility.yul\":10094:10149   */\n      mstore\n        /* \"#utility.yul\":9977:10156   */\n      pop\n      jump\t// out\n        /* \"#utility.yul\":10162:10528   */\n    tag_305:\n        /* \"#utility.yul\":10304:10307   */\n      0x00\n        /* \"#utility.yul\":10325:10392   */\n      tag_418\n        /* \"#utility.yul\":10389:10391   */\n      0x1d\n        /* \"#utility.yul\":10384:10387   */\n      dup4\n        /* \"#utility.yul\":10325:10392   */\n      tag_294\n      jump\t// in\n    tag_418:\n        /* \"#utility.yul\":10318:10392   */\n      swap2\n      pop\n        /* \"#utility.yul\":10401:10494   */\n      tag_419\n        /* \"#utility.yul\":10490:10493   */\n      dup3\n        /* \"#utility.yul\":10401:10494   */\n      tag_304\n      jump\t// in\n    tag_419:\n        /* \"#utility.yul\":10519:10521   */\n      0x20\n        /* \"#utility.yul\":10514:10517   */\n      dup3\n        /* \"#utility.yul\":10510:10522   */\n      add\n        /* \"#utility.yul\":10503:10522   */\n      swap1\n      pop\n        /* \"#utility.yul\":10162:10528   */\n      swap2\n      swap1\n      pop\n      jump\t// out\n        /* \"#utility.yul\":10534:10953   */\n    tag_173:\n        /* \"#utility.yul\":10700:10704   */\n      0x00\n        /* \"#utility.yul\":10738:10740   */\n      0x20\n        /* \"#utility.yul\":10727:10736   */\n      dup3\n        /* \"#utility.yul\":10723:10741   */\n      add\n        /* \"#utility.yul\":10715:10741   */\n      swap1\n      pop\n        /* \"#utility.yul\":10787:10796   */\n      dup2\n        /* \"#utility.yul\":10781:10785   */\n      dup2\n        /* \"#utility.yul\":10777:10797   */\n      sub\n        /* \"#utility.yul\":10773:10774   */\n      0x00\n        /* \"#utility.yul\":10762:10771   */\n      dup4\n        /* \"#utility.yul\":10758:10775   */\n      add\n        /* \"#utility.yul\":10751:10798   */\n      mstore\n        /* \"#utility.yul\":10815:10946   */\n      tag_421\n        /* \"#utility.yul\":10941:10945   */\n      dup2\n        /* \"#utility.yul\":10815:10946   */\n      tag_305\n      jump\t// in\n    tag_421:\n        /* \"#utility.yul\":10807:10946   */\n      swap1\n      pop\n        /* \"#utility.yul\":10534:10953   */\n      swap2\n      swap1\n      pop\n      jump\t// out\n        /* \"#utility.yul\":10959:11123   */\n    tag_306:\n        /* \"#utility.yul\":11099:11115   */\n      0x43616e6e6f74207374616b652030000000000000000000000000000000000000\n        /* \"#utility.yul\":11095:11096   */\n      0x00\n        /* \"#utility.yul\":11087:11093   */\n      dup3\n        /* \"#utility.yul\":11083:11097   */\n      add\n        /* \"#utility.yul\":11076:11116   */\n      mstore\n        /* \"#utility.yul\":10959:11123   */\n      pop\n      jump\t// out\n        /* \"#utility.yul\":11129:11495   */\n    tag_307:\n        /* \"#utility.yul\":11271:11274   */\n      0x00\n        /* \"#utility.yul\":11292:11359   */\n      tag_424\n        /* \"#utility.yul\":11356:11358   */\n      0x0e\n        /* \"#utility.yul\":11351:11354   */\n      dup4\n        /* \"#utility.yul\":11292:11359   */\n      tag_294\n      jump\t// in\n    tag_424:\n        /* \"#utility.yul\":11285:11359   */\n      swap2\n      pop\n        /* \"#utility.yul\":11368:11461   */\n      tag_425\n        /* \"#utility.yul\":11457:11460   */\n      dup3\n        /* \"#utility.yul\":11368:11461   */\n      tag_306\n      jump\t// in\n    tag_425:\n        /* \"#utility.yul\":11486:11488   */\n      0x20\n        /* \"#utility.yul\":11481:11484   */\n      dup3\n        /* \"#utility.yul\":11477:11489   */\n      add\n        /* \"#utility.yul\":11470:11489   */\n      swap1\n      pop\n        /* \"#utility.yul\":11129:11495   */\n      swap2\n      swap1\n      pop\n      jump\t// out\n        /* \"#utility.yul\":11501:11920   */\n    tag_219:\n        /* \"#utility.yul\":11667:11671   */\n      0x00\n        /* \"#utility.yul\":11705:11707   */\n      0x20\n        /* \"#utility.yul\":11694:11703   */\n      dup3\n        /* \"#utility.yul\":11690:11708   */\n      add\n        /* \"#utility.yul\":11682:11708   */\n      swap1\n      pop\n        /* \"#utility.yul\":11754:11763   */\n      dup2\n        /* \"#utility.yul\":11748:11752   */\n      dup2\n        /* \"#utility.yul\":11744:11764   */\n      sub\n        /* \"#utility.yul\":11740:11741   */\n      0x00\n        /* \"#utility.yul\":11729:11738   */\n      dup4\n        /* \"#utility.yul\":11725:11742   */\n      add\n        /* \"#utility.yul\":11718:11765   */\n      mstore\n        /* \"#utility.yul\":11782:11913   */\n      tag_427\n        /* \"#utility.yul\":11908:11912   */\n      dup2\n        /* \"#utility.yul\":11782:11913   */\n      tag_307\n      jump\t// in\n    tag_427:\n        /* \"#utility.yul\":11774:11913   */\n      swap1\n      pop\n        /* \"#utility.yul\":11501:11920   */\n      swap2\n      swap1\n      pop\n      jump\t// out\n        /* \"#utility.yul\":11926:12238   */\n    tag_308:\n        /* \"#utility.yul\":12066:12100   */\n      0x50726576696f7573207265776172647320706572696f64206d75737420626520\n        /* \"#utility.yul\":12062:12063   */\n      0x00\n        /* \"#utility.yul\":12054:12060   */\n      dup3\n        /* \"#utility.yul\":12050:12064   */\n      add\n        /* \"#utility.yul\":12043:12101   */\n      mstore\n        /* \"#utility.yul\":12135:12169   */\n      0x636f6d706c657465206265666f7265206368616e67696e672074686520647572\n        /* \"#utility.yul\":12130:12132   */\n      0x20\n        /* \"#utility.yul\":12122:12128   */\n      dup3\n        /* \"#utility.yul\":12118:12133   */\n      add\n        /* \"#utility.yul\":12111:12170   */\n      mstore\n        /* \"#utility.yul\":12204:12230   */\n      0x6174696f6e20666f7220746865206e657720706572696f640000000000000000\n        /* \"#utility.yul\":12199:12201   */\n      0x40\n        /* \"#utility.yul\":12191:12197   */\n      dup3\n        /* \"#utility.yul\":12187:12202   */\n      add\n        /* \"#utility.yul\":12180:12231   */\n      mstore\n        /* \"#utility.yul\":11926:12238   */\n      pop\n      jump\t// out\n        /* \"#utility.yul\":12244:12610   */\n    tag_309:\n        /* \"#utility.yul\":12386:12389   */\n      0x00\n        /* \"#utility.yul\":12407:12474   */\n      tag_430\n        /* \"#utility.yul\":12471:12473   */\n      0x58\n        /* \"#utility.yul\":12466:12469   */\n      dup4\n        /* \"#utility.yul\":12407:12474   */\n      tag_294\n      jump\t// in\n    tag_430:\n        /* \"#utility.yul\":12400:12474   */\n      swap2\n      pop\n        /* \"#utility.yul\":12483:12576   */\n      tag_431\n        /* \"#utility.yul\":12572:12575   */\n      dup3\n        /* \"#utility.yul\":12483:12576   */\n      tag_308\n      jump\t// in\n    tag_431:\n        /* \"#utility.yul\":12601:12603   */\n      0x60\n        /* \"#utility.yul\":12596:12599   */\n      dup3\n        /* \"#utility.yul\":12592:12604   */\n      add\n        /* \"#utility.yul\":12585:12604   */\n      swap1\n      pop\n        /* \"#utility.yul\":12244:12610   */\n      swap2\n      swap1\n      pop\n      jump\t// out\n        /* \"#utility.yul\":12616:13035   */\n    tag_230:\n        /* \"#utility.yul\":12782:12786   */\n      0x00\n        /* \"#utility.yul\":12820:12822   */\n      0x20\n        /* \"#utility.yul\":12809:12818   */\n      dup3\n        /* \"#utility.yul\":12805:12823   */\n      add\n        /* \"#utility.yul\":12797:12823   */\n      swap1\n      pop\n        /* \"#utility.yul\":12869:12878   */\n      dup2\n        /* \"#utility.yul\":12863:12867   */\n      dup2\n        /* \"#utility.yul\":12859:12879   */\n      sub\n        /* \"#utility.yul\":12855:12856   */\n      0x00\n        /* \"#utility.yul\":12844:12853   */\n      dup4\n        /* \"#utility.yul\":12840:12857   */\n      add\n        /* \"#utility.yul\":12833:12880   */\n      mstore\n        /* \"#utility.yul\":12897:13028   */\n      tag_433\n        /* \"#utility.yul\":13023:13027   */\n      dup2\n        /* \"#utility.yul\":12897:13028   */\n      tag_309\n      jump\t// in\n    tag_433:\n        /* \"#utility.yul\":12889:13028   */\n      swap1\n      pop\n        /* \"#utility.yul\":12616:13035   */\n      swap2\n      swap1\n      pop\n      jump\t// out\n\n    auxdata: 0xa2646970667358221220ec27da25fbdeea65e2e297dcaf6e4fb9e6692161f7e1704ad547c3099a10469664736f6c634300081a0033\n}\n",
				"bytecode": {
					"linkReferences": {},
					"object": "608060405234801561000f575f80fd5b50604051612116380380612116833981810160405281019061003191906102a3565b805f73ffffffffffffffffffffffffffffffffffffffff168173ffffffffffffffffffffffffffffffffffffffff16036100a2575f6040517f1e4fbdf70000000000000000000000000000000000000000000000000000000081526004016100999190610329565b60405180910390fd5b6100b18161015160201b60201c565b508460015f6101000a81548173ffffffffffffffffffffffffffffffffffffffff021916908373ffffffffffffffffffffffffffffffffffffffff1602179055508360025f6101000a81548173ffffffffffffffffffffffffffffffffffffffff021916908373ffffffffffffffffffffffffffffffffffffffff1602179055508260038190555081600481905550426005819055505050505050610342565b5f805f9054906101000a900473ffffffffffffffffffffffffffffffffffffffff169050815f806101000a81548173ffffffffffffffffffffffffffffffffffffffff021916908373ffffffffffffffffffffffffffffffffffffffff1602179055508173ffffffffffffffffffffffffffffffffffffffff168173ffffffffffffffffffffffffffffffffffffffff167f8be0079c531659141344cd1fd0a4f28419497f9722a3daafe3b4186f6b6457e060405160405180910390a35050565b5f80fd5b5f73ffffffffffffffffffffffffffffffffffffffff82169050919050565b5f61023f82610216565b9050919050565b61024f81610235565b8114610259575f80fd5b50565b5f8151905061026a81610246565b92915050565b5f819050919050565b61028281610270565b811461028c575f80fd5b50565b5f8151905061029d81610279565b92915050565b5f805f805f60a086880312156102bc576102bb610212565b5b5f6102c98882890161025c565b95505060206102da8882890161025c565b94505060406102eb8882890161028f565b93505060606102fc8882890161028f565b925050608061030d8882890161025c565b9150509295509295909350565b61032381610235565b82525050565b5f60208201905061033c5f83018461031a565b92915050565b611dc78061034f5f395ff3fe608060405234801561000f575f80fd5b506004361061018b575f3560e01c80637b0a47ee116100dc578063c8f33c9111610095578063df136d651161006f578063df136d6514610425578063e9fad8ee14610443578063f2fde38b1461044d578063f7c618c1146104695761018b565b8063c8f33c91146103cd578063cc1a378f146103eb578063cd3daf9d146104075761018b565b80637b0a47ee1461031d57806380faa57d1461033b5780638456cb59146103595780638b876347146103635780638da5cb5b14610393578063a694fc3a146103b15761018b565b80633c6b16ab116101495780635c975abb116101235780635c975abb146102a757806370a08231146102c5578063715018a6146102f557806372f702f3146102ff5761018b565b80633c6b16ab146102775780633d18b912146102935780633f4ba83a1461029d5761018b565b80628cc2621461018f5780630700037d146101bf57806310c1c103146101ef57806318160ddd1461021f5780632e1a7d4d1461023d578063386a952514610259575b5f80fd5b6101a960048036038101906101a49190611721565b610487565b6040516101b69190611764565b60405180910390f35b6101d960048036038101906101d49190611721565b610582565b6040516101e69190611764565b60405180910390f35b61020960048036038101906102049190611721565b610597565b6040516102169190611764565b60405180910390f35b6102276105ac565b6040516102349190611764565b60405180910390f35b610257600480360381019061025291906117a7565b6105b5565b005b61026161082e565b60405161026e9190611764565b60405180910390f35b610291600480360381019061028c91906117a7565b610834565b005b61029b610b82565b005b6102a5610dda565b005b6102af610e40565b6040516102bc91906117ec565b60405180910390f35b6102df60048036038101906102da9190611721565b610e52565b6040516102ec9190611764565b60405180910390f35b6102fd610e98565b005b610307610eab565b6040516103149190611860565b60405180910390f35b610325610ed0565b6040516103329190611764565b60405180910390f35b610343610ed6565b6040516103509190611764565b60405180910390f35b610361610f09565b005b61037d60048036038101906103789190611721565b610f70565b60405161038a9190611764565b60405180910390f35b61039b610f85565b6040516103a89190611888565b60405180910390f35b6103cb60048036038101906103c691906117a7565b610fac565b005b6103d5611227565b6040516103e29190611764565b60405180910390f35b610405600480360381019061040091906117a7565b61122d565b005b61040f611291565b60405161041c9190611764565b60405180910390f35b61042d6112fa565b60405161043a9190611764565b60405180910390f35b61044b611300565b005b61046760048036038101906104629190611721565b611350565b005b6104716113d4565b60405161047e9190611860565b60405180910390f35b5f60085f8373ffffffffffffffffffffffffffffffffffffffff1673ffffffffffffffffffffffffffffffffffffffff1681526020019081526020015f2054670de0b6b3a764000060075f8573ffffffffffffffffffffffffffffffffffffffff1673ffffffffffffffffffffffffffffffffffffffff1681526020019081526020015f2054610515611291565b61051f91906118ce565b60095f8673ffffffffffffffffffffffffffffffffffffffff1673ffffffffffffffffffffffffffffffffffffffff1681526020019081526020015f20546105679190611901565b610571919061196f565b61057b919061199f565b9050919050565b6008602052805f5260405f205f915090505481565b6009602052805f5260405f205f915090505481565b5f600a54905090565b336105be611291565b6006819055506105cc610ed6565b6005819055505f73ffffffffffffffffffffffffffffffffffffffff168173ffffffffffffffffffffffffffffffffffffffff16146106945761060e81610487565b60085f8373ffffffffffffffffffffffffffffffffffffffff1673ffffffffffffffffffffffffffffffffffffffff1681526020019081526020015f208190555060065460075f8373ffffffffffffffffffffffffffffffffffffffff1673ffffffffffffffffffffffffffffffffffffffff1681526020019081526020015f20819055505b600b5f9054906101000a900460ff16156106e3576040517f08c379a00000000000000000000000000000000000000000000000000000000081526004016106da90611a2c565b60405180910390fd5b5f8211610725576040517f08c379a000000000000000000000000000000000000000000000000000000000815260040161071c90611a94565b60405180910390fd5b81600a5f82825461073691906118ce565b925050819055508160095f3373ffffffffffffffffffffffffffffffffffffffff1673ffffffffffffffffffffffffffffffffffffffff1681526020019081526020015f205f82825461078991906118ce565b925050819055506107dc338360015f9054906101000a900473ffffffffffffffffffffffffffffffffffffffff1673ffffffffffffffffffffffffffffffffffffffff166113f99092919063ffffffff16565b3373ffffffffffffffffffffffffffffffffffffffff167f7084f5476618d8e60b11ef0d7d3f06914655adb8793e28ff7f018d4c76d505d5836040516108229190611764565b60405180910390a25050565b60045481565b61083c61144c565b5f610845611291565b600681905550610853610ed6565b6005819055505f73ffffffffffffffffffffffffffffffffffffffff168173ffffffffffffffffffffffffffffffffffffffff161461091b5761089581610487565b60085f8373ffffffffffffffffffffffffffffffffffffffff1673ffffffffffffffffffffffffffffffffffffffff1681526020019081526020015f208190555060065460075f8373ffffffffffffffffffffffffffffffffffffffff1673ffffffffffffffffffffffffffffffffffffffff1681526020019081526020015f20819055505b600b5f9054906101000a900460ff161561096a576040517f08c379a000000000000000000000000000000000000000000000000000000000815260040161096190611a2c565b60405180910390fd5b5f82116109ac576040517f08c379a00000000000000000000000000000000000000000000000000000000081526004016109a390611afc565b60405180910390fd5b6004546005546109bc919061199f565b4210156109fe576040517f08c379a00000000000000000000000000000000000000000000000000000000081526004016109f590611bb0565b60405180910390fd5b5f60025f9054906101000a900473ffffffffffffffffffffffffffffffffffffffff1673ffffffffffffffffffffffffffffffffffffffff166370a08231306040518263ffffffff1660e01b8152600401610a599190611888565b602060405180830381865afa158015610a74573d5f803e3d5ffd5b505050506040513d601f19601f82011682018060405250810190610a989190611be2565b905080831115610add576040517f08c379a0000000000000000000000000000000000000000000000000000000008152600401610ad490611c57565b60405180910390fd5b610b2b33308560025f9054906101000a900473ffffffffffffffffffffffffffffffffffffffff1673ffffffffffffffffffffffffffffffffffffffff166114d3909392919063ffffffff16565b4260058190555060045483610b40919061196f565b6003819055507fde88a922e0d3b88b24e9623efeb464919c6bf9f66857a65e2bfcf2ce87a9433d83604051610b759190611764565b60405180910390a1505050565b33610b8b611291565b600681905550610b99610ed6565b6005819055505f73ffffffffffffffffffffffffffffffffffffffff168173ffffffffffffffffffffffffffffffffffffffff1614610c6157610bdb81610487565b60085f8373ffffffffffffffffffffffffffffffffffffffff1673ffffffffffffffffffffffffffffffffffffffff1681526020019081526020015f208190555060065460075f8373ffffffffffffffffffffffffffffffffffffffff1673ffffffffffffffffffffffffffffffffffffffff1681526020019081526020015f20819055505b600b5f9054906101000a900460ff1615610cb0576040517f08c379a0000000000000000000000000000000000000000000000000000000008152600401610ca790611a2c565b60405180910390fd5b5f60085f3373ffffffffffffffffffffffffffffffffffffffff1673ffffffffffffffffffffffffffffffffffffffff1681526020019081526020015f205490505f811115610dd6575f60085f3373ffffffffffffffffffffffffffffffffffffffff1673ffffffffffffffffffffffffffffffffffffffff1681526020019081526020015f2081905550610d87338260025f9054906101000a900473ffffffffffffffffffffffffffffffffffffffff1673ffffffffffffffffffffffffffffffffffffffff166113f99092919063ffffffff16565b3373ffffffffffffffffffffffffffffffffffffffff167fe2403640ba68fed3a2f88b7557551d1993f84b99bb10ff833f0cf8db0c5e048682604051610dcd9190611764565b60405180910390a25b5050565b610de261144c565b5f600b5f6101000a81548160ff0219169083151502179055503373ffffffffffffffffffffffffffffffffffffffff167f5db9ee0a495bf2e6ff9c91a7834c1ba4fdd244a5e8aa4e537bd38aeae4b073aa60405160405180910390a2565b600b5f9054906101000a900460ff1681565b5f60095f8373ffffffffffffffffffffffffffffffffffffffff1673ffffffffffffffffffffffffffffffffffffffff1681526020019081526020015f20549050919050565b610ea061144c565b610ea95f611528565b565b60015f9054906101000a900473ffffffffffffffffffffffffffffffffffffffff1681565b60035481565b5f600454600554610ee7919061199f565b4210610f0257600454600554610efd919061199f565b610f04565b425b905090565b610f1161144c565b6001600b5f6101000a81548160ff0219169083151502179055503373ffffffffffffffffffffffffffffffffffffffff167f62e78cea01bee320cd4e420270b5ea74000d11b0c9f74754ebdbfc544b05a25860405160405180910390a2565b6007602052805f5260405f205f915090505481565b5f805f9054906101000a900473ffffffffffffffffffffffffffffffffffffffff16905090565b33610fb5611291565b600681905550610fc3610ed6565b6005819055505f73ffffffffffffffffffffffffffffffffffffffff168173ffffffffffffffffffffffffffffffffffffffff161461108b5761100581610487565b60085f8373ffffffffffffffffffffffffffffffffffffffff1673ffffffffffffffffffffffffffffffffffffffff1681526020019081526020015f208190555060065460075f8373ffffffffffffffffffffffffffffffffffffffff1673ffffffffffffffffffffffffffffffffffffffff1681526020019081526020015f20819055505b600b5f9054906101000a900460ff16156110da576040517f08c379a00000000000000000000000000000000000000000000000000000000081526004016110d190611a2c565b60405180910390fd5b5f821161111c576040517f08c379a000000000000000000000000000000000000000000000000000000000815260040161111390611cbf565b60405180910390fd5b81600a5f82825461112d919061199f565b925050819055508160095f3373ffffffffffffffffffffffffffffffffffffffff1673ffffffffffffffffffffffffffffffffffffffff1681526020019081526020015f205f828254611180919061199f565b925050819055506111d533308460015f9054906101000a900473ffffffffffffffffffffffffffffffffffffffff1673ffffffffffffffffffffffffffffffffffffffff166114d3909392919063ffffffff16565b3373ffffffffffffffffffffffffffffffffffffffff167f9e71bc8eea02a63969f509818f2dafb9254532904319f9dbda79b67bd34a5f3d8360405161121b9190611764565b60405180910390a25050565b60055481565b61123561144c565b600454600554611245919061199f565b421015611287576040517f08c379a000000000000000000000000000000000000000000000000000000000815260040161127e90611d73565b60405180910390fd5b8060048190555050565b5f80600a54036112a55760065490506112f7565b600a54670de0b6b3a76400006003546005546112bf610ed6565b6112c991906118ce565b6112d39190611901565b6112dd9190611901565b6112e7919061196f565b6006546112f4919061199f565b90505b90565b60065481565b61134660095f3373ffffffffffffffffffffffffffffffffffffffff1673ffffffffffffffffffffffffffffffffffffffff1681526020019081526020015f20546105b5565b61134e610b82565b565b61135861144c565b5f73ffffffffffffffffffffffffffffffffffffffff168173ffffffffffffffffffffffffffffffffffffffff16036113c8575f6040517f1e4fbdf70000000000000000000000000000000000000000000000000000000081526004016113bf9190611888565b60405180910390fd5b6113d181611528565b50565b60025f9054906101000a900473ffffffffffffffffffffffffffffffffffffffff1681565b61140683838360016115e9565b61144757826040517f5274afe700000000000000000000000000000000000000000000000000000000815260040161143e9190611888565b60405180910390fd5b505050565b61145461164b565b73ffffffffffffffffffffffffffffffffffffffff16611472610f85565b73ffffffffffffffffffffffffffffffffffffffff16146114d15761149561164b565b6040517f118cdaa70000000000000000000000000000000000000000000000000000000081526004016114c89190611888565b60405180910390fd5b565b6114e1848484846001611652565b61152257836040517f5274afe70000000000000000000000000000000000000000000000000000000081526004016115199190611888565b60405180910390fd5b50505050565b5f805f9054906101000a900473ffffffffffffffffffffffffffffffffffffffff169050815f806101000a81548173ffffffffffffffffffffffffffffffffffffffff021916908373ffffffffffffffffffffffffffffffffffffffff1602179055508173ffffffffffffffffffffffffffffffffffffffff168173ffffffffffffffffffffffffffffffffffffffff167f8be0079c531659141344cd1fd0a4f28419497f9722a3daafe3b4186f6b6457e060405160405180910390a35050565b5f8063a9059cbb60e01b9050604051815f525f1960601c86166004528460245260205f60445f808b5af1925060015f5114831661163d578383151615611631573d5f823e3d81fd5b5f873b113d1516831692505b806040525050949350505050565b5f33905090565b5f806323b872dd60e01b9050604051815f525f1960601c87166004525f1960601c86166024528460445260205f60645f808c5af1925060015f511483166116b05783831516156116a4573d5f823e3d81fd5b5f883b113d1516831692505b806040525f606052505095945050505050565b5f80fd5b5f73ffffffffffffffffffffffffffffffffffffffff82169050919050565b5f6116f0826116c7565b9050919050565b611700816116e6565b811461170a575f80fd5b50565b5f8135905061171b816116f7565b92915050565b5f60208284031215611736576117356116c3565b5b5f6117438482850161170d565b91505092915050565b5f819050919050565b61175e8161174c565b82525050565b5f6020820190506117775f830184611755565b92915050565b6117868161174c565b8114611790575f80fd5b50565b5f813590506117a18161177d565b92915050565b5f602082840312156117bc576117bb6116c3565b5b5f6117c984828501611793565b91505092915050565b5f8115159050919050565b6117e6816117d2565b82525050565b5f6020820190506117ff5f8301846117dd565b92915050565b5f819050919050565b5f61182861182361181e846116c7565b611805565b6116c7565b9050919050565b5f6118398261180e565b9050919050565b5f61184a8261182f565b9050919050565b61185a81611840565b82525050565b5f6020820190506118735f830184611851565b92915050565b611882816116e6565b82525050565b5f60208201905061189b5f830184611879565b92915050565b7f4e487b71000000000000000000000000000000000000000000000000000000005f52601160045260245ffd5b5f6118d88261174c565b91506118e38361174c565b92508282039050818111156118fb576118fa6118a1565b5b92915050565b5f61190b8261174c565b91506119168361174c565b92508282026119248161174c565b9150828204841483151761193b5761193a6118a1565b5b5092915050565b7f4e487b71000000000000000000000000000000000000000000000000000000005f52601260045260245ffd5b5f6119798261174c565b91506119848361174c565b92508261199457611993611942565b5b828204905092915050565b5f6119a98261174c565b91506119b48361174c565b92508282019050808211156119cc576119cb6118a1565b5b92915050565b5f82825260208201905092915050565b7f5061757361626c653a20706175736564000000000000000000000000000000005f82015250565b5f611a166010836119d2565b9150611a21826119e2565b602082019050919050565b5f6020820190508181035f830152611a4381611a0a565b9050919050565b7f43616e6e6f7420776974686472617720300000000000000000000000000000005f82015250565b5f611a7e6011836119d2565b9150611a8982611a4a565b602082019050919050565b5f6020820190508181035f830152611aab81611a72565b9050919050565b7f526577617264206d757374206265203e203000000000000000000000000000005f82015250565b5f611ae66012836119d2565b9150611af182611ab2565b602082019050919050565b5f6020820190508181035f830152611b1381611ada565b9050919050565b7f50726576696f7573207265776172647320706572696f64206d757374206265205f8201527f636f6d706c657465206265666f7265206368616e67696e67207468652072657760208201527f6172642072617465000000000000000000000000000000000000000000000000604082015250565b5f611b9a6048836119d2565b9150611ba582611b1a565b606082019050919050565b5f6020820190508181035f830152611bc781611b8e565b9050919050565b5f81519050611bdc8161177d565b92915050565b5f60208284031215611bf757611bf66116c3565b5b5f611c0484828501611bce565b91505092915050565b7f52657761726420616d6f756e7420657863656564732062616c616e63650000005f82015250565b5f611c41601d836119d2565b9150611c4c82611c0d565b602082019050919050565b5f6020820190508181035f830152611c6e81611c35565b9050919050565b7f43616e6e6f74207374616b6520300000000000000000000000000000000000005f82015250565b5f611ca9600e836119d2565b9150611cb482611c75565b602082019050919050565b5f6020820190508181035f830152611cd681611c9d565b9050919050565b7f50726576696f7573207265776172647320706572696f64206d757374206265205f8201527f636f6d706c657465206265666f7265206368616e67696e67207468652064757260208201527f6174696f6e20666f7220746865206e657720706572696f640000000000000000604082015250565b5f611d5d6058836119d2565b9150611d6882611cdd565b606082019050919050565b5f6020820190508181035f830152611d8a81611d51565b905091905056fea2646970667358221220ec27da25fbdeea65e2e297dcaf6e4fb9e6692161f7e1704ad547c3099a10469664736f6c634300081a0033",
					"opcodes": "PUSH1 0x80 PUSH1 0x40 MSTORE CALLVALUE DUP1 ISZERO PUSH2 0xF JUMPI PUSH0 DUP1 REVERT JUMPDEST POP PUSH1 0x40 MLOAD PUSH2 0x2116 CODESIZE SUB DUP1 PUSH2 0x2116 DUP4 CODECOPY DUP2 DUP2 ADD PUSH1 0x40 MSTORE DUP2 ADD SWAP1 PUSH2 0x31 SWAP2 SWAP1 PUSH2 0x2A3 JUMP JUMPDEST DUP1 PUSH0 PUSH20 0xFFFFFFFFFFFFFFFFFFFFFFFFFFFFFFFFFFFFFFFF AND DUP2 PUSH20 0xFFFFFFFFFFFFFFFFFFFFFFFFFFFFFFFFFFFFFFFF AND SUB PUSH2 0xA2 JUMPI PUSH0 PUSH1 0x40 MLOAD PUSH32 0x1E4FBDF700000000000000000000000000000000000000000000000000000000 DUP2 MSTORE PUSH1 0x4 ADD PUSH2 0x99 SWAP2 SWAP1 PUSH2 0x329 JUMP JUMPDEST PUSH1 0x40 MLOAD DUP1 SWAP2 SUB SWAP1 REVERT JUMPDEST PUSH2 0xB1 DUP2 PUSH2 0x151 PUSH1 0x20 SHL PUSH1 0x20 SHR JUMP JUMPDEST POP DUP5 PUSH1 0x1 PUSH0 PUSH2 0x100 EXP DUP2 SLOAD DUP2 PUSH20 0xFFFFFFFFFFFFFFFFFFFFFFFFFFFFFFFFFFFFFFFF MUL NOT AND SWAP1 DUP4 PUSH20 0xFFFFFFFFFFFFFFFFFFFFFFFFFFFFFFFFFFFFFFFF AND MUL OR SWAP1 SSTORE POP DUP4 PUSH1 0x2 PUSH0 PUSH2 0x100 EXP DUP2 SLOAD DUP2 PUSH20 0xFFFFFFFFFFFFFFFFFFFFFFFFFFFFFFFFFFFFFFFF MUL NOT AND SWAP1 DUP4 PUSH20 0xFFFFFFFFFFFFFFFFFFFFFFFFFFFFFFFFFFFFFFFF AND MUL OR SWAP1 SSTORE POP DUP3 PUSH1 0x3 DUP2 SWAP1 SSTORE POP DUP2 PUSH1 0x4 DUP2 SWAP1 SSTORE POP TIMESTAMP PUSH1 0x5 DUP2 SWAP1 SSTORE POP POP POP POP POP POP PUSH2 0x342 JUMP JUMPDEST PUSH0 DUP1 PUSH0 SWAP1 SLOAD SWAP1 PUSH2 0x100 EXP SWAP1 DIV PUSH20 0xFFFFFFFFFFFFFFFFFFFFFFFFFFFFFFFFFFFFFFFF AND SWAP1 POP DUP2 PUSH0 DUP1 PUSH2 0x100 EXP DUP2 SLOAD DUP2 PUSH20 0xFFFFFFFFFFFFFFFFFFFFFFFFFFFFFFFFFFFFFFFF MUL NOT AND SWAP1 DUP4 PUSH20 0xFFFFFFFFFFFFFFFFFFFFFFFFFFFFFFFFFFFFFFFF AND MUL OR SWAP1 SSTORE POP DUP2 PUSH20 0xFFFFFFFFFFFFFFFFFFFFFFFFFFFFFFFFFFFFFFFF AND DUP2 PUSH20 0xFFFFFFFFFFFFFFFFFFFFFFFFFFFFFFFFFFFFFFFF AND PUSH32 0x8BE0079C531659141344CD1FD0A4F28419497F9722A3DAAFE3B4186F6B6457E0 PUSH1 0x40 MLOAD PUSH1 0x40 MLOAD DUP1 SWAP2 SUB SWAP1 LOG3 POP POP JUMP JUMPDEST PUSH0 DUP1 REVERT JUMPDEST PUSH0 PUSH20 0xFFFFFFFFFFFFFFFFFFFFFFFFFFFFFFFFFFFFFFFF DUP3 AND SWAP1 POP SWAP2 SWAP1 POP JUMP JUMPDEST PUSH0 PUSH2 0x23F DUP3 PUSH2 0x216 JUMP JUMPDEST SWAP1 POP SWAP2 SWAP1 POP JUMP JUMPDEST PUSH2 0x24F DUP2 PUSH2 0x235 JUMP JUMPDEST DUP2 EQ PUSH2 0x259 JUMPI PUSH0 DUP1 REVERT JUMPDEST POP JUMP JUMPDEST PUSH0 DUP2 MLOAD SWAP1 POP PUSH2 0x26A DUP2 PUSH2 0x246 JUMP JUMPDEST SWAP3 SWAP2 POP POP JUMP JUMPDEST PUSH0 DUP2 SWAP1 POP SWAP2 SWAP1 POP JUMP JUMPDEST PUSH2 0x282 DUP2 PUSH2 0x270 JUMP JUMPDEST DUP2 EQ PUSH2 0x28C JUMPI PUSH0 DUP1 REVERT JUMPDEST POP JUMP JUMPDEST PUSH0 DUP2 MLOAD SWAP1 POP PUSH2 0x29D DUP2 PUSH2 0x279 JUMP JUMPDEST SWAP3 SWAP2 POP POP JUMP JUMPDEST PUSH0 DUP1 PUSH0 DUP1 PUSH0 PUSH1 0xA0 DUP7 DUP9 SUB SLT ISZERO PUSH2 0x2BC JUMPI PUSH2 0x2BB PUSH2 0x212 JUMP JUMPDEST JUMPDEST PUSH0 PUSH2 0x2C9 DUP9 DUP3 DUP10 ADD PUSH2 0x25C JUMP JUMPDEST SWAP6 POP POP PUSH1 0x20 PUSH2 0x2DA DUP9 DUP3 DUP10 ADD PUSH2 0x25C JUMP JUMPDEST SWAP5 POP POP PUSH1 0x40 PUSH2 0x2EB DUP9 DUP3 DUP10 ADD PUSH2 0x28F JUMP JUMPDEST SWAP4 POP POP PUSH1 0x60 PUSH2 0x2FC DUP9 DUP3 DUP10 ADD PUSH2 0x28F JUMP JUMPDEST SWAP3 POP POP PUSH1 0x80 PUSH2 0x30D DUP9 DUP3 DUP10 ADD PUSH2 0x25C JUMP JUMPDEST SWAP2 POP POP SWAP3 SWAP6 POP SWAP3 SWAP6 SWAP1 SWAP4 POP JUMP JUMPDEST PUSH2 0x323 DUP2 PUSH2 0x235 JUMP JUMPDEST DUP3 MSTORE POP POP JUMP JUMPDEST PUSH0 PUSH1 0x20 DUP3 ADD SWAP1 POP PUSH2 0x33C PUSH0 DUP4 ADD DUP5 PUSH2 0x31A JUMP JUMPDEST SWAP3 SWAP2 POP POP JUMP JUMPDEST PUSH2 0x1DC7 DUP1 PUSH2 0x34F PUSH0 CODECOPY PUSH0 RETURN INVALID PUSH1 0x80 PUSH1 0x40 MSTORE CALLVALUE DUP1 ISZERO PUSH2 0xF JUMPI PUSH0 DUP1 REVERT JUMPDEST POP PUSH1 0x4 CALLDATASIZE LT PUSH2 0x18B JUMPI PUSH0 CALLDATALOAD PUSH1 0xE0 SHR DUP1 PUSH4 0x7B0A47EE GT PUSH2 0xDC JUMPI DUP1 PUSH4 0xC8F33C91 GT PUSH2 0x95 JUMPI DUP1 PUSH4 0xDF136D65 GT PUSH2 0x6F JUMPI DUP1 PUSH4 0xDF136D65 EQ PUSH2 0x425 JUMPI DUP1 PUSH4 0xE9FAD8EE EQ PUSH2 0x443 JUMPI DUP1 PUSH4 0xF2FDE38B EQ PUSH2 0x44D JUMPI DUP1 PUSH4 0xF7C618C1 EQ PUSH2 0x469 JUMPI PUSH2 0x18B JUMP JUMPDEST DUP1 PUSH4 0xC8F33C91 EQ PUSH2 0x3CD JUMPI DUP1 PUSH4 0xCC1A378F EQ PUSH2 0x3EB JUMPI DUP1 PUSH4 0xCD3DAF9D EQ PUSH2 0x407 JUMPI PUSH2 0x18B JUMP JUMPDEST DUP1 PUSH4 0x7B0A47EE EQ PUSH2 0x31D JUMPI DUP1 PUSH4 0x80FAA57D EQ PUSH2 0x33B JUMPI DUP1 PUSH4 0x8456CB59 EQ PUSH2 0x359 JUMPI DUP1 PUSH4 0x8B876347 EQ PUSH2 0x363 JUMPI DUP1 PUSH4 0x8DA5CB5B EQ PUSH2 0x393 JUMPI DUP1 PUSH4 0xA694FC3A EQ PUSH2 0x3B1 JUMPI PUSH2 0x18B JUMP JUMPDEST DUP1 PUSH4 0x3C6B16AB GT PUSH2 0x149 JUMPI DUP1 PUSH4 0x5C975ABB GT PUSH2 0x123 JUMPI DUP1 PUSH4 0x5C975ABB EQ PUSH2 0x2A7 JUMPI DUP1 PUSH4 0x70A08231 EQ PUSH2 0x2C5 JUMPI DUP1 PUSH4 0x715018A6 EQ PUSH2 0x2F5 JUMPI DUP1 PUSH4 0x72F702F3 EQ PUSH2 0x2FF JUMPI PUSH2 0x18B JUMP JUMPDEST DUP1 PUSH4 0x3C6B16AB EQ PUSH2 0x277 JUMPI DUP1 PUSH4 0x3D18B912 EQ PUSH2 0x293 JUMPI DUP1 PUSH4 0x3F4BA83A EQ PUSH2 0x29D JUMPI PUSH2 0x18B JUMP JUMPDEST DUP1 PUSH3 0x8CC262 EQ PUSH2 0x18F JUMPI DUP1 PUSH4 0x700037D EQ PUSH2 0x1BF JUMPI DUP1 PUSH4 0x10C1C103 EQ PUSH2 0x1EF JUMPI DUP1 PUSH4 0x18160DDD EQ PUSH2 0x21F JUMPI DUP1 PUSH4 0x2E1A7D4D EQ PUSH2 0x23D JUMPI DUP1 PUSH4 0x386A9525 EQ PUSH2 0x259 JUMPI JUMPDEST PUSH0 DUP1 REVERT JUMPDEST PUSH2 0x1A9 PUSH1 0x4 DUP1 CALLDATASIZE SUB DUP2 ADD SWAP1 PUSH2 0x1A4 SWAP2 SWAP1 PUSH2 0x1721 JUMP JUMPDEST PUSH2 0x487 JUMP JUMPDEST PUSH1 0x40 MLOAD PUSH2 0x1B6 SWAP2 SWAP1 PUSH2 0x1764 JUMP JUMPDEST PUSH1 0x40 MLOAD DUP1 SWAP2 SUB SWAP1 RETURN JUMPDEST PUSH2 0x1D9 PUSH1 0x4 DUP1 CALLDATASIZE SUB DUP2 ADD SWAP1 PUSH2 0x1D4 SWAP2 SWAP1 PUSH2 0x1721 JUMP JUMPDEST PUSH2 0x582 JUMP JUMPDEST PUSH1 0x40 MLOAD PUSH2 0x1E6 SWAP2 SWAP1 PUSH2 0x1764 JUMP JUMPDEST PUSH1 0x40 MLOAD DUP1 SWAP2 SUB SWAP1 RETURN JUMPDEST PUSH2 0x209 PUSH1 0x4 DUP1 CALLDATASIZE SUB DUP2 ADD SWAP1 PUSH2 0x204 SWAP2 SWAP1 PUSH2 0x1721 JUMP JUMPDEST PUSH2 0x597 JUMP JUMPDEST PUSH1 0x40 MLOAD PUSH2 0x216 SWAP2 SWAP1 PUSH2 0x1764 JUMP JUMPDEST PUSH1 0x40 MLOAD DUP1 SWAP2 SUB SWAP1 RETURN JUMPDEST PUSH2 0x227 PUSH2 0x5AC JUMP JUMPDEST PUSH1 0x40 MLOAD PUSH2 0x234 SWAP2 SWAP1 PUSH2 0x1764 JUMP JUMPDEST PUSH1 0x40 MLOAD DUP1 SWAP2 SUB SWAP1 RETURN JUMPDEST PUSH2 0x257 PUSH1 0x4 DUP1 CALLDATASIZE SUB DUP2 ADD SWAP1 PUSH2 0x252 SWAP2 SWAP1 PUSH2 0x17A7 JUMP JUMPDEST PUSH2 0x5B5 JUMP JUMPDEST STOP JUMPDEST PUSH2 0x261 PUSH2 0x82E JUMP JUMPDEST PUSH1 0x40 MLOAD PUSH2 0x26E SWAP2 SWAP1 PUSH2 0x1764 JUMP JUMPDEST PUSH1 0x40 MLOAD DUP1 SWAP2 SUB SWAP1 RETURN JUMPDEST PUSH2 0x291 PUSH1 0x4 DUP1 CALLDATASIZE SUB DUP2 ADD SWAP1 PUSH2 0x28C SWAP2 SWAP1 PUSH2 0x17A7 JUMP JUMPDEST PUSH2 0x834 JUMP JUMPDEST STOP JUMPDEST PUSH2 0x29B PUSH2 0xB82 JUMP JUMPDEST STOP JUMPDEST PUSH2 0x2A5 PUSH2 0xDDA JUMP JUMPDEST STOP JUMPDEST PUSH2 0x2AF PUSH2 0xE40 JUMP JUMPDEST PUSH1 0x40 MLOAD PUSH2 0x2BC SWAP2 SWAP1 PUSH2 0x17EC JUMP JUMPDEST PUSH1 0x40 MLOAD DUP1 SWAP2 SUB SWAP1 RETURN JUMPDEST PUSH2 0x2DF PUSH1 0x4 DUP1 CALLDATASIZE SUB DUP2 ADD SWAP1 PUSH2 0x2DA SWAP2 SWAP1 PUSH2 0x1721 JUMP JUMPDEST PUSH2 0xE52 JUMP JUMPDEST PUSH1 0x40 MLOAD PUSH2 0x2EC SWAP2 SWAP1 PUSH2 0x1764 JUMP JUMPDEST PUSH1 0x40 MLOAD DUP1 SWAP2 SUB SWAP1 RETURN JUMPDEST PUSH2 0x2FD PUSH2 0xE98 JUMP JUMPDEST STOP JUMPDEST PUSH2 0x307 PUSH2 0xEAB JUMP JUMPDEST PUSH1 0x40 MLOAD PUSH2 0x314 SWAP2 SWAP1 PUSH2 0x1860 JUMP JUMPDEST PUSH1 0x40 MLOAD DUP1 SWAP2 SUB SWAP1 RETURN JUMPDEST PUSH2 0x325 PUSH2 0xED0 JUMP JUMPDEST PUSH1 0x40 MLOAD PUSH2 0x332 SWAP2 SWAP1 PUSH2 0x1764 JUMP JUMPDEST PUSH1 0x40 MLOAD DUP1 SWAP2 SUB SWAP1 RETURN JUMPDEST PUSH2 0x343 PUSH2 0xED6 JUMP JUMPDEST PUSH1 0x40 MLOAD PUSH2 0x350 SWAP2 SWAP1 PUSH2 0x1764 JUMP JUMPDEST PUSH1 0x40 MLOAD DUP1 SWAP2 SUB SWAP1 RETURN JUMPDEST PUSH2 0x361 PUSH2 0xF09 JUMP JUMPDEST STOP JUMPDEST PUSH2 0x37D PUSH1 0x4 DUP1 CALLDATASIZE SUB DUP2 ADD SWAP1 PUSH2 0x378 SWAP2 SWAP1 PUSH2 0x1721 JUMP JUMPDEST PUSH2 0xF70 JUMP JUMPDEST PUSH1 0x40 MLOAD PUSH2 0x38A SWAP2 SWAP1 PUSH2 0x1764 JUMP JUMPDEST PUSH1 0x40 MLOAD DUP1 SWAP2 SUB SWAP1 RETURN JUMPDEST PUSH2 0x39B PUSH2 0xF85 JUMP JUMPDEST PUSH1 0x40 MLOAD PUSH2 0x3A8 SWAP2 SWAP1 PUSH2 0x1888 JUMP JUMPDEST PUSH1 0x40 MLOAD DUP1 SWAP2 SUB SWAP1 RETURN JUMPDEST PUSH2 0x3CB PUSH1 0x4 DUP1 CALLDATASIZE SUB DUP2 ADD SWAP1 PUSH2 0x3C6 SWAP2 SWAP1 PUSH2 0x17A7 JUMP JUMPDEST PUSH2 0xFAC JUMP JUMPDEST STOP JUMPDEST PUSH2 0x3D5 PUSH2 0x1227 JUMP JUMPDEST PUSH1 0x40 MLOAD PUSH2 0x3E2 SWAP2 SWAP1 PUSH2 0x1764 JUMP JUMPDEST PUSH1 0x40 MLOAD DUP1 SWAP2 SUB SWAP1 RETURN JUMPDEST PUSH2 0x405 PUSH1 0x4 DUP1 CALLDATASIZE SUB DUP2 ADD SWAP1 PUSH2 0x400 SWAP2 SWAP1 PUSH2 0x17A7 JUMP JUMPDEST PUSH2 0x122D JUMP JUMPDEST STOP JUMPDEST PUSH2 0x40F PUSH2 0x1291 JUMP JUMPDEST PUSH1 0x40 MLOAD PUSH2 0x41C SWAP2 SWAP1 PUSH2 0x1764 JUMP JUMPDEST PUSH1 0x40 MLOAD DUP1 SWAP2 SUB SWAP1 RETURN JUMPDEST PUSH2 0x42D PUSH2 0x12FA JUMP JUMPDEST PUSH1 0x40 MLOAD PUSH2 0x43A SWAP2 SWAP1 PUSH2 0x1764 JUMP JUMPDEST PUSH1 0x40 MLOAD DUP1 SWAP2 SUB SWAP1 RETURN JUMPDEST PUSH2 0x44B PUSH2 0x1300 JUMP JUMPDEST STOP JUMPDEST PUSH2 0x467 PUSH1 0x4 DUP1 CALLDATASIZE SUB DUP2 ADD SWAP1 PUSH2 0x462 SWAP2 SWAP1 PUSH2 0x1721 JUMP JUMPDEST PUSH2 0x1350 JUMP JUMPDEST STOP JUMPDEST PUSH2 0x471 PUSH2 0x13D4 JUMP JUMPDEST PUSH1 0x40 MLOAD PUSH2 0x47E SWAP2 SWAP1 PUSH2 0x1860 JUMP JUMPDEST PUSH1 0x40 MLOAD DUP1 SWAP2 SUB SWAP1 RETURN JUMPDEST PUSH0 PUSH1 0x8 PUSH0 DUP4 PUSH20 0xFFFFFFFFFFFFFFFFFFFFFFFFFFFFFFFFFFFFFFFF AND PUSH20 0xFFFFFFFFFFFFFFFFFFFFFFFFFFFFFFFFFFFFFFFF AND DUP2 MSTORE PUSH1 0x20 ADD SWAP1 DUP2 MSTORE PUSH1 0x20 ADD PUSH0 KECCAK256 SLOAD PUSH8 0xDE0B6B3A7640000 PUSH1 0x7 PUSH0 DUP6 PUSH20 0xFFFFFFFFFFFFFFFFFFFFFFFFFFFFFFFFFFFFFFFF AND PUSH20 0xFFFFFFFFFFFFFFFFFFFFFFFFFFFFFFFFFFFFFFFF AND DUP2 MSTORE PUSH1 0x20 ADD SWAP1 DUP2 MSTORE PUSH1 0x20 ADD PUSH0 KECCAK256 SLOAD PUSH2 0x515 PUSH2 0x1291 JUMP JUMPDEST PUSH2 0x51F SWAP2 SWAP1 PUSH2 0x18CE JUMP JUMPDEST PUSH1 0x9 PUSH0 DUP7 PUSH20 0xFFFFFFFFFFFFFFFFFFFFFFFFFFFFFFFFFFFFFFFF AND PUSH20 0xFFFFFFFFFFFFFFFFFFFFFFFFFFFFFFFFFFFFFFFF AND DUP2 MSTORE PUSH1 0x20 ADD SWAP1 DUP2 MSTORE PUSH1 0x20 ADD PUSH0 KECCAK256 SLOAD PUSH2 0x567 SWAP2 SWAP1 PUSH2 0x1901 JUMP JUMPDEST PUSH2 0x571 SWAP2 SWAP1 PUSH2 0x196F JUMP JUMPDEST PUSH2 0x57B SWAP2 SWAP1 PUSH2 0x199F JUMP JUMPDEST SWAP1 POP SWAP2 SWAP1 POP JUMP JUMPDEST PUSH1 0x8 PUSH1 0x20 MSTORE DUP1 PUSH0 MSTORE PUSH1 0x40 PUSH0 KECCAK256 PUSH0 SWAP2 POP SWAP1 POP SLOAD DUP2 JUMP JUMPDEST PUSH1 0x9 PUSH1 0x20 MSTORE DUP1 PUSH0 MSTORE PUSH1 0x40 PUSH0 KECCAK256 PUSH0 SWAP2 POP SWAP1 POP SLOAD DUP2 JUMP JUMPDEST PUSH0 PUSH1 0xA SLOAD SWAP1 POP SWAP1 JUMP JUMPDEST CALLER PUSH2 0x5BE PUSH2 0x1291 JUMP JUMPDEST PUSH1 0x6 DUP2 SWAP1 SSTORE POP PUSH2 0x5CC PUSH2 0xED6 JUMP JUMPDEST PUSH1 0x5 DUP2 SWAP1 SSTORE POP PUSH0 PUSH20 0xFFFFFFFFFFFFFFFFFFFFFFFFFFFFFFFFFFFFFFFF AND DUP2 PUSH20 0xFFFFFFFFFFFFFFFFFFFFFFFFFFFFFFFFFFFFFFFF AND EQ PUSH2 0x694 JUMPI PUSH2 0x60E DUP2 PUSH2 0x487 JUMP JUMPDEST PUSH1 0x8 PUSH0 DUP4 PUSH20 0xFFFFFFFFFFFFFFFFFFFFFFFFFFFFFFFFFFFFFFFF AND PUSH20 0xFFFFFFFFFFFFFFFFFFFFFFFFFFFFFFFFFFFFFFFF AND DUP2 MSTORE PUSH1 0x20 ADD SWAP1 DUP2 MSTORE PUSH1 0x20 ADD PUSH0 KECCAK256 DUP2 SWAP1 SSTORE POP PUSH1 0x6 SLOAD PUSH1 0x7 PUSH0 DUP4 PUSH20 0xFFFFFFFFFFFFFFFFFFFFFFFFFFFFFFFFFFFFFFFF AND PUSH20 0xFFFFFFFFFFFFFFFFFFFFFFFFFFFFFFFFFFFFFFFF AND DUP2 MSTORE PUSH1 0x20 ADD SWAP1 DUP2 MSTORE PUSH1 0x20 ADD PUSH0 KECCAK256 DUP2 SWAP1 SSTORE POP JUMPDEST PUSH1 0xB PUSH0 SWAP1 SLOAD SWAP1 PUSH2 0x100 EXP SWAP1 DIV PUSH1 0xFF AND ISZERO PUSH2 0x6E3 JUMPI PUSH1 0x40 MLOAD PUSH32 0x8C379A000000000000000000000000000000000000000000000000000000000 DUP2 MSTORE PUSH1 0x4 ADD PUSH2 0x6DA SWAP1 PUSH2 0x1A2C JUMP JUMPDEST PUSH1 0x40 MLOAD DUP1 SWAP2 SUB SWAP1 REVERT JUMPDEST PUSH0 DUP3 GT PUSH2 0x725 JUMPI PUSH1 0x40 MLOAD PUSH32 0x8C379A000000000000000000000000000000000000000000000000000000000 DUP2 MSTORE PUSH1 0x4 ADD PUSH2 0x71C SWAP1 PUSH2 0x1A94 JUMP JUMPDEST PUSH1 0x40 MLOAD DUP1 SWAP2 SUB SWAP1 REVERT JUMPDEST DUP2 PUSH1 0xA PUSH0 DUP3 DUP3 SLOAD PUSH2 0x736 SWAP2 SWAP1 PUSH2 0x18CE JUMP JUMPDEST SWAP3 POP POP DUP2 SWAP1 SSTORE POP DUP2 PUSH1 0x9 PUSH0 CALLER PUSH20 0xFFFFFFFFFFFFFFFFFFFFFFFFFFFFFFFFFFFFFFFF AND PUSH20 0xFFFFFFFFFFFFFFFFFFFFFFFFFFFFFFFFFFFFFFFF AND DUP2 MSTORE PUSH1 0x20 ADD SWAP1 DUP2 MSTORE PUSH1 0x20 ADD PUSH0 KECCAK256 PUSH0 DUP3 DUP3 SLOAD PUSH2 0x789 SWAP2 SWAP1 PUSH2 0x18CE JUMP JUMPDEST SWAP3 POP POP DUP2 SWAP1 SSTORE POP PUSH2 0x7DC CALLER DUP4 PUSH1 0x1 PUSH0 SWAP1 SLOAD SWAP1 PUSH2 0x100 EXP SWAP1 DIV PUSH20 0xFFFFFFFFFFFFFFFFFFFFFFFFFFFFFFFFFFFFFFFF AND PUSH20 0xFFFFFFFFFFFFFFFFFFFFFFFFFFFFFFFFFFFFFFFF AND PUSH2 0x13F9 SWAP1 SWAP3 SWAP2 SWAP1 PUSH4 0xFFFFFFFF AND JUMP JUMPDEST CALLER PUSH20 0xFFFFFFFFFFFFFFFFFFFFFFFFFFFFFFFFFFFFFFFF AND PUSH32 0x7084F5476618D8E60B11EF0D7D3F06914655ADB8793E28FF7F018D4C76D505D5 DUP4 PUSH1 0x40 MLOAD PUSH2 0x822 SWAP2 SWAP1 PUSH2 0x1764 JUMP JUMPDEST PUSH1 0x40 MLOAD DUP1 SWAP2 SUB SWAP1 LOG2 POP POP JUMP JUMPDEST PUSH1 0x4 SLOAD DUP2 JUMP JUMPDEST PUSH2 0x83C PUSH2 0x144C JUMP JUMPDEST PUSH0 PUSH2 0x845 PUSH2 0x1291 JUMP JUMPDEST PUSH1 0x6 DUP2 SWAP1 SSTORE POP PUSH2 0x853 PUSH2 0xED6 JUMP JUMPDEST PUSH1 0x5 DUP2 SWAP1 SSTORE POP PUSH0 PUSH20 0xFFFFFFFFFFFFFFFFFFFFFFFFFFFFFFFFFFFFFFFF AND DUP2 PUSH20 0xFFFFFFFFFFFFFFFFFFFFFFFFFFFFFFFFFFFFFFFF AND EQ PUSH2 0x91B JUMPI PUSH2 0x895 DUP2 PUSH2 0x487 JUMP JUMPDEST PUSH1 0x8 PUSH0 DUP4 PUSH20 0xFFFFFFFFFFFFFFFFFFFFFFFFFFFFFFFFFFFFFFFF AND PUSH20 0xFFFFFFFFFFFFFFFFFFFFFFFFFFFFFFFFFFFFFFFF AND DUP2 MSTORE PUSH1 0x20 ADD SWAP1 DUP2 MSTORE PUSH1 0x20 ADD PUSH0 KECCAK256 DUP2 SWAP1 SSTORE POP PUSH1 0x6 SLOAD PUSH1 0x7 PUSH0 DUP4 PUSH20 0xFFFFFFFFFFFFFFFFFFFFFFFFFFFFFFFFFFFFFFFF AND PUSH20 0xFFFFFFFFFFFFFFFFFFFFFFFFFFFFFFFFFFFFFFFF AND DUP2 MSTORE PUSH1 0x20 ADD SWAP1 DUP2 MSTORE PUSH1 0x20 ADD PUSH0 KECCAK256 DUP2 SWAP1 SSTORE POP JUMPDEST PUSH1 0xB PUSH0 SWAP1 SLOAD SWAP1 PUSH2 0x100 EXP SWAP1 DIV PUSH1 0xFF AND ISZERO PUSH2 0x96A JUMPI PUSH1 0x40 MLOAD PUSH32 0x8C379A000000000000000000000000000000000000000000000000000000000 DUP2 MSTORE PUSH1 0x4 ADD PUSH2 0x961 SWAP1 PUSH2 0x1A2C JUMP JUMPDEST PUSH1 0x40 MLOAD DUP1 SWAP2 SUB SWAP1 REVERT JUMPDEST PUSH0 DUP3 GT PUSH2 0x9AC JUMPI PUSH1 0x40 MLOAD PUSH32 0x8C379A000000000000000000000000000000000000000000000000000000000 DUP2 MSTORE PUSH1 0x4 ADD PUSH2 0x9A3 SWAP1 PUSH2 0x1AFC JUMP JUMPDEST PUSH1 0x40 MLOAD DUP1 SWAP2 SUB SWAP1 REVERT JUMPDEST PUSH1 0x4 SLOAD PUSH1 0x5 SLOAD PUSH2 0x9BC SWAP2 SWAP1 PUSH2 0x199F JUMP JUMPDEST TIMESTAMP LT ISZERO PUSH2 0x9FE JUMPI PUSH1 0x40 MLOAD PUSH32 0x8C379A000000000000000000000000000000000000000000000000000000000 DUP2 MSTORE PUSH1 0x4 ADD PUSH2 0x9F5 SWAP1 PUSH2 0x1BB0 JUMP JUMPDEST PUSH1 0x40 MLOAD DUP1 SWAP2 SUB SWAP1 REVERT JUMPDEST PUSH0 PUSH1 0x2 PUSH0 SWAP1 SLOAD SWAP1 PUSH2 0x100 EXP SWAP1 DIV PUSH20 0xFFFFFFFFFFFFFFFFFFFFFFFFFFFFFFFFFFFFFFFF AND PUSH20 0xFFFFFFFFFFFFFFFFFFFFFFFFFFFFFFFFFFFFFFFF AND PUSH4 0x70A08231 ADDRESS PUSH1 0x40 MLOAD DUP3 PUSH4 0xFFFFFFFF AND PUSH1 0xE0 SHL DUP2 MSTORE PUSH1 0x4 ADD PUSH2 0xA59 SWAP2 SWAP1 PUSH2 0x1888 JUMP JUMPDEST PUSH1 0x20 PUSH1 0x40 MLOAD DUP1 DUP4 SUB DUP2 DUP7 GAS STATICCALL ISZERO DUP1 ISZERO PUSH2 0xA74 JUMPI RETURNDATASIZE PUSH0 DUP1 RETURNDATACOPY RETURNDATASIZE PUSH0 REVERT JUMPDEST POP POP POP POP PUSH1 0x40 MLOAD RETURNDATASIZE PUSH1 0x1F NOT PUSH1 0x1F DUP3 ADD AND DUP3 ADD DUP1 PUSH1 0x40 MSTORE POP DUP2 ADD SWAP1 PUSH2 0xA98 SWAP2 SWAP1 PUSH2 0x1BE2 JUMP JUMPDEST SWAP1 POP DUP1 DUP4 GT ISZERO PUSH2 0xADD JUMPI PUSH1 0x40 MLOAD PUSH32 0x8C379A000000000000000000000000000000000000000000000000000000000 DUP2 MSTORE PUSH1 0x4 ADD PUSH2 0xAD4 SWAP1 PUSH2 0x1C57 JUMP JUMPDEST PUSH1 0x40 MLOAD DUP1 SWAP2 SUB SWAP1 REVERT JUMPDEST PUSH2 0xB2B CALLER ADDRESS DUP6 PUSH1 0x2 PUSH0 SWAP1 SLOAD SWAP1 PUSH2 0x100 EXP SWAP1 DIV PUSH20 0xFFFFFFFFFFFFFFFFFFFFFFFFFFFFFFFFFFFFFFFF AND PUSH20 0xFFFFFFFFFFFFFFFFFFFFFFFFFFFFFFFFFFFFFFFF AND PUSH2 0x14D3 SWAP1 SWAP4 SWAP3 SWAP2 SWAP1 PUSH4 0xFFFFFFFF AND JUMP JUMPDEST TIMESTAMP PUSH1 0x5 DUP2 SWAP1 SSTORE POP PUSH1 0x4 SLOAD DUP4 PUSH2 0xB40 SWAP2 SWAP1 PUSH2 0x196F JUMP JUMPDEST PUSH1 0x3 DUP2 SWAP1 SSTORE POP PUSH32 0xDE88A922E0D3B88B24E9623EFEB464919C6BF9F66857A65E2BFCF2CE87A9433D DUP4 PUSH1 0x40 MLOAD PUSH2 0xB75 SWAP2 SWAP1 PUSH2 0x1764 JUMP JUMPDEST PUSH1 0x40 MLOAD DUP1 SWAP2 SUB SWAP1 LOG1 POP POP POP JUMP JUMPDEST CALLER PUSH2 0xB8B PUSH2 0x1291 JUMP JUMPDEST PUSH1 0x6 DUP2 SWAP1 SSTORE POP PUSH2 0xB99 PUSH2 0xED6 JUMP JUMPDEST PUSH1 0x5 DUP2 SWAP1 SSTORE POP PUSH0 PUSH20 0xFFFFFFFFFFFFFFFFFFFFFFFFFFFFFFFFFFFFFFFF AND DUP2 PUSH20 0xFFFFFFFFFFFFFFFFFFFFFFFFFFFFFFFFFFFFFFFF AND EQ PUSH2 0xC61 JUMPI PUSH2 0xBDB DUP2 PUSH2 0x487 JUMP JUMPDEST PUSH1 0x8 PUSH0 DUP4 PUSH20 0xFFFFFFFFFFFFFFFFFFFFFFFFFFFFFFFFFFFFFFFF AND PUSH20 0xFFFFFFFFFFFFFFFFFFFFFFFFFFFFFFFFFFFFFFFF AND DUP2 MSTORE PUSH1 0x20 ADD SWAP1 DUP2 MSTORE PUSH1 0x20 ADD PUSH0 KECCAK256 DUP2 SWAP1 SSTORE POP PUSH1 0x6 SLOAD PUSH1 0x7 PUSH0 DUP4 PUSH20 0xFFFFFFFFFFFFFFFFFFFFFFFFFFFFFFFFFFFFFFFF AND PUSH20 0xFFFFFFFFFFFFFFFFFFFFFFFFFFFFFFFFFFFFFFFF AND DUP2 MSTORE PUSH1 0x20 ADD SWAP1 DUP2 MSTORE PUSH1 0x20 ADD PUSH0 KECCAK256 DUP2 SWAP1 SSTORE POP JUMPDEST PUSH1 0xB PUSH0 SWAP1 SLOAD SWAP1 PUSH2 0x100 EXP SWAP1 DIV PUSH1 0xFF AND ISZERO PUSH2 0xCB0 JUMPI PUSH1 0x40 MLOAD PUSH32 0x8C379A000000000000000000000000000000000000000000000000000000000 DUP2 MSTORE PUSH1 0x4 ADD PUSH2 0xCA7 SWAP1 PUSH2 0x1A2C JUMP JUMPDEST PUSH1 0x40 MLOAD DUP1 SWAP2 SUB SWAP1 REVERT JUMPDEST PUSH0 PUSH1 0x8 PUSH0 CALLER PUSH20 0xFFFFFFFFFFFFFFFFFFFFFFFFFFFFFFFFFFFFFFFF AND PUSH20 0xFFFFFFFFFFFFFFFFFFFFFFFFFFFFFFFFFFFFFFFF AND DUP2 MSTORE PUSH1 0x20 ADD SWAP1 DUP2 MSTORE PUSH1 0x20 ADD PUSH0 KECCAK256 SLOAD SWAP1 POP PUSH0 DUP2 GT ISZERO PUSH2 0xDD6 JUMPI PUSH0 PUSH1 0x8 PUSH0 CALLER PUSH20 0xFFFFFFFFFFFFFFFFFFFFFFFFFFFFFFFFFFFFFFFF AND PUSH20 0xFFFFFFFFFFFFFFFFFFFFFFFFFFFFFFFFFFFFFFFF AND DUP2 MSTORE PUSH1 0x20 ADD SWAP1 DUP2 MSTORE PUSH1 0x20 ADD PUSH0 KECCAK256 DUP2 SWAP1 SSTORE POP PUSH2 0xD87 CALLER DUP3 PUSH1 0x2 PUSH0 SWAP1 SLOAD SWAP1 PUSH2 0x100 EXP SWAP1 DIV PUSH20 0xFFFFFFFFFFFFFFFFFFFFFFFFFFFFFFFFFFFFFFFF AND PUSH20 0xFFFFFFFFFFFFFFFFFFFFFFFFFFFFFFFFFFFFFFFF AND PUSH2 0x13F9 SWAP1 SWAP3 SWAP2 SWAP1 PUSH4 0xFFFFFFFF AND JUMP JUMPDEST CALLER PUSH20 0xFFFFFFFFFFFFFFFFFFFFFFFFFFFFFFFFFFFFFFFF AND PUSH32 0xE2403640BA68FED3A2F88B7557551D1993F84B99BB10FF833F0CF8DB0C5E0486 DUP3 PUSH1 0x40 MLOAD PUSH2 0xDCD SWAP2 SWAP1 PUSH2 0x1764 JUMP JUMPDEST PUSH1 0x40 MLOAD DUP1 SWAP2 SUB SWAP1 LOG2 JUMPDEST POP POP JUMP JUMPDEST PUSH2 0xDE2 PUSH2 0x144C JUMP JUMPDEST PUSH0 PUSH1 0xB PUSH0 PUSH2 0x100 EXP DUP2 SLOAD DUP2 PUSH1 0xFF MUL NOT AND SWAP1 DUP4 ISZERO ISZERO MUL OR SWAP1 SSTORE POP CALLER PUSH20 0xFFFFFFFFFFFFFFFFFFFFFFFFFFFFFFFFFFFFFFFF AND PUSH32 0x5DB9EE0A495BF2E6FF9C91A7834C1BA4FDD244A5E8AA4E537BD38AEAE4B073AA PUSH1 0x40 MLOAD PUSH1 0x40 MLOAD DUP1 SWAP2 SUB SWAP1 LOG2 JUMP JUMPDEST PUSH1 0xB PUSH0 SWAP1 SLOAD SWAP1 PUSH2 0x100 EXP SWAP1 DIV PUSH1 0xFF AND DUP2 JUMP JUMPDEST PUSH0 PUSH1 0x9 PUSH0 DUP4 PUSH20 0xFFFFFFFFFFFFFFFFFFFFFFFFFFFFFFFFFFFFFFFF AND PUSH20 0xFFFFFFFFFFFFFFFFFFFFFFFFFFFFFFFFFFFFFFFF AND DUP2 MSTORE PUSH1 0x20 ADD SWAP1 DUP2 MSTORE PUSH1 0x20 ADD PUSH0 KECCAK256 SLOAD SWAP1 POP SWAP2 SWAP1 POP JUMP JUMPDEST PUSH2 0xEA0 PUSH2 0x144C JUMP JUMPDEST PUSH2 0xEA9 PUSH0 PUSH2 0x1528 JUMP JUMPDEST JUMP JUMPDEST PUSH1 0x1 PUSH0 SWAP1 SLOAD SWAP1 PUSH2 0x100 EXP SWAP1 DIV PUSH20 0xFFFFFFFFFFFFFFFFFFFFFFFFFFFFFFFFFFFFFFFF AND DUP2 JUMP JUMPDEST PUSH1 0x3 SLOAD DUP2 JUMP JUMPDEST PUSH0 PUSH1 0x4 SLOAD PUSH1 0x5 SLOAD PUSH2 0xEE7 SWAP2 SWAP1 PUSH2 0x199F JUMP JUMPDEST TIMESTAMP LT PUSH2 0xF02 JUMPI PUSH1 0x4 SLOAD PUSH1 0x5 SLOAD PUSH2 0xEFD SWAP2 SWAP1 PUSH2 0x199F JUMP JUMPDEST PUSH2 0xF04 JUMP JUMPDEST TIMESTAMP JUMPDEST SWAP1 POP SWAP1 JUMP JUMPDEST PUSH2 0xF11 PUSH2 0x144C JUMP JUMPDEST PUSH1 0x1 PUSH1 0xB PUSH0 PUSH2 0x100 EXP DUP2 SLOAD DUP2 PUSH1 0xFF MUL NOT AND SWAP1 DUP4 ISZERO ISZERO MUL OR SWAP1 SSTORE POP CALLER PUSH20 0xFFFFFFFFFFFFFFFFFFFFFFFFFFFFFFFFFFFFFFFF AND PUSH32 0x62E78CEA01BEE320CD4E420270B5EA74000D11B0C9F74754EBDBFC544B05A258 PUSH1 0x40 MLOAD PUSH1 0x40 MLOAD DUP1 SWAP2 SUB SWAP1 LOG2 JUMP JUMPDEST PUSH1 0x7 PUSH1 0x20 MSTORE DUP1 PUSH0 MSTORE PUSH1 0x40 PUSH0 KECCAK256 PUSH0 SWAP2 POP SWAP1 POP SLOAD DUP2 JUMP JUMPDEST PUSH0 DUP1 PUSH0 SWAP1 SLOAD SWAP1 PUSH2 0x100 EXP SWAP1 DIV PUSH20 0xFFFFFFFFFFFFFFFFFFFFFFFFFFFFFFFFFFFFFFFF AND SWAP1 POP SWAP1 JUMP JUMPDEST CALLER PUSH2 0xFB5 PUSH2 0x1291 JUMP JUMPDEST PUSH1 0x6 DUP2 SWAP1 SSTORE POP PUSH2 0xFC3 PUSH2 0xED6 JUMP JUMPDEST PUSH1 0x5 DUP2 SWAP1 SSTORE POP PUSH0 PUSH20 0xFFFFFFFFFFFFFFFFFFFFFFFFFFFFFFFFFFFFFFFF AND DUP2 PUSH20 0xFFFFFFFFFFFFFFFFFFFFFFFFFFFFFFFFFFFFFFFF AND EQ PUSH2 0x108B JUMPI PUSH2 0x1005 DUP2 PUSH2 0x487 JUMP JUMPDEST PUSH1 0x8 PUSH0 DUP4 PUSH20 0xFFFFFFFFFFFFFFFFFFFFFFFFFFFFFFFFFFFFFFFF AND PUSH20 0xFFFFFFFFFFFFFFFFFFFFFFFFFFFFFFFFFFFFFFFF AND DUP2 MSTORE PUSH1 0x20 ADD SWAP1 DUP2 MSTORE PUSH1 0x20 ADD PUSH0 KECCAK256 DUP2 SWAP1 SSTORE POP PUSH1 0x6 SLOAD PUSH1 0x7 PUSH0 DUP4 PUSH20 0xFFFFFFFFFFFFFFFFFFFFFFFFFFFFFFFFFFFFFFFF AND PUSH20 0xFFFFFFFFFFFFFFFFFFFFFFFFFFFFFFFFFFFFFFFF AND DUP2 MSTORE PUSH1 0x20 ADD SWAP1 DUP2 MSTORE PUSH1 0x20 ADD PUSH0 KECCAK256 DUP2 SWAP1 SSTORE POP JUMPDEST PUSH1 0xB PUSH0 SWAP1 SLOAD SWAP1 PUSH2 0x100 EXP SWAP1 DIV PUSH1 0xFF AND ISZERO PUSH2 0x10DA JUMPI PUSH1 0x40 MLOAD PUSH32 0x8C379A000000000000000000000000000000000000000000000000000000000 DUP2 MSTORE PUSH1 0x4 ADD PUSH2 0x10D1 SWAP1 PUSH2 0x1A2C JUMP JUMPDEST PUSH1 0x40 MLOAD DUP1 SWAP2 SUB SWAP1 REVERT JUMPDEST PUSH0 DUP3 GT PUSH2 0x111C JUMPI PUSH1 0x40 MLOAD PUSH32 0x8C379A000000000000000000000000000000000000000000000000000000000 DUP2 MSTORE PUSH1 0x4 ADD PUSH2 0x1113 SWAP1 PUSH2 0x1CBF JUMP JUMPDEST PUSH1 0x40 MLOAD DUP1 SWAP2 SUB SWAP1 REVERT JUMPDEST DUP2 PUSH1 0xA PUSH0 DUP3 DUP3 SLOAD PUSH2 0x112D SWAP2 SWAP1 PUSH2 0x199F JUMP JUMPDEST SWAP3 POP POP DUP2 SWAP1 SSTORE POP DUP2 PUSH1 0x9 PUSH0 CALLER PUSH20 0xFFFFFFFFFFFFFFFFFFFFFFFFFFFFFFFFFFFFFFFF AND PUSH20 0xFFFFFFFFFFFFFFFFFFFFFFFFFFFFFFFFFFFFFFFF AND DUP2 MSTORE PUSH1 0x20 ADD SWAP1 DUP2 MSTORE PUSH1 0x20 ADD PUSH0 KECCAK256 PUSH0 DUP3 DUP3 SLOAD PUSH2 0x1180 SWAP2 SWAP1 PUSH2 0x199F JUMP JUMPDEST SWAP3 POP POP DUP2 SWAP1 SSTORE POP PUSH2 0x11D5 CALLER ADDRESS DUP5 PUSH1 0x1 PUSH0 SWAP1 SLOAD SWAP1 PUSH2 0x100 EXP SWAP1 DIV PUSH20 0xFFFFFFFFFFFFFFFFFFFFFFFFFFFFFFFFFFFFFFFF AND PUSH20 0xFFFFFFFFFFFFFFFFFFFFFFFFFFFFFFFFFFFFFFFF AND PUSH2 0x14D3 SWAP1 SWAP4 SWAP3 SWAP2 SWAP1 PUSH4 0xFFFFFFFF AND JUMP JUMPDEST CALLER PUSH20 0xFFFFFFFFFFFFFFFFFFFFFFFFFFFFFFFFFFFFFFFF AND PUSH32 0x9E71BC8EEA02A63969F509818F2DAFB9254532904319F9DBDA79B67BD34A5F3D DUP4 PUSH1 0x40 MLOAD PUSH2 0x121B SWAP2 SWAP1 PUSH2 0x1764 JUMP JUMPDEST PUSH1 0x40 MLOAD DUP1 SWAP2 SUB SWAP1 LOG2 POP POP JUMP JUMPDEST PUSH1 0x5 SLOAD DUP2 JUMP JUMPDEST PUSH2 0x1235 PUSH2 0x144C JUMP JUMPDEST PUSH1 0x4 SLOAD PUSH1 0x5 SLOAD PUSH2 0x1245 SWAP2 SWAP1 PUSH2 0x199F JUMP JUMPDEST TIMESTAMP LT ISZERO PUSH2 0x1287 JUMPI PUSH1 0x40 MLOAD PUSH32 0x8C379A000000000000000000000000000000000000000000000000000000000 DUP2 MSTORE PUSH1 0x4 ADD PUSH2 0x127E SWAP1 PUSH2 0x1D73 JUMP JUMPDEST PUSH1 0x40 MLOAD DUP1 SWAP2 SUB SWAP1 REVERT JUMPDEST DUP1 PUSH1 0x4 DUP2 SWAP1 SSTORE POP POP JUMP JUMPDEST PUSH0 DUP1 PUSH1 0xA SLOAD SUB PUSH2 0x12A5 JUMPI PUSH1 0x6 SLOAD SWAP1 POP PUSH2 0x12F7 JUMP JUMPDEST PUSH1 0xA SLOAD PUSH8 0xDE0B6B3A7640000 PUSH1 0x3 SLOAD PUSH1 0x5 SLOAD PUSH2 0x12BF PUSH2 0xED6 JUMP JUMPDEST PUSH2 0x12C9 SWAP2 SWAP1 PUSH2 0x18CE JUMP JUMPDEST PUSH2 0x12D3 SWAP2 SWAP1 PUSH2 0x1901 JUMP JUMPDEST PUSH2 0x12DD SWAP2 SWAP1 PUSH2 0x1901 JUMP JUMPDEST PUSH2 0x12E7 SWAP2 SWAP1 PUSH2 0x196F JUMP JUMPDEST PUSH1 0x6 SLOAD PUSH2 0x12F4 SWAP2 SWAP1 PUSH2 0x199F JUMP JUMPDEST SWAP1 POP JUMPDEST SWAP1 JUMP JUMPDEST PUSH1 0x6 SLOAD DUP2 JUMP JUMPDEST PUSH2 0x1346 PUSH1 0x9 PUSH0 CALLER PUSH20 0xFFFFFFFFFFFFFFFFFFFFFFFFFFFFFFFFFFFFFFFF AND PUSH20 0xFFFFFFFFFFFFFFFFFFFFFFFFFFFFFFFFFFFFFFFF AND DUP2 MSTORE PUSH1 0x20 ADD SWAP1 DUP2 MSTORE PUSH1 0x20 ADD PUSH0 KECCAK256 SLOAD PUSH2 0x5B5 JUMP JUMPDEST PUSH2 0x134E PUSH2 0xB82 JUMP JUMPDEST JUMP JUMPDEST PUSH2 0x1358 PUSH2 0x144C JUMP JUMPDEST PUSH0 PUSH20 0xFFFFFFFFFFFFFFFFFFFFFFFFFFFFFFFFFFFFFFFF AND DUP2 PUSH20 0xFFFFFFFFFFFFFFFFFFFFFFFFFFFFFFFFFFFFFFFF AND SUB PUSH2 0x13C8 JUMPI PUSH0 PUSH1 0x40 MLOAD PUSH32 0x1E4FBDF700000000000000000000000000000000000000000000000000000000 DUP2 MSTORE PUSH1 0x4 ADD PUSH2 0x13BF SWAP2 SWAP1 PUSH2 0x1888 JUMP JUMPDEST PUSH1 0x40 MLOAD DUP1 SWAP2 SUB SWAP1 REVERT JUMPDEST PUSH2 0x13D1 DUP2 PUSH2 0x1528 JUMP JUMPDEST POP JUMP JUMPDEST PUSH1 0x2 PUSH0 SWAP1 SLOAD SWAP1 PUSH2 0x100 EXP SWAP1 DIV PUSH20 0xFFFFFFFFFFFFFFFFFFFFFFFFFFFFFFFFFFFFFFFF AND DUP2 JUMP JUMPDEST PUSH2 0x1406 DUP4 DUP4 DUP4 PUSH1 0x1 PUSH2 0x15E9 JUMP JUMPDEST PUSH2 0x1447 JUMPI DUP3 PUSH1 0x40 MLOAD PUSH32 0x5274AFE700000000000000000000000000000000000000000000000000000000 DUP2 MSTORE PUSH1 0x4 ADD PUSH2 0x143E SWAP2 SWAP1 PUSH2 0x1888 JUMP JUMPDEST PUSH1 0x40 MLOAD DUP1 SWAP2 SUB SWAP1 REVERT JUMPDEST POP POP POP JUMP JUMPDEST PUSH2 0x1454 PUSH2 0x164B JUMP JUMPDEST PUSH20 0xFFFFFFFFFFFFFFFFFFFFFFFFFFFFFFFFFFFFFFFF AND PUSH2 0x1472 PUSH2 0xF85 JUMP JUMPDEST PUSH20 0xFFFFFFFFFFFFFFFFFFFFFFFFFFFFFFFFFFFFFFFF AND EQ PUSH2 0x14D1 JUMPI PUSH2 0x1495 PUSH2 0x164B JUMP JUMPDEST PUSH1 0x40 MLOAD PUSH32 0x118CDAA700000000000000000000000000000000000000000000000000000000 DUP2 MSTORE PUSH1 0x4 ADD PUSH2 0x14C8 SWAP2 SWAP1 PUSH2 0x1888 JUMP JUMPDEST PUSH1 0x40 MLOAD DUP1 SWAP2 SUB SWAP1 REVERT JUMPDEST JUMP JUMPDEST PUSH2 0x14E1 DUP5 DUP5 DUP5 DUP5 PUSH1 0x1 PUSH2 0x1652 JUMP JUMPDEST PUSH2 0x1522 JUMPI DUP4 PUSH1 0x40 MLOAD PUSH32 0x5274AFE700000000000000000000000000000000000000000000000000000000 DUP2 MSTORE PUSH1 0x4 ADD PUSH2 0x1519 SWAP2 SWAP1 PUSH2 0x1888 JUMP JUMPDEST PUSH1 0x40 MLOAD DUP1 SWAP2 SUB SWAP1 REVERT JUMPDEST POP POP POP POP JUMP JUMPDEST PUSH0 DUP1 PUSH0 SWAP1 SLOAD SWAP1 PUSH2 0x100 EXP SWAP1 DIV PUSH20 0xFFFFFFFFFFFFFFFFFFFFFFFFFFFFFFFFFFFFFFFF AND SWAP1 POP DUP2 PUSH0 DUP1 PUSH2 0x100 EXP DUP2 SLOAD DUP2 PUSH20 0xFFFFFFFFFFFFFFFFFFFFFFFFFFFFFFFFFFFFFFFF MUL NOT AND SWAP1 DUP4 PUSH20 0xFFFFFFFFFFFFFFFFFFFFFFFFFFFFFFFFFFFFFFFF AND MUL OR SWAP1 SSTORE POP DUP2 PUSH20 0xFFFFFFFFFFFFFFFFFFFFFFFFFFFFFFFFFFFFFFFF AND DUP2 PUSH20 0xFFFFFFFFFFFFFFFFFFFFFFFFFFFFFFFFFFFFFFFF AND PUSH32 0x8BE0079C531659141344CD1FD0A4F28419497F9722A3DAAFE3B4186F6B6457E0 PUSH1 0x40 MLOAD PUSH1 0x40 MLOAD DUP1 SWAP2 SUB SWAP1 LOG3 POP POP JUMP JUMPDEST PUSH0 DUP1 PUSH4 0xA9059CBB PUSH1 0xE0 SHL SWAP1 POP PUSH1 0x40 MLOAD DUP2 PUSH0 MSTORE PUSH0 NOT PUSH1 0x60 SHR DUP7 AND PUSH1 0x4 MSTORE DUP5 PUSH1 0x24 MSTORE PUSH1 0x20 PUSH0 PUSH1 0x44 PUSH0 DUP1 DUP12 GAS CALL SWAP3 POP PUSH1 0x1 PUSH0 MLOAD EQ DUP4 AND PUSH2 0x163D JUMPI DUP4 DUP4 ISZERO AND ISZERO PUSH2 0x1631 JUMPI RETURNDATASIZE PUSH0 DUP3 RETURNDATACOPY RETURNDATASIZE DUP2 REVERT JUMPDEST PUSH0 DUP8 EXTCODESIZE GT RETURNDATASIZE ISZERO AND DUP4 AND SWAP3 POP JUMPDEST DUP1 PUSH1 0x40 MSTORE POP POP SWAP5 SWAP4 POP POP POP POP JUMP JUMPDEST PUSH0 CALLER SWAP1 POP SWAP1 JUMP JUMPDEST PUSH0 DUP1 PUSH4 0x23B872DD PUSH1 0xE0 SHL SWAP1 POP PUSH1 0x40 MLOAD DUP2 PUSH0 MSTORE PUSH0 NOT PUSH1 0x60 SHR DUP8 AND PUSH1 0x4 MSTORE PUSH0 NOT PUSH1 0x60 SHR DUP7 AND PUSH1 0x24 MSTORE DUP5 PUSH1 0x44 MSTORE PUSH1 0x20 PUSH0 PUSH1 0x64 PUSH0 DUP1 DUP13 GAS CALL SWAP3 POP PUSH1 0x1 PUSH0 MLOAD EQ DUP4 AND PUSH2 0x16B0 JUMPI DUP4 DUP4 ISZERO AND ISZERO PUSH2 0x16A4 JUMPI RETURNDATASIZE PUSH0 DUP3 RETURNDATACOPY RETURNDATASIZE DUP2 REVERT JUMPDEST PUSH0 DUP9 EXTCODESIZE GT RETURNDATASIZE ISZERO AND DUP4 AND SWAP3 POP JUMPDEST DUP1 PUSH1 0x40 MSTORE PUSH0 PUSH1 0x60 MSTORE POP POP SWAP6 SWAP5 POP POP POP POP POP JUMP JUMPDEST PUSH0 DUP1 REVERT JUMPDEST PUSH0 PUSH20 0xFFFFFFFFFFFFFFFFFFFFFFFFFFFFFFFFFFFFFFFF DUP3 AND SWAP1 POP SWAP2 SWAP1 POP JUMP JUMPDEST PUSH0 PUSH2 0x16F0 DUP3 PUSH2 0x16C7 JUMP JUMPDEST SWAP1 POP SWAP2 SWAP1 POP JUMP JUMPDEST PUSH2 0x1700 DUP2 PUSH2 0x16E6 JUMP JUMPDEST DUP2 EQ PUSH2 0x170A JUMPI PUSH0 DUP1 REVERT JUMPDEST POP JUMP JUMPDEST PUSH0 DUP2 CALLDATALOAD SWAP1 POP PUSH2 0x171B DUP2 PUSH2 0x16F7 JUMP JUMPDEST SWAP3 SWAP2 POP POP JUMP JUMPDEST PUSH0 PUSH1 0x20 DUP3 DUP5 SUB SLT ISZERO PUSH2 0x1736 JUMPI PUSH2 0x1735 PUSH2 0x16C3 JUMP JUMPDEST JUMPDEST PUSH0 PUSH2 0x1743 DUP5 DUP3 DUP6 ADD PUSH2 0x170D JUMP JUMPDEST SWAP2 POP POP SWAP3 SWAP2 POP POP JUMP JUMPDEST PUSH0 DUP2 SWAP1 POP SWAP2 SWAP1 POP JUMP JUMPDEST PUSH2 0x175E DUP2 PUSH2 0x174C JUMP JUMPDEST DUP3 MSTORE POP POP JUMP JUMPDEST PUSH0 PUSH1 0x20 DUP3 ADD SWAP1 POP PUSH2 0x1777 PUSH0 DUP4 ADD DUP5 PUSH2 0x1755 JUMP JUMPDEST SWAP3 SWAP2 POP POP JUMP JUMPDEST PUSH2 0x1786 DUP2 PUSH2 0x174C JUMP JUMPDEST DUP2 EQ PUSH2 0x1790 JUMPI PUSH0 DUP1 REVERT JUMPDEST POP JUMP JUMPDEST PUSH0 DUP2 CALLDATALOAD SWAP1 POP PUSH2 0x17A1 DUP2 PUSH2 0x177D JUMP JUMPDEST SWAP3 SWAP2 POP POP JUMP JUMPDEST PUSH0 PUSH1 0x20 DUP3 DUP5 SUB SLT ISZERO PUSH2 0x17BC JUMPI PUSH2 0x17BB PUSH2 0x16C3 JUMP JUMPDEST JUMPDEST PUSH0 PUSH2 0x17C9 DUP5 DUP3 DUP6 ADD PUSH2 0x1793 JUMP JUMPDEST SWAP2 POP POP SWAP3 SWAP2 POP POP JUMP JUMPDEST PUSH0 DUP2 ISZERO ISZERO SWAP1 POP SWAP2 SWAP1 POP JUMP JUMPDEST PUSH2 0x17E6 DUP2 PUSH2 0x17D2 JUMP JUMPDEST DUP3 MSTORE POP POP JUMP JUMPDEST PUSH0 PUSH1 0x20 DUP3 ADD SWAP1 POP PUSH2 0x17FF PUSH0 DUP4 ADD DUP5 PUSH2 0x17DD JUMP JUMPDEST SWAP3 SWAP2 POP POP JUMP JUMPDEST PUSH0 DUP2 SWAP1 POP SWAP2 SWAP1 POP JUMP JUMPDEST PUSH0 PUSH2 0x1828 PUSH2 0x1823 PUSH2 0x181E DUP5 PUSH2 0x16C7 JUMP JUMPDEST PUSH2 0x1805 JUMP JUMPDEST PUSH2 0x16C7 JUMP JUMPDEST SWAP1 POP SWAP2 SWAP1 POP JUMP JUMPDEST PUSH0 PUSH2 0x1839 DUP3 PUSH2 0x180E JUMP JUMPDEST SWAP1 POP SWAP2 SWAP1 POP JUMP JUMPDEST PUSH0 PUSH2 0x184A DUP3 PUSH2 0x182F JUMP JUMPDEST SWAP1 POP SWAP2 SWAP1 POP JUMP JUMPDEST PUSH2 0x185A DUP2 PUSH2 0x1840 JUMP JUMPDEST DUP3 MSTORE POP POP JUMP JUMPDEST PUSH0 PUSH1 0x20 DUP3 ADD SWAP1 POP PUSH2 0x1873 PUSH0 DUP4 ADD DUP5 PUSH2 0x1851 JUMP JUMPDEST SWAP3 SWAP2 POP POP JUMP JUMPDEST PUSH2 0x1882 DUP2 PUSH2 0x16E6 JUMP JUMPDEST DUP3 MSTORE POP POP JUMP JUMPDEST PUSH0 PUSH1 0x20 DUP3 ADD SWAP1 POP PUSH2 0x189B PUSH0 DUP4 ADD DUP5 PUSH2 0x1879 JUMP JUMPDEST SWAP3 SWAP2 POP POP JUMP JUMPDEST PUSH32 0x4E487B7100000000000000000000000000000000000000000000000000000000 PUSH0 MSTORE PUSH1 0x11 PUSH1 0x4 MSTORE PUSH1 0x24 PUSH0 REVERT JUMPDEST PUSH0 PUSH2 0x18D8 DUP3 PUSH2 0x174C JUMP JUMPDEST SWAP2 POP PUSH2 0x18E3 DUP4 PUSH2 0x174C JUMP JUMPDEST SWAP3 POP DUP3 DUP3 SUB SWAP1 POP DUP2 DUP2 GT ISZERO PUSH2 0x18FB JUMPI PUSH2 0x18FA PUSH2 0x18A1 JUMP JUMPDEST JUMPDEST SWAP3 SWAP2 POP POP JUMP JUMPDEST PUSH0 PUSH2 0x190B DUP3 PUSH2 0x174C JUMP JUMPDEST SWAP2 POP PUSH2 0x1916 DUP4 PUSH2 0x174C JUMP JUMPDEST SWAP3 POP DUP3 DUP3 MUL PUSH2 0x1924 DUP2 PUSH2 0x174C JUMP JUMPDEST SWAP2 POP DUP3 DUP3 DIV DUP5 EQ DUP4 ISZERO OR PUSH2 0x193B JUMPI PUSH2 0x193A PUSH2 0x18A1 JUMP JUMPDEST JUMPDEST POP SWAP3 SWAP2 POP POP JUMP JUMPDEST PUSH32 0x4E487B7100000000000000000000000000000000000000000000000000000000 PUSH0 MSTORE PUSH1 0x12 PUSH1 0x4 MSTORE PUSH1 0x24 PUSH0 REVERT JUMPDEST PUSH0 PUSH2 0x1979 DUP3 PUSH2 0x174C JUMP JUMPDEST SWAP2 POP PUSH2 0x1984 DUP4 PUSH2 0x174C JUMP JUMPDEST SWAP3 POP DUP3 PUSH2 0x1994 JUMPI PUSH2 0x1993 PUSH2 0x1942 JUMP JUMPDEST JUMPDEST DUP3 DUP3 DIV SWAP1 POP SWAP3 SWAP2 POP POP JUMP JUMPDEST PUSH0 PUSH2 0x19A9 DUP3 PUSH2 0x174C JUMP JUMPDEST SWAP2 POP PUSH2 0x19B4 DUP4 PUSH2 0x174C JUMP JUMPDEST SWAP3 POP DUP3 DUP3 ADD SWAP1 POP DUP1 DUP3 GT ISZERO PUSH2 0x19CC JUMPI PUSH2 0x19CB PUSH2 0x18A1 JUMP JUMPDEST JUMPDEST SWAP3 SWAP2 POP POP JUMP JUMPDEST PUSH0 DUP3 DUP3 MSTORE PUSH1 0x20 DUP3 ADD SWAP1 POP SWAP3 SWAP2 POP POP JUMP JUMPDEST PUSH32 0x5061757361626C653A2070617573656400000000000000000000000000000000 PUSH0 DUP3 ADD MSTORE POP JUMP JUMPDEST PUSH0 PUSH2 0x1A16 PUSH1 0x10 DUP4 PUSH2 0x19D2 JUMP JUMPDEST SWAP2 POP PUSH2 0x1A21 DUP3 PUSH2 0x19E2 JUMP JUMPDEST PUSH1 0x20 DUP3 ADD SWAP1 POP SWAP2 SWAP1 POP JUMP JUMPDEST PUSH0 PUSH1 0x20 DUP3 ADD SWAP1 POP DUP2 DUP2 SUB PUSH0 DUP4 ADD MSTORE PUSH2 0x1A43 DUP2 PUSH2 0x1A0A JUMP JUMPDEST SWAP1 POP SWAP2 SWAP1 POP JUMP JUMPDEST PUSH32 0x43616E6E6F742077697468647261772030000000000000000000000000000000 PUSH0 DUP3 ADD MSTORE POP JUMP JUMPDEST PUSH0 PUSH2 0x1A7E PUSH1 0x11 DUP4 PUSH2 0x19D2 JUMP JUMPDEST SWAP2 POP PUSH2 0x1A89 DUP3 PUSH2 0x1A4A JUMP JUMPDEST PUSH1 0x20 DUP3 ADD SWAP1 POP SWAP2 SWAP1 POP JUMP JUMPDEST PUSH0 PUSH1 0x20 DUP3 ADD SWAP1 POP DUP2 DUP2 SUB PUSH0 DUP4 ADD MSTORE PUSH2 0x1AAB DUP2 PUSH2 0x1A72 JUMP JUMPDEST SWAP1 POP SWAP2 SWAP1 POP JUMP JUMPDEST PUSH32 0x526577617264206D757374206265203E20300000000000000000000000000000 PUSH0 DUP3 ADD MSTORE POP JUMP JUMPDEST PUSH0 PUSH2 0x1AE6 PUSH1 0x12 DUP4 PUSH2 0x19D2 JUMP JUMPDEST SWAP2 POP PUSH2 0x1AF1 DUP3 PUSH2 0x1AB2 JUMP JUMPDEST PUSH1 0x20 DUP3 ADD SWAP1 POP SWAP2 SWAP1 POP JUMP JUMPDEST PUSH0 PUSH1 0x20 DUP3 ADD SWAP1 POP DUP2 DUP2 SUB PUSH0 DUP4 ADD MSTORE PUSH2 0x1B13 DUP2 PUSH2 0x1ADA JUMP JUMPDEST SWAP1 POP SWAP2 SWAP1 POP JUMP JUMPDEST PUSH32 0x50726576696F7573207265776172647320706572696F64206D75737420626520 PUSH0 DUP3 ADD MSTORE PUSH32 0x636F6D706C657465206265666F7265206368616E67696E672074686520726577 PUSH1 0x20 DUP3 ADD MSTORE PUSH32 0x6172642072617465000000000000000000000000000000000000000000000000 PUSH1 0x40 DUP3 ADD MSTORE POP JUMP JUMPDEST PUSH0 PUSH2 0x1B9A PUSH1 0x48 DUP4 PUSH2 0x19D2 JUMP JUMPDEST SWAP2 POP PUSH2 0x1BA5 DUP3 PUSH2 0x1B1A JUMP JUMPDEST PUSH1 0x60 DUP3 ADD SWAP1 POP SWAP2 SWAP1 POP JUMP JUMPDEST PUSH0 PUSH1 0x20 DUP3 ADD SWAP1 POP DUP2 DUP2 SUB PUSH0 DUP4 ADD MSTORE PUSH2 0x1BC7 DUP2 PUSH2 0x1B8E JUMP JUMPDEST SWAP1 POP SWAP2 SWAP1 POP JUMP JUMPDEST PUSH0 DUP2 MLOAD SWAP1 POP PUSH2 0x1BDC DUP2 PUSH2 0x177D JUMP JUMPDEST SWAP3 SWAP2 POP POP JUMP JUMPDEST PUSH0 PUSH1 0x20 DUP3 DUP5 SUB SLT ISZERO PUSH2 0x1BF7 JUMPI PUSH2 0x1BF6 PUSH2 0x16C3 JUMP JUMPDEST JUMPDEST PUSH0 PUSH2 0x1C04 DUP5 DUP3 DUP6 ADD PUSH2 0x1BCE JUMP JUMPDEST SWAP2 POP POP SWAP3 SWAP2 POP POP JUMP JUMPDEST PUSH32 0x52657761726420616D6F756E7420657863656564732062616C616E6365000000 PUSH0 DUP3 ADD MSTORE POP JUMP JUMPDEST PUSH0 PUSH2 0x1C41 PUSH1 0x1D DUP4 PUSH2 0x19D2 JUMP JUMPDEST SWAP2 POP PUSH2 0x1C4C DUP3 PUSH2 0x1C0D JUMP JUMPDEST PUSH1 0x20 DUP3 ADD SWAP1 POP SWAP2 SWAP1 POP JUMP JUMPDEST PUSH0 PUSH1 0x20 DUP3 ADD SWAP1 POP DUP2 DUP2 SUB PUSH0 DUP4 ADD MSTORE PUSH2 0x1C6E DUP2 PUSH2 0x1C35 JUMP JUMPDEST SWAP1 POP SWAP2 SWAP1 POP JUMP JUMPDEST PUSH32 0x43616E6E6F74207374616B652030000000000000000000000000000000000000 PUSH0 DUP3 ADD MSTORE POP JUMP JUMPDEST PUSH0 PUSH2 0x1CA9 PUSH1 0xE DUP4 PUSH2 0x19D2 JUMP JUMPDEST SWAP2 POP PUSH2 0x1CB4 DUP3 PUSH2 0x1C75 JUMP JUMPDEST PUSH1 0x20 DUP3 ADD SWAP1 POP SWAP2 SWAP1 POP JUMP JUMPDEST PUSH0 PUSH1 0x20 DUP3 ADD SWAP1 POP DUP2 DUP2 SUB PUSH0 DUP4 ADD MSTORE PUSH2 0x1CD6 DUP2 PUSH2 0x1C9D JUMP JUMPDEST SWAP1 POP SWAP2 SWAP1 POP JUMP JUMPDEST PUSH32 0x50726576696F7573207265776172647320706572696F64206D75737420626520 PUSH0 DUP3 ADD MSTORE PUSH32 0x636F6D706C657465206265666F7265206368616E67696E672074686520647572 PUSH1 0x20 DUP3 ADD MSTORE PUSH32 0x6174696F6E20666F7220746865206E657720706572696F640000000000000000 PUSH1 0x40 DUP3 ADD MSTORE POP JUMP JUMPDEST PUSH0 PUSH2 0x1D5D PUSH1 0x58 DUP4 PUSH2 0x19D2 JUMP JUMPDEST SWAP2 POP PUSH2 0x1D68 DUP3 PUSH2 0x1CDD JUMP JUMPDEST PUSH1 0x60 DUP3 ADD SWAP1 POP SWAP2 SWAP1 POP JUMP JUMPDEST PUSH0 PUSH1 0x20 DUP3 ADD SWAP1 POP DUP2 DUP2 SUB PUSH0 DUP4 ADD MSTORE PUSH2 0x1D8A DUP2 PUSH2 0x1D51 JUMP JUMPDEST SWAP1 POP SWAP2 SWAP1 POP JUMP INVALID LOG2 PUSH5 0x6970667358 0x22 SLT KECCAK256 0xEC 0x27 0xDA 0x25 0xFB 0xDE 0xEA PUSH6 0xE2E297DCAF6E 0x4F 0xB9 0xE6 PUSH10 0x2161F7E1704AD547C309 SWAP11 LT CHAINID SWAP7 PUSH5 0x736F6C6343 STOP ADDMOD BYTE STOP CALLER "
				},
				"gasEstimates": {
					"creation": {
						"codeDepositCost": "1524600",
						"executionCost": "infinite",
						"totalCost": "infinite"
					},
					"external": {
						"balanceOf(address)": "2896",
						"earned(address)": "infinite",
						"exit()": "infinite",
						"getReward()": "infinite",
						"lastTimeRewardApplicable()": "infinite",
						"lastUpdateTime()": "2470",
						"notifyRewardAmount(uint256)": "infinite",
						"owner()": "2626",
						"pause()": "infinite",
						"paused()": "2511",
						"renounceOwnership()": "infinite",
						"rewardPerToken()": "infinite",
						"rewardPerTokenStored()": "2469",
						"rewardRate()": "2448",
						"rewardToken()": "infinite",
						"rewards(address)": "2848",
						"rewardsDuration()": "2559",
						"setRewardsDuration(uint256)": "infinite",
						"stake(uint256)": "infinite",
						"stakedAmounts(address)": "2870",
						"stakingToken()": "infinite",
						"totalSupply()": "2522",
						"transferOwnership(address)": "infinite",
						"unpause()": "infinite",
						"userRewardPerTokenPaid(address)": "2891",
						"withdraw(uint256)": "infinite"
					}
				},
				"methodIdentifiers": {
					"balanceOf(address)": "70a08231",
					"earned(address)": "008cc262",
					"exit()": "e9fad8ee",
					"getReward()": "3d18b912",
					"lastTimeRewardApplicable()": "80faa57d",
					"lastUpdateTime()": "c8f33c91",
					"notifyRewardAmount(uint256)": "3c6b16ab",
					"owner()": "8da5cb5b",
					"pause()": "8456cb59",
					"paused()": "5c975abb",
					"renounceOwnership()": "715018a6",
					"rewardPerToken()": "cd3daf9d",
					"rewardPerTokenStored()": "df136d65",
					"rewardRate()": "7b0a47ee",
					"rewardToken()": "f7c618c1",
					"rewards(address)": "0700037d",
					"rewardsDuration()": "386a9525",
					"setRewardsDuration(uint256)": "cc1a378f",
					"stake(uint256)": "a694fc3a",
					"stakedAmounts(address)": "10c1c103",
					"stakingToken()": "72f702f3",
					"totalSupply()": "18160ddd",
					"transferOwnership(address)": "f2fde38b",
					"unpause()": "3f4ba83a",
					"userRewardPerTokenPaid(address)": "8b876347",
					"withdraw(uint256)": "2e1a7d4d"
				}
			},
			"storageLayout": {
				"storage": [
					{
						"astId": 8,
						"contract": "Day-05/code1.sol:StakingPool",
						"label": "_owner",
						"offset": 0,
						"slot": "0",
						"type": "t_address"
					},
					{
						"astId": 826,
						"contract": "Day-05/code1.sol:StakingPool",
						"label": "stakingToken",
						"offset": 0,
						"slot": "1",
						"type": "t_contract(IERC20)315"
					},
					{
						"astId": 829,
						"contract": "Day-05/code1.sol:StakingPool",
						"label": "rewardToken",
						"offset": 0,
						"slot": "2",
						"type": "t_contract(IERC20)315"
					},
					{
						"astId": 831,
						"contract": "Day-05/code1.sol:StakingPool",
						"label": "rewardRate",
						"offset": 0,
						"slot": "3",
						"type": "t_uint256"
					},
					{
						"astId": 833,
						"contract": "Day-05/code1.sol:StakingPool",
						"label": "rewardsDuration",
						"offset": 0,
						"slot": "4",
						"type": "t_uint256"
					},
					{
						"astId": 835,
						"contract": "Day-05/code1.sol:StakingPool",
						"label": "lastUpdateTime",
						"offset": 0,
						"slot": "5",
						"type": "t_uint256"
					},
					{
						"astId": 837,
						"contract": "Day-05/code1.sol:StakingPool",
						"label": "rewardPerTokenStored",
						"offset": 0,
						"slot": "6",
						"type": "t_uint256"
					},
					{
						"astId": 841,
						"contract": "Day-05/code1.sol:StakingPool",
						"label": "userRewardPerTokenPaid",
						"offset": 0,
						"slot": "7",
						"type": "t_mapping(t_address,t_uint256)"
					},
					{
						"astId": 845,
						"contract": "Day-05/code1.sol:StakingPool",
						"label": "rewards",
						"offset": 0,
						"slot": "8",
						"type": "t_mapping(t_address,t_uint256)"
					},
					{
						"astId": 849,
						"contract": "Day-05/code1.sol:StakingPool",
						"label": "stakedAmounts",
						"offset": 0,
						"slot": "9",
						"type": "t_mapping(t_address,t_uint256)"
					},
					{
						"astId": 851,
						"contract": "Day-05/code1.sol:StakingPool",
						"label": "_totalSupply",
						"offset": 0,
						"slot": "10",
						"type": "t_uint256"
					},
					{
						"astId": 853,
						"contract": "Day-05/code1.sol:StakingPool",
						"label": "paused",
						"offset": 0,
						"slot": "11",
						"type": "t_bool"
					}
				],
				"types": {
					"t_address": {
						"encoding": "inplace",
						"label": "address",
						"numberOfBytes": "20"
					},
					"t_bool": {
						"encoding": "inplace",
						"label": "bool",
						"numberOfBytes": "1"
					},
					"t_contract(IERC20)315": {
						"encoding": "inplace",
						"label": "contract IERC20",
						"numberOfBytes": "20"
					},
					"t_mapping(t_address,t_uint256)": {
						"encoding": "mapping",
						"key": "t_address",
						"label": "mapping(address => uint256)",
						"numberOfBytes": "32",
						"value": "t_uint256"
					},
					"t_uint256": {
						"encoding": "inplace",
						"label": "uint256",
						"numberOfBytes": "32"
					}
				}
			},
			"userdoc": {
				"kind": "user",
				"methods": {},
				"version": 1
			}
		}
	}
}