{
	"Day-03/code1.sol": {
		"SavingAccount": {
			"abi": [
				{
					"inputs": [
						{
							"internalType": "contract IERC20",
							"name": "_asset",
							"type": "address"
						},
						{
							"internalType": "uint256",
							"name": "_ratePerSecond",
							"type": "uint256"
						}
					],
					"stateMutability": "nonpayable",
					"type": "constructor"
				},
				{
					"inputs": [],
					"name": "InsufficientBalance",
					"type": "error"
				},
				{
					"inputs": [],
					"name": "NotAdmin",
					"type": "error"
				},
				{
					"inputs": [],
					"name": "TransferFailed",
					"type": "error"
				},
				{
					"inputs": [],
					"name": "ZeroAmount",
					"type": "error"
				},
				{
					"anonymous": false,
					"inputs": [
						{
							"indexed": false,
							"internalType": "uint256",
							"name": "newIndex",
							"type": "uint256"
						},
						{
							"indexed": false,
							"internalType": "uint256",
							"name": "ratePerSecond",
							"type": "uint256"
						}
					],
					"name": "Accrued",
					"type": "event"
				},
				{
					"anonymous": false,
					"inputs": [
						{
							"indexed": true,
							"internalType": "address",
							"name": "user",
							"type": "address"
						},
						{
							"indexed": false,
							"internalType": "uint256",
							"name": "amount",
							"type": "uint256"
						},
						{
							"indexed": false,
							"internalType": "uint256",
							"name": "scaledAdded",
							"type": "uint256"
						}
					],
					"name": "Deposited",
					"type": "event"
				},
				{
					"anonymous": false,
					"inputs": [
						{
							"indexed": false,
							"internalType": "uint256",
							"name": "oldRate",
							"type": "uint256"
						},
						{
							"indexed": false,
							"internalType": "uint256",
							"name": "newRate",
							"type": "uint256"
						}
					],
					"name": "RateUpdated",
					"type": "event"
				},
				{
					"anonymous": false,
					"inputs": [
						{
							"indexed": true,
							"internalType": "address",
							"name": "from",
							"type": "address"
						},
						{
							"indexed": false,
							"internalType": "uint256",
							"name": "amount",
							"type": "uint256"
						}
					],
					"name": "ReserveFunded",
					"type": "event"
				},
				{
					"anonymous": false,
					"inputs": [
						{
							"indexed": true,
							"internalType": "address",
							"name": "user",
							"type": "address"
						},
						{
							"indexed": false,
							"internalType": "uint256",
							"name": "amount",
							"type": "uint256"
						},
						{
							"indexed": false,
							"internalType": "uint256",
							"name": "scaledRemoved",
							"type": "uint256"
						}
					],
					"name": "Withdrawn",
					"type": "event"
				},
				{
					"inputs": [],
					"name": "accrue",
					"outputs": [],
					"stateMutability": "nonpayable",
					"type": "function"
				},
				{
					"inputs": [],
					"name": "admin",
					"outputs": [
						{
							"internalType": "address",
							"name": "",
							"type": "address"
						}
					],
					"stateMutability": "view",
					"type": "function"
				},
				{
					"inputs": [],
					"name": "asset",
					"outputs": [
						{
							"internalType": "contract IERC20",
							"name": "",
							"type": "address"
						}
					],
					"stateMutability": "view",
					"type": "function"
				},
				{
					"inputs": [
						{
							"internalType": "address",
							"name": "user",
							"type": "address"
						}
					],
					"name": "balanceOf",
					"outputs": [
						{
							"internalType": "uint256",
							"name": "",
							"type": "uint256"
						}
					],
					"stateMutability": "view",
					"type": "function"
				},
				{
					"inputs": [
						{
							"internalType": "uint256",
							"name": "amount",
							"type": "uint256"
						}
					],
					"name": "deposit",
					"outputs": [],
					"stateMutability": "nonpayable",
					"type": "function"
				},
				{
					"inputs": [
						{
							"internalType": "uint256",
							"name": "amount",
							"type": "uint256"
						}
					],
					"name": "fundReserve",
					"outputs": [],
					"stateMutability": "nonpayable",
					"type": "function"
				},
				{
					"inputs": [],
					"name": "index",
					"outputs": [
						{
							"internalType": "uint256",
							"name": "",
							"type": "uint256"
						}
					],
					"stateMutability": "view",
					"type": "function"
				},
				{
					"inputs": [],
					"name": "lastAccrual",
					"outputs": [
						{
							"internalType": "uint256",
							"name": "",
							"type": "uint256"
						}
					],
					"stateMutability": "view",
					"type": "function"
				},
				{
					"inputs": [],
					"name": "previewIndex",
					"outputs": [
						{
							"internalType": "uint256",
							"name": "",
							"type": "uint256"
						}
					],
					"stateMutability": "view",
					"type": "function"
				},
				{
					"inputs": [],
					"name": "ratePerSecond",
					"outputs": [
						{
							"internalType": "uint256",
							"name": "",
							"type": "uint256"
						}
					],
					"stateMutability": "view",
					"type": "function"
				},
				{
					"inputs": [
						{
							"internalType": "address",
							"name": "",
							"type": "address"
						}
					],
					"name": "scaledBalanceOf",
					"outputs": [
						{
							"internalType": "uint256",
							"name": "",
							"type": "uint256"
						}
					],
					"stateMutability": "view",
					"type": "function"
				},
				{
					"inputs": [
						{
							"internalType": "uint256",
							"name": "newRatePerSecond",
							"type": "uint256"
						}
					],
					"name": "setRatePerSecond",
					"outputs": [],
					"stateMutability": "nonpayable",
					"type": "function"
				},
				{
					"inputs": [],
					"name": "totalAssets",
					"outputs": [
						{
							"internalType": "uint256",
							"name": "",
							"type": "uint256"
						}
					],
					"stateMutability": "view",
					"type": "function"
				},
				{
					"inputs": [],
					"name": "totalScaledSupply",
					"outputs": [
						{
							"internalType": "uint256",
							"name": "",
							"type": "uint256"
						}
					],
					"stateMutability": "view",
					"type": "function"
				},
				{
					"inputs": [],
					"name": "withdrawAll",
					"outputs": [],
					"stateMutability": "nonpayable",
					"type": "function"
				}
			],
			"devdoc": {
				"kind": "dev",
				"methods": {},
				"version": 1
			},
			"evm": {
				"assembly": "    /* \"Day-03/code1.sol\":432:4554  contract SavingAccount{... */\n  mstore(0x40, 0xc0)\n    /* \"Day-03/code1.sol\":1240:1457  constructor(IERC20 _asset, uint256 _ratePerSecond){... */\n  callvalue\n  dup1\n  iszero\n  tag_1\n  jumpi\n  0x00\n  dup1\n  revert\ntag_1:\n  pop\n  mload(0x40)\n  sub(codesize, bytecodeSize)\n  dup1\n  bytecodeSize\n  dup4\n  codecopy\n  dup2\n  dup2\n  add\n  0x40\n  mstore\n  dup2\n  add\n  swap1\n  tag_2\n  swap2\n  swap1\n  tag_3\n  jump\t// in\ntag_2:\n    /* \"Day-03/code1.sol\":1309:1315  _asset */\n  dup2\n    /* \"Day-03/code1.sol\":1301:1315  asset = _asset */\n  0xffffffffffffffffffffffffffffffffffffffff\n  and\n  0x80\n  dup2\n  0xffffffffffffffffffffffffffffffffffffffff\n  and\n  dup2\n  mstore\n  pop\n  pop\n    /* \"Day-03/code1.sol\":1334:1344  msg.sender */\n  caller\n    /* \"Day-03/code1.sol\":1326:1344  admin = msg.sender */\n  0xffffffffffffffffffffffffffffffffffffffff\n  and\n  0xa0\n  dup2\n  0xffffffffffffffffffffffffffffffffffffffff\n  and\n  dup2\n  mstore\n  pop\n  pop\n    /* \"Day-03/code1.sol\":492:496  1e27 */\n  0x033b2e3c9fd0803ce8000000\n    /* \"Day-03/code1.sol\":1357:1362  index */\n  0x00\n    /* \"Day-03/code1.sol\":1357:1368  index = RAY */\n  dup2\n  swap1\n  sstore\n  pop\n    /* \"Day-03/code1.sol\":1393:1408  block.timestamp */\n  timestamp\n    /* \"Day-03/code1.sol\":1379:1390  lastAccrual */\n  0x01\n    /* \"Day-03/code1.sol\":1379:1408  lastAccrual = block.timestamp */\n  dup2\n  swap1\n  sstore\n  pop\n    /* \"Day-03/code1.sol\":1435:1449  _ratePerSecond */\n  dup1\n    /* \"Day-03/code1.sol\":1419:1432  ratePerSecond */\n  0x02\n    /* \"Day-03/code1.sol\":1419:1449  ratePerSecond = _ratePerSecond */\n  dup2\n  swap1\n  sstore\n  pop\n    /* \"Day-03/code1.sol\":1240:1457  constructor(IERC20 _asset, uint256 _ratePerSecond){... */\n  pop\n  pop\n    /* \"Day-03/code1.sol\":432:4554  contract SavingAccount{... */\n  jump(tag_6)\n    /* \"#utility.yul\":88:205   */\ntag_8:\n    /* \"#utility.yul\":197:198   */\n  0x00\n    /* \"#utility.yul\":194:195   */\n  dup1\n    /* \"#utility.yul\":187:199   */\n  revert\n    /* \"#utility.yul\":334:460   */\ntag_10:\n    /* \"#utility.yul\":371:378   */\n  0x00\n    /* \"#utility.yul\":411:453   */\n  0xffffffffffffffffffffffffffffffffffffffff\n    /* \"#utility.yul\":404:409   */\n  dup3\n    /* \"#utility.yul\":400:454   */\n  and\n    /* \"#utility.yul\":389:454   */\n  swap1\n  pop\n    /* \"#utility.yul\":334:460   */\n  swap2\n  swap1\n  pop\n  jump\t// out\n    /* \"#utility.yul\":466:562   */\ntag_11:\n    /* \"#utility.yul\":503:510   */\n  0x00\n    /* \"#utility.yul\":532:556   */\n  tag_24\n    /* \"#utility.yul\":550:555   */\n  dup3\n    /* \"#utility.yul\":532:556   */\n  tag_10\n  jump\t// in\ntag_24:\n    /* \"#utility.yul\":521:556   */\n  swap1\n  pop\n    /* \"#utility.yul\":466:562   */\n  swap2\n  swap1\n  pop\n  jump\t// out\n    /* \"#utility.yul\":568:677   */\ntag_12:\n    /* \"#utility.yul\":618:625   */\n  0x00\n    /* \"#utility.yul\":647:671   */\n  tag_26\n    /* \"#utility.yul\":665:670   */\n  dup3\n    /* \"#utility.yul\":647:671   */\n  tag_11\n  jump\t// in\ntag_26:\n    /* \"#utility.yul\":636:671   */\n  swap1\n  pop\n    /* \"#utility.yul\":568:677   */\n  swap2\n  swap1\n  pop\n  jump\t// out\n    /* \"#utility.yul\":683:831   */\ntag_13:\n    /* \"#utility.yul\":769:806   */\n  tag_28\n    /* \"#utility.yul\":800:805   */\n  dup2\n    /* \"#utility.yul\":769:806   */\n  tag_12\n  jump\t// in\ntag_28:\n    /* \"#utility.yul\":762:767   */\n  dup2\n    /* \"#utility.yul\":759:807   */\n  eq\n    /* \"#utility.yul\":749:825   */\n  tag_29\n  jumpi\n    /* \"#utility.yul\":821:822   */\n  0x00\n    /* \"#utility.yul\":818:819   */\n  dup1\n    /* \"#utility.yul\":811:823   */\n  revert\n    /* \"#utility.yul\":749:825   */\ntag_29:\n    /* \"#utility.yul\":683:831   */\n  pop\n  jump\t// out\n    /* \"#utility.yul\":837:1006   */\ntag_14:\n    /* \"#utility.yul\":907:912   */\n  0x00\n    /* \"#utility.yul\":938:944   */\n  dup2\n    /* \"#utility.yul\":932:945   */\n  mload\n    /* \"#utility.yul\":923:945   */\n  swap1\n  pop\n    /* \"#utility.yul\":954:1000   */\n  tag_31\n    /* \"#utility.yul\":994:999   */\n  dup2\n    /* \"#utility.yul\":954:1000   */\n  tag_13\n  jump\t// in\ntag_31:\n    /* \"#utility.yul\":837:1006   */\n  swap3\n  swap2\n  pop\n  pop\n  jump\t// out\n    /* \"#utility.yul\":1012:1089   */\ntag_15:\n    /* \"#utility.yul\":1049:1056   */\n  0x00\n    /* \"#utility.yul\":1078:1083   */\n  dup2\n    /* \"#utility.yul\":1067:1083   */\n  swap1\n  pop\n    /* \"#utility.yul\":1012:1089   */\n  swap2\n  swap1\n  pop\n  jump\t// out\n    /* \"#utility.yul\":1095:1217   */\ntag_16:\n    /* \"#utility.yul\":1168:1192   */\n  tag_34\n    /* \"#utility.yul\":1186:1191   */\n  dup2\n    /* \"#utility.yul\":1168:1192   */\n  tag_15\n  jump\t// in\ntag_34:\n    /* \"#utility.yul\":1161:1166   */\n  dup2\n    /* \"#utility.yul\":1158:1193   */\n  eq\n    /* \"#utility.yul\":1148:1211   */\n  tag_35\n  jumpi\n    /* \"#utility.yul\":1207:1208   */\n  0x00\n    /* \"#utility.yul\":1204:1205   */\n  dup1\n    /* \"#utility.yul\":1197:1209   */\n  revert\n    /* \"#utility.yul\":1148:1211   */\ntag_35:\n    /* \"#utility.yul\":1095:1217   */\n  pop\n  jump\t// out\n    /* \"#utility.yul\":1223:1366   */\ntag_17:\n    /* \"#utility.yul\":1280:1285   */\n  0x00\n    /* \"#utility.yul\":1311:1317   */\n  dup2\n    /* \"#utility.yul\":1305:1318   */\n  mload\n    /* \"#utility.yul\":1296:1318   */\n  swap1\n  pop\n    /* \"#utility.yul\":1327:1360   */\n  tag_37\n    /* \"#utility.yul\":1354:1359   */\n  dup2\n    /* \"#utility.yul\":1327:1360   */\n  tag_16\n  jump\t// in\ntag_37:\n    /* \"#utility.yul\":1223:1366   */\n  swap3\n  swap2\n  pop\n  pop\n  jump\t// out\n    /* \"#utility.yul\":1372:1905   */\ntag_3:\n    /* \"#utility.yul\":1464:1470   */\n  0x00\n    /* \"#utility.yul\":1472:1478   */\n  dup1\n    /* \"#utility.yul\":1521:1523   */\n  0x40\n    /* \"#utility.yul\":1509:1518   */\n  dup4\n    /* \"#utility.yul\":1500:1507   */\n  dup6\n    /* \"#utility.yul\":1496:1519   */\n  sub\n    /* \"#utility.yul\":1492:1524   */\n  slt\n    /* \"#utility.yul\":1489:1608   */\n  iszero\n  tag_39\n  jumpi\n    /* \"#utility.yul\":1527:1606   */\n  tag_40\n  tag_8\n  jump\t// in\ntag_40:\n    /* \"#utility.yul\":1489:1608   */\ntag_39:\n    /* \"#utility.yul\":1647:1648   */\n  0x00\n    /* \"#utility.yul\":1672:1749   */\n  tag_41\n    /* \"#utility.yul\":1741:1748   */\n  dup6\n    /* \"#utility.yul\":1732:1738   */\n  dup3\n    /* \"#utility.yul\":1721:1730   */\n  dup7\n    /* \"#utility.yul\":1717:1739   */\n  add\n    /* \"#utility.yul\":1672:1749   */\n  tag_14\n  jump\t// in\ntag_41:\n    /* \"#utility.yul\":1662:1749   */\n  swap3\n  pop\n    /* \"#utility.yul\":1618:1759   */\n  pop\n    /* \"#utility.yul\":1798:1800   */\n  0x20\n    /* \"#utility.yul\":1824:1888   */\n  tag_42\n    /* \"#utility.yul\":1880:1887   */\n  dup6\n    /* \"#utility.yul\":1871:1877   */\n  dup3\n    /* \"#utility.yul\":1860:1869   */\n  dup7\n    /* \"#utility.yul\":1856:1878   */\n  add\n    /* \"#utility.yul\":1824:1888   */\n  tag_17\n  jump\t// in\ntag_42:\n    /* \"#utility.yul\":1814:1888   */\n  swap2\n  pop\n    /* \"#utility.yul\":1769:1898   */\n  pop\n    /* \"#utility.yul\":1372:1905   */\n  swap3\n  pop\n  swap3\n  swap1\n  pop\n  jump\t// out\n    /* \"Day-03/code1.sol\":432:4554  contract SavingAccount{... */\ntag_6:\n  mload(0x80)\n  mload(0xa0)\n  codecopy(0x00, dataOffset(sub_0), dataSize(sub_0))\n  0x00\n  assignImmutable(\"0xeb09910a03c892999c305d4a86a46fa82693119d981eef22c8d043b31f9e8a31\")\n  0x00\n  assignImmutable(\"0xcc1431a2586c1e11fb75c87e5ee58e4204126a9fdde07075c91770f50276cbb0\")\n  return(0x00, dataSize(sub_0))\nstop\n\nsub_0: assembly {\n        /* \"Day-03/code1.sol\":432:4554  contract SavingAccount{... */\n      mstore(0x40, 0x80)\n      callvalue\n      dup1\n      iszero\n      tag_1\n      jumpi\n      0x00\n      dup1\n      revert\n    tag_1:\n      pop\n      jumpi(tag_2, lt(calldatasize, 0x04))\n      shr(0xe0, calldataload(0x00))\n      dup1\n      0x75c54224\n      gt\n      tag_18\n      jumpi\n      dup1\n      0xb6b55f25\n      gt\n      tag_19\n      jumpi\n      dup1\n      0xb6b55f25\n      eq\n      tag_14\n      jumpi\n      dup1\n      0xe8fe76d5\n      eq\n      tag_15\n      jumpi\n      dup1\n      0xf851a440\n      eq\n      tag_16\n      jumpi\n      dup1\n      0xf8ba4cff\n      eq\n      tag_17\n      jumpi\n      jump(tag_2)\n    tag_19:\n      dup1\n      0x75c54224\n      eq\n      tag_10\n      jumpi\n      dup1\n      0x7b3baab4\n      eq\n      tag_11\n      jumpi\n      dup1\n      0x853828b6\n      eq\n      tag_12\n      jumpi\n      dup1\n      0x8eff1a98\n      eq\n      tag_13\n      jumpi\n      jump(tag_2)\n    tag_18:\n      dup1\n      0x38d52e0f\n      gt\n      tag_20\n      jumpi\n      dup1\n      0x38d52e0f\n      eq\n      tag_6\n      jumpi\n      dup1\n      0x3a455bf3\n      eq\n      tag_7\n      jumpi\n      dup1\n      0x6f8b4530\n      eq\n      tag_8\n      jumpi\n      dup1\n      0x70a08231\n      eq\n      tag_9\n      jumpi\n      jump(tag_2)\n    tag_20:\n      dup1\n      0x01e1d114\n      eq\n      tag_3\n      jumpi\n      dup1\n      0x1da24f3e\n      eq\n      tag_4\n      jumpi\n      dup1\n      0x2986c0e5\n      eq\n      tag_5\n      jumpi\n    tag_2:\n      0x00\n      dup1\n      revert\n        /* \"Day-03/code1.sol\":2244:2393  function totalAssets() external view returns(uint256){... */\n    tag_3:\n      tag_21\n      tag_22\n      jump\t// in\n    tag_21:\n      mload(0x40)\n      tag_23\n      swap2\n      swap1\n      tag_24\n      jump\t// in\n    tag_23:\n      mload(0x40)\n      dup1\n      swap2\n      sub\n      swap1\n      return\n        /* \"Day-03/code1.sol\":718:769  mapping (address => uint256) public scaledBalanceOf */\n    tag_4:\n      tag_25\n      0x04\n      dup1\n      calldatasize\n      sub\n      dup2\n      add\n      swap1\n      tag_26\n      swap2\n      swap1\n      tag_27\n      jump\t// in\n    tag_26:\n      tag_28\n      jump\t// in\n    tag_25:\n      mload(0x40)\n      tag_29\n      swap2\n      swap1\n      tag_24\n      jump\t// in\n    tag_29:\n      mload(0x40)\n      dup1\n      swap2\n      sub\n      swap1\n      return\n        /* \"Day-03/code1.sol\":582:602  uint256 public index */\n    tag_5:\n      tag_30\n      tag_31\n      jump\t// in\n    tag_30:\n      mload(0x40)\n      tag_32\n      swap2\n      swap1\n      tag_24\n      jump\t// in\n    tag_32:\n      mload(0x40)\n      dup1\n      swap2\n      sub\n      swap1\n      return\n        /* \"Day-03/code1.sol\":507:536  IERC20 public immutable asset */\n    tag_6:\n      tag_33\n      tag_34\n      jump\t// in\n    tag_33:\n      mload(0x40)\n      tag_35\n      swap2\n      swap1\n      tag_36\n      jump\t// in\n    tag_35:\n      mload(0x40)\n      dup1\n      swap2\n      sub\n      swap1\n      return\n        /* \"Day-03/code1.sol\":1614:1888  function previewIndex() public view returns(uint256){... */\n    tag_7:\n      tag_37\n      tag_38\n      jump\t// in\n    tag_37:\n      mload(0x40)\n      tag_39\n      swap2\n      swap1\n      tag_24\n      jump\t// in\n    tag_39:\n      mload(0x40)\n      dup1\n      swap2\n      sub\n      swap1\n      return\n        /* \"Day-03/code1.sol\":679:711  uint256 public totalScaledSupply */\n    tag_8:\n      tag_40\n      tag_41\n      jump\t// in\n    tag_40:\n      mload(0x40)\n      tag_42\n      swap2\n      swap1\n      tag_24\n      jump\t// in\n    tag_42:\n      mload(0x40)\n      dup1\n      swap2\n      sub\n      swap1\n      return\n        /* \"Day-03/code1.sol\":1955:2177  function balanceOf(address user) external view returns(uint256){... */\n    tag_9:\n      tag_43\n      0x04\n      dup1\n      calldatasize\n      sub\n      dup2\n      add\n      swap1\n      tag_44\n      swap2\n      swap1\n      tag_27\n      jump\t// in\n    tag_44:\n      tag_45\n      jump\t// in\n    tag_43:\n      mload(0x40)\n      tag_46\n      swap2\n      swap1\n      tag_24\n      jump\t// in\n    tag_46:\n      mload(0x40)\n      dup1\n      swap2\n      sub\n      swap1\n      return\n        /* \"Day-03/code1.sol\":4015:4266  function fundReserve(uint256 amount) external onlyAdmin{... */\n    tag_10:\n      tag_47\n      0x04\n      dup1\n      calldatasize\n      sub\n      dup2\n      add\n      swap1\n      tag_48\n      swap2\n      swap1\n      tag_49\n      jump\t// in\n    tag_48:\n      tag_50\n      jump\t// in\n    tag_47:\n      stop\n        /* \"Day-03/code1.sol\":609:635  uint256 public lastAccrual */\n    tag_11:\n      tag_51\n      tag_52\n      jump\t// in\n    tag_51:\n      mload(0x40)\n      tag_53\n      swap2\n      swap1\n      tag_24\n      jump\t// in\n    tag_53:\n      mload(0x40)\n      dup1\n      swap2\n      sub\n      swap1\n      return\n        /* \"Day-03/code1.sol\":3432:3929  function withdrawAll() external {... */\n    tag_12:\n      tag_54\n      tag_55\n      jump\t// in\n    tag_54:\n      stop\n        /* \"Day-03/code1.sol\":642:670  uint256 public ratePerSecond */\n    tag_13:\n      tag_56\n      tag_57\n      jump\t// in\n    tag_56:\n      mload(0x40)\n      tag_58\n      swap2\n      swap1\n      tag_24\n      jump\t// in\n    tag_58:\n      mload(0x40)\n      dup1\n      swap2\n      sub\n      swap1\n      return\n        /* \"Day-03/code1.sol\":2874:3343  function deposit(uint256 amount) external{... */\n    tag_14:\n      tag_59\n      0x04\n      dup1\n      calldatasize\n      sub\n      dup2\n      add\n      swap1\n      tag_60\n      swap2\n      swap1\n      tag_49\n      jump\t// in\n    tag_60:\n      tag_61\n      jump\t// in\n    tag_59:\n      stop\n        /* \"Day-03/code1.sol\":4323:4551  function setRatePerSecond(uint256 newRatePerSecond) external onlyAdmin{... */\n    tag_15:\n      tag_62\n      0x04\n      dup1\n      calldatasize\n      sub\n      dup2\n      add\n      swap1\n      tag_63\n      swap2\n      swap1\n      tag_49\n      jump\t// in\n    tag_63:\n      tag_64\n      jump\t// in\n    tag_62:\n      stop\n        /* \"Day-03/code1.sol\":543:573  address public immutable admin */\n    tag_16:\n      tag_65\n      tag_66\n      jump\t// in\n    tag_65:\n      mload(0x40)\n      tag_67\n      swap2\n      swap1\n      tag_68\n      jump\t// in\n    tag_67:\n      mload(0x40)\n      dup1\n      swap2\n      sub\n      swap1\n      return\n        /* \"Day-03/code1.sol\":2482:2866  function accrue() public {... */\n    tag_17:\n      tag_69\n      tag_70\n      jump\t// in\n    tag_69:\n      stop\n        /* \"Day-03/code1.sol\":2244:2393  function totalAssets() external view returns(uint256){... */\n    tag_22:\n        /* \"Day-03/code1.sol\":2289:2296  uint256 */\n      0x00\n        /* \"Day-03/code1.sol\":2308:2319  uint256 idx */\n      dup1\n        /* \"Day-03/code1.sol\":2322:2336  previewIndex() */\n      tag_72\n        /* \"Day-03/code1.sol\":2322:2334  previewIndex */\n      tag_38\n        /* \"Day-03/code1.sol\":2322:2336  previewIndex() */\n      jump\t// in\n    tag_72:\n        /* \"Day-03/code1.sol\":2308:2336  uint256 idx = previewIndex() */\n      swap1\n      pop\n        /* \"Day-03/code1.sol\":492:496  1e27 */\n      0x033b2e3c9fd0803ce8000000\n        /* \"Day-03/code1.sol\":2375:2378  idx */\n      dup2\n        /* \"Day-03/code1.sol\":2355:2372  totalScaledSupply */\n      sload(0x03)\n        /* \"Day-03/code1.sol\":2355:2378  totalScaledSupply * idx */\n      tag_73\n      swap2\n      swap1\n      tag_74\n      jump\t// in\n    tag_73:\n        /* \"Day-03/code1.sol\":2354:2385  (totalScaledSupply * idx) / RAY */\n      tag_75\n      swap2\n      swap1\n      tag_76\n      jump\t// in\n    tag_75:\n        /* \"Day-03/code1.sol\":2347:2385  return (totalScaledSupply * idx) / RAY */\n      swap2\n      pop\n      pop\n        /* \"Day-03/code1.sol\":2244:2393  function totalAssets() external view returns(uint256){... */\n      swap1\n      jump\t// out\n        /* \"Day-03/code1.sol\":718:769  mapping (address => uint256) public scaledBalanceOf */\n    tag_28:\n      mstore(0x20, 0x04)\n      dup1\n      0x00\n      mstore\n      keccak256(0x00, 0x40)\n      0x00\n      swap2\n      pop\n      swap1\n      pop\n      sload\n      dup2\n      jump\t// out\n        /* \"Day-03/code1.sol\":582:602  uint256 public index */\n    tag_31:\n      sload(0x00)\n      dup2\n      jump\t// out\n        /* \"Day-03/code1.sol\":507:536  IERC20 public immutable asset */\n    tag_34:\n      immutable(\"0xcc1431a2586c1e11fb75c87e5ee58e4204126a9fdde07075c91770f50276cbb0\")\n      dup2\n      jump\t// out\n        /* \"Day-03/code1.sol\":1614:1888  function previewIndex() public view returns(uint256){... */\n    tag_38:\n        /* \"Day-03/code1.sol\":1658:1665  uint256 */\n      0x00\n        /* \"Day-03/code1.sol\":1677:1686  uint256 t */\n      dup1\n        /* \"Day-03/code1.sol\":1689:1704  block.timestamp */\n      timestamp\n        /* \"Day-03/code1.sol\":1677:1704  uint256 t = block.timestamp */\n      swap1\n      pop\n        /* \"Day-03/code1.sol\":1715:1725  uint256 dt */\n      0x00\n        /* \"Day-03/code1.sol\":1732:1743  lastAccrual */\n      sload(0x01)\n        /* \"Day-03/code1.sol\":1728:1729  t */\n      dup3\n        /* \"Day-03/code1.sol\":1728:1743  t - lastAccrual */\n      tag_78\n      swap2\n      swap1\n      tag_79\n      jump\t// in\n    tag_78:\n        /* \"Day-03/code1.sol\":1715:1743  uint256 dt = t - lastAccrual */\n      swap1\n      pop\n        /* \"Day-03/code1.sol\":1763:1764  0 */\n      0x00\n        /* \"Day-03/code1.sol\":1757:1759  dt */\n      dup2\n        /* \"Day-03/code1.sol\":1757:1764  dt == 0 */\n      sub\n        /* \"Day-03/code1.sol\":1754:1778  if(dt == 0) return index */\n      tag_80\n      jumpi\n        /* \"Day-03/code1.sol\":1773:1778  index */\n      sload(0x00)\n        /* \"Day-03/code1.sol\":1766:1778  return index */\n      swap3\n      pop\n      pop\n      pop\n      jump(tag_77)\n        /* \"Day-03/code1.sol\":1754:1778  if(dt == 0) return index */\n    tag_80:\n        /* \"Day-03/code1.sol\":1791:1805  uint256 linear */\n      0x00\n        /* \"Day-03/code1.sol\":492:496  1e27 */\n      0x033b2e3c9fd0803ce8000000\n        /* \"Day-03/code1.sol\":1825:1827  dt */\n      dup3\n        /* \"Day-03/code1.sol\":1809:1822  ratePerSecond */\n      sload(0x02)\n        /* \"Day-03/code1.sol\":1809:1827  ratePerSecond * dt */\n      tag_81\n      swap2\n      swap1\n      tag_74\n      jump\t// in\n    tag_81:\n        /* \"Day-03/code1.sol\":1808:1834  (ratePerSecond * dt) / RAY */\n      tag_82\n      swap2\n      swap1\n      tag_76\n      jump\t// in\n    tag_82:\n        /* \"Day-03/code1.sol\":1791:1834  uint256 linear = (ratePerSecond * dt) / RAY */\n      swap1\n      pop\n        /* \"Day-03/code1.sol\":1878:1879  1 */\n      0x01\n        /* \"Day-03/code1.sol\":1870:1876  linear */\n      dup2\n        /* \"Day-03/code1.sol\":1862:1867  index */\n      sload(0x00)\n        /* \"Day-03/code1.sol\":1862:1876  index * linear */\n      tag_83\n      swap2\n      swap1\n      tag_74\n      jump\t// in\n    tag_83:\n        /* \"Day-03/code1.sol\":1861:1879  (index * linear)/1 */\n      tag_84\n      swap2\n      swap1\n      tag_76\n      jump\t// in\n    tag_84:\n        /* \"Day-03/code1.sol\":1852:1857  index */\n      sload(0x00)\n        /* \"Day-03/code1.sol\":1852:1880  index + ((index * linear)/1) */\n      tag_85\n      swap2\n      swap1\n      tag_86\n      jump\t// in\n    tag_85:\n        /* \"Day-03/code1.sol\":1845:1880  return index + ((index * linear)/1) */\n      swap4\n      pop\n      pop\n      pop\n      pop\n        /* \"Day-03/code1.sol\":1614:1888  function previewIndex() public view returns(uint256){... */\n    tag_77:\n      swap1\n      jump\t// out\n        /* \"Day-03/code1.sol\":679:711  uint256 public totalScaledSupply */\n    tag_41:\n      sload(0x03)\n      dup2\n      jump\t// out\n        /* \"Day-03/code1.sol\":1955:2177  function balanceOf(address user) external view returns(uint256){... */\n    tag_45:\n        /* \"Day-03/code1.sol\":2010:2017  uint256 */\n      0x00\n        /* \"Day-03/code1.sol\":2029:2040  uint256 idx */\n      dup1\n        /* \"Day-03/code1.sol\":2043:2057  previewIndex() */\n      tag_88\n        /* \"Day-03/code1.sol\":2043:2055  previewIndex */\n      tag_38\n        /* \"Day-03/code1.sol\":2043:2057  previewIndex() */\n      jump\t// in\n    tag_88:\n        /* \"Day-03/code1.sol\":2029:2057  uint256 idx = previewIndex() */\n      swap1\n      pop\n        /* \"Day-03/code1.sol\":2068:2078  uint256 sb */\n      0x00\n        /* \"Day-03/code1.sol\":2081:2096  scaledBalanceOf */\n      0x04\n        /* \"Day-03/code1.sol\":2081:2102  scaledBalanceOf[user] */\n      0x00\n        /* \"Day-03/code1.sol\":2097:2101  user */\n      dup6\n        /* \"Day-03/code1.sol\":2081:2102  scaledBalanceOf[user] */\n      0xffffffffffffffffffffffffffffffffffffffff\n      and\n      0xffffffffffffffffffffffffffffffffffffffff\n      and\n      dup2\n      mstore\n      0x20\n      add\n      swap1\n      dup2\n      mstore\n      0x20\n      add\n      0x00\n      keccak256\n      sload\n        /* \"Day-03/code1.sol\":2068:2102  uint256 sb = scaledBalanceOf[user] */\n      swap1\n      pop\n        /* \"Day-03/code1.sol\":2122:2123  0 */\n      0x00\n        /* \"Day-03/code1.sol\":2116:2118  sb */\n      dup2\n        /* \"Day-03/code1.sol\":2116:2123  sb == 0 */\n      sub\n        /* \"Day-03/code1.sol\":2113:2133  if(sb == 0) return 0 */\n      tag_89\n      jumpi\n        /* \"Day-03/code1.sol\":2132:2133  0 */\n      0x00\n        /* \"Day-03/code1.sol\":2125:2133  return 0 */\n      swap3\n      pop\n      pop\n      pop\n      jump(tag_87)\n        /* \"Day-03/code1.sol\":2113:2133  if(sb == 0) return 0 */\n    tag_89:\n        /* \"Day-03/code1.sol\":492:496  1e27 */\n      0x033b2e3c9fd0803ce8000000\n        /* \"Day-03/code1.sol\":2159:2162  idx */\n      dup3\n        /* \"Day-03/code1.sol\":2154:2156  sb */\n      dup3\n        /* \"Day-03/code1.sol\":2154:2162  sb * idx */\n      tag_90\n      swap2\n      swap1\n      tag_74\n      jump\t// in\n    tag_90:\n        /* \"Day-03/code1.sol\":2153:2169  (sb * idx) / RAY */\n      tag_91\n      swap2\n      swap1\n      tag_76\n      jump\t// in\n    tag_91:\n        /* \"Day-03/code1.sol\":2146:2169  return (sb * idx) / RAY */\n      swap3\n      pop\n      pop\n      pop\n        /* \"Day-03/code1.sol\":1955:2177  function balanceOf(address user) external view returns(uint256){... */\n    tag_87:\n      swap2\n      swap1\n      pop\n      jump\t// out\n        /* \"Day-03/code1.sol\":4015:4266  function fundReserve(uint256 amount) external onlyAdmin{... */\n    tag_50:\n        /* \"Day-03/code1.sol\":1513:1518  admin */\n      immutable(\"0xeb09910a03c892999c305d4a86a46fa82693119d981eef22c8d043b31f9e8a31\")\n        /* \"Day-03/code1.sol\":1499:1518  msg.sender != admin */\n      0xffffffffffffffffffffffffffffffffffffffff\n      and\n        /* \"Day-03/code1.sol\":1499:1509  msg.sender */\n      caller\n        /* \"Day-03/code1.sol\":1499:1518  msg.sender != admin */\n      0xffffffffffffffffffffffffffffffffffffffff\n      and\n      eq\n        /* \"Day-03/code1.sol\":1496:1537  if(msg.sender != admin) revert NotAdmin() */\n      tag_93\n      jumpi\n        /* \"Day-03/code1.sol\":1527:1537  NotAdmin() */\n      mload(0x40)\n      0x7bfa4b9f00000000000000000000000000000000000000000000000000000000\n      dup2\n      mstore\n      0x04\n      add\n      mload(0x40)\n      dup1\n      swap2\n      sub\n      swap1\n      revert\n        /* \"Day-03/code1.sol\":1496:1537  if(msg.sender != admin) revert NotAdmin() */\n    tag_93:\n        /* \"Day-03/code1.sol\":4094:4095  0 */\n      0x00\n        /* \"Day-03/code1.sol\":4084:4090  amount */\n      dup2\n        /* \"Day-03/code1.sol\":4084:4095  amount == 0 */\n      sub\n        /* \"Day-03/code1.sol\":4081:4116  if(amount == 0) revert ZeroAmount() */\n      tag_95\n      jumpi\n        /* \"Day-03/code1.sol\":4104:4116  ZeroAmount() */\n      mload(0x40)\n      0x1f2a200500000000000000000000000000000000000000000000000000000000\n      dup2\n      mstore\n      0x04\n      add\n      mload(0x40)\n      dup1\n      swap2\n      sub\n      swap1\n      revert\n        /* \"Day-03/code1.sol\":4081:4116  if(amount == 0) revert ZeroAmount() */\n    tag_95:\n        /* \"Day-03/code1.sol\":4131:4136  asset */\n      immutable(\"0xcc1431a2586c1e11fb75c87e5ee58e4204126a9fdde07075c91770f50276cbb0\")\n        /* \"Day-03/code1.sol\":4131:4149  asset.transferFrom */\n      0xffffffffffffffffffffffffffffffffffffffff\n      and\n      0x23b872dd\n        /* \"Day-03/code1.sol\":4150:4160  msg.sender */\n      caller\n        /* \"Day-03/code1.sol\":4170:4174  this */\n      address\n        /* \"Day-03/code1.sol\":4177:4183  amount */\n      dup5\n        /* \"Day-03/code1.sol\":4131:4184  asset.transferFrom(msg.sender, address(this), amount) */\n      mload(0x40)\n      dup5\n      0xffffffff\n      and\n      0xe0\n      shl\n      dup2\n      mstore\n      0x04\n      add\n      tag_96\n      swap4\n      swap3\n      swap2\n      swap1\n      tag_97\n      jump\t// in\n    tag_96:\n      0x20\n      mload(0x40)\n      dup1\n      dup4\n      sub\n      dup2\n      0x00\n      dup8\n      gas\n      call\n      iszero\n      dup1\n      iszero\n      tag_99\n      jumpi\n      returndatasize\n      0x00\n      dup1\n      returndatacopy\n      revert(0x00, returndatasize)\n    tag_99:\n      pop\n      pop\n      pop\n      pop\n      mload(0x40)\n      returndatasize\n      not(0x1f)\n      0x1f\n      dup3\n      add\n      and\n      dup3\n      add\n      dup1\n      0x40\n      mstore\n      pop\n      dup2\n      add\n      swap1\n      tag_100\n      swap2\n      swap1\n      tag_101\n      jump\t// in\n    tag_100:\n        /* \"Day-03/code1.sol\":4127:4209  if(!asset.transferFrom(msg.sender, address(this), amount)) revert TransferFailed() */\n      tag_102\n      jumpi\n        /* \"Day-03/code1.sol\":4193:4209  TransferFailed() */\n      mload(0x40)\n      0x90b8ec1800000000000000000000000000000000000000000000000000000000\n      dup2\n      mstore\n      0x04\n      add\n      mload(0x40)\n      dup1\n      swap2\n      sub\n      swap1\n      revert\n        /* \"Day-03/code1.sol\":4127:4209  if(!asset.transferFrom(msg.sender, address(this), amount)) revert TransferFailed() */\n    tag_102:\n        /* \"Day-03/code1.sol\":4239:4249  msg.sender */\n      caller\n        /* \"Day-03/code1.sol\":4225:4258  ReserveFunded(msg.sender, amount) */\n      0xffffffffffffffffffffffffffffffffffffffff\n      and\n      0xb52b99b9e83551fcbd069b559cc3e823e2a1a3bad8ece46561ea77524394c850\n        /* \"Day-03/code1.sol\":4251:4257  amount */\n      dup3\n        /* \"Day-03/code1.sol\":4225:4258  ReserveFunded(msg.sender, amount) */\n      mload(0x40)\n      tag_103\n      swap2\n      swap1\n      tag_24\n      jump\t// in\n    tag_103:\n      mload(0x40)\n      dup1\n      swap2\n      sub\n      swap1\n      log2\n        /* \"Day-03/code1.sol\":4015:4266  function fundReserve(uint256 amount) external onlyAdmin{... */\n      pop\n      jump\t// out\n        /* \"Day-03/code1.sol\":609:635  uint256 public lastAccrual */\n    tag_52:\n      sload(0x01)\n      dup2\n      jump\t// out\n        /* \"Day-03/code1.sol\":3432:3929  function withdrawAll() external {... */\n    tag_55:\n        /* \"Day-03/code1.sol\":3475:3483  accrue() */\n      tag_105\n        /* \"Day-03/code1.sol\":3475:3481  accrue */\n      tag_70\n        /* \"Day-03/code1.sol\":3475:3483  accrue() */\n      jump\t// in\n    tag_105:\n        /* \"Day-03/code1.sol\":3494:3504  uint256 sb */\n      0x00\n        /* \"Day-03/code1.sol\":3507:3522  scaledBalanceOf */\n      0x04\n        /* \"Day-03/code1.sol\":3507:3534  scaledBalanceOf[msg.sender] */\n      0x00\n        /* \"Day-03/code1.sol\":3523:3533  msg.sender */\n      caller\n        /* \"Day-03/code1.sol\":3507:3534  scaledBalanceOf[msg.sender] */\n      0xffffffffffffffffffffffffffffffffffffffff\n      and\n      0xffffffffffffffffffffffffffffffffffffffff\n      and\n      dup2\n      mstore\n      0x20\n      add\n      swap1\n      dup2\n      mstore\n      0x20\n      add\n      0x00\n      keccak256\n      sload\n        /* \"Day-03/code1.sol\":3494:3534  uint256 sb = scaledBalanceOf[msg.sender] */\n      swap1\n      pop\n        /* \"Day-03/code1.sol\":3554:3555  0 */\n      0x00\n        /* \"Day-03/code1.sol\":3548:3550  sb */\n      dup2\n        /* \"Day-03/code1.sol\":3548:3555  sb == 0 */\n      sub\n        /* \"Day-03/code1.sol\":3545:3585  if(sb == 0) revert InsufficientBalance() */\n      tag_106\n      jumpi\n        /* \"Day-03/code1.sol\":3564:3585  InsufficientBalance() */\n      mload(0x40)\n      0xf4d678b800000000000000000000000000000000000000000000000000000000\n      dup2\n      mstore\n      0x04\n      add\n      mload(0x40)\n      dup1\n      swap2\n      sub\n      swap1\n      revert\n        /* \"Day-03/code1.sol\":3545:3585  if(sb == 0) revert InsufficientBalance() */\n    tag_106:\n        /* \"Day-03/code1.sol\":3598:3609  uint256 idx */\n      0x00\n        /* \"Day-03/code1.sol\":3612:3617  index */\n      dup1\n      sload\n        /* \"Day-03/code1.sol\":3598:3617  uint256 idx = index */\n      swap1\n      pop\n        /* \"Day-03/code1.sol\":3628:3642  uint256 amount */\n      0x00\n        /* \"Day-03/code1.sol\":492:496  1e27 */\n      0x033b2e3c9fd0803ce8000000\n        /* \"Day-03/code1.sol\":3651:3654  idx */\n      dup3\n        /* \"Day-03/code1.sol\":3646:3648  sb */\n      dup5\n        /* \"Day-03/code1.sol\":3646:3654  sb * idx */\n      tag_107\n      swap2\n      swap1\n      tag_74\n      jump\t// in\n    tag_107:\n        /* \"Day-03/code1.sol\":3645:3661  (sb * idx) / RAY */\n      tag_108\n      swap2\n      swap1\n      tag_76\n      jump\t// in\n    tag_108:\n        /* \"Day-03/code1.sol\":3628:3661  uint256 amount = (sb * idx) / RAY */\n      swap1\n      pop\n        /* \"Day-03/code1.sol\":3723:3724  0 */\n      0x00\n        /* \"Day-03/code1.sol\":3693:3708  scaledBalanceOf */\n      0x04\n        /* \"Day-03/code1.sol\":3693:3720  scaledBalanceOf[msg.sender] */\n      0x00\n        /* \"Day-03/code1.sol\":3709:3719  msg.sender */\n      caller\n        /* \"Day-03/code1.sol\":3693:3720  scaledBalanceOf[msg.sender] */\n      0xffffffffffffffffffffffffffffffffffffffff\n      and\n      0xffffffffffffffffffffffffffffffffffffffff\n      and\n      dup2\n      mstore\n      0x20\n      add\n      swap1\n      dup2\n      mstore\n      0x20\n      add\n      0x00\n      keccak256\n        /* \"Day-03/code1.sol\":3693:3724  scaledBalanceOf[msg.sender] = 0 */\n      dup2\n      swap1\n      sstore\n      pop\n        /* \"Day-03/code1.sol\":3767:3769  sb */\n      dup3\n        /* \"Day-03/code1.sol\":3746:3763  totalScaledSupply */\n      0x03\n      0x00\n        /* \"Day-03/code1.sol\":3746:3769  totalScaledSupply -= sb */\n      dup3\n      dup3\n      sload\n      sub\n      swap3\n      pop\n      pop\n      dup2\n      swap1\n      sstore\n      pop\n        /* \"Day-03/code1.sol\":3811:3816  asset */\n      immutable(\"0xcc1431a2586c1e11fb75c87e5ee58e4204126a9fdde07075c91770f50276cbb0\")\n        /* \"Day-03/code1.sol\":3811:3825  asset.transfer */\n      0xffffffffffffffffffffffffffffffffffffffff\n      and\n      0xa9059cbb\n        /* \"Day-03/code1.sol\":3826:3836  msg.sender */\n      caller\n        /* \"Day-03/code1.sol\":3838:3844  amount */\n      dup4\n        /* \"Day-03/code1.sol\":3811:3845  asset.transfer(msg.sender, amount) */\n      mload(0x40)\n      dup4\n      0xffffffff\n      and\n      0xe0\n      shl\n      dup2\n      mstore\n      0x04\n      add\n      tag_109\n      swap3\n      swap2\n      swap1\n      tag_110\n      jump\t// in\n    tag_109:\n      0x20\n      mload(0x40)\n      dup1\n      dup4\n      sub\n      dup2\n      0x00\n      dup8\n      gas\n      call\n      iszero\n      dup1\n      iszero\n      tag_112\n      jumpi\n      returndatasize\n      0x00\n      dup1\n      returndatacopy\n      revert(0x00, returndatasize)\n    tag_112:\n      pop\n      pop\n      pop\n      pop\n      mload(0x40)\n      returndatasize\n      not(0x1f)\n      0x1f\n      dup3\n      add\n      and\n      dup3\n      add\n      dup1\n      0x40\n      mstore\n      pop\n      dup2\n      add\n      swap1\n      tag_113\n      swap2\n      swap1\n      tag_101\n      jump\t// in\n    tag_113:\n        /* \"Day-03/code1.sol\":3807:3870  if(!asset.transfer(msg.sender, amount)) revert TransferFailed() */\n      tag_114\n      jumpi\n        /* \"Day-03/code1.sol\":3854:3870  TransferFailed() */\n      mload(0x40)\n      0x90b8ec1800000000000000000000000000000000000000000000000000000000\n      dup2\n      mstore\n      0x04\n      add\n      mload(0x40)\n      dup1\n      swap2\n      sub\n      swap1\n      revert\n        /* \"Day-03/code1.sol\":3807:3870  if(!asset.transfer(msg.sender, amount)) revert TransferFailed() */\n    tag_114:\n        /* \"Day-03/code1.sol\":3898:3908  msg.sender */\n      caller\n        /* \"Day-03/code1.sol\":3888:3921  Withdrawn(msg.sender, amount, sb) */\n      0xffffffffffffffffffffffffffffffffffffffff\n      and\n      0x92ccf450a286a957af52509bc1c9939d1a6a481783e142e41e2499f0bb66ebc6\n        /* \"Day-03/code1.sol\":3910:3916  amount */\n      dup3\n        /* \"Day-03/code1.sol\":3918:3920  sb */\n      dup6\n        /* \"Day-03/code1.sol\":3888:3921  Withdrawn(msg.sender, amount, sb) */\n      mload(0x40)\n      tag_115\n      swap3\n      swap2\n      swap1\n      tag_116\n      jump\t// in\n    tag_115:\n      mload(0x40)\n      dup1\n      swap2\n      sub\n      swap1\n      log2\n        /* \"Day-03/code1.sol\":3464:3929  {... */\n      pop\n      pop\n      pop\n        /* \"Day-03/code1.sol\":3432:3929  function withdrawAll() external {... */\n      jump\t// out\n        /* \"Day-03/code1.sol\":642:670  uint256 public ratePerSecond */\n    tag_57:\n      sload(0x02)\n      dup2\n      jump\t// out\n        /* \"Day-03/code1.sol\":2874:3343  function deposit(uint256 amount) external{... */\n    tag_61:\n        /* \"Day-03/code1.sol\":2939:2940  0 */\n      0x00\n        /* \"Day-03/code1.sol\":2929:2935  amount */\n      dup2\n        /* \"Day-03/code1.sol\":2929:2940  amount == 0 */\n      sub\n        /* \"Day-03/code1.sol\":2926:2961  if(amount == 0) revert ZeroAmount() */\n      tag_118\n      jumpi\n        /* \"Day-03/code1.sol\":2949:2961  ZeroAmount() */\n      mload(0x40)\n      0x1f2a200500000000000000000000000000000000000000000000000000000000\n      dup2\n      mstore\n      0x04\n      add\n      mload(0x40)\n      dup1\n      swap2\n      sub\n      swap1\n      revert\n        /* \"Day-03/code1.sol\":2926:2961  if(amount == 0) revert ZeroAmount() */\n    tag_118:\n        /* \"Day-03/code1.sol\":2972:2980  accrue() */\n      tag_119\n        /* \"Day-03/code1.sol\":2972:2978  accrue */\n      tag_70\n        /* \"Day-03/code1.sol\":2972:2980  accrue() */\n      jump\t// in\n    tag_119:\n        /* \"Day-03/code1.sol\":2997:3002  asset */\n      immutable(\"0xcc1431a2586c1e11fb75c87e5ee58e4204126a9fdde07075c91770f50276cbb0\")\n        /* \"Day-03/code1.sol\":2997:3015  asset.transferFrom */\n      0xffffffffffffffffffffffffffffffffffffffff\n      and\n      0x23b872dd\n        /* \"Day-03/code1.sol\":3016:3026  msg.sender */\n      caller\n        /* \"Day-03/code1.sol\":3036:3040  this */\n      address\n        /* \"Day-03/code1.sol\":3043:3049  amount */\n      dup5\n        /* \"Day-03/code1.sol\":2997:3050  asset.transferFrom(msg.sender, address(this), amount) */\n      mload(0x40)\n      dup5\n      0xffffffff\n      and\n      0xe0\n      shl\n      dup2\n      mstore\n      0x04\n      add\n      tag_120\n      swap4\n      swap3\n      swap2\n      swap1\n      tag_97\n      jump\t// in\n    tag_120:\n      0x20\n      mload(0x40)\n      dup1\n      dup4\n      sub\n      dup2\n      0x00\n      dup8\n      gas\n      call\n      iszero\n      dup1\n      iszero\n      tag_122\n      jumpi\n      returndatasize\n      0x00\n      dup1\n      returndatacopy\n      revert(0x00, returndatasize)\n    tag_122:\n      pop\n      pop\n      pop\n      pop\n      mload(0x40)\n      returndatasize\n      not(0x1f)\n      0x1f\n      dup3\n      add\n      and\n      dup3\n      add\n      dup1\n      0x40\n      mstore\n      pop\n      dup2\n      add\n      swap1\n      tag_123\n      swap2\n      swap1\n      tag_101\n      jump\t// in\n    tag_123:\n        /* \"Day-03/code1.sol\":2993:3075  if(!asset.transferFrom(msg.sender, address(this), amount)) revert TransferFailed() */\n      tag_124\n      jumpi\n        /* \"Day-03/code1.sol\":3059:3075  TransferFailed() */\n      mload(0x40)\n      0x90b8ec1800000000000000000000000000000000000000000000000000000000\n      dup2\n      mstore\n      0x04\n      add\n      mload(0x40)\n      dup1\n      swap2\n      sub\n      swap1\n      revert\n        /* \"Day-03/code1.sol\":2993:3075  if(!asset.transferFrom(msg.sender, address(this), amount)) revert TransferFailed() */\n    tag_124:\n        /* \"Day-03/code1.sol\":3088:3099  uint256 idx */\n      0x00\n        /* \"Day-03/code1.sol\":3102:3107  index */\n      dup1\n      sload\n        /* \"Day-03/code1.sol\":3088:3107  uint256 idx = index */\n      swap1\n      pop\n        /* \"Day-03/code1.sol\":3118:3132  uint256 scaled */\n      0x00\n        /* \"Day-03/code1.sol\":3152:3155  idx */\n      dup2\n        /* \"Day-03/code1.sol\":492:496  1e27 */\n      0x033b2e3c9fd0803ce8000000\n        /* \"Day-03/code1.sol\":3136:3142  amount */\n      dup5\n        /* \"Day-03/code1.sol\":3136:3148  amount * RAY */\n      tag_125\n      swap2\n      swap1\n      tag_74\n      jump\t// in\n    tag_125:\n        /* \"Day-03/code1.sol\":3135:3155  (amount * RAY) / idx */\n      tag_126\n      swap2\n      swap1\n      tag_76\n      jump\t// in\n    tag_126:\n        /* \"Day-03/code1.sol\":3118:3155  uint256 scaled = (amount * RAY) / idx */\n      swap1\n      pop\n        /* \"Day-03/code1.sol\":3223:3229  scaled */\n      dup1\n        /* \"Day-03/code1.sol\":3192:3207  scaledBalanceOf */\n      0x04\n        /* \"Day-03/code1.sol\":3192:3219  scaledBalanceOf[msg.sender] */\n      0x00\n        /* \"Day-03/code1.sol\":3208:3218  msg.sender */\n      caller\n        /* \"Day-03/code1.sol\":3192:3219  scaledBalanceOf[msg.sender] */\n      0xffffffffffffffffffffffffffffffffffffffff\n      and\n      0xffffffffffffffffffffffffffffffffffffffff\n      and\n      dup2\n      mstore\n      0x20\n      add\n      swap1\n      dup2\n      mstore\n      0x20\n      add\n      0x00\n      keccak256\n      0x00\n        /* \"Day-03/code1.sol\":3192:3229  scaledBalanceOf[msg.sender] += scaled */\n      dup3\n      dup3\n      sload\n      add\n      swap3\n      pop\n      pop\n      dup2\n      swap1\n      sstore\n      pop\n        /* \"Day-03/code1.sol\":3265:3271  scaled */\n      dup1\n        /* \"Day-03/code1.sol\":3244:3261  totalScaledSupply */\n      0x03\n      0x00\n        /* \"Day-03/code1.sol\":3244:3271  totalScaledSupply += scaled */\n      dup3\n      dup3\n      sload\n      add\n      swap3\n      pop\n      pop\n      dup2\n      swap1\n      sstore\n      pop\n        /* \"Day-03/code1.sol\":3308:3318  msg.sender */\n      caller\n        /* \"Day-03/code1.sol\":3298:3335  Deposited(msg.sender, amount, scaled) */\n      0xffffffffffffffffffffffffffffffffffffffff\n      and\n      0x73a19dd210f1a7f902193214c0ee91dd35ee5b4d920cba8d519eca65a7b488ca\n        /* \"Day-03/code1.sol\":3320:3326  amount */\n      dup5\n        /* \"Day-03/code1.sol\":3328:3334  scaled */\n      dup4\n        /* \"Day-03/code1.sol\":3298:3335  Deposited(msg.sender, amount, scaled) */\n      mload(0x40)\n      tag_127\n      swap3\n      swap2\n      swap1\n      tag_116\n      jump\t// in\n    tag_127:\n      mload(0x40)\n      dup1\n      swap2\n      sub\n      swap1\n      log2\n        /* \"Day-03/code1.sol\":2915:3343  {... */\n      pop\n      pop\n        /* \"Day-03/code1.sol\":2874:3343  function deposit(uint256 amount) external{... */\n      pop\n      jump\t// out\n        /* \"Day-03/code1.sol\":4323:4551  function setRatePerSecond(uint256 newRatePerSecond) external onlyAdmin{... */\n    tag_64:\n        /* \"Day-03/code1.sol\":1513:1518  admin */\n      immutable(\"0xeb09910a03c892999c305d4a86a46fa82693119d981eef22c8d043b31f9e8a31\")\n        /* \"Day-03/code1.sol\":1499:1518  msg.sender != admin */\n      0xffffffffffffffffffffffffffffffffffffffff\n      and\n        /* \"Day-03/code1.sol\":1499:1509  msg.sender */\n      caller\n        /* \"Day-03/code1.sol\":1499:1518  msg.sender != admin */\n      0xffffffffffffffffffffffffffffffffffffffff\n      and\n      eq\n        /* \"Day-03/code1.sol\":1496:1537  if(msg.sender != admin) revert NotAdmin() */\n      tag_129\n      jumpi\n        /* \"Day-03/code1.sol\":1527:1537  NotAdmin() */\n      mload(0x40)\n      0x7bfa4b9f00000000000000000000000000000000000000000000000000000000\n      dup2\n      mstore\n      0x04\n      add\n      mload(0x40)\n      dup1\n      swap2\n      sub\n      swap1\n      revert\n        /* \"Day-03/code1.sol\":1496:1537  if(msg.sender != admin) revert NotAdmin() */\n    tag_129:\n        /* \"Day-03/code1.sol\":4404:4412  accrue() */\n      tag_131\n        /* \"Day-03/code1.sol\":4404:4410  accrue */\n      tag_70\n        /* \"Day-03/code1.sol\":4404:4412  accrue() */\n      jump\t// in\n    tag_131:\n        /* \"Day-03/code1.sol\":4423:4434  uint256 old */\n      0x00\n        /* \"Day-03/code1.sol\":4437:4450  ratePerSecond */\n      sload(0x02)\n        /* \"Day-03/code1.sol\":4423:4450  uint256 old = ratePerSecond */\n      swap1\n      pop\n        /* \"Day-03/code1.sol\":4477:4493  newRatePerSecond */\n      dup2\n        /* \"Day-03/code1.sol\":4461:4474  ratePerSecond */\n      0x02\n        /* \"Day-03/code1.sol\":4461:4493  ratePerSecond = newRatePerSecond */\n      dup2\n      swap1\n      sstore\n      pop\n        /* \"Day-03/code1.sol\":4509:4543  RateUpdated(old, newRatePerSecond) */\n      0xb38780ddde1f073d91c150de2696f3f7085883648ba21cc5ef01029cb21d1916\n        /* \"Day-03/code1.sol\":4521:4524  old */\n      dup2\n        /* \"Day-03/code1.sol\":4526:4542  newRatePerSecond */\n      dup4\n        /* \"Day-03/code1.sol\":4509:4543  RateUpdated(old, newRatePerSecond) */\n      mload(0x40)\n      tag_132\n      swap3\n      swap2\n      swap1\n      tag_116\n      jump\t// in\n    tag_132:\n      mload(0x40)\n      dup1\n      swap2\n      sub\n      swap1\n      log1\n        /* \"Day-03/code1.sol\":4393:4551  {... */\n      pop\n        /* \"Day-03/code1.sol\":4323:4551  function setRatePerSecond(uint256 newRatePerSecond) external onlyAdmin{... */\n      pop\n      jump\t// out\n        /* \"Day-03/code1.sol\":543:573  address public immutable admin */\n    tag_66:\n      immutable(\"0xeb09910a03c892999c305d4a86a46fa82693119d981eef22c8d043b31f9e8a31\")\n      dup2\n      jump\t// out\n        /* \"Day-03/code1.sol\":2482:2866  function accrue() public {... */\n    tag_70:\n        /* \"Day-03/code1.sol\":2518:2527  uint256 t */\n      0x00\n        /* \"Day-03/code1.sol\":2530:2545  block.timestamp */\n      timestamp\n        /* \"Day-03/code1.sol\":2518:2545  uint256 t = block.timestamp */\n      swap1\n      pop\n        /* \"Day-03/code1.sol\":2556:2566  uint256 dt */\n      0x00\n        /* \"Day-03/code1.sol\":2573:2584  lastAccrual */\n      sload(0x01)\n        /* \"Day-03/code1.sol\":2569:2570  t */\n      dup3\n        /* \"Day-03/code1.sol\":2569:2584  t - lastAccrual */\n      tag_134\n      swap2\n      swap1\n      tag_79\n      jump\t// in\n    tag_134:\n        /* \"Day-03/code1.sol\":2556:2584  uint256 dt = t - lastAccrual */\n      swap1\n      pop\n        /* \"Day-03/code1.sol\":2604:2605  0 */\n      0x00\n        /* \"Day-03/code1.sol\":2598:2600  dt */\n      dup2\n        /* \"Day-03/code1.sol\":2598:2605  dt == 0 */\n      sub\n        /* \"Day-03/code1.sol\":2595:2614  if(dt == 0) return; */\n      tag_135\n      jumpi\n        /* \"Day-03/code1.sol\":2607:2614  return; */\n      pop\n      pop\n      jump(tag_133)\n        /* \"Day-03/code1.sol\":2595:2614  if(dt == 0) return; */\n    tag_135:\n        /* \"Day-03/code1.sol\":2626:2642  uint256 oldIndex */\n      0x00\n        /* \"Day-03/code1.sol\":2645:2650  index */\n      dup1\n      sload\n        /* \"Day-03/code1.sol\":2626:2650  uint256 oldIndex = index */\n      swap1\n      pop\n        /* \"Day-03/code1.sol\":2661:2675  uint256 linear */\n      0x00\n        /* \"Day-03/code1.sol\":492:496  1e27 */\n      0x033b2e3c9fd0803ce8000000\n        /* \"Day-03/code1.sol\":2695:2697  dt */\n      dup4\n        /* \"Day-03/code1.sol\":2679:2692  ratePerSecond */\n      sload(0x02)\n        /* \"Day-03/code1.sol\":2679:2697  ratePerSecond * dt */\n      tag_136\n      swap2\n      swap1\n      tag_74\n      jump\t// in\n    tag_136:\n        /* \"Day-03/code1.sol\":2678:2704  (ratePerSecond * dt) / RAY */\n      tag_137\n      swap2\n      swap1\n      tag_76\n      jump\t// in\n    tag_137:\n        /* \"Day-03/code1.sol\":2661:2704  uint256 linear = (ratePerSecond * dt) / RAY */\n      swap1\n      pop\n        /* \"Day-03/code1.sol\":2715:2728  uint256 delta */\n      0x00\n        /* \"Day-03/code1.sol\":2743:2749  linear */\n      dup2\n        /* \"Day-03/code1.sol\":2732:2740  oldIndex */\n      dup4\n        /* \"Day-03/code1.sol\":2732:2749  oldIndex * linear */\n      tag_138\n      swap2\n      swap1\n      tag_74\n      jump\t// in\n    tag_138:\n        /* \"Day-03/code1.sol\":2715:2750  uint256 delta = (oldIndex * linear) */\n      swap1\n      pop\n        /* \"Day-03/code1.sol\":2780:2785  delta */\n      dup1\n        /* \"Day-03/code1.sol\":2769:2777  oldIndex */\n      dup4\n        /* \"Day-03/code1.sol\":2769:2785  oldIndex + delta */\n      tag_139\n      swap2\n      swap1\n      tag_86\n      jump\t// in\n    tag_139:\n        /* \"Day-03/code1.sol\":2761:2766  index */\n      0x00\n        /* \"Day-03/code1.sol\":2761:2785  index = oldIndex + delta */\n      dup2\n      swap1\n      sstore\n      pop\n        /* \"Day-03/code1.sol\":2812:2813  t */\n      dup5\n        /* \"Day-03/code1.sol\":2798:2809  lastAccrual */\n      0x01\n        /* \"Day-03/code1.sol\":2798:2813  lastAccrual = t */\n      dup2\n      swap1\n      sstore\n      pop\n        /* \"Day-03/code1.sol\":2829:2858  Accrued(index, ratePerSecond) */\n      0xe0c50b11a6cc6d75470f28bd76d20c8d223c626324486a273eefadf6c6e973a7\n        /* \"Day-03/code1.sol\":2837:2842  index */\n      sload(0x00)\n        /* \"Day-03/code1.sol\":2844:2857  ratePerSecond */\n      sload(0x02)\n        /* \"Day-03/code1.sol\":2829:2858  Accrued(index, ratePerSecond) */\n      mload(0x40)\n      tag_140\n      swap3\n      swap2\n      swap1\n      tag_116\n      jump\t// in\n    tag_140:\n      mload(0x40)\n      dup1\n      swap2\n      sub\n      swap1\n      log1\n        /* \"Day-03/code1.sol\":2507:2866  {... */\n      pop\n      pop\n      pop\n      pop\n      pop\n        /* \"Day-03/code1.sol\":2482:2866  function accrue() public {... */\n    tag_133:\n      jump\t// out\n        /* \"#utility.yul\":7:84   */\n    tag_141:\n        /* \"#utility.yul\":44:51   */\n      0x00\n        /* \"#utility.yul\":73:78   */\n      dup2\n        /* \"#utility.yul\":62:78   */\n      swap1\n      pop\n        /* \"#utility.yul\":7:84   */\n      swap2\n      swap1\n      pop\n      jump\t// out\n        /* \"#utility.yul\":90:208   */\n    tag_142:\n        /* \"#utility.yul\":177:201   */\n      tag_166\n        /* \"#utility.yul\":195:200   */\n      dup2\n        /* \"#utility.yul\":177:201   */\n      tag_141\n      jump\t// in\n    tag_166:\n        /* \"#utility.yul\":172:175   */\n      dup3\n        /* \"#utility.yul\":165:202   */\n      mstore\n        /* \"#utility.yul\":90:208   */\n      pop\n      pop\n      jump\t// out\n        /* \"#utility.yul\":214:436   */\n    tag_24:\n        /* \"#utility.yul\":307:311   */\n      0x00\n        /* \"#utility.yul\":345:347   */\n      0x20\n        /* \"#utility.yul\":334:343   */\n      dup3\n        /* \"#utility.yul\":330:348   */\n      add\n        /* \"#utility.yul\":322:348   */\n      swap1\n      pop\n        /* \"#utility.yul\":358:429   */\n      tag_168\n        /* \"#utility.yul\":426:427   */\n      0x00\n        /* \"#utility.yul\":415:424   */\n      dup4\n        /* \"#utility.yul\":411:428   */\n      add\n        /* \"#utility.yul\":402:408   */\n      dup5\n        /* \"#utility.yul\":358:429   */\n      tag_142\n      jump\t// in\n    tag_168:\n        /* \"#utility.yul\":214:436   */\n      swap3\n      swap2\n      pop\n      pop\n      jump\t// out\n        /* \"#utility.yul\":523:640   */\n    tag_144:\n        /* \"#utility.yul\":632:633   */\n      0x00\n        /* \"#utility.yul\":629:630   */\n      dup1\n        /* \"#utility.yul\":622:634   */\n      revert\n        /* \"#utility.yul\":769:895   */\n    tag_146:\n        /* \"#utility.yul\":806:813   */\n      0x00\n        /* \"#utility.yul\":846:888   */\n      0xffffffffffffffffffffffffffffffffffffffff\n        /* \"#utility.yul\":839:844   */\n      dup3\n        /* \"#utility.yul\":835:889   */\n      and\n        /* \"#utility.yul\":824:889   */\n      swap1\n      pop\n        /* \"#utility.yul\":769:895   */\n      swap2\n      swap1\n      pop\n      jump\t// out\n        /* \"#utility.yul\":901:997   */\n    tag_147:\n        /* \"#utility.yul\":938:945   */\n      0x00\n        /* \"#utility.yul\":967:991   */\n      tag_174\n        /* \"#utility.yul\":985:990   */\n      dup3\n        /* \"#utility.yul\":967:991   */\n      tag_146\n      jump\t// in\n    tag_174:\n        /* \"#utility.yul\":956:991   */\n      swap1\n      pop\n        /* \"#utility.yul\":901:997   */\n      swap2\n      swap1\n      pop\n      jump\t// out\n        /* \"#utility.yul\":1003:1125   */\n    tag_148:\n        /* \"#utility.yul\":1076:1100   */\n      tag_176\n        /* \"#utility.yul\":1094:1099   */\n      dup2\n        /* \"#utility.yul\":1076:1100   */\n      tag_147\n      jump\t// in\n    tag_176:\n        /* \"#utility.yul\":1069:1074   */\n      dup2\n        /* \"#utility.yul\":1066:1101   */\n      eq\n        /* \"#utility.yul\":1056:1119   */\n      tag_177\n      jumpi\n        /* \"#utility.yul\":1115:1116   */\n      0x00\n        /* \"#utility.yul\":1112:1113   */\n      dup1\n        /* \"#utility.yul\":1105:1117   */\n      revert\n        /* \"#utility.yul\":1056:1119   */\n    tag_177:\n        /* \"#utility.yul\":1003:1125   */\n      pop\n      jump\t// out\n        /* \"#utility.yul\":1131:1270   */\n    tag_149:\n        /* \"#utility.yul\":1177:1182   */\n      0x00\n        /* \"#utility.yul\":1215:1221   */\n      dup2\n        /* \"#utility.yul\":1202:1222   */\n      calldataload\n        /* \"#utility.yul\":1193:1222   */\n      swap1\n      pop\n        /* \"#utility.yul\":1231:1264   */\n      tag_179\n        /* \"#utility.yul\":1258:1263   */\n      dup2\n        /* \"#utility.yul\":1231:1264   */\n      tag_148\n      jump\t// in\n    tag_179:\n        /* \"#utility.yul\":1131:1270   */\n      swap3\n      swap2\n      pop\n      pop\n      jump\t// out\n        /* \"#utility.yul\":1276:1605   */\n    tag_27:\n        /* \"#utility.yul\":1335:1341   */\n      0x00\n        /* \"#utility.yul\":1384:1386   */\n      0x20\n        /* \"#utility.yul\":1372:1381   */\n      dup3\n        /* \"#utility.yul\":1363:1370   */\n      dup5\n        /* \"#utility.yul\":1359:1382   */\n      sub\n        /* \"#utility.yul\":1355:1387   */\n      slt\n        /* \"#utility.yul\":1352:1471   */\n      iszero\n      tag_181\n      jumpi\n        /* \"#utility.yul\":1390:1469   */\n      tag_182\n      tag_144\n      jump\t// in\n    tag_182:\n        /* \"#utility.yul\":1352:1471   */\n    tag_181:\n        /* \"#utility.yul\":1510:1511   */\n      0x00\n        /* \"#utility.yul\":1535:1588   */\n      tag_183\n        /* \"#utility.yul\":1580:1587   */\n      dup5\n        /* \"#utility.yul\":1571:1577   */\n      dup3\n        /* \"#utility.yul\":1560:1569   */\n      dup6\n        /* \"#utility.yul\":1556:1578   */\n      add\n        /* \"#utility.yul\":1535:1588   */\n      tag_149\n      jump\t// in\n    tag_183:\n        /* \"#utility.yul\":1525:1588   */\n      swap2\n      pop\n        /* \"#utility.yul\":1481:1598   */\n      pop\n        /* \"#utility.yul\":1276:1605   */\n      swap3\n      swap2\n      pop\n      pop\n      jump\t// out\n        /* \"#utility.yul\":1611:1671   */\n    tag_150:\n        /* \"#utility.yul\":1639:1642   */\n      0x00\n        /* \"#utility.yul\":1660:1665   */\n      dup2\n        /* \"#utility.yul\":1653:1665   */\n      swap1\n      pop\n        /* \"#utility.yul\":1611:1671   */\n      swap2\n      swap1\n      pop\n      jump\t// out\n        /* \"#utility.yul\":1677:1819   */\n    tag_151:\n        /* \"#utility.yul\":1727:1736   */\n      0x00\n        /* \"#utility.yul\":1760:1813   */\n      tag_186\n        /* \"#utility.yul\":1778:1812   */\n      tag_187\n        /* \"#utility.yul\":1787:1811   */\n      tag_188\n        /* \"#utility.yul\":1805:1810   */\n      dup5\n        /* \"#utility.yul\":1787:1811   */\n      tag_146\n      jump\t// in\n    tag_188:\n        /* \"#utility.yul\":1778:1812   */\n      tag_150\n      jump\t// in\n    tag_187:\n        /* \"#utility.yul\":1760:1813   */\n      tag_146\n      jump\t// in\n    tag_186:\n        /* \"#utility.yul\":1747:1813   */\n      swap1\n      pop\n        /* \"#utility.yul\":1677:1819   */\n      swap2\n      swap1\n      pop\n      jump\t// out\n        /* \"#utility.yul\":1825:1951   */\n    tag_152:\n        /* \"#utility.yul\":1875:1884   */\n      0x00\n        /* \"#utility.yul\":1908:1945   */\n      tag_190\n        /* \"#utility.yul\":1939:1944   */\n      dup3\n        /* \"#utility.yul\":1908:1945   */\n      tag_151\n      jump\t// in\n    tag_190:\n        /* \"#utility.yul\":1895:1945   */\n      swap1\n      pop\n        /* \"#utility.yul\":1825:1951   */\n      swap2\n      swap1\n      pop\n      jump\t// out\n        /* \"#utility.yul\":1957:2096   */\n    tag_153:\n        /* \"#utility.yul\":2020:2029   */\n      0x00\n        /* \"#utility.yul\":2053:2090   */\n      tag_192\n        /* \"#utility.yul\":2084:2089   */\n      dup3\n        /* \"#utility.yul\":2053:2090   */\n      tag_152\n      jump\t// in\n    tag_192:\n        /* \"#utility.yul\":2040:2090   */\n      swap1\n      pop\n        /* \"#utility.yul\":1957:2096   */\n      swap2\n      swap1\n      pop\n      jump\t// out\n        /* \"#utility.yul\":2102:2259   */\n    tag_154:\n        /* \"#utility.yul\":2202:2252   */\n      tag_194\n        /* \"#utility.yul\":2246:2251   */\n      dup2\n        /* \"#utility.yul\":2202:2252   */\n      tag_153\n      jump\t// in\n    tag_194:\n        /* \"#utility.yul\":2197:2200   */\n      dup3\n        /* \"#utility.yul\":2190:2253   */\n      mstore\n        /* \"#utility.yul\":2102:2259   */\n      pop\n      pop\n      jump\t// out\n        /* \"#utility.yul\":2265:2513   */\n    tag_36:\n        /* \"#utility.yul\":2371:2375   */\n      0x00\n        /* \"#utility.yul\":2409:2411   */\n      0x20\n        /* \"#utility.yul\":2398:2407   */\n      dup3\n        /* \"#utility.yul\":2394:2412   */\n      add\n        /* \"#utility.yul\":2386:2412   */\n      swap1\n      pop\n        /* \"#utility.yul\":2422:2506   */\n      tag_196\n        /* \"#utility.yul\":2503:2504   */\n      0x00\n        /* \"#utility.yul\":2492:2501   */\n      dup4\n        /* \"#utility.yul\":2488:2505   */\n      add\n        /* \"#utility.yul\":2479:2485   */\n      dup5\n        /* \"#utility.yul\":2422:2506   */\n      tag_154\n      jump\t// in\n    tag_196:\n        /* \"#utility.yul\":2265:2513   */\n      swap3\n      swap2\n      pop\n      pop\n      jump\t// out\n        /* \"#utility.yul\":2519:2641   */\n    tag_155:\n        /* \"#utility.yul\":2592:2616   */\n      tag_198\n        /* \"#utility.yul\":2610:2615   */\n      dup2\n        /* \"#utility.yul\":2592:2616   */\n      tag_141\n      jump\t// in\n    tag_198:\n        /* \"#utility.yul\":2585:2590   */\n      dup2\n        /* \"#utility.yul\":2582:2617   */\n      eq\n        /* \"#utility.yul\":2572:2635   */\n      tag_199\n      jumpi\n        /* \"#utility.yul\":2631:2632   */\n      0x00\n        /* \"#utility.yul\":2628:2629   */\n      dup1\n        /* \"#utility.yul\":2621:2633   */\n      revert\n        /* \"#utility.yul\":2572:2635   */\n    tag_199:\n        /* \"#utility.yul\":2519:2641   */\n      pop\n      jump\t// out\n        /* \"#utility.yul\":2647:2786   */\n    tag_156:\n        /* \"#utility.yul\":2693:2698   */\n      0x00\n        /* \"#utility.yul\":2731:2737   */\n      dup2\n        /* \"#utility.yul\":2718:2738   */\n      calldataload\n        /* \"#utility.yul\":2709:2738   */\n      swap1\n      pop\n        /* \"#utility.yul\":2747:2780   */\n      tag_201\n        /* \"#utility.yul\":2774:2779   */\n      dup2\n        /* \"#utility.yul\":2747:2780   */\n      tag_155\n      jump\t// in\n    tag_201:\n        /* \"#utility.yul\":2647:2786   */\n      swap3\n      swap2\n      pop\n      pop\n      jump\t// out\n        /* \"#utility.yul\":2792:3121   */\n    tag_49:\n        /* \"#utility.yul\":2851:2857   */\n      0x00\n        /* \"#utility.yul\":2900:2902   */\n      0x20\n        /* \"#utility.yul\":2888:2897   */\n      dup3\n        /* \"#utility.yul\":2879:2886   */\n      dup5\n        /* \"#utility.yul\":2875:2898   */\n      sub\n        /* \"#utility.yul\":2871:2903   */\n      slt\n        /* \"#utility.yul\":2868:2987   */\n      iszero\n      tag_203\n      jumpi\n        /* \"#utility.yul\":2906:2985   */\n      tag_204\n      tag_144\n      jump\t// in\n    tag_204:\n        /* \"#utility.yul\":2868:2987   */\n    tag_203:\n        /* \"#utility.yul\":3026:3027   */\n      0x00\n        /* \"#utility.yul\":3051:3104   */\n      tag_205\n        /* \"#utility.yul\":3096:3103   */\n      dup5\n        /* \"#utility.yul\":3087:3093   */\n      dup3\n        /* \"#utility.yul\":3076:3085   */\n      dup6\n        /* \"#utility.yul\":3072:3094   */\n      add\n        /* \"#utility.yul\":3051:3104   */\n      tag_156\n      jump\t// in\n    tag_205:\n        /* \"#utility.yul\":3041:3104   */\n      swap2\n      pop\n        /* \"#utility.yul\":2997:3114   */\n      pop\n        /* \"#utility.yul\":2792:3121   */\n      swap3\n      swap2\n      pop\n      pop\n      jump\t// out\n        /* \"#utility.yul\":3127:3245   */\n    tag_157:\n        /* \"#utility.yul\":3214:3238   */\n      tag_207\n        /* \"#utility.yul\":3232:3237   */\n      dup2\n        /* \"#utility.yul\":3214:3238   */\n      tag_147\n      jump\t// in\n    tag_207:\n        /* \"#utility.yul\":3209:3212   */\n      dup3\n        /* \"#utility.yul\":3202:3239   */\n      mstore\n        /* \"#utility.yul\":3127:3245   */\n      pop\n      pop\n      jump\t// out\n        /* \"#utility.yul\":3251:3473   */\n    tag_68:\n        /* \"#utility.yul\":3344:3348   */\n      0x00\n        /* \"#utility.yul\":3382:3384   */\n      0x20\n        /* \"#utility.yul\":3371:3380   */\n      dup3\n        /* \"#utility.yul\":3367:3385   */\n      add\n        /* \"#utility.yul\":3359:3385   */\n      swap1\n      pop\n        /* \"#utility.yul\":3395:3466   */\n      tag_209\n        /* \"#utility.yul\":3463:3464   */\n      0x00\n        /* \"#utility.yul\":3452:3461   */\n      dup4\n        /* \"#utility.yul\":3448:3465   */\n      add\n        /* \"#utility.yul\":3439:3445   */\n      dup5\n        /* \"#utility.yul\":3395:3466   */\n      tag_157\n      jump\t// in\n    tag_209:\n        /* \"#utility.yul\":3251:3473   */\n      swap3\n      swap2\n      pop\n      pop\n      jump\t// out\n        /* \"#utility.yul\":3479:3659   */\n    tag_158:\n        /* \"#utility.yul\":3527:3604   */\n      0x4e487b7100000000000000000000000000000000000000000000000000000000\n        /* \"#utility.yul\":3524:3525   */\n      0x00\n        /* \"#utility.yul\":3517:3605   */\n      mstore\n        /* \"#utility.yul\":3624:3628   */\n      0x11\n        /* \"#utility.yul\":3621:3622   */\n      0x04\n        /* \"#utility.yul\":3614:3629   */\n      mstore\n        /* \"#utility.yul\":3648:3652   */\n      0x24\n        /* \"#utility.yul\":3645:3646   */\n      0x00\n        /* \"#utility.yul\":3638:3653   */\n      revert\n        /* \"#utility.yul\":3665:4075   */\n    tag_74:\n        /* \"#utility.yul\":3705:3712   */\n      0x00\n        /* \"#utility.yul\":3728:3748   */\n      tag_212\n        /* \"#utility.yul\":3746:3747   */\n      dup3\n        /* \"#utility.yul\":3728:3748   */\n      tag_141\n      jump\t// in\n    tag_212:\n        /* \"#utility.yul\":3723:3748   */\n      swap2\n      pop\n        /* \"#utility.yul\":3762:3782   */\n      tag_213\n        /* \"#utility.yul\":3780:3781   */\n      dup4\n        /* \"#utility.yul\":3762:3782   */\n      tag_141\n      jump\t// in\n    tag_213:\n        /* \"#utility.yul\":3757:3782   */\n      swap3\n      pop\n        /* \"#utility.yul\":3817:3818   */\n      dup3\n        /* \"#utility.yul\":3814:3815   */\n      dup3\n        /* \"#utility.yul\":3810:3819   */\n      mul\n        /* \"#utility.yul\":3839:3869   */\n      tag_214\n        /* \"#utility.yul\":3857:3868   */\n      dup2\n        /* \"#utility.yul\":3839:3869   */\n      tag_141\n      jump\t// in\n    tag_214:\n        /* \"#utility.yul\":3828:3869   */\n      swap2\n      pop\n        /* \"#utility.yul\":4018:4019   */\n      dup3\n        /* \"#utility.yul\":4009:4016   */\n      dup3\n        /* \"#utility.yul\":4005:4020   */\n      div\n        /* \"#utility.yul\":4002:4003   */\n      dup5\n        /* \"#utility.yul\":3999:4021   */\n      eq\n        /* \"#utility.yul\":3979:3980   */\n      dup4\n        /* \"#utility.yul\":3972:3981   */\n      iszero\n        /* \"#utility.yul\":3952:4035   */\n      or\n        /* \"#utility.yul\":3929:4068   */\n      tag_215\n      jumpi\n        /* \"#utility.yul\":4048:4066   */\n      tag_216\n      tag_158\n      jump\t// in\n    tag_216:\n        /* \"#utility.yul\":3929:4068   */\n    tag_215:\n        /* \"#utility.yul\":3713:4075   */\n      pop\n        /* \"#utility.yul\":3665:4075   */\n      swap3\n      swap2\n      pop\n      pop\n      jump\t// out\n        /* \"#utility.yul\":4081:4261   */\n    tag_159:\n        /* \"#utility.yul\":4129:4206   */\n      0x4e487b7100000000000000000000000000000000000000000000000000000000\n        /* \"#utility.yul\":4126:4127   */\n      0x00\n        /* \"#utility.yul\":4119:4207   */\n      mstore\n        /* \"#utility.yul\":4226:4230   */\n      0x12\n        /* \"#utility.yul\":4223:4224   */\n      0x04\n        /* \"#utility.yul\":4216:4231   */\n      mstore\n        /* \"#utility.yul\":4250:4254   */\n      0x24\n        /* \"#utility.yul\":4247:4248   */\n      0x00\n        /* \"#utility.yul\":4240:4255   */\n      revert\n        /* \"#utility.yul\":4267:4452   */\n    tag_76:\n        /* \"#utility.yul\":4307:4308   */\n      0x00\n        /* \"#utility.yul\":4324:4344   */\n      tag_219\n        /* \"#utility.yul\":4342:4343   */\n      dup3\n        /* \"#utility.yul\":4324:4344   */\n      tag_141\n      jump\t// in\n    tag_219:\n        /* \"#utility.yul\":4319:4344   */\n      swap2\n      pop\n        /* \"#utility.yul\":4358:4378   */\n      tag_220\n        /* \"#utility.yul\":4376:4377   */\n      dup4\n        /* \"#utility.yul\":4358:4378   */\n      tag_141\n      jump\t// in\n    tag_220:\n        /* \"#utility.yul\":4353:4378   */\n      swap3\n      pop\n        /* \"#utility.yul\":4397:4398   */\n      dup3\n        /* \"#utility.yul\":4387:4422   */\n      tag_221\n      jumpi\n        /* \"#utility.yul\":4402:4420   */\n      tag_222\n      tag_159\n      jump\t// in\n    tag_222:\n        /* \"#utility.yul\":4387:4422   */\n    tag_221:\n        /* \"#utility.yul\":4444:4445   */\n      dup3\n        /* \"#utility.yul\":4441:4442   */\n      dup3\n        /* \"#utility.yul\":4437:4446   */\n      div\n        /* \"#utility.yul\":4432:4446   */\n      swap1\n      pop\n        /* \"#utility.yul\":4267:4452   */\n      swap3\n      swap2\n      pop\n      pop\n      jump\t// out\n        /* \"#utility.yul\":4458:4652   */\n    tag_79:\n        /* \"#utility.yul\":4498:4502   */\n      0x00\n        /* \"#utility.yul\":4518:4538   */\n      tag_224\n        /* \"#utility.yul\":4536:4537   */\n      dup3\n        /* \"#utility.yul\":4518:4538   */\n      tag_141\n      jump\t// in\n    tag_224:\n        /* \"#utility.yul\":4513:4538   */\n      swap2\n      pop\n        /* \"#utility.yul\":4552:4572   */\n      tag_225\n        /* \"#utility.yul\":4570:4571   */\n      dup4\n        /* \"#utility.yul\":4552:4572   */\n      tag_141\n      jump\t// in\n    tag_225:\n        /* \"#utility.yul\":4547:4572   */\n      swap3\n      pop\n        /* \"#utility.yul\":4596:4597   */\n      dup3\n        /* \"#utility.yul\":4593:4594   */\n      dup3\n        /* \"#utility.yul\":4589:4598   */\n      sub\n        /* \"#utility.yul\":4581:4598   */\n      swap1\n      pop\n        /* \"#utility.yul\":4620:4621   */\n      dup2\n        /* \"#utility.yul\":4614:4618   */\n      dup2\n        /* \"#utility.yul\":4611:4622   */\n      gt\n        /* \"#utility.yul\":4608:4645   */\n      iszero\n      tag_226\n      jumpi\n        /* \"#utility.yul\":4625:4643   */\n      tag_227\n      tag_158\n      jump\t// in\n    tag_227:\n        /* \"#utility.yul\":4608:4645   */\n    tag_226:\n        /* \"#utility.yul\":4458:4652   */\n      swap3\n      swap2\n      pop\n      pop\n      jump\t// out\n        /* \"#utility.yul\":4658:4849   */\n    tag_86:\n        /* \"#utility.yul\":4698:4701   */\n      0x00\n        /* \"#utility.yul\":4717:4737   */\n      tag_229\n        /* \"#utility.yul\":4735:4736   */\n      dup3\n        /* \"#utility.yul\":4717:4737   */\n      tag_141\n      jump\t// in\n    tag_229:\n        /* \"#utility.yul\":4712:4737   */\n      swap2\n      pop\n        /* \"#utility.yul\":4751:4771   */\n      tag_230\n        /* \"#utility.yul\":4769:4770   */\n      dup4\n        /* \"#utility.yul\":4751:4771   */\n      tag_141\n      jump\t// in\n    tag_230:\n        /* \"#utility.yul\":4746:4771   */\n      swap3\n      pop\n        /* \"#utility.yul\":4794:4795   */\n      dup3\n        /* \"#utility.yul\":4791:4792   */\n      dup3\n        /* \"#utility.yul\":4787:4796   */\n      add\n        /* \"#utility.yul\":4780:4796   */\n      swap1\n      pop\n        /* \"#utility.yul\":4815:4818   */\n      dup1\n        /* \"#utility.yul\":4812:4813   */\n      dup3\n        /* \"#utility.yul\":4809:4819   */\n      gt\n        /* \"#utility.yul\":4806:4842   */\n      iszero\n      tag_231\n      jumpi\n        /* \"#utility.yul\":4822:4840   */\n      tag_232\n      tag_158\n      jump\t// in\n    tag_232:\n        /* \"#utility.yul\":4806:4842   */\n    tag_231:\n        /* \"#utility.yul\":4658:4849   */\n      swap3\n      swap2\n      pop\n      pop\n      jump\t// out\n        /* \"#utility.yul\":4855:5297   */\n    tag_97:\n        /* \"#utility.yul\":5004:5008   */\n      0x00\n        /* \"#utility.yul\":5042:5044   */\n      0x60\n        /* \"#utility.yul\":5031:5040   */\n      dup3\n        /* \"#utility.yul\":5027:5045   */\n      add\n        /* \"#utility.yul\":5019:5045   */\n      swap1\n      pop\n        /* \"#utility.yul\":5055:5126   */\n      tag_234\n        /* \"#utility.yul\":5123:5124   */\n      0x00\n        /* \"#utility.yul\":5112:5121   */\n      dup4\n        /* \"#utility.yul\":5108:5125   */\n      add\n        /* \"#utility.yul\":5099:5105   */\n      dup7\n        /* \"#utility.yul\":5055:5126   */\n      tag_157\n      jump\t// in\n    tag_234:\n        /* \"#utility.yul\":5136:5208   */\n      tag_235\n        /* \"#utility.yul\":5204:5206   */\n      0x20\n        /* \"#utility.yul\":5193:5202   */\n      dup4\n        /* \"#utility.yul\":5189:5207   */\n      add\n        /* \"#utility.yul\":5180:5186   */\n      dup6\n        /* \"#utility.yul\":5136:5208   */\n      tag_157\n      jump\t// in\n    tag_235:\n        /* \"#utility.yul\":5218:5290   */\n      tag_236\n        /* \"#utility.yul\":5286:5288   */\n      0x40\n        /* \"#utility.yul\":5275:5284   */\n      dup4\n        /* \"#utility.yul\":5271:5289   */\n      add\n        /* \"#utility.yul\":5262:5268   */\n      dup5\n        /* \"#utility.yul\":5218:5290   */\n      tag_142\n      jump\t// in\n    tag_236:\n        /* \"#utility.yul\":4855:5297   */\n      swap5\n      swap4\n      pop\n      pop\n      pop\n      pop\n      jump\t// out\n        /* \"#utility.yul\":5303:5393   */\n    tag_160:\n        /* \"#utility.yul\":5337:5344   */\n      0x00\n        /* \"#utility.yul\":5380:5385   */\n      dup2\n        /* \"#utility.yul\":5373:5386   */\n      iszero\n        /* \"#utility.yul\":5366:5387   */\n      iszero\n        /* \"#utility.yul\":5355:5387   */\n      swap1\n      pop\n        /* \"#utility.yul\":5303:5393   */\n      swap2\n      swap1\n      pop\n      jump\t// out\n        /* \"#utility.yul\":5399:5515   */\n    tag_161:\n        /* \"#utility.yul\":5469:5490   */\n      tag_239\n        /* \"#utility.yul\":5484:5489   */\n      dup2\n        /* \"#utility.yul\":5469:5490   */\n      tag_160\n      jump\t// in\n    tag_239:\n        /* \"#utility.yul\":5462:5467   */\n      dup2\n        /* \"#utility.yul\":5459:5491   */\n      eq\n        /* \"#utility.yul\":5449:5509   */\n      tag_240\n      jumpi\n        /* \"#utility.yul\":5505:5506   */\n      0x00\n        /* \"#utility.yul\":5502:5503   */\n      dup1\n        /* \"#utility.yul\":5495:5507   */\n      revert\n        /* \"#utility.yul\":5449:5509   */\n    tag_240:\n        /* \"#utility.yul\":5399:5515   */\n      pop\n      jump\t// out\n        /* \"#utility.yul\":5521:5658   */\n    tag_162:\n        /* \"#utility.yul\":5575:5580   */\n      0x00\n        /* \"#utility.yul\":5606:5612   */\n      dup2\n        /* \"#utility.yul\":5600:5613   */\n      mload\n        /* \"#utility.yul\":5591:5613   */\n      swap1\n      pop\n        /* \"#utility.yul\":5622:5652   */\n      tag_242\n        /* \"#utility.yul\":5646:5651   */\n      dup2\n        /* \"#utility.yul\":5622:5652   */\n      tag_161\n      jump\t// in\n    tag_242:\n        /* \"#utility.yul\":5521:5658   */\n      swap3\n      swap2\n      pop\n      pop\n      jump\t// out\n        /* \"#utility.yul\":5664:6009   */\n    tag_101:\n        /* \"#utility.yul\":5731:5737   */\n      0x00\n        /* \"#utility.yul\":5780:5782   */\n      0x20\n        /* \"#utility.yul\":5768:5777   */\n      dup3\n        /* \"#utility.yul\":5759:5766   */\n      dup5\n        /* \"#utility.yul\":5755:5778   */\n      sub\n        /* \"#utility.yul\":5751:5783   */\n      slt\n        /* \"#utility.yul\":5748:5867   */\n      iszero\n      tag_244\n      jumpi\n        /* \"#utility.yul\":5786:5865   */\n      tag_245\n      tag_144\n      jump\t// in\n    tag_245:\n        /* \"#utility.yul\":5748:5867   */\n    tag_244:\n        /* \"#utility.yul\":5906:5907   */\n      0x00\n        /* \"#utility.yul\":5931:5992   */\n      tag_246\n        /* \"#utility.yul\":5984:5991   */\n      dup5\n        /* \"#utility.yul\":5975:5981   */\n      dup3\n        /* \"#utility.yul\":5964:5973   */\n      dup6\n        /* \"#utility.yul\":5960:5982   */\n      add\n        /* \"#utility.yul\":5931:5992   */\n      tag_162\n      jump\t// in\n    tag_246:\n        /* \"#utility.yul\":5921:5992   */\n      swap2\n      pop\n        /* \"#utility.yul\":5877:6002   */\n      pop\n        /* \"#utility.yul\":5664:6009   */\n      swap3\n      swap2\n      pop\n      pop\n      jump\t// out\n        /* \"#utility.yul\":6015:6347   */\n    tag_110:\n        /* \"#utility.yul\":6136:6140   */\n      0x00\n        /* \"#utility.yul\":6174:6176   */\n      0x40\n        /* \"#utility.yul\":6163:6172   */\n      dup3\n        /* \"#utility.yul\":6159:6177   */\n      add\n        /* \"#utility.yul\":6151:6177   */\n      swap1\n      pop\n        /* \"#utility.yul\":6187:6258   */\n      tag_248\n        /* \"#utility.yul\":6255:6256   */\n      0x00\n        /* \"#utility.yul\":6244:6253   */\n      dup4\n        /* \"#utility.yul\":6240:6257   */\n      add\n        /* \"#utility.yul\":6231:6237   */\n      dup6\n        /* \"#utility.yul\":6187:6258   */\n      tag_157\n      jump\t// in\n    tag_248:\n        /* \"#utility.yul\":6268:6340   */\n      tag_249\n        /* \"#utility.yul\":6336:6338   */\n      0x20\n        /* \"#utility.yul\":6325:6334   */\n      dup4\n        /* \"#utility.yul\":6321:6339   */\n      add\n        /* \"#utility.yul\":6312:6318   */\n      dup5\n        /* \"#utility.yul\":6268:6340   */\n      tag_142\n      jump\t// in\n    tag_249:\n        /* \"#utility.yul\":6015:6347   */\n      swap4\n      swap3\n      pop\n      pop\n      pop\n      jump\t// out\n        /* \"#utility.yul\":6353:6685   */\n    tag_116:\n        /* \"#utility.yul\":6474:6478   */\n      0x00\n        /* \"#utility.yul\":6512:6514   */\n      0x40\n        /* \"#utility.yul\":6501:6510   */\n      dup3\n        /* \"#utility.yul\":6497:6515   */\n      add\n        /* \"#utility.yul\":6489:6515   */\n      swap1\n      pop\n        /* \"#utility.yul\":6525:6596   */\n      tag_251\n        /* \"#utility.yul\":6593:6594   */\n      0x00\n        /* \"#utility.yul\":6582:6591   */\n      dup4\n        /* \"#utility.yul\":6578:6595   */\n      add\n        /* \"#utility.yul\":6569:6575   */\n      dup6\n        /* \"#utility.yul\":6525:6596   */\n      tag_142\n      jump\t// in\n    tag_251:\n        /* \"#utility.yul\":6606:6678   */\n      tag_252\n        /* \"#utility.yul\":6674:6676   */\n      0x20\n        /* \"#utility.yul\":6663:6672   */\n      dup4\n        /* \"#utility.yul\":6659:6677   */\n      add\n        /* \"#utility.yul\":6650:6656   */\n      dup5\n        /* \"#utility.yul\":6606:6678   */\n      tag_142\n      jump\t// in\n    tag_252:\n        /* \"#utility.yul\":6353:6685   */\n      swap4\n      swap3\n      pop\n      pop\n      pop\n      jump\t// out\n\n    auxdata: 0xa264697066735822122019adf2bd733a960047ad13c3f5fcc42dc9d78a7d73f0a99ed87c91cfd721722064736f6c634300081a0033\n}\n",
				"bytecode": {
					"linkReferences": {},
					"object": "60c060405234801561000f575f80fd5b506040516111c13803806111c183398181016040528101906100319190610162565b8173ffffffffffffffffffffffffffffffffffffffff1660808173ffffffffffffffffffffffffffffffffffffffff16815250503373ffffffffffffffffffffffffffffffffffffffff1660a08173ffffffffffffffffffffffffffffffffffffffff16815250506b033b2e3c9fd0803ce80000005f81905550426001819055508060028190555050506101a0565b5f80fd5b5f73ffffffffffffffffffffffffffffffffffffffff82169050919050565b5f6100ed826100c4565b9050919050565b5f6100fe826100e3565b9050919050565b61010e816100f4565b8114610118575f80fd5b50565b5f8151905061012981610105565b92915050565b5f819050919050565b6101418161012f565b811461014b575f80fd5b50565b5f8151905061015c81610138565b92915050565b5f8060408385031215610178576101776100c0565b5b5f6101858582860161011b565b92505060206101968582860161014e565b9150509250929050565b60805160a051610fdd6101e45f395f818161043501528181610a340152610b0b01525f8181610302015281816104f30152818161071b01526108880152610fdd5ff3fe608060405234801561000f575f80fd5b50600436106100f3575f3560e01c806375c5422411610095578063b6b55f2511610064578063b6b55f251461024f578063e8fe76d51461026b578063f851a44014610287578063f8ba4cff146102a5576100f3565b806375c54224146101ed5780637b3baab414610209578063853828b6146102275780638eff1a9814610231576100f3565b806338d52e0f116100d157806338d52e0f146101635780633a455bf3146101815780636f8b45301461019f57806370a08231146101bd576100f3565b806301e1d114146100f75780631da24f3e146101155780632986c0e514610145575b5f80fd5b6100ff6102af565b60405161010c9190610c00565b60405180910390f35b61012f600480360381019061012a9190610c77565b6102e6565b60405161013c9190610c00565b60405180910390f35b61014d6102fb565b60405161015a9190610c00565b60405180910390f35b61016b610300565b6040516101789190610cfd565b60405180910390f35b610189610324565b6040516101969190610c00565b60405180910390f35b6101a76103a2565b6040516101b49190610c00565b60405180910390f35b6101d760048036038101906101d29190610c77565b6103a8565b6040516101e49190610c00565b60405180910390f35b61020760048036038101906102029190610d40565b610433565b005b610211610615565b60405161021e9190610c00565b60405180910390f35b61022f61061b565b005b61023961083f565b6040516102469190610c00565b60405180910390f35b61026960048036038101906102649190610d40565b610845565b005b61028560048036038101906102809190610d40565b610a32565b005b61028f610b09565b60405161029c9190610d7a565b60405180910390f35b6102ad610b2d565b005b5f806102b9610324565b90506b033b2e3c9fd0803ce8000000816003546102d69190610dc0565b6102e09190610e2e565b91505090565b6004602052805f5260405f205f915090505481565b5f5481565b7f000000000000000000000000000000000000000000000000000000000000000081565b5f804290505f600154826103389190610e5e565b90505f810361034c575f549250505061039f565b5f6b033b2e3c9fd0803ce8000000826002546103689190610dc0565b6103729190610e2e565b90506001815f546103839190610dc0565b61038d9190610e2e565b5f546103999190610e91565b93505050505b90565b60035481565b5f806103b2610324565b90505f60045f8573ffffffffffffffffffffffffffffffffffffffff1673ffffffffffffffffffffffffffffffffffffffff1681526020019081526020015f205490505f8103610406575f9250505061042e565b6b033b2e3c9fd0803ce8000000828261041f9190610dc0565b6104299190610e2e565b925050505b919050565b7f000000000000000000000000000000000000000000000000000000000000000073ffffffffffffffffffffffffffffffffffffffff163373ffffffffffffffffffffffffffffffffffffffff16146104b8576040517f7bfa4b9f00000000000000000000000000000000000000000000000000000000815260040160405180910390fd5b5f81036104f1576040517f1f2a200500000000000000000000000000000000000000000000000000000000815260040160405180910390fd5b7f000000000000000000000000000000000000000000000000000000000000000073ffffffffffffffffffffffffffffffffffffffff166323b872dd3330846040518463ffffffff1660e01b815260040161054e93929190610ec4565b6020604051808303815f875af115801561056a573d5f803e3d5ffd5b505050506040513d601f19601f8201168201806040525081019061058e9190610f2e565b6105c4576040517f90b8ec1800000000000000000000000000000000000000000000000000000000815260040160405180910390fd5b3373ffffffffffffffffffffffffffffffffffffffff167fb52b99b9e83551fcbd069b559cc3e823e2a1a3bad8ece46561ea77524394c8508260405161060a9190610c00565b60405180910390a250565b60015481565b610623610b2d565b5f60045f3373ffffffffffffffffffffffffffffffffffffffff1673ffffffffffffffffffffffffffffffffffffffff1681526020019081526020015f205490505f810361069d576040517ff4d678b800000000000000000000000000000000000000000000000000000000815260040160405180910390fd5b5f805490505f6b033b2e3c9fd0803ce800000082846106bc9190610dc0565b6106c69190610e2e565b90505f60045f3373ffffffffffffffffffffffffffffffffffffffff1673ffffffffffffffffffffffffffffffffffffffff1681526020019081526020015f20819055508260035f82825403925050819055507f000000000000000000000000000000000000000000000000000000000000000073ffffffffffffffffffffffffffffffffffffffff1663a9059cbb33836040518363ffffffff1660e01b8152600401610774929190610f59565b6020604051808303815f875af1158015610790573d5f803e3d5ffd5b505050506040513d601f19601f820116820180604052508101906107b49190610f2e565b6107ea576040517f90b8ec1800000000000000000000000000000000000000000000000000000000815260040160405180910390fd5b3373ffffffffffffffffffffffffffffffffffffffff167f92ccf450a286a957af52509bc1c9939d1a6a481783e142e41e2499f0bb66ebc68285604051610832929190610f80565b60405180910390a2505050565b60025481565b5f810361087e576040517f1f2a200500000000000000000000000000000000000000000000000000000000815260040160405180910390fd5b610886610b2d565b7f000000000000000000000000000000000000000000000000000000000000000073ffffffffffffffffffffffffffffffffffffffff166323b872dd3330846040518463ffffffff1660e01b81526004016108e393929190610ec4565b6020604051808303815f875af11580156108ff573d5f803e3d5ffd5b505050506040513d601f19601f820116820180604052508101906109239190610f2e565b610959576040517f90b8ec1800000000000000000000000000000000000000000000000000000000815260040160405180910390fd5b5f805490505f816b033b2e3c9fd0803ce8000000846109789190610dc0565b6109829190610e2e565b90508060045f3373ffffffffffffffffffffffffffffffffffffffff1673ffffffffffffffffffffffffffffffffffffffff1681526020019081526020015f205f82825401925050819055508060035f82825401925050819055503373ffffffffffffffffffffffffffffffffffffffff167f73a19dd210f1a7f902193214c0ee91dd35ee5b4d920cba8d519eca65a7b488ca8483604051610a25929190610f80565b60405180910390a2505050565b7f000000000000000000000000000000000000000000000000000000000000000073ffffffffffffffffffffffffffffffffffffffff163373ffffffffffffffffffffffffffffffffffffffff1614610ab7576040517f7bfa4b9f00000000000000000000000000000000000000000000000000000000815260040160405180910390fd5b610abf610b2d565b5f6002549050816002819055507fb38780ddde1f073d91c150de2696f3f7085883648ba21cc5ef01029cb21d19168183604051610afd929190610f80565b60405180910390a15050565b7f000000000000000000000000000000000000000000000000000000000000000081565b5f4290505f60015482610b409190610e5e565b90505f8103610b50575050610be6565b5f805490505f6b033b2e3c9fd0803ce800000083600254610b719190610dc0565b610b7b9190610e2e565b90505f8183610b8a9190610dc0565b90508083610b989190610e91565b5f81905550846001819055507fe0c50b11a6cc6d75470f28bd76d20c8d223c626324486a273eefadf6c6e973a75f54600254604051610bd8929190610f80565b60405180910390a150505050505b565b5f819050919050565b610bfa81610be8565b82525050565b5f602082019050610c135f830184610bf1565b92915050565b5f80fd5b5f73ffffffffffffffffffffffffffffffffffffffff82169050919050565b5f610c4682610c1d565b9050919050565b610c5681610c3c565b8114610c60575f80fd5b50565b5f81359050610c7181610c4d565b92915050565b5f60208284031215610c8c57610c8b610c19565b5b5f610c9984828501610c63565b91505092915050565b5f819050919050565b5f610cc5610cc0610cbb84610c1d565b610ca2565b610c1d565b9050919050565b5f610cd682610cab565b9050919050565b5f610ce782610ccc565b9050919050565b610cf781610cdd565b82525050565b5f602082019050610d105f830184610cee565b92915050565b610d1f81610be8565b8114610d29575f80fd5b50565b5f81359050610d3a81610d16565b92915050565b5f60208284031215610d5557610d54610c19565b5b5f610d6284828501610d2c565b91505092915050565b610d7481610c3c565b82525050565b5f602082019050610d8d5f830184610d6b565b92915050565b7f4e487b71000000000000000000000000000000000000000000000000000000005f52601160045260245ffd5b5f610dca82610be8565b9150610dd583610be8565b9250828202610de381610be8565b91508282048414831517610dfa57610df9610d93565b5b5092915050565b7f4e487b71000000000000000000000000000000000000000000000000000000005f52601260045260245ffd5b5f610e3882610be8565b9150610e4383610be8565b925082610e5357610e52610e01565b5b828204905092915050565b5f610e6882610be8565b9150610e7383610be8565b9250828203905081811115610e8b57610e8a610d93565b5b92915050565b5f610e9b82610be8565b9150610ea683610be8565b9250828201905080821115610ebe57610ebd610d93565b5b92915050565b5f606082019050610ed75f830186610d6b565b610ee46020830185610d6b565b610ef16040830184610bf1565b949350505050565b5f8115159050919050565b610f0d81610ef9565b8114610f17575f80fd5b50565b5f81519050610f2881610f04565b92915050565b5f60208284031215610f4357610f42610c19565b5b5f610f5084828501610f1a565b91505092915050565b5f604082019050610f6c5f830185610d6b565b610f796020830184610bf1565b9392505050565b5f604082019050610f935f830185610bf1565b610fa06020830184610bf1565b939250505056fea264697066735822122019adf2bd733a960047ad13c3f5fcc42dc9d78a7d73f0a99ed87c91cfd721722064736f6c634300081a0033",
					"opcodes": "PUSH1 0xC0 PUSH1 0x40 MSTORE CALLVALUE DUP1 ISZERO PUSH2 0xF JUMPI PUSH0 DUP1 REVERT JUMPDEST POP PUSH1 0x40 MLOAD PUSH2 0x11C1 CODESIZE SUB DUP1 PUSH2 0x11C1 DUP4 CODECOPY DUP2 DUP2 ADD PUSH1 0x40 MSTORE DUP2 ADD SWAP1 PUSH2 0x31 SWAP2 SWAP1 PUSH2 0x162 JUMP JUMPDEST DUP2 PUSH20 0xFFFFFFFFFFFFFFFFFFFFFFFFFFFFFFFFFFFFFFFF AND PUSH1 0x80 DUP2 PUSH20 0xFFFFFFFFFFFFFFFFFFFFFFFFFFFFFFFFFFFFFFFF AND DUP2 MSTORE POP POP CALLER PUSH20 0xFFFFFFFFFFFFFFFFFFFFFFFFFFFFFFFFFFFFFFFF AND PUSH1 0xA0 DUP2 PUSH20 0xFFFFFFFFFFFFFFFFFFFFFFFFFFFFFFFFFFFFFFFF AND DUP2 MSTORE POP POP PUSH12 0x33B2E3C9FD0803CE8000000 PUSH0 DUP2 SWAP1 SSTORE POP TIMESTAMP PUSH1 0x1 DUP2 SWAP1 SSTORE POP DUP1 PUSH1 0x2 DUP2 SWAP1 SSTORE POP POP POP PUSH2 0x1A0 JUMP JUMPDEST PUSH0 DUP1 REVERT JUMPDEST PUSH0 PUSH20 0xFFFFFFFFFFFFFFFFFFFFFFFFFFFFFFFFFFFFFFFF DUP3 AND SWAP1 POP SWAP2 SWAP1 POP JUMP JUMPDEST PUSH0 PUSH2 0xED DUP3 PUSH2 0xC4 JUMP JUMPDEST SWAP1 POP SWAP2 SWAP1 POP JUMP JUMPDEST PUSH0 PUSH2 0xFE DUP3 PUSH2 0xE3 JUMP JUMPDEST SWAP1 POP SWAP2 SWAP1 POP JUMP JUMPDEST PUSH2 0x10E DUP2 PUSH2 0xF4 JUMP JUMPDEST DUP2 EQ PUSH2 0x118 JUMPI PUSH0 DUP1 REVERT JUMPDEST POP JUMP JUMPDEST PUSH0 DUP2 MLOAD SWAP1 POP PUSH2 0x129 DUP2 PUSH2 0x105 JUMP JUMPDEST SWAP3 SWAP2 POP POP JUMP JUMPDEST PUSH0 DUP2 SWAP1 POP SWAP2 SWAP1 POP JUMP JUMPDEST PUSH2 0x141 DUP2 PUSH2 0x12F JUMP JUMPDEST DUP2 EQ PUSH2 0x14B JUMPI PUSH0 DUP1 REVERT JUMPDEST POP JUMP JUMPDEST PUSH0 DUP2 MLOAD SWAP1 POP PUSH2 0x15C DUP2 PUSH2 0x138 JUMP JUMPDEST SWAP3 SWAP2 POP POP JUMP JUMPDEST PUSH0 DUP1 PUSH1 0x40 DUP4 DUP6 SUB SLT ISZERO PUSH2 0x178 JUMPI PUSH2 0x177 PUSH2 0xC0 JUMP JUMPDEST JUMPDEST PUSH0 PUSH2 0x185 DUP6 DUP3 DUP7 ADD PUSH2 0x11B JUMP JUMPDEST SWAP3 POP POP PUSH1 0x20 PUSH2 0x196 DUP6 DUP3 DUP7 ADD PUSH2 0x14E JUMP JUMPDEST SWAP2 POP POP SWAP3 POP SWAP3 SWAP1 POP JUMP JUMPDEST PUSH1 0x80 MLOAD PUSH1 0xA0 MLOAD PUSH2 0xFDD PUSH2 0x1E4 PUSH0 CODECOPY PUSH0 DUP2 DUP2 PUSH2 0x435 ADD MSTORE DUP2 DUP2 PUSH2 0xA34 ADD MSTORE PUSH2 0xB0B ADD MSTORE PUSH0 DUP2 DUP2 PUSH2 0x302 ADD MSTORE DUP2 DUP2 PUSH2 0x4F3 ADD MSTORE DUP2 DUP2 PUSH2 0x71B ADD MSTORE PUSH2 0x888 ADD MSTORE PUSH2 0xFDD PUSH0 RETURN INVALID PUSH1 0x80 PUSH1 0x40 MSTORE CALLVALUE DUP1 ISZERO PUSH2 0xF JUMPI PUSH0 DUP1 REVERT JUMPDEST POP PUSH1 0x4 CALLDATASIZE LT PUSH2 0xF3 JUMPI PUSH0 CALLDATALOAD PUSH1 0xE0 SHR DUP1 PUSH4 0x75C54224 GT PUSH2 0x95 JUMPI DUP1 PUSH4 0xB6B55F25 GT PUSH2 0x64 JUMPI DUP1 PUSH4 0xB6B55F25 EQ PUSH2 0x24F JUMPI DUP1 PUSH4 0xE8FE76D5 EQ PUSH2 0x26B JUMPI DUP1 PUSH4 0xF851A440 EQ PUSH2 0x287 JUMPI DUP1 PUSH4 0xF8BA4CFF EQ PUSH2 0x2A5 JUMPI PUSH2 0xF3 JUMP JUMPDEST DUP1 PUSH4 0x75C54224 EQ PUSH2 0x1ED JUMPI DUP1 PUSH4 0x7B3BAAB4 EQ PUSH2 0x209 JUMPI DUP1 PUSH4 0x853828B6 EQ PUSH2 0x227 JUMPI DUP1 PUSH4 0x8EFF1A98 EQ PUSH2 0x231 JUMPI PUSH2 0xF3 JUMP JUMPDEST DUP1 PUSH4 0x38D52E0F GT PUSH2 0xD1 JUMPI DUP1 PUSH4 0x38D52E0F EQ PUSH2 0x163 JUMPI DUP1 PUSH4 0x3A455BF3 EQ PUSH2 0x181 JUMPI DUP1 PUSH4 0x6F8B4530 EQ PUSH2 0x19F JUMPI DUP1 PUSH4 0x70A08231 EQ PUSH2 0x1BD JUMPI PUSH2 0xF3 JUMP JUMPDEST DUP1 PUSH4 0x1E1D114 EQ PUSH2 0xF7 JUMPI DUP1 PUSH4 0x1DA24F3E EQ PUSH2 0x115 JUMPI DUP1 PUSH4 0x2986C0E5 EQ PUSH2 0x145 JUMPI JUMPDEST PUSH0 DUP1 REVERT JUMPDEST PUSH2 0xFF PUSH2 0x2AF JUMP JUMPDEST PUSH1 0x40 MLOAD PUSH2 0x10C SWAP2 SWAP1 PUSH2 0xC00 JUMP JUMPDEST PUSH1 0x40 MLOAD DUP1 SWAP2 SUB SWAP1 RETURN JUMPDEST PUSH2 0x12F PUSH1 0x4 DUP1 CALLDATASIZE SUB DUP2 ADD SWAP1 PUSH2 0x12A SWAP2 SWAP1 PUSH2 0xC77 JUMP JUMPDEST PUSH2 0x2E6 JUMP JUMPDEST PUSH1 0x40 MLOAD PUSH2 0x13C SWAP2 SWAP1 PUSH2 0xC00 JUMP JUMPDEST PUSH1 0x40 MLOAD DUP1 SWAP2 SUB SWAP1 RETURN JUMPDEST PUSH2 0x14D PUSH2 0x2FB JUMP JUMPDEST PUSH1 0x40 MLOAD PUSH2 0x15A SWAP2 SWAP1 PUSH2 0xC00 JUMP JUMPDEST PUSH1 0x40 MLOAD DUP1 SWAP2 SUB SWAP1 RETURN JUMPDEST PUSH2 0x16B PUSH2 0x300 JUMP JUMPDEST PUSH1 0x40 MLOAD PUSH2 0x178 SWAP2 SWAP1 PUSH2 0xCFD JUMP JUMPDEST PUSH1 0x40 MLOAD DUP1 SWAP2 SUB SWAP1 RETURN JUMPDEST PUSH2 0x189 PUSH2 0x324 JUMP JUMPDEST PUSH1 0x40 MLOAD PUSH2 0x196 SWAP2 SWAP1 PUSH2 0xC00 JUMP JUMPDEST PUSH1 0x40 MLOAD DUP1 SWAP2 SUB SWAP1 RETURN JUMPDEST PUSH2 0x1A7 PUSH2 0x3A2 JUMP JUMPDEST PUSH1 0x40 MLOAD PUSH2 0x1B4 SWAP2 SWAP1 PUSH2 0xC00 JUMP JUMPDEST PUSH1 0x40 MLOAD DUP1 SWAP2 SUB SWAP1 RETURN JUMPDEST PUSH2 0x1D7 PUSH1 0x4 DUP1 CALLDATASIZE SUB DUP2 ADD SWAP1 PUSH2 0x1D2 SWAP2 SWAP1 PUSH2 0xC77 JUMP JUMPDEST PUSH2 0x3A8 JUMP JUMPDEST PUSH1 0x40 MLOAD PUSH2 0x1E4 SWAP2 SWAP1 PUSH2 0xC00 JUMP JUMPDEST PUSH1 0x40 MLOAD DUP1 SWAP2 SUB SWAP1 RETURN JUMPDEST PUSH2 0x207 PUSH1 0x4 DUP1 CALLDATASIZE SUB DUP2 ADD SWAP1 PUSH2 0x202 SWAP2 SWAP1 PUSH2 0xD40 JUMP JUMPDEST PUSH2 0x433 JUMP JUMPDEST STOP JUMPDEST PUSH2 0x211 PUSH2 0x615 JUMP JUMPDEST PUSH1 0x40 MLOAD PUSH2 0x21E SWAP2 SWAP1 PUSH2 0xC00 JUMP JUMPDEST PUSH1 0x40 MLOAD DUP1 SWAP2 SUB SWAP1 RETURN JUMPDEST PUSH2 0x22F PUSH2 0x61B JUMP JUMPDEST STOP JUMPDEST PUSH2 0x239 PUSH2 0x83F JUMP JUMPDEST PUSH1 0x40 MLOAD PUSH2 0x246 SWAP2 SWAP1 PUSH2 0xC00 JUMP JUMPDEST PUSH1 0x40 MLOAD DUP1 SWAP2 SUB SWAP1 RETURN JUMPDEST PUSH2 0x269 PUSH1 0x4 DUP1 CALLDATASIZE SUB DUP2 ADD SWAP1 PUSH2 0x264 SWAP2 SWAP1 PUSH2 0xD40 JUMP JUMPDEST PUSH2 0x845 JUMP JUMPDEST STOP JUMPDEST PUSH2 0x285 PUSH1 0x4 DUP1 CALLDATASIZE SUB DUP2 ADD SWAP1 PUSH2 0x280 SWAP2 SWAP1 PUSH2 0xD40 JUMP JUMPDEST PUSH2 0xA32 JUMP JUMPDEST STOP JUMPDEST PUSH2 0x28F PUSH2 0xB09 JUMP JUMPDEST PUSH1 0x40 MLOAD PUSH2 0x29C SWAP2 SWAP1 PUSH2 0xD7A JUMP JUMPDEST PUSH1 0x40 MLOAD DUP1 SWAP2 SUB SWAP1 RETURN JUMPDEST PUSH2 0x2AD PUSH2 0xB2D JUMP JUMPDEST STOP JUMPDEST PUSH0 DUP1 PUSH2 0x2B9 PUSH2 0x324 JUMP JUMPDEST SWAP1 POP PUSH12 0x33B2E3C9FD0803CE8000000 DUP2 PUSH1 0x3 SLOAD PUSH2 0x2D6 SWAP2 SWAP1 PUSH2 0xDC0 JUMP JUMPDEST PUSH2 0x2E0 SWAP2 SWAP1 PUSH2 0xE2E JUMP JUMPDEST SWAP2 POP POP SWAP1 JUMP JUMPDEST PUSH1 0x4 PUSH1 0x20 MSTORE DUP1 PUSH0 MSTORE PUSH1 0x40 PUSH0 KECCAK256 PUSH0 SWAP2 POP SWAP1 POP SLOAD DUP2 JUMP JUMPDEST PUSH0 SLOAD DUP2 JUMP JUMPDEST PUSH32 0x0 DUP2 JUMP JUMPDEST PUSH0 DUP1 TIMESTAMP SWAP1 POP PUSH0 PUSH1 0x1 SLOAD DUP3 PUSH2 0x338 SWAP2 SWAP1 PUSH2 0xE5E JUMP JUMPDEST SWAP1 POP PUSH0 DUP2 SUB PUSH2 0x34C JUMPI PUSH0 SLOAD SWAP3 POP POP POP PUSH2 0x39F JUMP JUMPDEST PUSH0 PUSH12 0x33B2E3C9FD0803CE8000000 DUP3 PUSH1 0x2 SLOAD PUSH2 0x368 SWAP2 SWAP1 PUSH2 0xDC0 JUMP JUMPDEST PUSH2 0x372 SWAP2 SWAP1 PUSH2 0xE2E JUMP JUMPDEST SWAP1 POP PUSH1 0x1 DUP2 PUSH0 SLOAD PUSH2 0x383 SWAP2 SWAP1 PUSH2 0xDC0 JUMP JUMPDEST PUSH2 0x38D SWAP2 SWAP1 PUSH2 0xE2E JUMP JUMPDEST PUSH0 SLOAD PUSH2 0x399 SWAP2 SWAP1 PUSH2 0xE91 JUMP JUMPDEST SWAP4 POP POP POP POP JUMPDEST SWAP1 JUMP JUMPDEST PUSH1 0x3 SLOAD DUP2 JUMP JUMPDEST PUSH0 DUP1 PUSH2 0x3B2 PUSH2 0x324 JUMP JUMPDEST SWAP1 POP PUSH0 PUSH1 0x4 PUSH0 DUP6 PUSH20 0xFFFFFFFFFFFFFFFFFFFFFFFFFFFFFFFFFFFFFFFF AND PUSH20 0xFFFFFFFFFFFFFFFFFFFFFFFFFFFFFFFFFFFFFFFF AND DUP2 MSTORE PUSH1 0x20 ADD SWAP1 DUP2 MSTORE PUSH1 0x20 ADD PUSH0 KECCAK256 SLOAD SWAP1 POP PUSH0 DUP2 SUB PUSH2 0x406 JUMPI PUSH0 SWAP3 POP POP POP PUSH2 0x42E JUMP JUMPDEST PUSH12 0x33B2E3C9FD0803CE8000000 DUP3 DUP3 PUSH2 0x41F SWAP2 SWAP1 PUSH2 0xDC0 JUMP JUMPDEST PUSH2 0x429 SWAP2 SWAP1 PUSH2 0xE2E JUMP JUMPDEST SWAP3 POP POP POP JUMPDEST SWAP2 SWAP1 POP JUMP JUMPDEST PUSH32 0x0 PUSH20 0xFFFFFFFFFFFFFFFFFFFFFFFFFFFFFFFFFFFFFFFF AND CALLER PUSH20 0xFFFFFFFFFFFFFFFFFFFFFFFFFFFFFFFFFFFFFFFF AND EQ PUSH2 0x4B8 JUMPI PUSH1 0x40 MLOAD PUSH32 0x7BFA4B9F00000000000000000000000000000000000000000000000000000000 DUP2 MSTORE PUSH1 0x4 ADD PUSH1 0x40 MLOAD DUP1 SWAP2 SUB SWAP1 REVERT JUMPDEST PUSH0 DUP2 SUB PUSH2 0x4F1 JUMPI PUSH1 0x40 MLOAD PUSH32 0x1F2A200500000000000000000000000000000000000000000000000000000000 DUP2 MSTORE PUSH1 0x4 ADD PUSH1 0x40 MLOAD DUP1 SWAP2 SUB SWAP1 REVERT JUMPDEST PUSH32 0x0 PUSH20 0xFFFFFFFFFFFFFFFFFFFFFFFFFFFFFFFFFFFFFFFF AND PUSH4 0x23B872DD CALLER ADDRESS DUP5 PUSH1 0x40 MLOAD DUP5 PUSH4 0xFFFFFFFF AND PUSH1 0xE0 SHL DUP2 MSTORE PUSH1 0x4 ADD PUSH2 0x54E SWAP4 SWAP3 SWAP2 SWAP1 PUSH2 0xEC4 JUMP JUMPDEST PUSH1 0x20 PUSH1 0x40 MLOAD DUP1 DUP4 SUB DUP2 PUSH0 DUP8 GAS CALL ISZERO DUP1 ISZERO PUSH2 0x56A JUMPI RETURNDATASIZE PUSH0 DUP1 RETURNDATACOPY RETURNDATASIZE PUSH0 REVERT JUMPDEST POP POP POP POP PUSH1 0x40 MLOAD RETURNDATASIZE PUSH1 0x1F NOT PUSH1 0x1F DUP3 ADD AND DUP3 ADD DUP1 PUSH1 0x40 MSTORE POP DUP2 ADD SWAP1 PUSH2 0x58E SWAP2 SWAP1 PUSH2 0xF2E JUMP JUMPDEST PUSH2 0x5C4 JUMPI PUSH1 0x40 MLOAD PUSH32 0x90B8EC1800000000000000000000000000000000000000000000000000000000 DUP2 MSTORE PUSH1 0x4 ADD PUSH1 0x40 MLOAD DUP1 SWAP2 SUB SWAP1 REVERT JUMPDEST CALLER PUSH20 0xFFFFFFFFFFFFFFFFFFFFFFFFFFFFFFFFFFFFFFFF AND PUSH32 0xB52B99B9E83551FCBD069B559CC3E823E2A1A3BAD8ECE46561EA77524394C850 DUP3 PUSH1 0x40 MLOAD PUSH2 0x60A SWAP2 SWAP1 PUSH2 0xC00 JUMP JUMPDEST PUSH1 0x40 MLOAD DUP1 SWAP2 SUB SWAP1 LOG2 POP JUMP JUMPDEST PUSH1 0x1 SLOAD DUP2 JUMP JUMPDEST PUSH2 0x623 PUSH2 0xB2D JUMP JUMPDEST PUSH0 PUSH1 0x4 PUSH0 CALLER PUSH20 0xFFFFFFFFFFFFFFFFFFFFFFFFFFFFFFFFFFFFFFFF AND PUSH20 0xFFFFFFFFFFFFFFFFFFFFFFFFFFFFFFFFFFFFFFFF AND DUP2 MSTORE PUSH1 0x20 ADD SWAP1 DUP2 MSTORE PUSH1 0x20 ADD PUSH0 KECCAK256 SLOAD SWAP1 POP PUSH0 DUP2 SUB PUSH2 0x69D JUMPI PUSH1 0x40 MLOAD PUSH32 0xF4D678B800000000000000000000000000000000000000000000000000000000 DUP2 MSTORE PUSH1 0x4 ADD PUSH1 0x40 MLOAD DUP1 SWAP2 SUB SWAP1 REVERT JUMPDEST PUSH0 DUP1 SLOAD SWAP1 POP PUSH0 PUSH12 0x33B2E3C9FD0803CE8000000 DUP3 DUP5 PUSH2 0x6BC SWAP2 SWAP1 PUSH2 0xDC0 JUMP JUMPDEST PUSH2 0x6C6 SWAP2 SWAP1 PUSH2 0xE2E JUMP JUMPDEST SWAP1 POP PUSH0 PUSH1 0x4 PUSH0 CALLER PUSH20 0xFFFFFFFFFFFFFFFFFFFFFFFFFFFFFFFFFFFFFFFF AND PUSH20 0xFFFFFFFFFFFFFFFFFFFFFFFFFFFFFFFFFFFFFFFF AND DUP2 MSTORE PUSH1 0x20 ADD SWAP1 DUP2 MSTORE PUSH1 0x20 ADD PUSH0 KECCAK256 DUP2 SWAP1 SSTORE POP DUP3 PUSH1 0x3 PUSH0 DUP3 DUP3 SLOAD SUB SWAP3 POP POP DUP2 SWAP1 SSTORE POP PUSH32 0x0 PUSH20 0xFFFFFFFFFFFFFFFFFFFFFFFFFFFFFFFFFFFFFFFF AND PUSH4 0xA9059CBB CALLER DUP4 PUSH1 0x40 MLOAD DUP4 PUSH4 0xFFFFFFFF AND PUSH1 0xE0 SHL DUP2 MSTORE PUSH1 0x4 ADD PUSH2 0x774 SWAP3 SWAP2 SWAP1 PUSH2 0xF59 JUMP JUMPDEST PUSH1 0x20 PUSH1 0x40 MLOAD DUP1 DUP4 SUB DUP2 PUSH0 DUP8 GAS CALL ISZERO DUP1 ISZERO PUSH2 0x790 JUMPI RETURNDATASIZE PUSH0 DUP1 RETURNDATACOPY RETURNDATASIZE PUSH0 REVERT JUMPDEST POP POP POP POP PUSH1 0x40 MLOAD RETURNDATASIZE PUSH1 0x1F NOT PUSH1 0x1F DUP3 ADD AND DUP3 ADD DUP1 PUSH1 0x40 MSTORE POP DUP2 ADD SWAP1 PUSH2 0x7B4 SWAP2 SWAP1 PUSH2 0xF2E JUMP JUMPDEST PUSH2 0x7EA JUMPI PUSH1 0x40 MLOAD PUSH32 0x90B8EC1800000000000000000000000000000000000000000000000000000000 DUP2 MSTORE PUSH1 0x4 ADD PUSH1 0x40 MLOAD DUP1 SWAP2 SUB SWAP1 REVERT JUMPDEST CALLER PUSH20 0xFFFFFFFFFFFFFFFFFFFFFFFFFFFFFFFFFFFFFFFF AND PUSH32 0x92CCF450A286A957AF52509BC1C9939D1A6A481783E142E41E2499F0BB66EBC6 DUP3 DUP6 PUSH1 0x40 MLOAD PUSH2 0x832 SWAP3 SWAP2 SWAP1 PUSH2 0xF80 JUMP JUMPDEST PUSH1 0x40 MLOAD DUP1 SWAP2 SUB SWAP1 LOG2 POP POP POP JUMP JUMPDEST PUSH1 0x2 SLOAD DUP2 JUMP JUMPDEST PUSH0 DUP2 SUB PUSH2 0x87E JUMPI PUSH1 0x40 MLOAD PUSH32 0x1F2A200500000000000000000000000000000000000000000000000000000000 DUP2 MSTORE PUSH1 0x4 ADD PUSH1 0x40 MLOAD DUP1 SWAP2 SUB SWAP1 REVERT JUMPDEST PUSH2 0x886 PUSH2 0xB2D JUMP JUMPDEST PUSH32 0x0 PUSH20 0xFFFFFFFFFFFFFFFFFFFFFFFFFFFFFFFFFFFFFFFF AND PUSH4 0x23B872DD CALLER ADDRESS DUP5 PUSH1 0x40 MLOAD DUP5 PUSH4 0xFFFFFFFF AND PUSH1 0xE0 SHL DUP2 MSTORE PUSH1 0x4 ADD PUSH2 0x8E3 SWAP4 SWAP3 SWAP2 SWAP1 PUSH2 0xEC4 JUMP JUMPDEST PUSH1 0x20 PUSH1 0x40 MLOAD DUP1 DUP4 SUB DUP2 PUSH0 DUP8 GAS CALL ISZERO DUP1 ISZERO PUSH2 0x8FF JUMPI RETURNDATASIZE PUSH0 DUP1 RETURNDATACOPY RETURNDATASIZE PUSH0 REVERT JUMPDEST POP POP POP POP PUSH1 0x40 MLOAD RETURNDATASIZE PUSH1 0x1F NOT PUSH1 0x1F DUP3 ADD AND DUP3 ADD DUP1 PUSH1 0x40 MSTORE POP DUP2 ADD SWAP1 PUSH2 0x923 SWAP2 SWAP1 PUSH2 0xF2E JUMP JUMPDEST PUSH2 0x959 JUMPI PUSH1 0x40 MLOAD PUSH32 0x90B8EC1800000000000000000000000000000000000000000000000000000000 DUP2 MSTORE PUSH1 0x4 ADD PUSH1 0x40 MLOAD DUP1 SWAP2 SUB SWAP1 REVERT JUMPDEST PUSH0 DUP1 SLOAD SWAP1 POP PUSH0 DUP2 PUSH12 0x33B2E3C9FD0803CE8000000 DUP5 PUSH2 0x978 SWAP2 SWAP1 PUSH2 0xDC0 JUMP JUMPDEST PUSH2 0x982 SWAP2 SWAP1 PUSH2 0xE2E JUMP JUMPDEST SWAP1 POP DUP1 PUSH1 0x4 PUSH0 CALLER PUSH20 0xFFFFFFFFFFFFFFFFFFFFFFFFFFFFFFFFFFFFFFFF AND PUSH20 0xFFFFFFFFFFFFFFFFFFFFFFFFFFFFFFFFFFFFFFFF AND DUP2 MSTORE PUSH1 0x20 ADD SWAP1 DUP2 MSTORE PUSH1 0x20 ADD PUSH0 KECCAK256 PUSH0 DUP3 DUP3 SLOAD ADD SWAP3 POP POP DUP2 SWAP1 SSTORE POP DUP1 PUSH1 0x3 PUSH0 DUP3 DUP3 SLOAD ADD SWAP3 POP POP DUP2 SWAP1 SSTORE POP CALLER PUSH20 0xFFFFFFFFFFFFFFFFFFFFFFFFFFFFFFFFFFFFFFFF AND PUSH32 0x73A19DD210F1A7F902193214C0EE91DD35EE5B4D920CBA8D519ECA65A7B488CA DUP5 DUP4 PUSH1 0x40 MLOAD PUSH2 0xA25 SWAP3 SWAP2 SWAP1 PUSH2 0xF80 JUMP JUMPDEST PUSH1 0x40 MLOAD DUP1 SWAP2 SUB SWAP1 LOG2 POP POP POP JUMP JUMPDEST PUSH32 0x0 PUSH20 0xFFFFFFFFFFFFFFFFFFFFFFFFFFFFFFFFFFFFFFFF AND CALLER PUSH20 0xFFFFFFFFFFFFFFFFFFFFFFFFFFFFFFFFFFFFFFFF AND EQ PUSH2 0xAB7 JUMPI PUSH1 0x40 MLOAD PUSH32 0x7BFA4B9F00000000000000000000000000000000000000000000000000000000 DUP2 MSTORE PUSH1 0x4 ADD PUSH1 0x40 MLOAD DUP1 SWAP2 SUB SWAP1 REVERT JUMPDEST PUSH2 0xABF PUSH2 0xB2D JUMP JUMPDEST PUSH0 PUSH1 0x2 SLOAD SWAP1 POP DUP2 PUSH1 0x2 DUP2 SWAP1 SSTORE POP PUSH32 0xB38780DDDE1F073D91C150DE2696F3F7085883648BA21CC5EF01029CB21D1916 DUP2 DUP4 PUSH1 0x40 MLOAD PUSH2 0xAFD SWAP3 SWAP2 SWAP1 PUSH2 0xF80 JUMP JUMPDEST PUSH1 0x40 MLOAD DUP1 SWAP2 SUB SWAP1 LOG1 POP POP JUMP JUMPDEST PUSH32 0x0 DUP2 JUMP JUMPDEST PUSH0 TIMESTAMP SWAP1 POP PUSH0 PUSH1 0x1 SLOAD DUP3 PUSH2 0xB40 SWAP2 SWAP1 PUSH2 0xE5E JUMP JUMPDEST SWAP1 POP PUSH0 DUP2 SUB PUSH2 0xB50 JUMPI POP POP PUSH2 0xBE6 JUMP JUMPDEST PUSH0 DUP1 SLOAD SWAP1 POP PUSH0 PUSH12 0x33B2E3C9FD0803CE8000000 DUP4 PUSH1 0x2 SLOAD PUSH2 0xB71 SWAP2 SWAP1 PUSH2 0xDC0 JUMP JUMPDEST PUSH2 0xB7B SWAP2 SWAP1 PUSH2 0xE2E JUMP JUMPDEST SWAP1 POP PUSH0 DUP2 DUP4 PUSH2 0xB8A SWAP2 SWAP1 PUSH2 0xDC0 JUMP JUMPDEST SWAP1 POP DUP1 DUP4 PUSH2 0xB98 SWAP2 SWAP1 PUSH2 0xE91 JUMP JUMPDEST PUSH0 DUP2 SWAP1 SSTORE POP DUP5 PUSH1 0x1 DUP2 SWAP1 SSTORE POP PUSH32 0xE0C50B11A6CC6D75470F28BD76D20C8D223C626324486A273EEFADF6C6E973A7 PUSH0 SLOAD PUSH1 0x2 SLOAD PUSH1 0x40 MLOAD PUSH2 0xBD8 SWAP3 SWAP2 SWAP1 PUSH2 0xF80 JUMP JUMPDEST PUSH1 0x40 MLOAD DUP1 SWAP2 SUB SWAP1 LOG1 POP POP POP POP POP JUMPDEST JUMP JUMPDEST PUSH0 DUP2 SWAP1 POP SWAP2 SWAP1 POP JUMP JUMPDEST PUSH2 0xBFA DUP2 PUSH2 0xBE8 JUMP JUMPDEST DUP3 MSTORE POP POP JUMP JUMPDEST PUSH0 PUSH1 0x20 DUP3 ADD SWAP1 POP PUSH2 0xC13 PUSH0 DUP4 ADD DUP5 PUSH2 0xBF1 JUMP JUMPDEST SWAP3 SWAP2 POP POP JUMP JUMPDEST PUSH0 DUP1 REVERT JUMPDEST PUSH0 PUSH20 0xFFFFFFFFFFFFFFFFFFFFFFFFFFFFFFFFFFFFFFFF DUP3 AND SWAP1 POP SWAP2 SWAP1 POP JUMP JUMPDEST PUSH0 PUSH2 0xC46 DUP3 PUSH2 0xC1D JUMP JUMPDEST SWAP1 POP SWAP2 SWAP1 POP JUMP JUMPDEST PUSH2 0xC56 DUP2 PUSH2 0xC3C JUMP JUMPDEST DUP2 EQ PUSH2 0xC60 JUMPI PUSH0 DUP1 REVERT JUMPDEST POP JUMP JUMPDEST PUSH0 DUP2 CALLDATALOAD SWAP1 POP PUSH2 0xC71 DUP2 PUSH2 0xC4D JUMP JUMPDEST SWAP3 SWAP2 POP POP JUMP JUMPDEST PUSH0 PUSH1 0x20 DUP3 DUP5 SUB SLT ISZERO PUSH2 0xC8C JUMPI PUSH2 0xC8B PUSH2 0xC19 JUMP JUMPDEST JUMPDEST PUSH0 PUSH2 0xC99 DUP5 DUP3 DUP6 ADD PUSH2 0xC63 JUMP JUMPDEST SWAP2 POP POP SWAP3 SWAP2 POP POP JUMP JUMPDEST PUSH0 DUP2 SWAP1 POP SWAP2 SWAP1 POP JUMP JUMPDEST PUSH0 PUSH2 0xCC5 PUSH2 0xCC0 PUSH2 0xCBB DUP5 PUSH2 0xC1D JUMP JUMPDEST PUSH2 0xCA2 JUMP JUMPDEST PUSH2 0xC1D JUMP JUMPDEST SWAP1 POP SWAP2 SWAP1 POP JUMP JUMPDEST PUSH0 PUSH2 0xCD6 DUP3 PUSH2 0xCAB JUMP JUMPDEST SWAP1 POP SWAP2 SWAP1 POP JUMP JUMPDEST PUSH0 PUSH2 0xCE7 DUP3 PUSH2 0xCCC JUMP JUMPDEST SWAP1 POP SWAP2 SWAP1 POP JUMP JUMPDEST PUSH2 0xCF7 DUP2 PUSH2 0xCDD JUMP JUMPDEST DUP3 MSTORE POP POP JUMP JUMPDEST PUSH0 PUSH1 0x20 DUP3 ADD SWAP1 POP PUSH2 0xD10 PUSH0 DUP4 ADD DUP5 PUSH2 0xCEE JUMP JUMPDEST SWAP3 SWAP2 POP POP JUMP JUMPDEST PUSH2 0xD1F DUP2 PUSH2 0xBE8 JUMP JUMPDEST DUP2 EQ PUSH2 0xD29 JUMPI PUSH0 DUP1 REVERT JUMPDEST POP JUMP JUMPDEST PUSH0 DUP2 CALLDATALOAD SWAP1 POP PUSH2 0xD3A DUP2 PUSH2 0xD16 JUMP JUMPDEST SWAP3 SWAP2 POP POP JUMP JUMPDEST PUSH0 PUSH1 0x20 DUP3 DUP5 SUB SLT ISZERO PUSH2 0xD55 JUMPI PUSH2 0xD54 PUSH2 0xC19 JUMP JUMPDEST JUMPDEST PUSH0 PUSH2 0xD62 DUP5 DUP3 DUP6 ADD PUSH2 0xD2C JUMP JUMPDEST SWAP2 POP POP SWAP3 SWAP2 POP POP JUMP JUMPDEST PUSH2 0xD74 DUP2 PUSH2 0xC3C JUMP JUMPDEST DUP3 MSTORE POP POP JUMP JUMPDEST PUSH0 PUSH1 0x20 DUP3 ADD SWAP1 POP PUSH2 0xD8D PUSH0 DUP4 ADD DUP5 PUSH2 0xD6B JUMP JUMPDEST SWAP3 SWAP2 POP POP JUMP JUMPDEST PUSH32 0x4E487B7100000000000000000000000000000000000000000000000000000000 PUSH0 MSTORE PUSH1 0x11 PUSH1 0x4 MSTORE PUSH1 0x24 PUSH0 REVERT JUMPDEST PUSH0 PUSH2 0xDCA DUP3 PUSH2 0xBE8 JUMP JUMPDEST SWAP2 POP PUSH2 0xDD5 DUP4 PUSH2 0xBE8 JUMP JUMPDEST SWAP3 POP DUP3 DUP3 MUL PUSH2 0xDE3 DUP2 PUSH2 0xBE8 JUMP JUMPDEST SWAP2 POP DUP3 DUP3 DIV DUP5 EQ DUP4 ISZERO OR PUSH2 0xDFA JUMPI PUSH2 0xDF9 PUSH2 0xD93 JUMP JUMPDEST JUMPDEST POP SWAP3 SWAP2 POP POP JUMP JUMPDEST PUSH32 0x4E487B7100000000000000000000000000000000000000000000000000000000 PUSH0 MSTORE PUSH1 0x12 PUSH1 0x4 MSTORE PUSH1 0x24 PUSH0 REVERT JUMPDEST PUSH0 PUSH2 0xE38 DUP3 PUSH2 0xBE8 JUMP JUMPDEST SWAP2 POP PUSH2 0xE43 DUP4 PUSH2 0xBE8 JUMP JUMPDEST SWAP3 POP DUP3 PUSH2 0xE53 JUMPI PUSH2 0xE52 PUSH2 0xE01 JUMP JUMPDEST JUMPDEST DUP3 DUP3 DIV SWAP1 POP SWAP3 SWAP2 POP POP JUMP JUMPDEST PUSH0 PUSH2 0xE68 DUP3 PUSH2 0xBE8 JUMP JUMPDEST SWAP2 POP PUSH2 0xE73 DUP4 PUSH2 0xBE8 JUMP JUMPDEST SWAP3 POP DUP3 DUP3 SUB SWAP1 POP DUP2 DUP2 GT ISZERO PUSH2 0xE8B JUMPI PUSH2 0xE8A PUSH2 0xD93 JUMP JUMPDEST JUMPDEST SWAP3 SWAP2 POP POP JUMP JUMPDEST PUSH0 PUSH2 0xE9B DUP3 PUSH2 0xBE8 JUMP JUMPDEST SWAP2 POP PUSH2 0xEA6 DUP4 PUSH2 0xBE8 JUMP JUMPDEST SWAP3 POP DUP3 DUP3 ADD SWAP1 POP DUP1 DUP3 GT ISZERO PUSH2 0xEBE JUMPI PUSH2 0xEBD PUSH2 0xD93 JUMP JUMPDEST JUMPDEST SWAP3 SWAP2 POP POP JUMP JUMPDEST PUSH0 PUSH1 0x60 DUP3 ADD SWAP1 POP PUSH2 0xED7 PUSH0 DUP4 ADD DUP7 PUSH2 0xD6B JUMP JUMPDEST PUSH2 0xEE4 PUSH1 0x20 DUP4 ADD DUP6 PUSH2 0xD6B JUMP JUMPDEST PUSH2 0xEF1 PUSH1 0x40 DUP4 ADD DUP5 PUSH2 0xBF1 JUMP JUMPDEST SWAP5 SWAP4 POP POP POP POP JUMP JUMPDEST PUSH0 DUP2 ISZERO ISZERO SWAP1 POP SWAP2 SWAP1 POP JUMP JUMPDEST PUSH2 0xF0D DUP2 PUSH2 0xEF9 JUMP JUMPDEST DUP2 EQ PUSH2 0xF17 JUMPI PUSH0 DUP1 REVERT JUMPDEST POP JUMP JUMPDEST PUSH0 DUP2 MLOAD SWAP1 POP PUSH2 0xF28 DUP2 PUSH2 0xF04 JUMP JUMPDEST SWAP3 SWAP2 POP POP JUMP JUMPDEST PUSH0 PUSH1 0x20 DUP3 DUP5 SUB SLT ISZERO PUSH2 0xF43 JUMPI PUSH2 0xF42 PUSH2 0xC19 JUMP JUMPDEST JUMPDEST PUSH0 PUSH2 0xF50 DUP5 DUP3 DUP6 ADD PUSH2 0xF1A JUMP JUMPDEST SWAP2 POP POP SWAP3 SWAP2 POP POP JUMP JUMPDEST PUSH0 PUSH1 0x40 DUP3 ADD SWAP1 POP PUSH2 0xF6C PUSH0 DUP4 ADD DUP6 PUSH2 0xD6B JUMP JUMPDEST PUSH2 0xF79 PUSH1 0x20 DUP4 ADD DUP5 PUSH2 0xBF1 JUMP JUMPDEST SWAP4 SWAP3 POP POP POP JUMP JUMPDEST PUSH0 PUSH1 0x40 DUP3 ADD SWAP1 POP PUSH2 0xF93 PUSH0 DUP4 ADD DUP6 PUSH2 0xBF1 JUMP JUMPDEST PUSH2 0xFA0 PUSH1 0x20 DUP4 ADD DUP5 PUSH2 0xBF1 JUMP JUMPDEST SWAP4 SWAP3 POP POP POP JUMP INVALID LOG2 PUSH5 0x6970667358 0x22 SLT KECCAK256 NOT 0xAD CALLCODE 0xBD PUSH20 0x3A960047AD13C3F5FCC42DC9D78A7D73F0A99ED8 PUSH29 0x91CFD721722064736F6C634300081A0033000000000000000000000000 "
				},
				"gasEstimates": {
					"creation": {
						"codeDepositCost": "812200",
						"executionCost": "infinite",
						"totalCost": "infinite"
					},
					"external": {
						"accrue()": "infinite",
						"admin()": "infinite",
						"asset()": "infinite",
						"balanceOf(address)": "infinite",
						"deposit(uint256)": "infinite",
						"fundReserve(uint256)": "infinite",
						"index()": "2492",
						"lastAccrual()": "2470",
						"previewIndex()": "infinite",
						"ratePerSecond()": "2514",
						"scaledBalanceOf(address)": "2848",
						"setRatePerSecond(uint256)": "infinite",
						"totalAssets()": "infinite",
						"totalScaledSupply()": "2492",
						"withdrawAll()": "infinite"
					}
				},
				"methodIdentifiers": {
					"accrue()": "f8ba4cff",
					"admin()": "f851a440",
					"asset()": "38d52e0f",
					"balanceOf(address)": "70a08231",
					"deposit(uint256)": "b6b55f25",
					"fundReserve(uint256)": "75c54224",
					"index()": "2986c0e5",
					"lastAccrual()": "7b3baab4",
					"previewIndex()": "3a455bf3",
					"ratePerSecond()": "8eff1a98",
					"scaledBalanceOf(address)": "1da24f3e",
					"setRatePerSecond(uint256)": "e8fe76d5",
					"totalAssets()": "01e1d114",
					"totalScaledSupply()": "6f8b4530",
					"withdrawAll()": "853828b6"
				}
			},
			"storageLayout": {
				"storage": [
					{
						"astId": 49,
						"contract": "Day-03/code1.sol:SavingAccount",
						"label": "index",
						"offset": 0,
						"slot": "0",
						"type": "t_uint256"
					},
					{
						"astId": 51,
						"contract": "Day-03/code1.sol:SavingAccount",
						"label": "lastAccrual",
						"offset": 0,
						"slot": "1",
						"type": "t_uint256"
					},
					{
						"astId": 53,
						"contract": "Day-03/code1.sol:SavingAccount",
						"label": "ratePerSecond",
						"offset": 0,
						"slot": "2",
						"type": "t_uint256"
					},
					{
						"astId": 55,
						"contract": "Day-03/code1.sol:SavingAccount",
						"label": "totalScaledSupply",
						"offset": 0,
						"slot": "3",
						"type": "t_uint256"
					},
					{
						"astId": 59,
						"contract": "Day-03/code1.sol:SavingAccount",
						"label": "scaledBalanceOf",
						"offset": 0,
						"slot": "4",
						"type": "t_mapping(t_address,t_uint256)"
					}
				],
				"types": {
					"t_address": {
						"encoding": "inplace",
						"label": "address",
						"numberOfBytes": "20"
					},
					"t_mapping(t_address,t_uint256)": {
						"encoding": "mapping",
						"key": "t_address",
						"label": "mapping(address => uint256)",
						"numberOfBytes": "32",
						"value": "t_uint256"
					},
					"t_uint256": {
						"encoding": "inplace",
						"label": "uint256",
						"numberOfBytes": "32"
					}
				}
			},
			"userdoc": {
				"kind": "user",
				"methods": {},
				"version": 1
			}
		}
	}
}