{
	"data": {
		"bytecode": {
			"linkReferences": {},
			"object": "60c060405234801561000f575f80fd5b506040516111c13803806111c183398181016040528101906100319190610162565b8173ffffffffffffffffffffffffffffffffffffffff1660808173ffffffffffffffffffffffffffffffffffffffff16815250503373ffffffffffffffffffffffffffffffffffffffff1660a08173ffffffffffffffffffffffffffffffffffffffff16815250506b033b2e3c9fd0803ce80000005f81905550426001819055508060028190555050506101a0565b5f80fd5b5f73ffffffffffffffffffffffffffffffffffffffff82169050919050565b5f6100ed826100c4565b9050919050565b5f6100fe826100e3565b9050919050565b61010e816100f4565b8114610118575f80fd5b50565b5f8151905061012981610105565b92915050565b5f819050919050565b6101418161012f565b811461014b575f80fd5b50565b5f8151905061015c81610138565b92915050565b5f8060408385031215610178576101776100c0565b5b5f6101858582860161011b565b92505060206101968582860161014e565b9150509250929050565b60805160a051610fdd6101e45f395f818161043501528181610a340152610b0b01525f8181610302015281816104f30152818161071b01526108880152610fdd5ff3fe608060405234801561000f575f80fd5b50600436106100f3575f3560e01c806375c5422411610095578063b6b55f2511610064578063b6b55f251461024f578063e8fe76d51461026b578063f851a44014610287578063f8ba4cff146102a5576100f3565b806375c54224146101ed5780637b3baab414610209578063853828b6146102275780638eff1a9814610231576100f3565b806338d52e0f116100d157806338d52e0f146101635780633a455bf3146101815780636f8b45301461019f57806370a08231146101bd576100f3565b806301e1d114146100f75780631da24f3e146101155780632986c0e514610145575b5f80fd5b6100ff6102af565b60405161010c9190610c00565b60405180910390f35b61012f600480360381019061012a9190610c77565b6102e6565b60405161013c9190610c00565b60405180910390f35b61014d6102fb565b60405161015a9190610c00565b60405180910390f35b61016b610300565b6040516101789190610cfd565b60405180910390f35b610189610324565b6040516101969190610c00565b60405180910390f35b6101a76103a2565b6040516101b49190610c00565b60405180910390f35b6101d760048036038101906101d29190610c77565b6103a8565b6040516101e49190610c00565b60405180910390f35b61020760048036038101906102029190610d40565b610433565b005b610211610615565b60405161021e9190610c00565b60405180910390f35b61022f61061b565b005b61023961083f565b6040516102469190610c00565b60405180910390f35b61026960048036038101906102649190610d40565b610845565b005b61028560048036038101906102809190610d40565b610a32565b005b61028f610b09565b60405161029c9190610d7a565b60405180910390f35b6102ad610b2d565b005b5f806102b9610324565b90506b033b2e3c9fd0803ce8000000816003546102d69190610dc0565b6102e09190610e2e565b91505090565b6004602052805f5260405f205f915090505481565b5f5481565b7f000000000000000000000000000000000000000000000000000000000000000081565b5f804290505f600154826103389190610e5e565b90505f810361034c575f549250505061039f565b5f6b033b2e3c9fd0803ce8000000826002546103689190610dc0565b6103729190610e2e565b90506001815f546103839190610dc0565b61038d9190610e2e565b5f546103999190610e91565b93505050505b90565b60035481565b5f806103b2610324565b90505f60045f8573ffffffffffffffffffffffffffffffffffffffff1673ffffffffffffffffffffffffffffffffffffffff1681526020019081526020015f205490505f8103610406575f9250505061042e565b6b033b2e3c9fd0803ce8000000828261041f9190610dc0565b6104299190610e2e565b925050505b919050565b7f000000000000000000000000000000000000000000000000000000000000000073ffffffffffffffffffffffffffffffffffffffff163373ffffffffffffffffffffffffffffffffffffffff16146104b8576040517f7bfa4b9f00000000000000000000000000000000000000000000000000000000815260040160405180910390fd5b5f81036104f1576040517f1f2a200500000000000000000000000000000000000000000000000000000000815260040160405180910390fd5b7f000000000000000000000000000000000000000000000000000000000000000073ffffffffffffffffffffffffffffffffffffffff166323b872dd3330846040518463ffffffff1660e01b815260040161054e93929190610ec4565b6020604051808303815f875af115801561056a573d5f803e3d5ffd5b505050506040513d601f19601f8201168201806040525081019061058e9190610f2e565b6105c4576040517f90b8ec1800000000000000000000000000000000000000000000000000000000815260040160405180910390fd5b3373ffffffffffffffffffffffffffffffffffffffff167fb52b99b9e83551fcbd069b559cc3e823e2a1a3bad8ece46561ea77524394c8508260405161060a9190610c00565b60405180910390a250565b60015481565b610623610b2d565b5f60045f3373ffffffffffffffffffffffffffffffffffffffff1673ffffffffffffffffffffffffffffffffffffffff1681526020019081526020015f205490505f810361069d576040517ff4d678b800000000000000000000000000000000000000000000000000000000815260040160405180910390fd5b5f805490505f6b033b2e3c9fd0803ce800000082846106bc9190610dc0565b6106c69190610e2e565b90505f60045f3373ffffffffffffffffffffffffffffffffffffffff1673ffffffffffffffffffffffffffffffffffffffff1681526020019081526020015f20819055508260035f82825403925050819055507f000000000000000000000000000000000000000000000000000000000000000073ffffffffffffffffffffffffffffffffffffffff1663a9059cbb33836040518363ffffffff1660e01b8152600401610774929190610f59565b6020604051808303815f875af1158015610790573d5f803e3d5ffd5b505050506040513d601f19601f820116820180604052508101906107b49190610f2e565b6107ea576040517f90b8ec1800000000000000000000000000000000000000000000000000000000815260040160405180910390fd5b3373ffffffffffffffffffffffffffffffffffffffff167f92ccf450a286a957af52509bc1c9939d1a6a481783e142e41e2499f0bb66ebc68285604051610832929190610f80565b60405180910390a2505050565b60025481565b5f810361087e576040517f1f2a200500000000000000000000000000000000000000000000000000000000815260040160405180910390fd5b610886610b2d565b7f000000000000000000000000000000000000000000000000000000000000000073ffffffffffffffffffffffffffffffffffffffff166323b872dd3330846040518463ffffffff1660e01b81526004016108e393929190610ec4565b6020604051808303815f875af11580156108ff573d5f803e3d5ffd5b505050506040513d601f19601f820116820180604052508101906109239190610f2e565b610959576040517f90b8ec1800000000000000000000000000000000000000000000000000000000815260040160405180910390fd5b5f805490505f816b033b2e3c9fd0803ce8000000846109789190610dc0565b6109829190610e2e565b90508060045f3373ffffffffffffffffffffffffffffffffffffffff1673ffffffffffffffffffffffffffffffffffffffff1681526020019081526020015f205f82825401925050819055508060035f82825401925050819055503373ffffffffffffffffffffffffffffffffffffffff167f73a19dd210f1a7f902193214c0ee91dd35ee5b4d920cba8d519eca65a7b488ca8483604051610a25929190610f80565b60405180910390a2505050565b7f000000000000000000000000000000000000000000000000000000000000000073ffffffffffffffffffffffffffffffffffffffff163373ffffffffffffffffffffffffffffffffffffffff1614610ab7576040517f7bfa4b9f00000000000000000000000000000000000000000000000000000000815260040160405180910390fd5b610abf610b2d565b5f6002549050816002819055507fb38780ddde1f073d91c150de2696f3f7085883648ba21cc5ef01029cb21d19168183604051610afd929190610f80565b60405180910390a15050565b7f000000000000000000000000000000000000000000000000000000000000000081565b5f4290505f60015482610b409190610e5e565b90505f8103610b50575050610be6565b5f805490505f6b033b2e3c9fd0803ce800000083600254610b719190610dc0565b610b7b9190610e2e565b90505f8183610b8a9190610dc0565b90508083610b989190610e91565b5f81905550846001819055507fe0c50b11a6cc6d75470f28bd76d20c8d223c626324486a273eefadf6c6e973a75f54600254604051610bd8929190610f80565b60405180910390a150505050505b565b5f819050919050565b610bfa81610be8565b82525050565b5f602082019050610c135f830184610bf1565b92915050565b5f80fd5b5f73ffffffffffffffffffffffffffffffffffffffff82169050919050565b5f610c4682610c1d565b9050919050565b610c5681610c3c565b8114610c60575f80fd5b50565b5f81359050610c7181610c4d565b92915050565b5f60208284031215610c8c57610c8b610c19565b5b5f610c9984828501610c63565b91505092915050565b5f819050919050565b5f610cc5610cc0610cbb84610c1d565b610ca2565b610c1d565b9050919050565b5f610cd682610cab565b9050919050565b5f610ce782610ccc565b9050919050565b610cf781610cdd565b82525050565b5f602082019050610d105f830184610cee565b92915050565b610d1f81610be8565b8114610d29575f80fd5b50565b5f81359050610d3a81610d16565b92915050565b5f60208284031215610d5557610d54610c19565b5b5f610d6284828501610d2c565b91505092915050565b610d7481610c3c565b82525050565b5f602082019050610d8d5f830184610d6b565b92915050565b7f4e487b71000000000000000000000000000000000000000000000000000000005f52601160045260245ffd5b5f610dca82610be8565b9150610dd583610be8565b9250828202610de381610be8565b91508282048414831517610dfa57610df9610d93565b5b5092915050565b7f4e487b71000000000000000000000000000000000000000000000000000000005f52601260045260245ffd5b5f610e3882610be8565b9150610e4383610be8565b925082610e5357610e52610e01565b5b828204905092915050565b5f610e6882610be8565b9150610e7383610be8565b9250828203905081811115610e8b57610e8a610d93565b5b92915050565b5f610e9b82610be8565b9150610ea683610be8565b9250828201905080821115610ebe57610ebd610d93565b5b92915050565b5f606082019050610ed75f830186610d6b565b610ee46020830185610d6b565b610ef16040830184610bf1565b949350505050565b5f8115159050919050565b610f0d81610ef9565b8114610f17575f80fd5b50565b5f81519050610f2881610f04565b92915050565b5f60208284031215610f4357610f42610c19565b5b5f610f5084828501610f1a565b91505092915050565b5f604082019050610f6c5f830185610d6b565b610f796020830184610bf1565b9392505050565b5f604082019050610f935f830185610bf1565b610fa06020830184610bf1565b939250505056fea264697066735822122019adf2bd733a960047ad13c3f5fcc42dc9d78a7d73f0a99ed87c91cfd721722064736f6c634300081a0033",
			"opcodes": "PUSH1 0xC0 PUSH1 0x40 MSTORE CALLVALUE DUP1 ISZERO PUSH2 0xF JUMPI PUSH0 DUP1 REVERT JUMPDEST POP PUSH1 0x40 MLOAD PUSH2 0x11C1 CODESIZE SUB DUP1 PUSH2 0x11C1 DUP4 CODECOPY DUP2 DUP2 ADD PUSH1 0x40 MSTORE DUP2 ADD SWAP1 PUSH2 0x31 SWAP2 SWAP1 PUSH2 0x162 JUMP JUMPDEST DUP2 PUSH20 0xFFFFFFFFFFFFFFFFFFFFFFFFFFFFFFFFFFFFFFFF AND PUSH1 0x80 DUP2 PUSH20 0xFFFFFFFFFFFFFFFFFFFFFFFFFFFFFFFFFFFFFFFF AND DUP2 MSTORE POP POP CALLER PUSH20 0xFFFFFFFFFFFFFFFFFFFFFFFFFFFFFFFFFFFFFFFF AND PUSH1 0xA0 DUP2 PUSH20 0xFFFFFFFFFFFFFFFFFFFFFFFFFFFFFFFFFFFFFFFF AND DUP2 MSTORE POP POP PUSH12 0x33B2E3C9FD0803CE8000000 PUSH0 DUP2 SWAP1 SSTORE POP TIMESTAMP PUSH1 0x1 DUP2 SWAP1 SSTORE POP DUP1 PUSH1 0x2 DUP2 SWAP1 SSTORE POP POP POP PUSH2 0x1A0 JUMP JUMPDEST PUSH0 DUP1 REVERT JUMPDEST PUSH0 PUSH20 0xFFFFFFFFFFFFFFFFFFFFFFFFFFFFFFFFFFFFFFFF DUP3 AND SWAP1 POP SWAP2 SWAP1 POP JUMP JUMPDEST PUSH0 PUSH2 0xED DUP3 PUSH2 0xC4 JUMP JUMPDEST SWAP1 POP SWAP2 SWAP1 POP JUMP JUMPDEST PUSH0 PUSH2 0xFE DUP3 PUSH2 0xE3 JUMP JUMPDEST SWAP1 POP SWAP2 SWAP1 POP JUMP JUMPDEST PUSH2 0x10E DUP2 PUSH2 0xF4 JUMP JUMPDEST DUP2 EQ PUSH2 0x118 JUMPI PUSH0 DUP1 REVERT JUMPDEST POP JUMP JUMPDEST PUSH0 DUP2 MLOAD SWAP1 POP PUSH2 0x129 DUP2 PUSH2 0x105 JUMP JUMPDEST SWAP3 SWAP2 POP POP JUMP JUMPDEST PUSH0 DUP2 SWAP1 POP SWAP2 SWAP1 POP JUMP JUMPDEST PUSH2 0x141 DUP2 PUSH2 0x12F JUMP JUMPDEST DUP2 EQ PUSH2 0x14B JUMPI PUSH0 DUP1 REVERT JUMPDEST POP JUMP JUMPDEST PUSH0 DUP2 MLOAD SWAP1 POP PUSH2 0x15C DUP2 PUSH2 0x138 JUMP JUMPDEST SWAP3 SWAP2 POP POP JUMP JUMPDEST PUSH0 DUP1 PUSH1 0x40 DUP4 DUP6 SUB SLT ISZERO PUSH2 0x178 JUMPI PUSH2 0x177 PUSH2 0xC0 JUMP JUMPDEST JUMPDEST PUSH0 PUSH2 0x185 DUP6 DUP3 DUP7 ADD PUSH2 0x11B JUMP JUMPDEST SWAP3 POP POP PUSH1 0x20 PUSH2 0x196 DUP6 DUP3 DUP7 ADD PUSH2 0x14E JUMP JUMPDEST SWAP2 POP POP SWAP3 POP SWAP3 SWAP1 POP JUMP JUMPDEST PUSH1 0x80 MLOAD PUSH1 0xA0 MLOAD PUSH2 0xFDD PUSH2 0x1E4 PUSH0 CODECOPY PUSH0 DUP2 DUP2 PUSH2 0x435 ADD MSTORE DUP2 DUP2 PUSH2 0xA34 ADD MSTORE PUSH2 0xB0B ADD MSTORE PUSH0 DUP2 DUP2 PUSH2 0x302 ADD MSTORE DUP2 DUP2 PUSH2 0x4F3 ADD MSTORE DUP2 DUP2 PUSH2 0x71B ADD MSTORE PUSH2 0x888 ADD MSTORE PUSH2 0xFDD PUSH0 RETURN INVALID PUSH1 0x80 PUSH1 0x40 MSTORE CALLVALUE DUP1 ISZERO PUSH2 0xF JUMPI PUSH0 DUP1 REVERT JUMPDEST POP PUSH1 0x4 CALLDATASIZE LT PUSH2 0xF3 JUMPI PUSH0 CALLDATALOAD PUSH1 0xE0 SHR DUP1 PUSH4 0x75C54224 GT PUSH2 0x95 JUMPI DUP1 PUSH4 0xB6B55F25 GT PUSH2 0x64 JUMPI DUP1 PUSH4 0xB6B55F25 EQ PUSH2 0x24F JUMPI DUP1 PUSH4 0xE8FE76D5 EQ PUSH2 0x26B JUMPI DUP1 PUSH4 0xF851A440 EQ PUSH2 0x287 JUMPI DUP1 PUSH4 0xF8BA4CFF EQ PUSH2 0x2A5 JUMPI PUSH2 0xF3 JUMP JUMPDEST DUP1 PUSH4 0x75C54224 EQ PUSH2 0x1ED JUMPI DUP1 PUSH4 0x7B3BAAB4 EQ PUSH2 0x209 JUMPI DUP1 PUSH4 0x853828B6 EQ PUSH2 0x227 JUMPI DUP1 PUSH4 0x8EFF1A98 EQ PUSH2 0x231 JUMPI PUSH2 0xF3 JUMP JUMPDEST DUP1 PUSH4 0x38D52E0F GT PUSH2 0xD1 JUMPI DUP1 PUSH4 0x38D52E0F EQ PUSH2 0x163 JUMPI DUP1 PUSH4 0x3A455BF3 EQ PUSH2 0x181 JUMPI DUP1 PUSH4 0x6F8B4530 EQ PUSH2 0x19F JUMPI DUP1 PUSH4 0x70A08231 EQ PUSH2 0x1BD JUMPI PUSH2 0xF3 JUMP JUMPDEST DUP1 PUSH4 0x1E1D114 EQ PUSH2 0xF7 JUMPI DUP1 PUSH4 0x1DA24F3E EQ PUSH2 0x115 JUMPI DUP1 PUSH4 0x2986C0E5 EQ PUSH2 0x145 JUMPI JUMPDEST PUSH0 DUP1 REVERT JUMPDEST PUSH2 0xFF PUSH2 0x2AF JUMP JUMPDEST PUSH1 0x40 MLOAD PUSH2 0x10C SWAP2 SWAP1 PUSH2 0xC00 JUMP JUMPDEST PUSH1 0x40 MLOAD DUP1 SWAP2 SUB SWAP1 RETURN JUMPDEST PUSH2 0x12F PUSH1 0x4 DUP1 CALLDATASIZE SUB DUP2 ADD SWAP1 PUSH2 0x12A SWAP2 SWAP1 PUSH2 0xC77 JUMP JUMPDEST PUSH2 0x2E6 JUMP JUMPDEST PUSH1 0x40 MLOAD PUSH2 0x13C SWAP2 SWAP1 PUSH2 0xC00 JUMP JUMPDEST PUSH1 0x40 MLOAD DUP1 SWAP2 SUB SWAP1 RETURN JUMPDEST PUSH2 0x14D PUSH2 0x2FB JUMP JUMPDEST PUSH1 0x40 MLOAD PUSH2 0x15A SWAP2 SWAP1 PUSH2 0xC00 JUMP JUMPDEST PUSH1 0x40 MLOAD DUP1 SWAP2 SUB SWAP1 RETURN JUMPDEST PUSH2 0x16B PUSH2 0x300 JUMP JUMPDEST PUSH1 0x40 MLOAD PUSH2 0x178 SWAP2 SWAP1 PUSH2 0xCFD JUMP JUMPDEST PUSH1 0x40 MLOAD DUP1 SWAP2 SUB SWAP1 RETURN JUMPDEST PUSH2 0x189 PUSH2 0x324 JUMP JUMPDEST PUSH1 0x40 MLOAD PUSH2 0x196 SWAP2 SWAP1 PUSH2 0xC00 JUMP JUMPDEST PUSH1 0x40 MLOAD DUP1 SWAP2 SUB SWAP1 RETURN JUMPDEST PUSH2 0x1A7 PUSH2 0x3A2 JUMP JUMPDEST PUSH1 0x40 MLOAD PUSH2 0x1B4 SWAP2 SWAP1 PUSH2 0xC00 JUMP JUMPDEST PUSH1 0x40 MLOAD DUP1 SWAP2 SUB SWAP1 RETURN JUMPDEST PUSH2 0x1D7 PUSH1 0x4 DUP1 CALLDATASIZE SUB DUP2 ADD SWAP1 PUSH2 0x1D2 SWAP2 SWAP1 PUSH2 0xC77 JUMP JUMPDEST PUSH2 0x3A8 JUMP JUMPDEST PUSH1 0x40 MLOAD PUSH2 0x1E4 SWAP2 SWAP1 PUSH2 0xC00 JUMP JUMPDEST PUSH1 0x40 MLOAD DUP1 SWAP2 SUB SWAP1 RETURN JUMPDEST PUSH2 0x207 PUSH1 0x4 DUP1 CALLDATASIZE SUB DUP2 ADD SWAP1 PUSH2 0x202 SWAP2 SWAP1 PUSH2 0xD40 JUMP JUMPDEST PUSH2 0x433 JUMP JUMPDEST STOP JUMPDEST PUSH2 0x211 PUSH2 0x615 JUMP JUMPDEST PUSH1 0x40 MLOAD PUSH2 0x21E SWAP2 SWAP1 PUSH2 0xC00 JUMP JUMPDEST PUSH1 0x40 MLOAD DUP1 SWAP2 SUB SWAP1 RETURN JUMPDEST PUSH2 0x22F PUSH2 0x61B JUMP JUMPDEST STOP JUMPDEST PUSH2 0x239 PUSH2 0x83F JUMP JUMPDEST PUSH1 0x40 MLOAD PUSH2 0x246 SWAP2 SWAP1 PUSH2 0xC00 JUMP JUMPDEST PUSH1 0x40 MLOAD DUP1 SWAP2 SUB SWAP1 RETURN JUMPDEST PUSH2 0x269 PUSH1 0x4 DUP1 CALLDATASIZE SUB DUP2 ADD SWAP1 PUSH2 0x264 SWAP2 SWAP1 PUSH2 0xD40 JUMP JUMPDEST PUSH2 0x845 JUMP JUMPDEST STOP JUMPDEST PUSH2 0x285 PUSH1 0x4 DUP1 CALLDATASIZE SUB DUP2 ADD SWAP1 PUSH2 0x280 SWAP2 SWAP1 PUSH2 0xD40 JUMP JUMPDEST PUSH2 0xA32 JUMP JUMPDEST STOP JUMPDEST PUSH2 0x28F PUSH2 0xB09 JUMP JUMPDEST PUSH1 0x40 MLOAD PUSH2 0x29C SWAP2 SWAP1 PUSH2 0xD7A JUMP JUMPDEST PUSH1 0x40 MLOAD DUP1 SWAP2 SUB SWAP1 RETURN JUMPDEST PUSH2 0x2AD PUSH2 0xB2D JUMP JUMPDEST STOP JUMPDEST PUSH0 DUP1 PUSH2 0x2B9 PUSH2 0x324 JUMP JUMPDEST SWAP1 POP PUSH12 0x33B2E3C9FD0803CE8000000 DUP2 PUSH1 0x3 SLOAD PUSH2 0x2D6 SWAP2 SWAP1 PUSH2 0xDC0 JUMP JUMPDEST PUSH2 0x2E0 SWAP2 SWAP1 PUSH2 0xE2E JUMP JUMPDEST SWAP2 POP POP SWAP1 JUMP JUMPDEST PUSH1 0x4 PUSH1 0x20 MSTORE DUP1 PUSH0 MSTORE PUSH1 0x40 PUSH0 KECCAK256 PUSH0 SWAP2 POP SWAP1 POP SLOAD DUP2 JUMP JUMPDEST PUSH0 SLOAD DUP2 JUMP JUMPDEST PUSH32 0x0 DUP2 JUMP JUMPDEST PUSH0 DUP1 TIMESTAMP SWAP1 POP PUSH0 PUSH1 0x1 SLOAD DUP3 PUSH2 0x338 SWAP2 SWAP1 PUSH2 0xE5E JUMP JUMPDEST SWAP1 POP PUSH0 DUP2 SUB PUSH2 0x34C JUMPI PUSH0 SLOAD SWAP3 POP POP POP PUSH2 0x39F JUMP JUMPDEST PUSH0 PUSH12 0x33B2E3C9FD0803CE8000000 DUP3 PUSH1 0x2 SLOAD PUSH2 0x368 SWAP2 SWAP1 PUSH2 0xDC0 JUMP JUMPDEST PUSH2 0x372 SWAP2 SWAP1 PUSH2 0xE2E JUMP JUMPDEST SWAP1 POP PUSH1 0x1 DUP2 PUSH0 SLOAD PUSH2 0x383 SWAP2 SWAP1 PUSH2 0xDC0 JUMP JUMPDEST PUSH2 0x38D SWAP2 SWAP1 PUSH2 0xE2E JUMP JUMPDEST PUSH0 SLOAD PUSH2 0x399 SWAP2 SWAP1 PUSH2 0xE91 JUMP JUMPDEST SWAP4 POP POP POP POP JUMPDEST SWAP1 JUMP JUMPDEST PUSH1 0x3 SLOAD DUP2 JUMP JUMPDEST PUSH0 DUP1 PUSH2 0x3B2 PUSH2 0x324 JUMP JUMPDEST SWAP1 POP PUSH0 PUSH1 0x4 PUSH0 DUP6 PUSH20 0xFFFFFFFFFFFFFFFFFFFFFFFFFFFFFFFFFFFFFFFF AND PUSH20 0xFFFFFFFFFFFFFFFFFFFFFFFFFFFFFFFFFFFFFFFF AND DUP2 MSTORE PUSH1 0x20 ADD SWAP1 DUP2 MSTORE PUSH1 0x20 ADD PUSH0 KECCAK256 SLOAD SWAP1 POP PUSH0 DUP2 SUB PUSH2 0x406 JUMPI PUSH0 SWAP3 POP POP POP PUSH2 0x42E JUMP JUMPDEST PUSH12 0x33B2E3C9FD0803CE8000000 DUP3 DUP3 PUSH2 0x41F SWAP2 SWAP1 PUSH2 0xDC0 JUMP JUMPDEST PUSH2 0x429 SWAP2 SWAP1 PUSH2 0xE2E JUMP JUMPDEST SWAP3 POP POP POP JUMPDEST SWAP2 SWAP1 POP JUMP JUMPDEST PUSH32 0x0 PUSH20 0xFFFFFFFFFFFFFFFFFFFFFFFFFFFFFFFFFFFFFFFF AND CALLER PUSH20 0xFFFFFFFFFFFFFFFFFFFFFFFFFFFFFFFFFFFFFFFF AND EQ PUSH2 0x4B8 JUMPI PUSH1 0x40 MLOAD PUSH32 0x7BFA4B9F00000000000000000000000000000000000000000000000000000000 DUP2 MSTORE PUSH1 0x4 ADD PUSH1 0x40 MLOAD DUP1 SWAP2 SUB SWAP1 REVERT JUMPDEST PUSH0 DUP2 SUB PUSH2 0x4F1 JUMPI PUSH1 0x40 MLOAD PUSH32 0x1F2A200500000000000000000000000000000000000000000000000000000000 DUP2 MSTORE PUSH1 0x4 ADD PUSH1 0x40 MLOAD DUP1 SWAP2 SUB SWAP1 REVERT JUMPDEST PUSH32 0x0 PUSH20 0xFFFFFFFFFFFFFFFFFFFFFFFFFFFFFFFFFFFFFFFF AND PUSH4 0x23B872DD CALLER ADDRESS DUP5 PUSH1 0x40 MLOAD DUP5 PUSH4 0xFFFFFFFF AND PUSH1 0xE0 SHL DUP2 MSTORE PUSH1 0x4 ADD PUSH2 0x54E SWAP4 SWAP3 SWAP2 SWAP1 PUSH2 0xEC4 JUMP JUMPDEST PUSH1 0x20 PUSH1 0x40 MLOAD DUP1 DUP4 SUB DUP2 PUSH0 DUP8 GAS CALL ISZERO DUP1 ISZERO PUSH2 0x56A JUMPI RETURNDATASIZE PUSH0 DUP1 RETURNDATACOPY RETURNDATASIZE PUSH0 REVERT JUMPDEST POP POP POP POP PUSH1 0x40 MLOAD RETURNDATASIZE PUSH1 0x1F NOT PUSH1 0x1F DUP3 ADD AND DUP3 ADD DUP1 PUSH1 0x40 MSTORE POP DUP2 ADD SWAP1 PUSH2 0x58E SWAP2 SWAP1 PUSH2 0xF2E JUMP JUMPDEST PUSH2 0x5C4 JUMPI PUSH1 0x40 MLOAD PUSH32 0x90B8EC1800000000000000000000000000000000000000000000000000000000 DUP2 MSTORE PUSH1 0x4 ADD PUSH1 0x40 MLOAD DUP1 SWAP2 SUB SWAP1 REVERT JUMPDEST CALLER PUSH20 0xFFFFFFFFFFFFFFFFFFFFFFFFFFFFFFFFFFFFFFFF AND PUSH32 0xB52B99B9E83551FCBD069B559CC3E823E2A1A3BAD8ECE46561EA77524394C850 DUP3 PUSH1 0x40 MLOAD PUSH2 0x60A SWAP2 SWAP1 PUSH2 0xC00 JUMP JUMPDEST PUSH1 0x40 MLOAD DUP1 SWAP2 SUB SWAP1 LOG2 POP JUMP JUMPDEST PUSH1 0x1 SLOAD DUP2 JUMP JUMPDEST PUSH2 0x623 PUSH2 0xB2D JUMP JUMPDEST PUSH0 PUSH1 0x4 PUSH0 CALLER PUSH20 0xFFFFFFFFFFFFFFFFFFFFFFFFFFFFFFFFFFFFFFFF AND PUSH20 0xFFFFFFFFFFFFFFFFFFFFFFFFFFFFFFFFFFFFFFFF AND DUP2 MSTORE PUSH1 0x20 ADD SWAP1 DUP2 MSTORE PUSH1 0x20 ADD PUSH0 KECCAK256 SLOAD SWAP1 POP PUSH0 DUP2 SUB PUSH2 0x69D JUMPI PUSH1 0x40 MLOAD PUSH32 0xF4D678B800000000000000000000000000000000000000000000000000000000 DUP2 MSTORE PUSH1 0x4 ADD PUSH1 0x40 MLOAD DUP1 SWAP2 SUB SWAP1 REVERT JUMPDEST PUSH0 DUP1 SLOAD SWAP1 POP PUSH0 PUSH12 0x33B2E3C9FD0803CE8000000 DUP3 DUP5 PUSH2 0x6BC SWAP2 SWAP1 PUSH2 0xDC0 JUMP JUMPDEST PUSH2 0x6C6 SWAP2 SWAP1 PUSH2 0xE2E JUMP JUMPDEST SWAP1 POP PUSH0 PUSH1 0x4 PUSH0 CALLER PUSH20 0xFFFFFFFFFFFFFFFFFFFFFFFFFFFFFFFFFFFFFFFF AND PUSH20 0xFFFFFFFFFFFFFFFFFFFFFFFFFFFFFFFFFFFFFFFF AND DUP2 MSTORE PUSH1 0x20 ADD SWAP1 DUP2 MSTORE PUSH1 0x20 ADD PUSH0 KECCAK256 DUP2 SWAP1 SSTORE POP DUP3 PUSH1 0x3 PUSH0 DUP3 DUP3 SLOAD SUB SWAP3 POP POP DUP2 SWAP1 SSTORE POP PUSH32 0x0 PUSH20 0xFFFFFFFFFFFFFFFFFFFFFFFFFFFFFFFFFFFFFFFF AND PUSH4 0xA9059CBB CALLER DUP4 PUSH1 0x40 MLOAD DUP4 PUSH4 0xFFFFFFFF AND PUSH1 0xE0 SHL DUP2 MSTORE PUSH1 0x4 ADD PUSH2 0x774 SWAP3 SWAP2 SWAP1 PUSH2 0xF59 JUMP JUMPDEST PUSH1 0x20 PUSH1 0x40 MLOAD DUP1 DUP4 SUB DUP2 PUSH0 DUP8 GAS CALL ISZERO DUP1 ISZERO PUSH2 0x790 JUMPI RETURNDATASIZE PUSH0 DUP1 RETURNDATACOPY RETURNDATASIZE PUSH0 REVERT JUMPDEST POP POP POP POP PUSH1 0x40 MLOAD RETURNDATASIZE PUSH1 0x1F NOT PUSH1 0x1F DUP3 ADD AND DUP3 ADD DUP1 PUSH1 0x40 MSTORE POP DUP2 ADD SWAP1 PUSH2 0x7B4 SWAP2 SWAP1 PUSH2 0xF2E JUMP JUMPDEST PUSH2 0x7EA JUMPI PUSH1 0x40 MLOAD PUSH32 0x90B8EC1800000000000000000000000000000000000000000000000000000000 DUP2 MSTORE PUSH1 0x4 ADD PUSH1 0x40 MLOAD DUP1 SWAP2 SUB SWAP1 REVERT JUMPDEST CALLER PUSH20 0xFFFFFFFFFFFFFFFFFFFFFFFFFFFFFFFFFFFFFFFF AND PUSH32 0x92CCF450A286A957AF52509BC1C9939D1A6A481783E142E41E2499F0BB66EBC6 DUP3 DUP6 PUSH1 0x40 MLOAD PUSH2 0x832 SWAP3 SWAP2 SWAP1 PUSH2 0xF80 JUMP JUMPDEST PUSH1 0x40 MLOAD DUP1 SWAP2 SUB SWAP1 LOG2 POP POP POP JUMP JUMPDEST PUSH1 0x2 SLOAD DUP2 JUMP JUMPDEST PUSH0 DUP2 SUB PUSH2 0x87E JUMPI PUSH1 0x40 MLOAD PUSH32 0x1F2A200500000000000000000000000000000000000000000000000000000000 DUP2 MSTORE PUSH1 0x4 ADD PUSH1 0x40 MLOAD DUP1 SWAP2 SUB SWAP1 REVERT JUMPDEST PUSH2 0x886 PUSH2 0xB2D JUMP JUMPDEST PUSH32 0x0 PUSH20 0xFFFFFFFFFFFFFFFFFFFFFFFFFFFFFFFFFFFFFFFF AND PUSH4 0x23B872DD CALLER ADDRESS DUP5 PUSH1 0x40 MLOAD DUP5 PUSH4 0xFFFFFFFF AND PUSH1 0xE0 SHL DUP2 MSTORE PUSH1 0x4 ADD PUSH2 0x8E3 SWAP4 SWAP3 SWAP2 SWAP1 PUSH2 0xEC4 JUMP JUMPDEST PUSH1 0x20 PUSH1 0x40 MLOAD DUP1 DUP4 SUB DUP2 PUSH0 DUP8 GAS CALL ISZERO DUP1 ISZERO PUSH2 0x8FF JUMPI RETURNDATASIZE PUSH0 DUP1 RETURNDATACOPY RETURNDATASIZE PUSH0 REVERT JUMPDEST POP POP POP POP PUSH1 0x40 MLOAD RETURNDATASIZE PUSH1 0x1F NOT PUSH1 0x1F DUP3 ADD AND DUP3 ADD DUP1 PUSH1 0x40 MSTORE POP DUP2 ADD SWAP1 PUSH2 0x923 SWAP2 SWAP1 PUSH2 0xF2E JUMP JUMPDEST PUSH2 0x959 JUMPI PUSH1 0x40 MLOAD PUSH32 0x90B8EC1800000000000000000000000000000000000000000000000000000000 DUP2 MSTORE PUSH1 0x4 ADD PUSH1 0x40 MLOAD DUP1 SWAP2 SUB SWAP1 REVERT JUMPDEST PUSH0 DUP1 SLOAD SWAP1 POP PUSH0 DUP2 PUSH12 0x33B2E3C9FD0803CE8000000 DUP5 PUSH2 0x978 SWAP2 SWAP1 PUSH2 0xDC0 JUMP JUMPDEST PUSH2 0x982 SWAP2 SWAP1 PUSH2 0xE2E JUMP JUMPDEST SWAP1 POP DUP1 PUSH1 0x4 PUSH0 CALLER PUSH20 0xFFFFFFFFFFFFFFFFFFFFFFFFFFFFFFFFFFFFFFFF AND PUSH20 0xFFFFFFFFFFFFFFFFFFFFFFFFFFFFFFFFFFFFFFFF AND DUP2 MSTORE PUSH1 0x20 ADD SWAP1 DUP2 MSTORE PUSH1 0x20 ADD PUSH0 KECCAK256 PUSH0 DUP3 DUP3 SLOAD ADD SWAP3 POP POP DUP2 SWAP1 SSTORE POP DUP1 PUSH1 0x3 PUSH0 DUP3 DUP3 SLOAD ADD SWAP3 POP POP DUP2 SWAP1 SSTORE POP CALLER PUSH20 0xFFFFFFFFFFFFFFFFFFFFFFFFFFFFFFFFFFFFFFFF AND PUSH32 0x73A19DD210F1A7F902193214C0EE91DD35EE5B4D920CBA8D519ECA65A7B488CA DUP5 DUP4 PUSH1 0x40 MLOAD PUSH2 0xA25 SWAP3 SWAP2 SWAP1 PUSH2 0xF80 JUMP JUMPDEST PUSH1 0x40 MLOAD DUP1 SWAP2 SUB SWAP1 LOG2 POP POP POP JUMP JUMPDEST PUSH32 0x0 PUSH20 0xFFFFFFFFFFFFFFFFFFFFFFFFFFFFFFFFFFFFFFFF AND CALLER PUSH20 0xFFFFFFFFFFFFFFFFFFFFFFFFFFFFFFFFFFFFFFFF AND EQ PUSH2 0xAB7 JUMPI PUSH1 0x40 MLOAD PUSH32 0x7BFA4B9F00000000000000000000000000000000000000000000000000000000 DUP2 MSTORE PUSH1 0x4 ADD PUSH1 0x40 MLOAD DUP1 SWAP2 SUB SWAP1 REVERT JUMPDEST PUSH2 0xABF PUSH2 0xB2D JUMP JUMPDEST PUSH0 PUSH1 0x2 SLOAD SWAP1 POP DUP2 PUSH1 0x2 DUP2 SWAP1 SSTORE POP PUSH32 0xB38780DDDE1F073D91C150DE2696F3F7085883648BA21CC5EF01029CB21D1916 DUP2 DUP4 PUSH1 0x40 MLOAD PUSH2 0xAFD SWAP3 SWAP2 SWAP1 PUSH2 0xF80 JUMP JUMPDEST PUSH1 0x40 MLOAD DUP1 SWAP2 SUB SWAP1 LOG1 POP POP JUMP JUMPDEST PUSH32 0x0 DUP2 JUMP JUMPDEST PUSH0 TIMESTAMP SWAP1 POP PUSH0 PUSH1 0x1 SLOAD DUP3 PUSH2 0xB40 SWAP2 SWAP1 PUSH2 0xE5E JUMP JUMPDEST SWAP1 POP PUSH0 DUP2 SUB PUSH2 0xB50 JUMPI POP POP PUSH2 0xBE6 JUMP JUMPDEST PUSH0 DUP1 SLOAD SWAP1 POP PUSH0 PUSH12 0x33B2E3C9FD0803CE8000000 DUP4 PUSH1 0x2 SLOAD PUSH2 0xB71 SWAP2 SWAP1 PUSH2 0xDC0 JUMP JUMPDEST PUSH2 0xB7B SWAP2 SWAP1 PUSH2 0xE2E JUMP JUMPDEST SWAP1 POP PUSH0 DUP2 DUP4 PUSH2 0xB8A SWAP2 SWAP1 PUSH2 0xDC0 JUMP JUMPDEST SWAP1 POP DUP1 DUP4 PUSH2 0xB98 SWAP2 SWAP1 PUSH2 0xE91 JUMP JUMPDEST PUSH0 DUP2 SWAP1 SSTORE POP DUP5 PUSH1 0x1 DUP2 SWAP1 SSTORE POP PUSH32 0xE0C50B11A6CC6D75470F28BD76D20C8D223C626324486A273EEFADF6C6E973A7 PUSH0 SLOAD PUSH1 0x2 SLOAD PUSH1 0x40 MLOAD PUSH2 0xBD8 SWAP3 SWAP2 SWAP1 PUSH2 0xF80 JUMP JUMPDEST PUSH1 0x40 MLOAD DUP1 SWAP2 SUB SWAP1 LOG1 POP POP POP POP POP JUMPDEST JUMP JUMPDEST PUSH0 DUP2 SWAP1 POP SWAP2 SWAP1 POP JUMP JUMPDEST PUSH2 0xBFA DUP2 PUSH2 0xBE8 JUMP JUMPDEST DUP3 MSTORE POP POP JUMP JUMPDEST PUSH0 PUSH1 0x20 DUP3 ADD SWAP1 POP PUSH2 0xC13 PUSH0 DUP4 ADD DUP5 PUSH2 0xBF1 JUMP JUMPDEST SWAP3 SWAP2 POP POP JUMP JUMPDEST PUSH0 DUP1 REVERT JUMPDEST PUSH0 PUSH20 0xFFFFFFFFFFFFFFFFFFFFFFFFFFFFFFFFFFFFFFFF DUP3 AND SWAP1 POP SWAP2 SWAP1 POP JUMP JUMPDEST PUSH0 PUSH2 0xC46 DUP3 PUSH2 0xC1D JUMP JUMPDEST SWAP1 POP SWAP2 SWAP1 POP JUMP JUMPDEST PUSH2 0xC56 DUP2 PUSH2 0xC3C JUMP JUMPDEST DUP2 EQ PUSH2 0xC60 JUMPI PUSH0 DUP1 REVERT JUMPDEST POP JUMP JUMPDEST PUSH0 DUP2 CALLDATALOAD SWAP1 POP PUSH2 0xC71 DUP2 PUSH2 0xC4D JUMP JUMPDEST SWAP3 SWAP2 POP POP JUMP JUMPDEST PUSH0 PUSH1 0x20 DUP3 DUP5 SUB SLT ISZERO PUSH2 0xC8C JUMPI PUSH2 0xC8B PUSH2 0xC19 JUMP JUMPDEST JUMPDEST PUSH0 PUSH2 0xC99 DUP5 DUP3 DUP6 ADD PUSH2 0xC63 JUMP JUMPDEST SWAP2 POP POP SWAP3 SWAP2 POP POP JUMP JUMPDEST PUSH0 DUP2 SWAP1 POP SWAP2 SWAP1 POP JUMP JUMPDEST PUSH0 PUSH2 0xCC5 PUSH2 0xCC0 PUSH2 0xCBB DUP5 PUSH2 0xC1D JUMP JUMPDEST PUSH2 0xCA2 JUMP JUMPDEST PUSH2 0xC1D JUMP JUMPDEST SWAP1 POP SWAP2 SWAP1 POP JUMP JUMPDEST PUSH0 PUSH2 0xCD6 DUP3 PUSH2 0xCAB JUMP JUMPDEST SWAP1 POP SWAP2 SWAP1 POP JUMP JUMPDEST PUSH0 PUSH2 0xCE7 DUP3 PUSH2 0xCCC JUMP JUMPDEST SWAP1 POP SWAP2 SWAP1 POP JUMP JUMPDEST PUSH2 0xCF7 DUP2 PUSH2 0xCDD JUMP JUMPDEST DUP3 MSTORE POP POP JUMP JUMPDEST PUSH0 PUSH1 0x20 DUP3 ADD SWAP1 POP PUSH2 0xD10 PUSH0 DUP4 ADD DUP5 PUSH2 0xCEE JUMP JUMPDEST SWAP3 SWAP2 POP POP JUMP JUMPDEST PUSH2 0xD1F DUP2 PUSH2 0xBE8 JUMP JUMPDEST DUP2 EQ PUSH2 0xD29 JUMPI PUSH0 DUP1 REVERT JUMPDEST POP JUMP JUMPDEST PUSH0 DUP2 CALLDATALOAD SWAP1 POP PUSH2 0xD3A DUP2 PUSH2 0xD16 JUMP JUMPDEST SWAP3 SWAP2 POP POP JUMP JUMPDEST PUSH0 PUSH1 0x20 DUP3 DUP5 SUB SLT ISZERO PUSH2 0xD55 JUMPI PUSH2 0xD54 PUSH2 0xC19 JUMP JUMPDEST JUMPDEST PUSH0 PUSH2 0xD62 DUP5 DUP3 DUP6 ADD PUSH2 0xD2C JUMP JUMPDEST SWAP2 POP POP SWAP3 SWAP2 POP POP JUMP JUMPDEST PUSH2 0xD74 DUP2 PUSH2 0xC3C JUMP JUMPDEST DUP3 MSTORE POP POP JUMP JUMPDEST PUSH0 PUSH1 0x20 DUP3 ADD SWAP1 POP PUSH2 0xD8D PUSH0 DUP4 ADD DUP5 PUSH2 0xD6B JUMP JUMPDEST SWAP3 SWAP2 POP POP JUMP JUMPDEST PUSH32 0x4E487B7100000000000000000000000000000000000000000000000000000000 PUSH0 MSTORE PUSH1 0x11 PUSH1 0x4 MSTORE PUSH1 0x24 PUSH0 REVERT JUMPDEST PUSH0 PUSH2 0xDCA DUP3 PUSH2 0xBE8 JUMP JUMPDEST SWAP2 POP PUSH2 0xDD5 DUP4 PUSH2 0xBE8 JUMP JUMPDEST SWAP3 POP DUP3 DUP3 MUL PUSH2 0xDE3 DUP2 PUSH2 0xBE8 JUMP JUMPDEST SWAP2 POP DUP3 DUP3 DIV DUP5 EQ DUP4 ISZERO OR PUSH2 0xDFA JUMPI PUSH2 0xDF9 PUSH2 0xD93 JUMP JUMPDEST JUMPDEST POP SWAP3 SWAP2 POP POP JUMP JUMPDEST PUSH32 0x4E487B7100000000000000000000000000000000000000000000000000000000 PUSH0 MSTORE PUSH1 0x12 PUSH1 0x4 MSTORE PUSH1 0x24 PUSH0 REVERT JUMPDEST PUSH0 PUSH2 0xE38 DUP3 PUSH2 0xBE8 JUMP JUMPDEST SWAP2 POP PUSH2 0xE43 DUP4 PUSH2 0xBE8 JUMP JUMPDEST SWAP3 POP DUP3 PUSH2 0xE53 JUMPI PUSH2 0xE52 PUSH2 0xE01 JUMP JUMPDEST JUMPDEST DUP3 DUP3 DIV SWAP1 POP SWAP3 SWAP2 POP POP JUMP JUMPDEST PUSH0 PUSH2 0xE68 DUP3 PUSH2 0xBE8 JUMP JUMPDEST SWAP2 POP PUSH2 0xE73 DUP4 PUSH2 0xBE8 JUMP JUMPDEST SWAP3 POP DUP3 DUP3 SUB SWAP1 POP DUP2 DUP2 GT ISZERO PUSH2 0xE8B JUMPI PUSH2 0xE8A PUSH2 0xD93 JUMP JUMPDEST JUMPDEST SWAP3 SWAP2 POP POP JUMP JUMPDEST PUSH0 PUSH2 0xE9B DUP3 PUSH2 0xBE8 JUMP JUMPDEST SWAP2 POP PUSH2 0xEA6 DUP4 PUSH2 0xBE8 JUMP JUMPDEST SWAP3 POP DUP3 DUP3 ADD SWAP1 POP DUP1 DUP3 GT ISZERO PUSH2 0xEBE JUMPI PUSH2 0xEBD PUSH2 0xD93 JUMP JUMPDEST JUMPDEST SWAP3 SWAP2 POP POP JUMP JUMPDEST PUSH0 PUSH1 0x60 DUP3 ADD SWAP1 POP PUSH2 0xED7 PUSH0 DUP4 ADD DUP7 PUSH2 0xD6B JUMP JUMPDEST PUSH2 0xEE4 PUSH1 0x20 DUP4 ADD DUP6 PUSH2 0xD6B JUMP JUMPDEST PUSH2 0xEF1 PUSH1 0x40 DUP4 ADD DUP5 PUSH2 0xBF1 JUMP JUMPDEST SWAP5 SWAP4 POP POP POP POP JUMP JUMPDEST PUSH0 DUP2 ISZERO ISZERO SWAP1 POP SWAP2 SWAP1 POP JUMP JUMPDEST PUSH2 0xF0D DUP2 PUSH2 0xEF9 JUMP JUMPDEST DUP2 EQ PUSH2 0xF17 JUMPI PUSH0 DUP1 REVERT JUMPDEST POP JUMP JUMPDEST PUSH0 DUP2 MLOAD SWAP1 POP PUSH2 0xF28 DUP2 PUSH2 0xF04 JUMP JUMPDEST SWAP3 SWAP2 POP POP JUMP JUMPDEST PUSH0 PUSH1 0x20 DUP3 DUP5 SUB SLT ISZERO PUSH2 0xF43 JUMPI PUSH2 0xF42 PUSH2 0xC19 JUMP JUMPDEST JUMPDEST PUSH0 PUSH2 0xF50 DUP5 DUP3 DUP6 ADD PUSH2 0xF1A JUMP JUMPDEST SWAP2 POP POP SWAP3 SWAP2 POP POP JUMP JUMPDEST PUSH0 PUSH1 0x40 DUP3 ADD SWAP1 POP PUSH2 0xF6C PUSH0 DUP4 ADD DUP6 PUSH2 0xD6B JUMP JUMPDEST PUSH2 0xF79 PUSH1 0x20 DUP4 ADD DUP5 PUSH2 0xBF1 JUMP JUMPDEST SWAP4 SWAP3 POP POP POP JUMP JUMPDEST PUSH0 PUSH1 0x40 DUP3 ADD SWAP1 POP PUSH2 0xF93 PUSH0 DUP4 ADD DUP6 PUSH2 0xBF1 JUMP JUMPDEST PUSH2 0xFA0 PUSH1 0x20 DUP4 ADD DUP5 PUSH2 0xBF1 JUMP JUMPDEST SWAP4 SWAP3 POP POP POP JUMP INVALID LOG2 PUSH5 0x6970667358 0x22 SLT KECCAK256 NOT 0xAD CALLCODE 0xBD PUSH20 0x3A960047AD13C3F5FCC42DC9D78A7D73F0A99ED8 PUSH29 0x91CFD721722064736F6C634300081A0033000000000000000000000000 "
		},
		"gasEstimates": {
			"creation": {
				"codeDepositCost": "812200",
				"executionCost": "infinite",
				"totalCost": "infinite"
			},
			"external": {
				"accrue()": "infinite",
				"admin()": "infinite",
				"asset()": "infinite",
				"balanceOf(address)": "infinite",
				"deposit(uint256)": "infinite",
				"fundReserve(uint256)": "infinite",
				"index()": "2492",
				"lastAccrual()": "2470",
				"previewIndex()": "infinite",
				"ratePerSecond()": "2514",
				"scaledBalanceOf(address)": "2848",
				"setRatePerSecond(uint256)": "infinite",
				"totalAssets()": "infinite",
				"totalScaledSupply()": "2492",
				"withdrawAll()": "infinite"
			}
		},
		"methodIdentifiers": {
			"accrue()": "f8ba4cff",
			"admin()": "f851a440",
			"asset()": "38d52e0f",
			"balanceOf(address)": "70a08231",
			"deposit(uint256)": "b6b55f25",
			"fundReserve(uint256)": "75c54224",
			"index()": "2986c0e5",
			"lastAccrual()": "7b3baab4",
			"previewIndex()": "3a455bf3",
			"ratePerSecond()": "8eff1a98",
			"scaledBalanceOf(address)": "1da24f3e",
			"setRatePerSecond(uint256)": "e8fe76d5",
			"totalAssets()": "01e1d114",
			"totalScaledSupply()": "6f8b4530",
			"withdrawAll()": "853828b6"
		}
	},
	"abi": [
		{
			"inputs": [
				{
					"internalType": "contract IERC20",
					"name": "_asset",
					"type": "address"
				},
				{
					"internalType": "uint256",
					"name": "_ratePerSecond",
					"type": "uint256"
				}
			],
			"stateMutability": "nonpayable",
			"type": "constructor"
		},
		{
			"inputs": [],
			"name": "InsufficientBalance",
			"type": "error"
		},
		{
			"inputs": [],
			"name": "NotAdmin",
			"type": "error"
		},
		{
			"inputs": [],
			"name": "TransferFailed",
			"type": "error"
		},
		{
			"inputs": [],
			"name": "ZeroAmount",
			"type": "error"
		},
		{
			"anonymous": false,
			"inputs": [
				{
					"indexed": false,
					"internalType": "uint256",
					"name": "newIndex",
					"type": "uint256"
				},
				{
					"indexed": false,
					"internalType": "uint256",
					"name": "ratePerSecond",
					"type": "uint256"
				}
			],
			"name": "Accrued",
			"type": "event"
		},
		{
			"anonymous": false,
			"inputs": [
				{
					"indexed": true,
					"internalType": "address",
					"name": "user",
					"type": "address"
				},
				{
					"indexed": false,
					"internalType": "uint256",
					"name": "amount",
					"type": "uint256"
				},
				{
					"indexed": false,
					"internalType": "uint256",
					"name": "scaledAdded",
					"type": "uint256"
				}
			],
			"name": "Deposited",
			"type": "event"
		},
		{
			"anonymous": false,
			"inputs": [
				{
					"indexed": false,
					"internalType": "uint256",
					"name": "oldRate",
					"type": "uint256"
				},
				{
					"indexed": false,
					"internalType": "uint256",
					"name": "newRate",
					"type": "uint256"
				}
			],
			"name": "RateUpdated",
			"type": "event"
		},
		{
			"anonymous": false,
			"inputs": [
				{
					"indexed": true,
					"internalType": "address",
					"name": "from",
					"type": "address"
				},
				{
					"indexed": false,
					"internalType": "uint256",
					"name": "amount",
					"type": "uint256"
				}
			],
			"name": "ReserveFunded",
			"type": "event"
		},
		{
			"anonymous": false,
			"inputs": [
				{
					"indexed": true,
					"internalType": "address",
					"name": "user",
					"type": "address"
				},
				{
					"indexed": false,
					"internalType": "uint256",
					"name": "amount",
					"type": "uint256"
				},
				{
					"indexed": false,
					"internalType": "uint256",
					"name": "scaledRemoved",
					"type": "uint256"
				}
			],
			"name": "Withdrawn",
			"type": "event"
		},
		{
			"inputs": [],
			"name": "accrue",
			"outputs": [],
			"stateMutability": "nonpayable",
			"type": "function"
		},
		{
			"inputs": [],
			"name": "admin",
			"outputs": [
				{
					"internalType": "address",
					"name": "",
					"type": "address"
				}
			],
			"stateMutability": "view",
			"type": "function"
		},
		{
			"inputs": [],
			"name": "asset",
			"outputs": [
				{
					"internalType": "contract IERC20",
					"name": "",
					"type": "address"
				}
			],
			"stateMutability": "view",
			"type": "function"
		},
		{
			"inputs": [
				{
					"internalType": "address",
					"name": "user",
					"type": "address"
				}
			],
			"name": "balanceOf",
			"outputs": [
				{
					"internalType": "uint256",
					"name": "",
					"type": "uint256"
				}
			],
			"stateMutability": "view",
			"type": "function"
		},
		{
			"inputs": [
				{
					"internalType": "uint256",
					"name": "amount",
					"type": "uint256"
				}
			],
			"name": "deposit",
			"outputs": [],
			"stateMutability": "nonpayable",
			"type": "function"
		},
		{
			"inputs": [
				{
					"internalType": "uint256",
					"name": "amount",
					"type": "uint256"
				}
			],
			"name": "fundReserve",
			"outputs": [],
			"stateMutability": "nonpayable",
			"type": "function"
		},
		{
			"inputs": [],
			"name": "index",
			"outputs": [
				{
					"internalType": "uint256",
					"name": "",
					"type": "uint256"
				}
			],
			"stateMutability": "view",
			"type": "function"
		},
		{
			"inputs": [],
			"name": "lastAccrual",
			"outputs": [
				{
					"internalType": "uint256",
					"name": "",
					"type": "uint256"
				}
			],
			"stateMutability": "view",
			"type": "function"
		},
		{
			"inputs": [],
			"name": "previewIndex",
			"outputs": [
				{
					"internalType": "uint256",
					"name": "",
					"type": "uint256"
				}
			],
			"stateMutability": "view",
			"type": "function"
		},
		{
			"inputs": [],
			"name": "ratePerSecond",
			"outputs": [
				{
					"internalType": "uint256",
					"name": "",
					"type": "uint256"
				}
			],
			"stateMutability": "view",
			"type": "function"
		},
		{
			"inputs": [
				{
					"internalType": "address",
					"name": "",
					"type": "address"
				}
			],
			"name": "scaledBalanceOf",
			"outputs": [
				{
					"internalType": "uint256",
					"name": "",
					"type": "uint256"
				}
			],
			"stateMutability": "view",
			"type": "function"
		},
		{
			"inputs": [
				{
					"internalType": "uint256",
					"name": "newRatePerSecond",
					"type": "uint256"
				}
			],
			"name": "setRatePerSecond",
			"outputs": [],
			"stateMutability": "nonpayable",
			"type": "function"
		},
		{
			"inputs": [],
			"name": "totalAssets",
			"outputs": [
				{
					"internalType": "uint256",
					"name": "",
					"type": "uint256"
				}
			],
			"stateMutability": "view",
			"type": "function"
		},
		{
			"inputs": [],
			"name": "totalScaledSupply",
			"outputs": [
				{
					"internalType": "uint256",
					"name": "",
					"type": "uint256"
				}
			],
			"stateMutability": "view",
			"type": "function"
		},
		{
			"inputs": [],
			"name": "withdrawAll",
			"outputs": [],
			"stateMutability": "nonpayable",
			"type": "function"
		}
	]
}